{
  "contracts/GameStateManager.sol": {
    "GameStateManager": {
      "abi": [
        {
          "inputs": [],
          "stateMutability": "nonpayable",
          "type": "constructor"
        },
        {
          "anonymous": false,
          "inputs": [
            {
              "indexed": false,
              "internalType": "uint256",
              "name": "itemId",
              "type": "uint256"
            },
            {
              "indexed": false,
              "internalType": "string",
              "name": "itemName",
              "type": "string"
            }
          ],
          "name": "ItemAddedToStore",
          "type": "event"
        },
        {
          "anonymous": false,
          "inputs": [
            {
              "indexed": true,
              "internalType": "address",
              "name": "playerAddress",
              "type": "address"
            },
            {
              "indexed": false,
              "internalType": "uint256",
              "name": "itemId",
              "type": "uint256"
            }
          ],
          "name": "ItemPurchased",
          "type": "event"
        },
        {
          "anonymous": false,
          "inputs": [
            {
              "indexed": true,
              "internalType": "uint256",
              "name": "mobId",
              "type": "uint256"
            },
            {
              "indexed": false,
              "internalType": "string",
              "name": "name",
              "type": "string"
            },
            {
              "indexed": false,
              "internalType": "enum GameStateManager.EnemyType",
              "name": "enemyType",
              "type": "uint8"
            },
            {
              "indexed": false,
              "internalType": "uint256",
              "name": "health",
              "type": "uint256"
            },
            {
              "indexed": false,
              "internalType": "uint256",
              "name": "attack",
              "type": "uint256"
            },
            {
              "indexed": false,
              "internalType": "uint256",
              "name": "coinsDropped",
              "type": "uint256"
            },
            {
              "indexed": false,
              "internalType": "uint256",
              "name": "expDropped",
              "type": "uint256"
            }
          ],
          "name": "MobCreated",
          "type": "event"
        },
        {
          "anonymous": false,
          "inputs": [
            {
              "indexed": true,
              "internalType": "address",
              "name": "playerAddress",
              "type": "address"
            },
            {
              "indexed": false,
              "internalType": "uint256",
              "name": "initialStage",
              "type": "uint256"
            },
            {
              "indexed": false,
              "internalType": "uint256",
              "name": "initialLevel",
              "type": "uint256"
            },
            {
              "indexed": false,
              "internalType": "uint256",
              "name": "initialHealth",
              "type": "uint256"
            }
          ],
          "name": "PlayerCreated",
          "type": "event"
        },
        {
          "anonymous": false,
          "inputs": [
            {
              "indexed": true,
              "internalType": "address",
              "name": "playerAddress",
              "type": "address"
            },
            {
              "indexed": false,
              "internalType": "uint256",
              "name": "newHealth",
              "type": "uint256"
            }
          ],
          "name": "PlayerHealthUpdated",
          "type": "event"
        },
        {
          "anonymous": false,
          "inputs": [
            {
              "indexed": true,
              "internalType": "address",
              "name": "playerAddress",
              "type": "address"
            },
            {
              "indexed": false,
              "internalType": "uint256",
              "name": "newLevel",
              "type": "uint256"
            }
          ],
          "name": "PlayerLeveledUp",
          "type": "event"
        },
        {
          "anonymous": false,
          "inputs": [
            {
              "indexed": true,
              "internalType": "address",
              "name": "playerAddresses",
              "type": "address"
            },
            {
              "indexed": false,
              "internalType": "uint256",
              "name": "newStage",
              "type": "uint256"
            }
          ],
          "name": "PlayerStageCleared",
          "type": "event"
        },
        {
          "inputs": [
            {
              "internalType": "uint256",
              "name": "_exp",
              "type": "uint256"
            }
          ],
          "name": "addExperience",
          "outputs": [],
          "stateMutability": "nonpayable",
          "type": "function"
        },
        {
          "inputs": [],
          "name": "createBoss",
          "outputs": [
            {
              "internalType": "uint256",
              "name": "",
              "type": "uint256"
            }
          ],
          "stateMutability": "nonpayable",
          "type": "function"
        },
        {
          "inputs": [],
          "name": "createGoblin",
          "outputs": [
            {
              "internalType": "uint256",
              "name": "",
              "type": "uint256"
            }
          ],
          "stateMutability": "nonpayable",
          "type": "function"
        },
        {
          "inputs": [],
          "name": "createPlayer",
          "outputs": [],
          "stateMutability": "nonpayable",
          "type": "function"
        },
        {
          "inputs": [],
          "name": "createSlime",
          "outputs": [
            {
              "internalType": "uint256",
              "name": "",
              "type": "uint256"
            }
          ],
          "stateMutability": "nonpayable",
          "type": "function"
        },
        {
          "inputs": [],
          "name": "gameState",
          "outputs": [
            {
              "internalType": "uint256",
              "name": "totalPlayers",
              "type": "uint256"
            }
          ],
          "stateMutability": "view",
          "type": "function"
        },
        {
          "inputs": [],
          "name": "getAllStoreItems",
          "outputs": [
            {
              "components": [
                {
                  "internalType": "uint256",
                  "name": "id",
                  "type": "uint256"
                },
                {
                  "internalType": "string",
                  "name": "name",
                  "type": "string"
                },
                {
                  "internalType": "string",
                  "name": "description",
                  "type": "string"
                },
                {
                  "internalType": "uint256",
                  "name": "price",
                  "type": "uint256"
                },
                {
                  "internalType": "string",
                  "name": "image",
                  "type": "string"
                },
                {
                  "internalType": "bool",
                  "name": "exists",
                  "type": "bool"
                }
              ],
              "internalType": "struct GameStateManager.Item[]",
              "name": "",
              "type": "tuple[]"
            }
          ],
          "stateMutability": "view",
          "type": "function"
        },
        {
          "inputs": [],
          "name": "getGameState",
          "outputs": [
            {
              "components": [
                {
                  "internalType": "uint256",
                  "name": "totalPlayers",
                  "type": "uint256"
                }
              ],
              "internalType": "struct GameStateManager.GameState",
              "name": "",
              "type": "tuple"
            }
          ],
          "stateMutability": "view",
          "type": "function"
        },
        {
          "inputs": [
            {
              "internalType": "uint256",
              "name": "_mobId",
              "type": "uint256"
            }
          ],
          "name": "getMob",
          "outputs": [
            {
              "components": [
                {
                  "internalType": "uint256",
                  "name": "id",
                  "type": "uint256"
                },
                {
                  "internalType": "string",
                  "name": "name",
                  "type": "string"
                },
                {
                  "internalType": "enum GameStateManager.EnemyType",
                  "name": "enemyType",
                  "type": "uint8"
                },
                {
                  "internalType": "uint256",
                  "name": "health",
                  "type": "uint256"
                },
                {
                  "internalType": "uint256",
                  "name": "attack",
                  "type": "uint256"
                },
                {
                  "internalType": "uint256",
                  "name": "coinsDropped",
                  "type": "uint256"
                },
                {
                  "internalType": "uint256",
                  "name": "expDropped",
                  "type": "uint256"
                },
                {
                  "internalType": "bool",
                  "name": "exists",
                  "type": "bool"
                },
                {
                  "internalType": "bool",
                  "name": "isDead",
                  "type": "bool"
                }
              ],
              "internalType": "struct GameStateManager.Mob",
              "name": "",
              "type": "tuple"
            }
          ],
          "stateMutability": "view",
          "type": "function"
        },
        {
          "inputs": [],
          "name": "getPlayerCoins",
          "outputs": [
            {
              "internalType": "uint256",
              "name": "",
              "type": "uint256"
            }
          ],
          "stateMutability": "view",
          "type": "function"
        },
        {
          "inputs": [],
          "name": "getPlayerInfo",
          "outputs": [
            {
              "components": [
                {
                  "internalType": "uint256",
                  "name": "stage",
                  "type": "uint256"
                },
                {
                  "internalType": "uint256",
                  "name": "level",
                  "type": "uint256"
                },
                {
                  "internalType": "uint256",
                  "name": "experience",
                  "type": "uint256"
                },
                {
                  "internalType": "uint256",
                  "name": "health",
                  "type": "uint256"
                },
                {
                  "internalType": "uint256",
                  "name": "coins",
                  "type": "uint256"
                },
                {
                  "internalType": "uint256",
                  "name": "createdAt",
                  "type": "uint256"
                },
                {
                  "internalType": "bool",
                  "name": "exists",
                  "type": "bool"
                }
              ],
              "internalType": "struct GameStateManager.Player",
              "name": "",
              "type": "tuple"
            }
          ],
          "stateMutability": "view",
          "type": "function"
        },
        {
          "inputs": [
            {
              "internalType": "address",
              "name": "_playerAddress",
              "type": "address"
            }
          ],
          "name": "getPlayerItems",
          "outputs": [
            {
              "internalType": "uint256[]",
              "name": "",
              "type": "uint256[]"
            }
          ],
          "stateMutability": "view",
          "type": "function"
        },
        {
          "inputs": [
            {
              "internalType": "uint256",
              "name": "_itemId",
              "type": "uint256"
            }
          ],
          "name": "getStoreItem",
          "outputs": [
            {
              "components": [
                {
                  "internalType": "uint256",
                  "name": "id",
                  "type": "uint256"
                },
                {
                  "internalType": "string",
                  "name": "name",
                  "type": "string"
                },
                {
                  "internalType": "string",
                  "name": "description",
                  "type": "string"
                },
                {
                  "internalType": "uint256",
                  "name": "price",
                  "type": "uint256"
                },
                {
                  "internalType": "string",
                  "name": "image",
                  "type": "string"
                },
                {
                  "internalType": "bool",
                  "name": "exists",
                  "type": "bool"
                }
              ],
              "internalType": "struct GameStateManager.Item",
              "name": "",
              "type": "tuple"
            }
          ],
          "stateMutability": "view",
          "type": "function"
        },
        {
          "inputs": [],
          "name": "itemCount",
          "outputs": [
            {
              "internalType": "uint256",
              "name": "",
              "type": "uint256"
            }
          ],
          "stateMutability": "view",
          "type": "function"
        },
        {
          "inputs": [
            {
              "internalType": "uint256",
              "name": "_mobId",
              "type": "uint256"
            }
          ],
          "name": "killMob",
          "outputs": [],
          "stateMutability": "nonpayable",
          "type": "function"
        },
        {
          "inputs": [],
          "name": "levelUp",
          "outputs": [],
          "stateMutability": "nonpayable",
          "type": "function"
        },
        {
          "inputs": [],
          "name": "mobCount",
          "outputs": [
            {
              "internalType": "uint256",
              "name": "",
              "type": "uint256"
            }
          ],
          "stateMutability": "view",
          "type": "function"
        },
        {
          "inputs": [
            {
              "internalType": "uint256",
              "name": "",
              "type": "uint256"
            }
          ],
          "name": "mobs",
          "outputs": [
            {
              "internalType": "uint256",
              "name": "id",
              "type": "uint256"
            },
            {
              "internalType": "string",
              "name": "name",
              "type": "string"
            },
            {
              "internalType": "enum GameStateManager.EnemyType",
              "name": "enemyType",
              "type": "uint8"
            },
            {
              "internalType": "uint256",
              "name": "health",
              "type": "uint256"
            },
            {
              "internalType": "uint256",
              "name": "attack",
              "type": "uint256"
            },
            {
              "internalType": "uint256",
              "name": "coinsDropped",
              "type": "uint256"
            },
            {
              "internalType": "uint256",
              "name": "expDropped",
              "type": "uint256"
            },
            {
              "internalType": "bool",
              "name": "exists",
              "type": "bool"
            },
            {
              "internalType": "bool",
              "name": "isDead",
              "type": "bool"
            }
          ],
          "stateMutability": "view",
          "type": "function"
        },
        {
          "inputs": [
            {
              "internalType": "uint256",
              "name": "",
              "type": "uint256"
            }
          ],
          "name": "playerAddresses",
          "outputs": [
            {
              "internalType": "address",
              "name": "",
              "type": "address"
            }
          ],
          "stateMutability": "view",
          "type": "function"
        },
        {
          "inputs": [
            {
              "internalType": "address",
              "name": "",
              "type": "address"
            },
            {
              "internalType": "uint256",
              "name": "",
              "type": "uint256"
            }
          ],
          "name": "playerItems",
          "outputs": [
            {
              "internalType": "uint256",
              "name": "",
              "type": "uint256"
            }
          ],
          "stateMutability": "view",
          "type": "function"
        },
        {
          "inputs": [
            {
              "internalType": "address",
              "name": "",
              "type": "address"
            }
          ],
          "name": "players",
          "outputs": [
            {
              "internalType": "uint256",
              "name": "stage",
              "type": "uint256"
            },
            {
              "internalType": "uint256",
              "name": "level",
              "type": "uint256"
            },
            {
              "internalType": "uint256",
              "name": "experience",
              "type": "uint256"
            },
            {
              "internalType": "uint256",
              "name": "health",
              "type": "uint256"
            },
            {
              "internalType": "uint256",
              "name": "coins",
              "type": "uint256"
            },
            {
              "internalType": "uint256",
              "name": "createdAt",
              "type": "uint256"
            },
            {
              "internalType": "bool",
              "name": "exists",
              "type": "bool"
            }
          ],
          "stateMutability": "view",
          "type": "function"
        },
        {
          "inputs": [
            {
              "internalType": "uint256",
              "name": "_itemId",
              "type": "uint256"
            }
          ],
          "name": "purchaseItem",
          "outputs": [],
          "stateMutability": "nonpayable",
          "type": "function"
        },
        {
          "inputs": [],
          "name": "stageCleared",
          "outputs": [],
          "stateMutability": "nonpayable",
          "type": "function"
        },
        {
          "inputs": [
            {
              "internalType": "uint256",
              "name": "",
              "type": "uint256"
            }
          ],
          "name": "storeItems",
          "outputs": [
            {
              "internalType": "uint256",
              "name": "id",
              "type": "uint256"
            },
            {
              "internalType": "string",
              "name": "name",
              "type": "string"
            },
            {
              "internalType": "string",
              "name": "description",
              "type": "string"
            },
            {
              "internalType": "uint256",
              "name": "price",
              "type": "uint256"
            },
            {
              "internalType": "string",
              "name": "image",
              "type": "string"
            },
            {
              "internalType": "bool",
              "name": "exists",
              "type": "bool"
            }
          ],
          "stateMutability": "view",
          "type": "function"
        },
        {
          "inputs": [
            {
              "internalType": "uint256",
              "name": "_newHealth",
              "type": "uint256"
            }
          ],
          "name": "updateHealth",
          "outputs": [],
          "stateMutability": "nonpayable",
          "type": "function"
        }
      ],
      "evm": {
        "bytecode": {
          "linkReferences": {},
          "object": "608060405234801561001057600080fd5b506040518060200160405280600081525060008082015181600001559050506100c660016040518060400160405280600e81526020017f457468657265756d2053776f72640000000000000000000000000000000000008152506040518060600160405280602e81526020016146bf602e913960646040518060400160405280600e81526020017f2f6574682d73776f72642e706e670000000000000000000000000000000000008152506103f860201b60201c565b61015d60026040518060400160405280600e81526020017f426974636f696e20536869656c640000000000000000000000000000000000008152506040518060600160405280602981526020016147126029913960966040518060400160405280600f81526020017f2f6274632d736869656c642e706e6700000000000000000000000000000000008152506103f860201b60201c565b6101f460036040518060400160405280600f81526020017f436861696e6c696e6b20426f6f747300000000000000000000000000000000008152506040518060600160405280602d815260200161473b602d9139600a6040518060400160405280600f81526020017f2f6c696e6b2d626f6f74732e706e6700000000000000000000000000000000008152506103f860201b60201c565b6102a860046040518060400160405280600e81526020017f506f6c6b61646f742041726d6f720000000000000000000000000000000000008152506040518060400160405280602081526020017f41726d6f72207468617420636f6e6e6563747320616e642070726f746563747381525060c86040518060400160405280600e81526020017f2f646f742d61726d6f722e706e670000000000000000000000000000000000008152506103f860201b60201c565b61035c60056040518060400160405280600b81526020017f43617264616e6f20426f770000000000000000000000000000000000000000008152506040518060400160405280601a81526020017f41207072656369736520616e6420706f77657266756c20626f7700000000000081525060786040518060400160405280600c81526020017f2f6164612d626f772e706e6700000000000000000000000000000000000000008152506103f860201b60201c565b6103f360066040518060400160405280600c81526020017f536f6c616e6120436c6f616b00000000000000000000000000000000000000008152506040518060600160405280602581526020016146ed6025913960506040518060400160405280600e81526020017f2f736f6c2d636c6f616b2e706e670000000000000000000000000000000000008152506103f860201b60201c565b610a39565b6005600086815260200190815260200160002060050160009054906101000a900460ff161561045c576040517f08c379a0000000000000000000000000000000000000000000000000000000008152600401610453906105cd565b60405180910390fd5b6040518060c0016040528086815260200185815260200184815260200183815260200182815260200160011515815250600560008781526020019081526020016000206000820151816000015560208201518160010190816104be919061083d565b5060408201518160020190816104d4919061083d565b506060820151816003015560808201518160040190816104f4919061083d565b5060a08201518160050160006101000a81548160ff0219169083151502179055509050506006600081548092919061052b9061093e565b91905055507fdf23d688f8641641c72272cec9726d4c8db91ac0d0f47017f795b8bb53a445368585604051610561929190610a09565b60405180910390a15050505050565b600082825260208201905092915050565b7f4974656d20494420616c72656164792065786973747300000000000000000000600082015250565b60006105b7601683610570565b91506105c282610581565b602082019050919050565b600060208201905081810360008301526105e6816105aa565b9050919050565b600081519050919050565b7f4e487b7100000000000000000000000000000000000000000000000000000000600052604160045260246000fd5b7f4e487b7100000000000000000000000000000000000000000000000000000000600052602260045260246000fd5b6000600282049050600182168061066e57607f821691505b60208210810361068157610680610627565b5b50919050565b60008190508160005260206000209050919050565b60006020601f8301049050919050565b600082821b905092915050565b6000600883026106e97fffffffffffffffffffffffffffffffffffffffffffffffffffffffffffffffff826106ac565b6106f386836106ac565b95508019841693508086168417925050509392505050565b6000819050919050565b6000819050919050565b600061073a6107356107308461070b565b610715565b61070b565b9050919050565b6000819050919050565b6107548361071f565b61076861076082610741565b8484546106b9565b825550505050565b600090565b61077d610770565b61078881848461074b565b505050565b5b818110156107ac576107a1600082610775565b60018101905061078e565b5050565b601f8211156107f1576107c281610687565b6107cb8461069c565b810160208510156107da578190505b6107ee6107e68561069c565b83018261078d565b50505b505050565b600082821c905092915050565b6000610814600019846008026107f6565b1980831691505092915050565b600061082d8383610803565b9150826002028217905092915050565b610846826105ed565b67ffffffffffffffff81111561085f5761085e6105f8565b5b6108698254610656565b6108748282856107b0565b600060209050601f8311600181146108a75760008415610895578287015190505b61089f8582610821565b865550610907565b601f1984166108b586610687565b60005b828110156108dd578489015182556001820191506020850194506020810190506108b8565b868310156108fa57848901516108f6601f891682610803565b8355505b6001600288020188555050505b505050505050565b7f4e487b7100000000000000000000000000000000000000000000000000000000600052601160045260246000fd5b60006109498261070b565b91507fffffffffffffffffffffffffffffffffffffffffffffffffffffffffffffffff820361097b5761097a61090f565b5b600182019050919050565b61098f8161070b565b82525050565b60005b838110156109b3578082015181840152602081019050610998565b60008484015250505050565b6000601f19601f8301169050919050565b60006109db826105ed565b6109e58185610570565b93506109f5818560208601610995565b6109fe816109bf565b840191505092915050565b6000604082019050610a1e6000830185610986565b8181036020830152610a3081846109d0565b90509392505050565b613c7780610a486000396000f3fe608060405234801561001057600080fd5b50600436106101735760003560e01c8063b7d0628b116100de578063d1df81df11610097578063d933a54011610071578063d933a5401461041b578063da4711b414610439578063e2eb41ff14610471578063ec8474e6146104a757610173565b8063d1df81df146103c3578063d1f9c24d146103e1578063d38ea5bf146103ff57610173565b8063b7d0628b146102ed578063ba816ac71461030b578063bc8ccc451461033b578063c37c355514610359578063c64118f514610375578063c6fb11b8146103a557610173565b80636bfb0d01116101305780636bfb0d011461022b5780637a7e4d81146102495780638d0b7269146102655780639976d22014610283578063b11f127b1461029f578063b4b5e6a9146102bd57610173565b806315c6aee2146101785780633fa9fcf8146101a857806343f2cdb2146101b25780634ea1ecf9146101e75780635bbee18c146101f15780636b6846ac14610221575b600080fd5b610192600480360381019061018d9190612684565b6104c5565b60405161019f91906126f2565b60405180910390f35b6101b0610504565b005b6101cc60048036038101906101c79190612684565b610740565b6040516101de969594939291906127c7565b60405180910390f35b6101ef610921565b005b61020b60048036038101906102069190612684565b610ae4565b60405161021891906129e1565b60405180910390f35b610229610caa565b005b610233610e25565b6040516102409190612a03565b60405180910390f35b610263600480360381019061025e9190612684565b610e2b565b005b61026d610f76565b60405161027a9190612a03565b60405180910390f35b61029d60048036038101906102989190612684565b611144565b005b6102a76112b1565b6040516102b49190612a03565b60405180910390f35b6102d760048036038101906102d29190612684565b61147e565b6040516102e49190612ab5565b60405180910390f35b6102f56116f3565b6040516103029190612af3565b60405180910390f35b61032560048036038101906103209190612b3a565b611717565b6040516103329190612a03565b60405180910390f35b610343611748565b6040516103509190612a03565b60405180910390f35b610373600480360381019061036e9190612684565b611792565b005b61038f600480360381019061038a9190612b7a565b61191f565b60405161039c9190612c56565b60405180910390f35b6103ad611a47565b6040516103ba9190612a03565b60405180910390f35b6103cb611c15565b6040516103d89190612d06565b60405180910390f35b6103e9611d52565b6040516103f69190612a03565b60405180910390f35b61041960048036038101906104149190612684565b611d5e565b005b6104236120df565b6040516104309190612a03565b60405180910390f35b610453600480360381019061044e9190612684565b6120e5565b60405161046899989796959493929190612d30565b60405180910390f35b61048b60048036038101906104869190612b7a565b6121e2565b60405161049e9796959493929190612dc4565b60405180910390f35b6104af612231565b6040516104bc9190612f8c565b60405180910390f35b600281815481106104d557600080fd5b906000526020600020016000915054906101000a900473ffffffffffffffffffffffffffffffffffffffff1681565b600160003373ffffffffffffffffffffffffffffffffffffffff1673ffffffffffffffffffffffffffffffffffffffff16815260200190815260200160002060060160009054906101000a900460ff1615610594576040517f08c379a000000000000000000000000000000000000000000000000000000000815260040161058b90612ffa565b60405180910390fd5b6040518060e00160405280600181526020016001815260200160008152602001606481526020016000815260200142815260200160011515815250600160003373ffffffffffffffffffffffffffffffffffffffff1673ffffffffffffffffffffffffffffffffffffffff168152602001908152602001600020600082015181600001556020820151816001015560408201518160020155606082015181600301556080820151816004015560a0820151816005015560c08201518160060160006101000a81548160ff02191690831515021790555090505060008001600081548092919061068290613049565b91905055506002339080600181540180825580915050600190039060005260206000200160009091909190916101000a81548173ffffffffffffffffffffffffffffffffffffffff021916908373ffffffffffffffffffffffffffffffffffffffff1602179055503373ffffffffffffffffffffffffffffffffffffffff167fdbd350b0fedfda470deaaf32f91e1578f2e0a1eca99a0f2c8435b6595dcfd294600180606460405161073693929190613111565b60405180910390a2565b600560205280600052604060002060009150905080600001549080600101805461076990613177565b80601f016020809104026020016040519081016040528092919081815260200182805461079590613177565b80156107e25780601f106107b7576101008083540402835291602001916107e2565b820191906000526020600020905b8154815290600101906020018083116107c557829003601f168201915b5050505050908060020180546107f790613177565b80601f016020809104026020016040519081016040528092919081815260200182805461082390613177565b80156108705780601f1061084557610100808354040283529160200191610870565b820191906000526020600020905b81548152906001019060200180831161085357829003601f168201915b50505050509080600301549080600401805461088b90613177565b80601f01602080910402602001604051908101604052809291908181526020018280546108b790613177565b80156109045780601f106108d957610100808354040283529160200191610904565b820191906000526020600020905b8154815290600101906020018083116108e757829003601f168201915b5050505050908060050160009054906101000a900460ff16905086565b33600160008273ffffffffffffffffffffffffffffffffffffffff1673ffffffffffffffffffffffffffffffffffffffff16815260200190815260200160002060060160009054906101000a900460ff166109b1576040517f08c379a00000000000000000000000000000000000000000000000000000000081526004016109a8906131f4565b60405180910390fd5b600160003373ffffffffffffffffffffffffffffffffffffffff1673ffffffffffffffffffffffffffffffffffffffff1681526020019081526020016000206001016000815480929190610a0490613049565b91905055506064600160003373ffffffffffffffffffffffffffffffffffffffff1673ffffffffffffffffffffffffffffffffffffffff168152602001908152602001600020600301819055503373ffffffffffffffffffffffffffffffffffffffff167f85223984c4720843b1b5aa66f09162e4d7494973839e9c8dbea375c91978d4f4600160003373ffffffffffffffffffffffffffffffffffffffff1673ffffffffffffffffffffffffffffffffffffffff16815260200190815260200160002060010154604051610ad99190612a03565b60405180910390a250565b610aec61255d565b6003600083815260200190815260200160002060070160009054906101000a900460ff16610b4f576040517f08c379a0000000000000000000000000000000000000000000000000000000008152600401610b4690613260565b60405180910390fd5b600360008381526020019081526020016000206040518061012001604052908160008201548152602001600182018054610b8890613177565b80601f0160208091040260200160405190810160405280929190818152602001828054610bb490613177565b8015610c015780601f10610bd657610100808354040283529160200191610c01565b820191906000526020600020905b815481529060010190602001808311610be457829003601f168201915b505050505081526020016002820160009054906101000a900460ff166002811115610c2f57610c2e612896565b5b6002811115610c4157610c40612896565b5b8152602001600382015481526020016004820154815260200160058201548152602001600682015481526020016007820160009054906101000a900460ff161515151581526020016007820160019054906101000a900460ff1615151515815250509050919050565b33600160008273ffffffffffffffffffffffffffffffffffffffff1673ffffffffffffffffffffffffffffffffffffffff16815260200190815260200160002060060160009054906101000a900460ff16610d3a576040517f08c379a0000000000000000000000000000000000000000000000000000000008152600401610d31906131f4565b60405180910390fd5b600160003373ffffffffffffffffffffffffffffffffffffffff1673ffffffffffffffffffffffffffffffffffffffff1681526020019081526020016000206000016000815480929190610d8d90613049565b91905055503373ffffffffffffffffffffffffffffffffffffffff167fb90e2e9522b348da704b6ce77abde64428da1f2907a1706fb8d82cf83447e316600160003373ffffffffffffffffffffffffffffffffffffffff1673ffffffffffffffffffffffffffffffffffffffff16815260200190815260200160002060000154604051610e1a9190612a03565b60405180910390a250565b60065481565b6003600082815260200190815260200160002060070160009054906101000a900460ff16610e8e576040517f08c379a0000000000000000000000000000000000000000000000000000000008152600401610e8590613260565b60405180910390fd5b6003600082815260200190815260200160002060070160019054906101000a900460ff1615610ef2576040517f08c379a0000000000000000000000000000000000000000000000000000000008152600401610ee9906132cc565b60405180910390fd5b60016003600083815260200190815260200160002060070160016101000a81548160ff0219169083151502179055506003600082815260200190815260200160002060070160019054906101000a900460ff1615610f7357610f53816124e5565b610f726003600083815260200190815260200160002060060154611792565b5b50565b600060046000815480929190610f8b90613049565b919050555060405180610120016040528060045481526020016040518060400160405280600681526020017f676f626c696e0000000000000000000000000000000000000000000000000000815250815260200160016002811115610ff357610ff2612896565b5b8152602001601e8152602001600f815260200160148152602001603c81526020016001151581526020016000151581525060036000600454815260200190815260200160002060008201518160000155602082015181600101908161105891906134bd565b5060408201518160020160006101000a81548160ff0219169083600281111561108457611083612896565b5b0217905550606082015181600301556080820151816004015560a0820151816005015560c0820151816006015560e08201518160070160006101000a81548160ff0219169083151502179055506101008201518160070160016101000a81548160ff0219169083151502179055509050506004547f9d349582ad64820490413cddcb008bb423a05fa7b839d10bf64452ad77be447b6001601e600f6014603c6040516111349594939291906136c7565b60405180910390a2600454905090565b33600160008273ffffffffffffffffffffffffffffffffffffffff1673ffffffffffffffffffffffffffffffffffffffff16815260200190815260200160002060060160009054906101000a900460ff166111d4576040517f08c379a00000000000000000000000000000000000000000000000000000000081526004016111cb906131f4565b60405180910390fd5b6064821115611218576040517f08c379a000000000000000000000000000000000000000000000000000000000815260040161120f90613779565b60405180910390fd5b81600160003373ffffffffffffffffffffffffffffffffffffffff1673ffffffffffffffffffffffffffffffffffffffff168152602001908152602001600020600301819055503373ffffffffffffffffffffffffffffffffffffffff167f19a6c61462d6e1c7792cca1474187abbdfd347d8e3917fe14b8c3b9c3c020a99836040516112a59190612a03565b60405180910390a25050565b6000600460008154809291906112c690613049565b919050555060405180610120016040528060045481526020016040518060400160405280600481526020017f626f737300000000000000000000000000000000000000000000000000000000815250815260200160028081111561132d5761132c612896565b5b8152602001606481526020016019815260200160648152602001609681526020016001151581526020016000151581525060036000600454815260200190815260200160002060008201518160000155602082015181600101908161139291906134bd565b5060408201518160020160006101000a81548160ff021916908360028111156113be576113bd612896565b5b0217905550606082015181600301556080820151816004015560a0820151816005015560c0820151816006015560e08201518160070160006101000a81548160ff0219169083151502179055506101008201518160070160016101000a81548160ff0219169083151502179055509050506004547f9d349582ad64820490413cddcb008bb423a05fa7b839d10bf64452ad77be447b6002606460196064609660405161146e95949392919061385b565b60405180910390a2600454905090565b6114866125bf565b6005600083815260200190815260200160002060050160009054906101000a900460ff166114e9576040517f08c379a00000000000000000000000000000000000000000000000000000000081526004016114e09061390d565b60405180910390fd5b600560008381526020019081526020016000206040518060c00160405290816000820154815260200160018201805461152190613177565b80601f016020809104026020016040519081016040528092919081815260200182805461154d90613177565b801561159a5780601f1061156f5761010080835404028352916020019161159a565b820191906000526020600020905b81548152906001019060200180831161157d57829003601f168201915b505050505081526020016002820180546115b390613177565b80601f01602080910402602001604051908101604052809291908181526020018280546115df90613177565b801561162c5780601f106116015761010080835404028352916020019161162c565b820191906000526020600020905b81548152906001019060200180831161160f57829003601f168201915b505050505081526020016003820154815260200160048201805461164f90613177565b80601f016020809104026020016040519081016040528092919081815260200182805461167b90613177565b80156116c85780601f1061169d576101008083540402835291602001916116c8565b820191906000526020600020905b8154815290600101906020018083116116ab57829003601f168201915b505050505081526020016005820160009054906101000a900460ff1615151515815250509050919050565b6116fb6125f7565b6000604051806020016040529081600082015481525050905090565b6007602052816000526040600020818154811061173357600080fd5b90600052602060002001600091509150505481565b6000600160003373ffffffffffffffffffffffffffffffffffffffff1673ffffffffffffffffffffffffffffffffffffffff16815260200190815260200160002060040154905090565b33600160008273ffffffffffffffffffffffffffffffffffffffff1673ffffffffffffffffffffffffffffffffffffffff16815260200190815260200160002060060160009054906101000a900460ff16611822576040517f08c379a0000000000000000000000000000000000000000000000000000000008152600401611819906131f4565b60405180910390fd5b81600160003373ffffffffffffffffffffffffffffffffffffffff1673ffffffffffffffffffffffffffffffffffffffff1681526020019081526020016000206002016000828254611874919061392d565b925050819055506064600160003373ffffffffffffffffffffffffffffffffffffffff1673ffffffffffffffffffffffffffffffffffffffff168152602001908152602001600020600101546118ca9190613961565b600160003373ffffffffffffffffffffffffffffffffffffffff1673ffffffffffffffffffffffffffffffffffffffff168152602001908152602001600020600201541061191b5761191a610921565b5b5050565b606081600160008273ffffffffffffffffffffffffffffffffffffffff1673ffffffffffffffffffffffffffffffffffffffff16815260200190815260200160002060060160009054906101000a900460ff166119b1576040517f08c379a00000000000000000000000000000000000000000000000000000000081526004016119a8906131f4565b60405180910390fd5b600760008473ffffffffffffffffffffffffffffffffffffffff1673ffffffffffffffffffffffffffffffffffffffff168152602001908152602001600020805480602002602001604051908101604052809291908181526020018280548015611a3a57602002820191906000526020600020905b815481526020019060010190808311611a26575b5050505050915050919050565b600060046000815480929190611a5c90613049565b919050555060405180610120016040528060045481526020016040518060400160405280600581526020017f736c696d65000000000000000000000000000000000000000000000000000000815250815260200160006002811115611ac457611ac3612896565b5b8152602001600f8152602001600a8152602001600581526020016028815260200160011515815260200160001515815250600360006004548152602001908152602001600020600082015181600001556020820151816001019081611b2991906134bd565b5060408201518160020160006101000a81548160ff02191690836002811115611b5557611b54612896565b5b0217905550606082015181600301556080820151816004015560a0820151816005015560c0820151816006015560e08201518160070160006101000a81548160ff0219169083151502179055506101008201518160070160016101000a81548160ff0219169083151502179055509050506004547f9d349582ad64820490413cddcb008bb423a05fa7b839d10bf64452ad77be447b6000600f600a60056028604051611c05959493929190613aa0565b60405180910390a2600454905090565b611c1d61260a565b600160003373ffffffffffffffffffffffffffffffffffffffff1673ffffffffffffffffffffffffffffffffffffffff16815260200190815260200160002060060160009054906101000a900460ff16611cac576040517f08c379a0000000000000000000000000000000000000000000000000000000008152600401611ca3906131f4565b60405180910390fd5b600160003373ffffffffffffffffffffffffffffffffffffffff1673ffffffffffffffffffffffffffffffffffffffff1681526020019081526020016000206040518060e00160405290816000820154815260200160018201548152602001600282015481526020016003820154815260200160048201548152602001600582015481526020016006820160009054906101000a900460ff161515151581525050905090565b60008060000154905081565b33600160008273ffffffffffffffffffffffffffffffffffffffff1673ffffffffffffffffffffffffffffffffffffffff16815260200190815260200160002060060160009054906101000a900460ff16611dee576040517f08c379a0000000000000000000000000000000000000000000000000000000008152600401611de5906131f4565b60405180910390fd5b6005600083815260200190815260200160002060050160009054906101000a900460ff16611e51576040517f08c379a0000000000000000000000000000000000000000000000000000000008152600401611e489061390d565b60405180910390fd5b6005600083815260200190815260200160002060030154600160003373ffffffffffffffffffffffffffffffffffffffff1673ffffffffffffffffffffffffffffffffffffffff168152602001908152602001600020600401541015611eec576040517f08c379a0000000000000000000000000000000000000000000000000000000008152600401611ee390613b52565b60405180910390fd5b6000600760003373ffffffffffffffffffffffffffffffffffffffff1673ffffffffffffffffffffffffffffffffffffffff168152602001908152602001600020905060005b8180549050811015611fb6578382600183611f4d919061392d565b81548110611f5e57611f5d613b72565b5b906000526020600020015403611fa9576040517f08c379a0000000000000000000000000000000000000000000000000000000008152600401611fa090613bed565b60405180910390fd5b8080600101915050611f32565b506005600084815260200190815260200160002060030154600160003373ffffffffffffffffffffffffffffffffffffffff1673ffffffffffffffffffffffffffffffffffffffff168152602001908152602001600020600401600082825461201f9190613c0d565b92505081905550600760003373ffffffffffffffffffffffffffffffffffffffff1673ffffffffffffffffffffffffffffffffffffffff1681526020019081526020016000208390806001815401808255809150506001900390600052602060002001600090919091909150553373ffffffffffffffffffffffffffffffffffffffff167f792fe07c0f3ce4ef42df79c4a2b07925168cddbaabf7a7ef1351f027a3760313846040516120d29190612a03565b60405180910390a2505050565b60045481565b600360205280600052604060002060009150905080600001549080600101805461210e90613177565b80601f016020809104026020016040519081016040528092919081815260200182805461213a90613177565b80156121875780601f1061215c57610100808354040283529160200191612187565b820191906000526020600020905b81548152906001019060200180831161216a57829003601f168201915b5050505050908060020160009054906101000a900460ff16908060030154908060040154908060050154908060060154908060070160009054906101000a900460ff16908060070160019054906101000a900460ff16905089565b60016020528060005260406000206000915090508060000154908060010154908060020154908060030154908060040154908060050154908060060160009054906101000a900460ff16905087565b6060600060065467ffffffffffffffff811115612251576122506132ec565b5b60405190808252806020026020018201604052801561228a57816020015b6122776125bf565b81526020019060019003908161226f5790505b5090506000600190505b60065481116124dd57600560008281526020019081526020016000206040518060c0016040529081600082015481526020016001820180546122d590613177565b80601f016020809104026020016040519081016040528092919081815260200182805461230190613177565b801561234e5780601f106123235761010080835404028352916020019161234e565b820191906000526020600020905b81548152906001019060200180831161233157829003601f168201915b5050505050815260200160028201805461236790613177565b80601f016020809104026020016040519081016040528092919081815260200182805461239390613177565b80156123e05780601f106123b5576101008083540402835291602001916123e0565b820191906000526020600020905b8154815290600101906020018083116123c357829003601f168201915b505050505081526020016003820154815260200160048201805461240390613177565b80601f016020809104026020016040519081016040528092919081815260200182805461242f90613177565b801561247c5780601f106124515761010080835404028352916020019161247c565b820191906000526020600020905b81548152906001019060200180831161245f57829003601f168201915b505050505081526020016005820160009054906101000a900460ff161515151581525050826001836124ae9190613c0d565b815181106124bf576124be613b72565b5b602002602001018190525080806124d590613049565b915050612294565b508091505090565b60006003600083815260200190815260200160002060050154905080600160003373ffffffffffffffffffffffffffffffffffffffff1673ffffffffffffffffffffffffffffffffffffffff1681526020019081526020016000206004016000828254612552919061392d565b925050819055505050565b60405180610120016040528060008152602001606081526020016000600281111561258b5761258a612896565b5b8152602001600081526020016000815260200160008152602001600081526020016000151581526020016000151581525090565b6040518060c0016040528060008152602001606081526020016060815260200160008152602001606081526020016000151581525090565b6040518060200160405280600081525090565b6040518060e001604052806000815260200160008152602001600081526020016000815260200160008152602001600081526020016000151581525090565b600080fd5b6000819050919050565b6126618161264e565b811461266c57600080fd5b50565b60008135905061267e81612658565b92915050565b60006020828403121561269a57612699612649565b5b60006126a88482850161266f565b91505092915050565b600073ffffffffffffffffffffffffffffffffffffffff82169050919050565b60006126dc826126b1565b9050919050565b6126ec816126d1565b82525050565b600060208201905061270760008301846126e3565b92915050565b6127168161264e565b82525050565b600081519050919050565b600082825260208201905092915050565b60005b8381101561275657808201518184015260208101905061273b565b60008484015250505050565b6000601f19601f8301169050919050565b600061277e8261271c565b6127888185612727565b9350612798818560208601612738565b6127a181612762565b840191505092915050565b60008115159050919050565b6127c1816127ac565b82525050565b600060c0820190506127dc600083018961270d565b81810360208301526127ee8188612773565b905081810360408301526128028187612773565b9050612811606083018661270d565b81810360808301526128238185612773565b905061283260a08301846127b8565b979650505050505050565b6128468161264e565b82525050565b600082825260208201905092915050565b60006128688261271c565b612872818561284c565b9350612882818560208601612738565b61288b81612762565b840191505092915050565b7f4e487b7100000000000000000000000000000000000000000000000000000000600052602160045260246000fd5b600381106128d6576128d5612896565b5b50565b60008190506128e7826128c5565b919050565b60006128f7826128d9565b9050919050565b612907816128ec565b82525050565b612916816127ac565b82525050565b600061012083016000830151612935600086018261283d565b506020830151848203602086015261294d828261285d565b915050604083015161296260408601826128fe565b506060830151612975606086018261283d565b506080830151612988608086018261283d565b5060a083015161299b60a086018261283d565b5060c08301516129ae60c086018261283d565b5060e08301516129c160e086018261290d565b506101008301516129d661010086018261290d565b508091505092915050565b600060208201905081810360008301526129fb818461291c565b905092915050565b6000602082019050612a18600083018461270d565b92915050565b600060c083016000830151612a36600086018261283d565b5060208301518482036020860152612a4e828261285d565b91505060408301518482036040860152612a68828261285d565b9150506060830151612a7d606086018261283d565b5060808301518482036080860152612a95828261285d565b91505060a0830151612aaa60a086018261290d565b508091505092915050565b60006020820190508181036000830152612acf8184612a1e565b905092915050565b602082016000820151612aed600085018261283d565b50505050565b6000602082019050612b086000830184612ad7565b92915050565b612b17816126d1565b8114612b2257600080fd5b50565b600081359050612b3481612b0e565b92915050565b60008060408385031215612b5157612b50612649565b5b6000612b5f85828601612b25565b9250506020612b708582860161266f565b9150509250929050565b600060208284031215612b9057612b8f612649565b5b6000612b9e84828501612b25565b91505092915050565b600081519050919050565b600082825260208201905092915050565b6000819050602082019050919050565b6000612bdf838361283d565b60208301905092915050565b6000602082019050919050565b6000612c0382612ba7565b612c0d8185612bb2565b9350612c1883612bc3565b8060005b83811015612c49578151612c308882612bd3565b9750612c3b83612beb565b925050600181019050612c1c565b5085935050505092915050565b60006020820190508181036000830152612c708184612bf8565b905092915050565b60e082016000820151612c8e600085018261283d565b506020820151612ca1602085018261283d565b506040820151612cb4604085018261283d565b506060820151612cc7606085018261283d565b506080820151612cda608085018261283d565b5060a0820151612ced60a085018261283d565b5060c0820151612d0060c085018261290d565b50505050565b600060e082019050612d1b6000830184612c78565b92915050565b612d2a816128ec565b82525050565b600061012082019050612d46600083018c61270d565b8181036020830152612d58818b612773565b9050612d67604083018a612d21565b612d74606083018961270d565b612d81608083018861270d565b612d8e60a083018761270d565b612d9b60c083018661270d565b612da860e08301856127b8565b612db66101008301846127b8565b9a9950505050505050505050565b600060e082019050612dd9600083018a61270d565b612de6602083018961270d565b612df3604083018861270d565b612e00606083018761270d565b612e0d608083018661270d565b612e1a60a083018561270d565b612e2760c08301846127b8565b98975050505050505050565b600081519050919050565b600082825260208201905092915050565b6000819050602082019050919050565b600060c083016000830151612e77600086018261283d565b5060208301518482036020860152612e8f828261285d565b91505060408301518482036040860152612ea9828261285d565b9150506060830151612ebe606086018261283d565b5060808301518482036080860152612ed6828261285d565b91505060a0830151612eeb60a086018261290d565b508091505092915050565b6000612f028383612e5f565b905092915050565b6000602082019050919050565b6000612f2282612e33565b612f2c8185612e3e565b935083602082028501612f3e85612e4f565b8060005b85811015612f7a5784840389528151612f5b8582612ef6565b9450612f6683612f0a565b925060208a01995050600181019050612f42565b50829750879550505050505092915050565b60006020820190508181036000830152612fa68184612f17565b905092915050565b7f506c6179657220616c7265616479206578697374730000000000000000000000600082015250565b6000612fe4601583612727565b9150612fef82612fae565b602082019050919050565b6000602082019050818103600083015261301381612fd7565b9050919050565b7f4e487b7100000000000000000000000000000000000000000000000000000000600052601160045260246000fd5b60006130548261264e565b91507fffffffffffffffffffffffffffffffffffffffffffffffffffffffffffffffff82036130865761308561301a565b5b600182019050919050565b6000819050919050565b6000819050919050565b60006130c06130bb6130b684613091565b61309b565b61264e565b9050919050565b6130d0816130a5565b82525050565b6000819050919050565b60006130fb6130f66130f1846130d6565b61309b565b61264e565b9050919050565b61310b816130e0565b82525050565b600060608201905061312660008301866130c7565b61313360208301856130c7565b6131406040830184613102565b949350505050565b7f4e487b7100000000000000000000000000000000000000000000000000000000600052602260045260246000fd5b6000600282049050600182168061318f57607f821691505b6020821081036131a2576131a1613148565b5b50919050565b7f506c6179657220646f6573206e6f742065786973740000000000000000000000600082015250565b60006131de601583612727565b91506131e9826131a8565b602082019050919050565b6000602082019050818103600083015261320d816131d1565b9050919050565b7f4d6f6220646f6573206e6f742065786973740000000000000000000000000000600082015250565b600061324a601283612727565b915061325582613214565b602082019050919050565b600060208201905081810360008301526132798161323d565b9050919050565b7f4d6f6220697320616c7265616479206465616400000000000000000000000000600082015250565b60006132b6601383612727565b91506132c182613280565b602082019050919050565b600060208201905081810360008301526132e5816132a9565b9050919050565b7f4e487b7100000000000000000000000000000000000000000000000000000000600052604160045260246000fd5b60008190508160005260206000209050919050565b60006020601f8301049050919050565b600082821b905092915050565b60006008830261337d7fffffffffffffffffffffffffffffffffffffffffffffffffffffffffffffffff82613340565b6133878683613340565b95508019841693508086168417925050509392505050565b60006133ba6133b56133b08461264e565b61309b565b61264e565b9050919050565b6000819050919050565b6133d48361339f565b6133e86133e0826133c1565b84845461334d565b825550505050565b600090565b6133fd6133f0565b6134088184846133cb565b505050565b5b8181101561342c576134216000826133f5565b60018101905061340e565b5050565b601f821115613471576134428161331b565b61344b84613330565b8101602085101561345a578190505b61346e61346685613330565b83018261340d565b50505b505050565b600082821c905092915050565b600061349460001984600802613476565b1980831691505092915050565b60006134ad8383613483565b9150826002028217905092915050565b6134c68261271c565b67ffffffffffffffff8111156134df576134de6132ec565b5b6134e98254613177565b6134f4828285613430565b600060209050601f8311600181146135275760008415613515578287015190505b61351f85826134a1565b865550613587565b601f1984166135358661331b565b60005b8281101561355d57848901518255600182019150602085019450602081019050613538565b8683101561357a5784890151613576601f891682613483565b8355505b6001600288020188555050505b505050505050565b7f676f626c696e0000000000000000000000000000000000000000000000000000600082015250565b60006135c5600683612727565b91506135d08261358f565b602082019050919050565b6000819050919050565b60006136006135fb6135f6846135db565b61309b565b61264e565b9050919050565b613610816135e5565b82525050565b6000819050919050565b600061363b61363661363184613616565b61309b565b61264e565b9050919050565b61364b81613620565b82525050565b6000819050919050565b600061367661367161366c84613651565b61309b565b61264e565b9050919050565b6136868161365b565b82525050565b6000819050919050565b60006136b16136ac6136a78461368c565b61309b565b61264e565b9050919050565b6136c181613696565b82525050565b600060c08201905081810360008301526136e0816135b8565b90506136ef6020830188612d21565b6136fc6040830187613607565b6137096060830186613642565b613716608083018561367d565b61372360a08301846136b8565b9695505050505050565b7f4865616c74682063616e6e6f7420657863656564203130300000000000000000600082015250565b6000613763601883612727565b915061376e8261372d565b602082019050919050565b6000602082019050818103600083015261379281613756565b9050919050565b7f626f737300000000000000000000000000000000000000000000000000000000600082015250565b60006137cf600483612727565b91506137da82613799565b602082019050919050565b6000819050919050565b600061380a613805613800846137e5565b61309b565b61264e565b9050919050565b61381a816137ef565b82525050565b6000819050919050565b600061384561384061383b84613820565b61309b565b61264e565b9050919050565b6138558161382a565b82525050565b600060c0820190508181036000830152613874816137c2565b90506138836020830188612d21565b6138906040830187613102565b61389d6060830186613811565b6138aa6080830185613102565b6138b760a083018461384c565b9695505050505050565b7f4974656d20646f6573206e6f7420657869737400000000000000000000000000600082015250565b60006138f7601383612727565b9150613902826138c1565b602082019050919050565b60006020820190508181036000830152613926816138ea565b9050919050565b60006139388261264e565b91506139438361264e565b925082820190508082111561395b5761395a61301a565b5b92915050565b600061396c8261264e565b91506139778361264e565b92508282026139858161264e565b9150828204841483151761399c5761399b61301a565b5b5092915050565b7f736c696d65000000000000000000000000000000000000000000000000000000600082015250565b60006139d9600583612727565b91506139e4826139a3565b602082019050919050565b6000819050919050565b6000613a14613a0f613a0a846139ef565b61309b565b61264e565b9050919050565b613a24816139f9565b82525050565b6000819050919050565b6000613a4f613a4a613a4584613a2a565b61309b565b61264e565b9050919050565b613a5f81613a34565b82525050565b6000819050919050565b6000613a8a613a85613a8084613a65565b61309b565b61264e565b9050919050565b613a9a81613a6f565b82525050565b600060c0820190508181036000830152613ab9816139cc565b9050613ac86020830188612d21565b613ad56040830187613642565b613ae26060830186613a1b565b613aef6080830185613a56565b613afc60a0830184613a91565b9695505050505050565b7f4e6f7420656e6f75676820636f696e7300000000000000000000000000000000600082015250565b6000613b3c601083612727565b9150613b4782613b06565b602082019050919050565b60006020820190508181036000830152613b6b81613b2f565b9050919050565b7f4e487b7100000000000000000000000000000000000000000000000000000000600052603260045260246000fd5b7f4974656d20616c7265616479206f776e65640000000000000000000000000000600082015250565b6000613bd7601283612727565b9150613be282613ba1565b602082019050919050565b60006020820190508181036000830152613c0681613bca565b9050919050565b6000613c188261264e565b9150613c238361264e565b9250828203905081811115613c3b57613c3a61301a565b5b9291505056fea264697066735822122081adb4d915bbd4aa401107940b39e202bad515becc5ca12e9e3be9c3591b135a64736f6c634300081c00334120706f77657266756c2073776f726420696e6675736564207769746820457468657265756d2773206d696768744120636c6f616b2074686174206772616e747320737465616c746820616e64207370656564416e20756e627265616b61626c6520736869656c6420666f726765642066726f6d20426974636f696e426f6f74732074686174206772616e7420696e6372656469626c6520737065656420616e64206167696c697479",
          "opcodes": "PUSH1 0x80 PUSH1 0x40 MSTORE CALLVALUE DUP1 ISZERO PUSH2 0x10 JUMPI PUSH1 0x0 DUP1 REVERT JUMPDEST POP PUSH1 0x40 MLOAD DUP1 PUSH1 0x20 ADD PUSH1 0x40 MSTORE DUP1 PUSH1 0x0 DUP2 MSTORE POP PUSH1 0x0 DUP1 DUP3 ADD MLOAD DUP2 PUSH1 0x0 ADD SSTORE SWAP1 POP POP PUSH2 0xC6 PUSH1 0x1 PUSH1 0x40 MLOAD DUP1 PUSH1 0x40 ADD PUSH1 0x40 MSTORE DUP1 PUSH1 0xE DUP2 MSTORE PUSH1 0x20 ADD PUSH32 0x457468657265756D2053776F7264000000000000000000000000000000000000 DUP2 MSTORE POP PUSH1 0x40 MLOAD DUP1 PUSH1 0x60 ADD PUSH1 0x40 MSTORE DUP1 PUSH1 0x2E DUP2 MSTORE PUSH1 0x20 ADD PUSH2 0x46BF PUSH1 0x2E SWAP2 CODECOPY PUSH1 0x64 PUSH1 0x40 MLOAD DUP1 PUSH1 0x40 ADD PUSH1 0x40 MSTORE DUP1 PUSH1 0xE DUP2 MSTORE PUSH1 0x20 ADD PUSH32 0x2F6574682D73776F72642E706E67000000000000000000000000000000000000 DUP2 MSTORE POP PUSH2 0x3F8 PUSH1 0x20 SHL PUSH1 0x20 SHR JUMP JUMPDEST PUSH2 0x15D PUSH1 0x2 PUSH1 0x40 MLOAD DUP1 PUSH1 0x40 ADD PUSH1 0x40 MSTORE DUP1 PUSH1 0xE DUP2 MSTORE PUSH1 0x20 ADD PUSH32 0x426974636F696E20536869656C64000000000000000000000000000000000000 DUP2 MSTORE POP PUSH1 0x40 MLOAD DUP1 PUSH1 0x60 ADD PUSH1 0x40 MSTORE DUP1 PUSH1 0x29 DUP2 MSTORE PUSH1 0x20 ADD PUSH2 0x4712 PUSH1 0x29 SWAP2 CODECOPY PUSH1 0x96 PUSH1 0x40 MLOAD DUP1 PUSH1 0x40 ADD PUSH1 0x40 MSTORE DUP1 PUSH1 0xF DUP2 MSTORE PUSH1 0x20 ADD PUSH32 0x2F6274632D736869656C642E706E670000000000000000000000000000000000 DUP2 MSTORE POP PUSH2 0x3F8 PUSH1 0x20 SHL PUSH1 0x20 SHR JUMP JUMPDEST PUSH2 0x1F4 PUSH1 0x3 PUSH1 0x40 MLOAD DUP1 PUSH1 0x40 ADD PUSH1 0x40 MSTORE DUP1 PUSH1 0xF DUP2 MSTORE PUSH1 0x20 ADD PUSH32 0x436861696E6C696E6B20426F6F74730000000000000000000000000000000000 DUP2 MSTORE POP PUSH1 0x40 MLOAD DUP1 PUSH1 0x60 ADD PUSH1 0x40 MSTORE DUP1 PUSH1 0x2D DUP2 MSTORE PUSH1 0x20 ADD PUSH2 0x473B PUSH1 0x2D SWAP2 CODECOPY PUSH1 0xA PUSH1 0x40 MLOAD DUP1 PUSH1 0x40 ADD PUSH1 0x40 MSTORE DUP1 PUSH1 0xF DUP2 MSTORE PUSH1 0x20 ADD PUSH32 0x2F6C696E6B2D626F6F74732E706E670000000000000000000000000000000000 DUP2 MSTORE POP PUSH2 0x3F8 PUSH1 0x20 SHL PUSH1 0x20 SHR JUMP JUMPDEST PUSH2 0x2A8 PUSH1 0x4 PUSH1 0x40 MLOAD DUP1 PUSH1 0x40 ADD PUSH1 0x40 MSTORE DUP1 PUSH1 0xE DUP2 MSTORE PUSH1 0x20 ADD PUSH32 0x506F6C6B61646F742041726D6F72000000000000000000000000000000000000 DUP2 MSTORE POP PUSH1 0x40 MLOAD DUP1 PUSH1 0x40 ADD PUSH1 0x40 MSTORE DUP1 PUSH1 0x20 DUP2 MSTORE PUSH1 0x20 ADD PUSH32 0x41726D6F72207468617420636F6E6E6563747320616E642070726F7465637473 DUP2 MSTORE POP PUSH1 0xC8 PUSH1 0x40 MLOAD DUP1 PUSH1 0x40 ADD PUSH1 0x40 MSTORE DUP1 PUSH1 0xE DUP2 MSTORE PUSH1 0x20 ADD PUSH32 0x2F646F742D61726D6F722E706E67000000000000000000000000000000000000 DUP2 MSTORE POP PUSH2 0x3F8 PUSH1 0x20 SHL PUSH1 0x20 SHR JUMP JUMPDEST PUSH2 0x35C PUSH1 0x5 PUSH1 0x40 MLOAD DUP1 PUSH1 0x40 ADD PUSH1 0x40 MSTORE DUP1 PUSH1 0xB DUP2 MSTORE PUSH1 0x20 ADD PUSH32 0x43617264616E6F20426F77000000000000000000000000000000000000000000 DUP2 MSTORE POP PUSH1 0x40 MLOAD DUP1 PUSH1 0x40 ADD PUSH1 0x40 MSTORE DUP1 PUSH1 0x1A DUP2 MSTORE PUSH1 0x20 ADD PUSH32 0x41207072656369736520616E6420706F77657266756C20626F77000000000000 DUP2 MSTORE POP PUSH1 0x78 PUSH1 0x40 MLOAD DUP1 PUSH1 0x40 ADD PUSH1 0x40 MSTORE DUP1 PUSH1 0xC DUP2 MSTORE PUSH1 0x20 ADD PUSH32 0x2F6164612D626F772E706E670000000000000000000000000000000000000000 DUP2 MSTORE POP PUSH2 0x3F8 PUSH1 0x20 SHL PUSH1 0x20 SHR JUMP JUMPDEST PUSH2 0x3F3 PUSH1 0x6 PUSH1 0x40 MLOAD DUP1 PUSH1 0x40 ADD PUSH1 0x40 MSTORE DUP1 PUSH1 0xC DUP2 MSTORE PUSH1 0x20 ADD PUSH32 0x536F6C616E6120436C6F616B0000000000000000000000000000000000000000 DUP2 MSTORE POP PUSH1 0x40 MLOAD DUP1 PUSH1 0x60 ADD PUSH1 0x40 MSTORE DUP1 PUSH1 0x25 DUP2 MSTORE PUSH1 0x20 ADD PUSH2 0x46ED PUSH1 0x25 SWAP2 CODECOPY PUSH1 0x50 PUSH1 0x40 MLOAD DUP1 PUSH1 0x40 ADD PUSH1 0x40 MSTORE DUP1 PUSH1 0xE DUP2 MSTORE PUSH1 0x20 ADD PUSH32 0x2F736F6C2D636C6F616B2E706E67000000000000000000000000000000000000 DUP2 MSTORE POP PUSH2 0x3F8 PUSH1 0x20 SHL PUSH1 0x20 SHR JUMP JUMPDEST PUSH2 0xA39 JUMP JUMPDEST PUSH1 0x5 PUSH1 0x0 DUP7 DUP2 MSTORE PUSH1 0x20 ADD SWAP1 DUP2 MSTORE PUSH1 0x20 ADD PUSH1 0x0 KECCAK256 PUSH1 0x5 ADD PUSH1 0x0 SWAP1 SLOAD SWAP1 PUSH2 0x100 EXP SWAP1 DIV PUSH1 0xFF AND ISZERO PUSH2 0x45C JUMPI PUSH1 0x40 MLOAD PUSH32 0x8C379A000000000000000000000000000000000000000000000000000000000 DUP2 MSTORE PUSH1 0x4 ADD PUSH2 0x453 SWAP1 PUSH2 0x5CD JUMP JUMPDEST PUSH1 0x40 MLOAD DUP1 SWAP2 SUB SWAP1 REVERT JUMPDEST PUSH1 0x40 MLOAD DUP1 PUSH1 0xC0 ADD PUSH1 0x40 MSTORE DUP1 DUP7 DUP2 MSTORE PUSH1 0x20 ADD DUP6 DUP2 MSTORE PUSH1 0x20 ADD DUP5 DUP2 MSTORE PUSH1 0x20 ADD DUP4 DUP2 MSTORE PUSH1 0x20 ADD DUP3 DUP2 MSTORE PUSH1 0x20 ADD PUSH1 0x1 ISZERO ISZERO DUP2 MSTORE POP PUSH1 0x5 PUSH1 0x0 DUP8 DUP2 MSTORE PUSH1 0x20 ADD SWAP1 DUP2 MSTORE PUSH1 0x20 ADD PUSH1 0x0 KECCAK256 PUSH1 0x0 DUP3 ADD MLOAD DUP2 PUSH1 0x0 ADD SSTORE PUSH1 0x20 DUP3 ADD MLOAD DUP2 PUSH1 0x1 ADD SWAP1 DUP2 PUSH2 0x4BE SWAP2 SWAP1 PUSH2 0x83D JUMP JUMPDEST POP PUSH1 0x40 DUP3 ADD MLOAD DUP2 PUSH1 0x2 ADD SWAP1 DUP2 PUSH2 0x4D4 SWAP2 SWAP1 PUSH2 0x83D JUMP JUMPDEST POP PUSH1 0x60 DUP3 ADD MLOAD DUP2 PUSH1 0x3 ADD SSTORE PUSH1 0x80 DUP3 ADD MLOAD DUP2 PUSH1 0x4 ADD SWAP1 DUP2 PUSH2 0x4F4 SWAP2 SWAP1 PUSH2 0x83D JUMP JUMPDEST POP PUSH1 0xA0 DUP3 ADD MLOAD DUP2 PUSH1 0x5 ADD PUSH1 0x0 PUSH2 0x100 EXP DUP2 SLOAD DUP2 PUSH1 0xFF MUL NOT AND SWAP1 DUP4 ISZERO ISZERO MUL OR SWAP1 SSTORE POP SWAP1 POP POP PUSH1 0x6 PUSH1 0x0 DUP2 SLOAD DUP1 SWAP3 SWAP2 SWAP1 PUSH2 0x52B SWAP1 PUSH2 0x93E JUMP JUMPDEST SWAP2 SWAP1 POP SSTORE POP PUSH32 0xDF23D688F8641641C72272CEC9726D4C8DB91AC0D0F47017F795B8BB53A44536 DUP6 DUP6 PUSH1 0x40 MLOAD PUSH2 0x561 SWAP3 SWAP2 SWAP1 PUSH2 0xA09 JUMP JUMPDEST PUSH1 0x40 MLOAD DUP1 SWAP2 SUB SWAP1 LOG1 POP POP POP POP POP JUMP JUMPDEST PUSH1 0x0 DUP3 DUP3 MSTORE PUSH1 0x20 DUP3 ADD SWAP1 POP SWAP3 SWAP2 POP POP JUMP JUMPDEST PUSH32 0x4974656D20494420616C72656164792065786973747300000000000000000000 PUSH1 0x0 DUP3 ADD MSTORE POP JUMP JUMPDEST PUSH1 0x0 PUSH2 0x5B7 PUSH1 0x16 DUP4 PUSH2 0x570 JUMP JUMPDEST SWAP2 POP PUSH2 0x5C2 DUP3 PUSH2 0x581 JUMP JUMPDEST PUSH1 0x20 DUP3 ADD SWAP1 POP SWAP2 SWAP1 POP JUMP JUMPDEST PUSH1 0x0 PUSH1 0x20 DUP3 ADD SWAP1 POP DUP2 DUP2 SUB PUSH1 0x0 DUP4 ADD MSTORE PUSH2 0x5E6 DUP2 PUSH2 0x5AA JUMP JUMPDEST SWAP1 POP SWAP2 SWAP1 POP JUMP JUMPDEST PUSH1 0x0 DUP2 MLOAD SWAP1 POP SWAP2 SWAP1 POP JUMP JUMPDEST PUSH32 0x4E487B7100000000000000000000000000000000000000000000000000000000 PUSH1 0x0 MSTORE PUSH1 0x41 PUSH1 0x4 MSTORE PUSH1 0x24 PUSH1 0x0 REVERT JUMPDEST PUSH32 0x4E487B7100000000000000000000000000000000000000000000000000000000 PUSH1 0x0 MSTORE PUSH1 0x22 PUSH1 0x4 MSTORE PUSH1 0x24 PUSH1 0x0 REVERT JUMPDEST PUSH1 0x0 PUSH1 0x2 DUP3 DIV SWAP1 POP PUSH1 0x1 DUP3 AND DUP1 PUSH2 0x66E JUMPI PUSH1 0x7F DUP3 AND SWAP2 POP JUMPDEST PUSH1 0x20 DUP3 LT DUP2 SUB PUSH2 0x681 JUMPI PUSH2 0x680 PUSH2 0x627 JUMP JUMPDEST JUMPDEST POP SWAP2 SWAP1 POP JUMP JUMPDEST PUSH1 0x0 DUP2 SWAP1 POP DUP2 PUSH1 0x0 MSTORE PUSH1 0x20 PUSH1 0x0 KECCAK256 SWAP1 POP SWAP2 SWAP1 POP JUMP JUMPDEST PUSH1 0x0 PUSH1 0x20 PUSH1 0x1F DUP4 ADD DIV SWAP1 POP SWAP2 SWAP1 POP JUMP JUMPDEST PUSH1 0x0 DUP3 DUP3 SHL SWAP1 POP SWAP3 SWAP2 POP POP JUMP JUMPDEST PUSH1 0x0 PUSH1 0x8 DUP4 MUL PUSH2 0x6E9 PUSH32 0xFFFFFFFFFFFFFFFFFFFFFFFFFFFFFFFFFFFFFFFFFFFFFFFFFFFFFFFFFFFFFFFF DUP3 PUSH2 0x6AC JUMP JUMPDEST PUSH2 0x6F3 DUP7 DUP4 PUSH2 0x6AC JUMP JUMPDEST SWAP6 POP DUP1 NOT DUP5 AND SWAP4 POP DUP1 DUP7 AND DUP5 OR SWAP3 POP POP POP SWAP4 SWAP3 POP POP POP JUMP JUMPDEST PUSH1 0x0 DUP2 SWAP1 POP SWAP2 SWAP1 POP JUMP JUMPDEST PUSH1 0x0 DUP2 SWAP1 POP SWAP2 SWAP1 POP JUMP JUMPDEST PUSH1 0x0 PUSH2 0x73A PUSH2 0x735 PUSH2 0x730 DUP5 PUSH2 0x70B JUMP JUMPDEST PUSH2 0x715 JUMP JUMPDEST PUSH2 0x70B JUMP JUMPDEST SWAP1 POP SWAP2 SWAP1 POP JUMP JUMPDEST PUSH1 0x0 DUP2 SWAP1 POP SWAP2 SWAP1 POP JUMP JUMPDEST PUSH2 0x754 DUP4 PUSH2 0x71F JUMP JUMPDEST PUSH2 0x768 PUSH2 0x760 DUP3 PUSH2 0x741 JUMP JUMPDEST DUP5 DUP5 SLOAD PUSH2 0x6B9 JUMP JUMPDEST DUP3 SSTORE POP POP POP POP JUMP JUMPDEST PUSH1 0x0 SWAP1 JUMP JUMPDEST PUSH2 0x77D PUSH2 0x770 JUMP JUMPDEST PUSH2 0x788 DUP2 DUP5 DUP5 PUSH2 0x74B JUMP JUMPDEST POP POP POP JUMP JUMPDEST JUMPDEST DUP2 DUP2 LT ISZERO PUSH2 0x7AC JUMPI PUSH2 0x7A1 PUSH1 0x0 DUP3 PUSH2 0x775 JUMP JUMPDEST PUSH1 0x1 DUP2 ADD SWAP1 POP PUSH2 0x78E JUMP JUMPDEST POP POP JUMP JUMPDEST PUSH1 0x1F DUP3 GT ISZERO PUSH2 0x7F1 JUMPI PUSH2 0x7C2 DUP2 PUSH2 0x687 JUMP JUMPDEST PUSH2 0x7CB DUP5 PUSH2 0x69C JUMP JUMPDEST DUP2 ADD PUSH1 0x20 DUP6 LT ISZERO PUSH2 0x7DA JUMPI DUP2 SWAP1 POP JUMPDEST PUSH2 0x7EE PUSH2 0x7E6 DUP6 PUSH2 0x69C JUMP JUMPDEST DUP4 ADD DUP3 PUSH2 0x78D JUMP JUMPDEST POP POP JUMPDEST POP POP POP JUMP JUMPDEST PUSH1 0x0 DUP3 DUP3 SHR SWAP1 POP SWAP3 SWAP2 POP POP JUMP JUMPDEST PUSH1 0x0 PUSH2 0x814 PUSH1 0x0 NOT DUP5 PUSH1 0x8 MUL PUSH2 0x7F6 JUMP JUMPDEST NOT DUP1 DUP4 AND SWAP2 POP POP SWAP3 SWAP2 POP POP JUMP JUMPDEST PUSH1 0x0 PUSH2 0x82D DUP4 DUP4 PUSH2 0x803 JUMP JUMPDEST SWAP2 POP DUP3 PUSH1 0x2 MUL DUP3 OR SWAP1 POP SWAP3 SWAP2 POP POP JUMP JUMPDEST PUSH2 0x846 DUP3 PUSH2 0x5ED JUMP JUMPDEST PUSH8 0xFFFFFFFFFFFFFFFF DUP2 GT ISZERO PUSH2 0x85F JUMPI PUSH2 0x85E PUSH2 0x5F8 JUMP JUMPDEST JUMPDEST PUSH2 0x869 DUP3 SLOAD PUSH2 0x656 JUMP JUMPDEST PUSH2 0x874 DUP3 DUP3 DUP6 PUSH2 0x7B0 JUMP JUMPDEST PUSH1 0x0 PUSH1 0x20 SWAP1 POP PUSH1 0x1F DUP4 GT PUSH1 0x1 DUP2 EQ PUSH2 0x8A7 JUMPI PUSH1 0x0 DUP5 ISZERO PUSH2 0x895 JUMPI DUP3 DUP8 ADD MLOAD SWAP1 POP JUMPDEST PUSH2 0x89F DUP6 DUP3 PUSH2 0x821 JUMP JUMPDEST DUP7 SSTORE POP PUSH2 0x907 JUMP JUMPDEST PUSH1 0x1F NOT DUP5 AND PUSH2 0x8B5 DUP7 PUSH2 0x687 JUMP JUMPDEST PUSH1 0x0 JUMPDEST DUP3 DUP2 LT ISZERO PUSH2 0x8DD JUMPI DUP5 DUP10 ADD MLOAD DUP3 SSTORE PUSH1 0x1 DUP3 ADD SWAP2 POP PUSH1 0x20 DUP6 ADD SWAP5 POP PUSH1 0x20 DUP2 ADD SWAP1 POP PUSH2 0x8B8 JUMP JUMPDEST DUP7 DUP4 LT ISZERO PUSH2 0x8FA JUMPI DUP5 DUP10 ADD MLOAD PUSH2 0x8F6 PUSH1 0x1F DUP10 AND DUP3 PUSH2 0x803 JUMP JUMPDEST DUP4 SSTORE POP JUMPDEST PUSH1 0x1 PUSH1 0x2 DUP9 MUL ADD DUP9 SSTORE POP POP POP JUMPDEST POP POP POP POP POP POP JUMP JUMPDEST PUSH32 0x4E487B7100000000000000000000000000000000000000000000000000000000 PUSH1 0x0 MSTORE PUSH1 0x11 PUSH1 0x4 MSTORE PUSH1 0x24 PUSH1 0x0 REVERT JUMPDEST PUSH1 0x0 PUSH2 0x949 DUP3 PUSH2 0x70B JUMP JUMPDEST SWAP2 POP PUSH32 0xFFFFFFFFFFFFFFFFFFFFFFFFFFFFFFFFFFFFFFFFFFFFFFFFFFFFFFFFFFFFFFFF DUP3 SUB PUSH2 0x97B JUMPI PUSH2 0x97A PUSH2 0x90F JUMP JUMPDEST JUMPDEST PUSH1 0x1 DUP3 ADD SWAP1 POP SWAP2 SWAP1 POP JUMP JUMPDEST PUSH2 0x98F DUP2 PUSH2 0x70B JUMP JUMPDEST DUP3 MSTORE POP POP JUMP JUMPDEST PUSH1 0x0 JUMPDEST DUP4 DUP2 LT ISZERO PUSH2 0x9B3 JUMPI DUP1 DUP3 ADD MLOAD DUP2 DUP5 ADD MSTORE PUSH1 0x20 DUP2 ADD SWAP1 POP PUSH2 0x998 JUMP JUMPDEST PUSH1 0x0 DUP5 DUP5 ADD MSTORE POP POP POP POP JUMP JUMPDEST PUSH1 0x0 PUSH1 0x1F NOT PUSH1 0x1F DUP4 ADD AND SWAP1 POP SWAP2 SWAP1 POP JUMP JUMPDEST PUSH1 0x0 PUSH2 0x9DB DUP3 PUSH2 0x5ED JUMP JUMPDEST PUSH2 0x9E5 DUP2 DUP6 PUSH2 0x570 JUMP JUMPDEST SWAP4 POP PUSH2 0x9F5 DUP2 DUP6 PUSH1 0x20 DUP7 ADD PUSH2 0x995 JUMP JUMPDEST PUSH2 0x9FE DUP2 PUSH2 0x9BF JUMP JUMPDEST DUP5 ADD SWAP2 POP POP SWAP3 SWAP2 POP POP JUMP JUMPDEST PUSH1 0x0 PUSH1 0x40 DUP3 ADD SWAP1 POP PUSH2 0xA1E PUSH1 0x0 DUP4 ADD DUP6 PUSH2 0x986 JUMP JUMPDEST DUP2 DUP2 SUB PUSH1 0x20 DUP4 ADD MSTORE PUSH2 0xA30 DUP2 DUP5 PUSH2 0x9D0 JUMP JUMPDEST SWAP1 POP SWAP4 SWAP3 POP POP POP JUMP JUMPDEST PUSH2 0x3C77 DUP1 PUSH2 0xA48 PUSH1 0x0 CODECOPY PUSH1 0x0 RETURN INVALID PUSH1 0x80 PUSH1 0x40 MSTORE CALLVALUE DUP1 ISZERO PUSH2 0x10 JUMPI PUSH1 0x0 DUP1 REVERT JUMPDEST POP PUSH1 0x4 CALLDATASIZE LT PUSH2 0x173 JUMPI PUSH1 0x0 CALLDATALOAD PUSH1 0xE0 SHR DUP1 PUSH4 0xB7D0628B GT PUSH2 0xDE JUMPI DUP1 PUSH4 0xD1DF81DF GT PUSH2 0x97 JUMPI DUP1 PUSH4 0xD933A540 GT PUSH2 0x71 JUMPI DUP1 PUSH4 0xD933A540 EQ PUSH2 0x41B JUMPI DUP1 PUSH4 0xDA4711B4 EQ PUSH2 0x439 JUMPI DUP1 PUSH4 0xE2EB41FF EQ PUSH2 0x471 JUMPI DUP1 PUSH4 0xEC8474E6 EQ PUSH2 0x4A7 JUMPI PUSH2 0x173 JUMP JUMPDEST DUP1 PUSH4 0xD1DF81DF EQ PUSH2 0x3C3 JUMPI DUP1 PUSH4 0xD1F9C24D EQ PUSH2 0x3E1 JUMPI DUP1 PUSH4 0xD38EA5BF EQ PUSH2 0x3FF JUMPI PUSH2 0x173 JUMP JUMPDEST DUP1 PUSH4 0xB7D0628B EQ PUSH2 0x2ED JUMPI DUP1 PUSH4 0xBA816AC7 EQ PUSH2 0x30B JUMPI DUP1 PUSH4 0xBC8CCC45 EQ PUSH2 0x33B JUMPI DUP1 PUSH4 0xC37C3555 EQ PUSH2 0x359 JUMPI DUP1 PUSH4 0xC64118F5 EQ PUSH2 0x375 JUMPI DUP1 PUSH4 0xC6FB11B8 EQ PUSH2 0x3A5 JUMPI PUSH2 0x173 JUMP JUMPDEST DUP1 PUSH4 0x6BFB0D01 GT PUSH2 0x130 JUMPI DUP1 PUSH4 0x6BFB0D01 EQ PUSH2 0x22B JUMPI DUP1 PUSH4 0x7A7E4D81 EQ PUSH2 0x249 JUMPI DUP1 PUSH4 0x8D0B7269 EQ PUSH2 0x265 JUMPI DUP1 PUSH4 0x9976D220 EQ PUSH2 0x283 JUMPI DUP1 PUSH4 0xB11F127B EQ PUSH2 0x29F JUMPI DUP1 PUSH4 0xB4B5E6A9 EQ PUSH2 0x2BD JUMPI PUSH2 0x173 JUMP JUMPDEST DUP1 PUSH4 0x15C6AEE2 EQ PUSH2 0x178 JUMPI DUP1 PUSH4 0x3FA9FCF8 EQ PUSH2 0x1A8 JUMPI DUP1 PUSH4 0x43F2CDB2 EQ PUSH2 0x1B2 JUMPI DUP1 PUSH4 0x4EA1ECF9 EQ PUSH2 0x1E7 JUMPI DUP1 PUSH4 0x5BBEE18C EQ PUSH2 0x1F1 JUMPI DUP1 PUSH4 0x6B6846AC EQ PUSH2 0x221 JUMPI JUMPDEST PUSH1 0x0 DUP1 REVERT JUMPDEST PUSH2 0x192 PUSH1 0x4 DUP1 CALLDATASIZE SUB DUP2 ADD SWAP1 PUSH2 0x18D SWAP2 SWAP1 PUSH2 0x2684 JUMP JUMPDEST PUSH2 0x4C5 JUMP JUMPDEST PUSH1 0x40 MLOAD PUSH2 0x19F SWAP2 SWAP1 PUSH2 0x26F2 JUMP JUMPDEST PUSH1 0x40 MLOAD DUP1 SWAP2 SUB SWAP1 RETURN JUMPDEST PUSH2 0x1B0 PUSH2 0x504 JUMP JUMPDEST STOP JUMPDEST PUSH2 0x1CC PUSH1 0x4 DUP1 CALLDATASIZE SUB DUP2 ADD SWAP1 PUSH2 0x1C7 SWAP2 SWAP1 PUSH2 0x2684 JUMP JUMPDEST PUSH2 0x740 JUMP JUMPDEST PUSH1 0x40 MLOAD PUSH2 0x1DE SWAP7 SWAP6 SWAP5 SWAP4 SWAP3 SWAP2 SWAP1 PUSH2 0x27C7 JUMP JUMPDEST PUSH1 0x40 MLOAD DUP1 SWAP2 SUB SWAP1 RETURN JUMPDEST PUSH2 0x1EF PUSH2 0x921 JUMP JUMPDEST STOP JUMPDEST PUSH2 0x20B PUSH1 0x4 DUP1 CALLDATASIZE SUB DUP2 ADD SWAP1 PUSH2 0x206 SWAP2 SWAP1 PUSH2 0x2684 JUMP JUMPDEST PUSH2 0xAE4 JUMP JUMPDEST PUSH1 0x40 MLOAD PUSH2 0x218 SWAP2 SWAP1 PUSH2 0x29E1 JUMP JUMPDEST PUSH1 0x40 MLOAD DUP1 SWAP2 SUB SWAP1 RETURN JUMPDEST PUSH2 0x229 PUSH2 0xCAA JUMP JUMPDEST STOP JUMPDEST PUSH2 0x233 PUSH2 0xE25 JUMP JUMPDEST PUSH1 0x40 MLOAD PUSH2 0x240 SWAP2 SWAP1 PUSH2 0x2A03 JUMP JUMPDEST PUSH1 0x40 MLOAD DUP1 SWAP2 SUB SWAP1 RETURN JUMPDEST PUSH2 0x263 PUSH1 0x4 DUP1 CALLDATASIZE SUB DUP2 ADD SWAP1 PUSH2 0x25E SWAP2 SWAP1 PUSH2 0x2684 JUMP JUMPDEST PUSH2 0xE2B JUMP JUMPDEST STOP JUMPDEST PUSH2 0x26D PUSH2 0xF76 JUMP JUMPDEST PUSH1 0x40 MLOAD PUSH2 0x27A SWAP2 SWAP1 PUSH2 0x2A03 JUMP JUMPDEST PUSH1 0x40 MLOAD DUP1 SWAP2 SUB SWAP1 RETURN JUMPDEST PUSH2 0x29D PUSH1 0x4 DUP1 CALLDATASIZE SUB DUP2 ADD SWAP1 PUSH2 0x298 SWAP2 SWAP1 PUSH2 0x2684 JUMP JUMPDEST PUSH2 0x1144 JUMP JUMPDEST STOP JUMPDEST PUSH2 0x2A7 PUSH2 0x12B1 JUMP JUMPDEST PUSH1 0x40 MLOAD PUSH2 0x2B4 SWAP2 SWAP1 PUSH2 0x2A03 JUMP JUMPDEST PUSH1 0x40 MLOAD DUP1 SWAP2 SUB SWAP1 RETURN JUMPDEST PUSH2 0x2D7 PUSH1 0x4 DUP1 CALLDATASIZE SUB DUP2 ADD SWAP1 PUSH2 0x2D2 SWAP2 SWAP1 PUSH2 0x2684 JUMP JUMPDEST PUSH2 0x147E JUMP JUMPDEST PUSH1 0x40 MLOAD PUSH2 0x2E4 SWAP2 SWAP1 PUSH2 0x2AB5 JUMP JUMPDEST PUSH1 0x40 MLOAD DUP1 SWAP2 SUB SWAP1 RETURN JUMPDEST PUSH2 0x2F5 PUSH2 0x16F3 JUMP JUMPDEST PUSH1 0x40 MLOAD PUSH2 0x302 SWAP2 SWAP1 PUSH2 0x2AF3 JUMP JUMPDEST PUSH1 0x40 MLOAD DUP1 SWAP2 SUB SWAP1 RETURN JUMPDEST PUSH2 0x325 PUSH1 0x4 DUP1 CALLDATASIZE SUB DUP2 ADD SWAP1 PUSH2 0x320 SWAP2 SWAP1 PUSH2 0x2B3A JUMP JUMPDEST PUSH2 0x1717 JUMP JUMPDEST PUSH1 0x40 MLOAD PUSH2 0x332 SWAP2 SWAP1 PUSH2 0x2A03 JUMP JUMPDEST PUSH1 0x40 MLOAD DUP1 SWAP2 SUB SWAP1 RETURN JUMPDEST PUSH2 0x343 PUSH2 0x1748 JUMP JUMPDEST PUSH1 0x40 MLOAD PUSH2 0x350 SWAP2 SWAP1 PUSH2 0x2A03 JUMP JUMPDEST PUSH1 0x40 MLOAD DUP1 SWAP2 SUB SWAP1 RETURN JUMPDEST PUSH2 0x373 PUSH1 0x4 DUP1 CALLDATASIZE SUB DUP2 ADD SWAP1 PUSH2 0x36E SWAP2 SWAP1 PUSH2 0x2684 JUMP JUMPDEST PUSH2 0x1792 JUMP JUMPDEST STOP JUMPDEST PUSH2 0x38F PUSH1 0x4 DUP1 CALLDATASIZE SUB DUP2 ADD SWAP1 PUSH2 0x38A SWAP2 SWAP1 PUSH2 0x2B7A JUMP JUMPDEST PUSH2 0x191F JUMP JUMPDEST PUSH1 0x40 MLOAD PUSH2 0x39C SWAP2 SWAP1 PUSH2 0x2C56 JUMP JUMPDEST PUSH1 0x40 MLOAD DUP1 SWAP2 SUB SWAP1 RETURN JUMPDEST PUSH2 0x3AD PUSH2 0x1A47 JUMP JUMPDEST PUSH1 0x40 MLOAD PUSH2 0x3BA SWAP2 SWAP1 PUSH2 0x2A03 JUMP JUMPDEST PUSH1 0x40 MLOAD DUP1 SWAP2 SUB SWAP1 RETURN JUMPDEST PUSH2 0x3CB PUSH2 0x1C15 JUMP JUMPDEST PUSH1 0x40 MLOAD PUSH2 0x3D8 SWAP2 SWAP1 PUSH2 0x2D06 JUMP JUMPDEST PUSH1 0x40 MLOAD DUP1 SWAP2 SUB SWAP1 RETURN JUMPDEST PUSH2 0x3E9 PUSH2 0x1D52 JUMP JUMPDEST PUSH1 0x40 MLOAD PUSH2 0x3F6 SWAP2 SWAP1 PUSH2 0x2A03 JUMP JUMPDEST PUSH1 0x40 MLOAD DUP1 SWAP2 SUB SWAP1 RETURN JUMPDEST PUSH2 0x419 PUSH1 0x4 DUP1 CALLDATASIZE SUB DUP2 ADD SWAP1 PUSH2 0x414 SWAP2 SWAP1 PUSH2 0x2684 JUMP JUMPDEST PUSH2 0x1D5E JUMP JUMPDEST STOP JUMPDEST PUSH2 0x423 PUSH2 0x20DF JUMP JUMPDEST PUSH1 0x40 MLOAD PUSH2 0x430 SWAP2 SWAP1 PUSH2 0x2A03 JUMP JUMPDEST PUSH1 0x40 MLOAD DUP1 SWAP2 SUB SWAP1 RETURN JUMPDEST PUSH2 0x453 PUSH1 0x4 DUP1 CALLDATASIZE SUB DUP2 ADD SWAP1 PUSH2 0x44E SWAP2 SWAP1 PUSH2 0x2684 JUMP JUMPDEST PUSH2 0x20E5 JUMP JUMPDEST PUSH1 0x40 MLOAD PUSH2 0x468 SWAP10 SWAP9 SWAP8 SWAP7 SWAP6 SWAP5 SWAP4 SWAP3 SWAP2 SWAP1 PUSH2 0x2D30 JUMP JUMPDEST PUSH1 0x40 MLOAD DUP1 SWAP2 SUB SWAP1 RETURN JUMPDEST PUSH2 0x48B PUSH1 0x4 DUP1 CALLDATASIZE SUB DUP2 ADD SWAP1 PUSH2 0x486 SWAP2 SWAP1 PUSH2 0x2B7A JUMP JUMPDEST PUSH2 0x21E2 JUMP JUMPDEST PUSH1 0x40 MLOAD PUSH2 0x49E SWAP8 SWAP7 SWAP6 SWAP5 SWAP4 SWAP3 SWAP2 SWAP1 PUSH2 0x2DC4 JUMP JUMPDEST PUSH1 0x40 MLOAD DUP1 SWAP2 SUB SWAP1 RETURN JUMPDEST PUSH2 0x4AF PUSH2 0x2231 JUMP JUMPDEST PUSH1 0x40 MLOAD PUSH2 0x4BC SWAP2 SWAP1 PUSH2 0x2F8C JUMP JUMPDEST PUSH1 0x40 MLOAD DUP1 SWAP2 SUB SWAP1 RETURN JUMPDEST PUSH1 0x2 DUP2 DUP2 SLOAD DUP2 LT PUSH2 0x4D5 JUMPI PUSH1 0x0 DUP1 REVERT JUMPDEST SWAP1 PUSH1 0x0 MSTORE PUSH1 0x20 PUSH1 0x0 KECCAK256 ADD PUSH1 0x0 SWAP2 POP SLOAD SWAP1 PUSH2 0x100 EXP SWAP1 DIV PUSH20 0xFFFFFFFFFFFFFFFFFFFFFFFFFFFFFFFFFFFFFFFF AND DUP2 JUMP JUMPDEST PUSH1 0x1 PUSH1 0x0 CALLER PUSH20 0xFFFFFFFFFFFFFFFFFFFFFFFFFFFFFFFFFFFFFFFF AND PUSH20 0xFFFFFFFFFFFFFFFFFFFFFFFFFFFFFFFFFFFFFFFF AND DUP2 MSTORE PUSH1 0x20 ADD SWAP1 DUP2 MSTORE PUSH1 0x20 ADD PUSH1 0x0 KECCAK256 PUSH1 0x6 ADD PUSH1 0x0 SWAP1 SLOAD SWAP1 PUSH2 0x100 EXP SWAP1 DIV PUSH1 0xFF AND ISZERO PUSH2 0x594 JUMPI PUSH1 0x40 MLOAD PUSH32 0x8C379A000000000000000000000000000000000000000000000000000000000 DUP2 MSTORE PUSH1 0x4 ADD PUSH2 0x58B SWAP1 PUSH2 0x2FFA JUMP JUMPDEST PUSH1 0x40 MLOAD DUP1 SWAP2 SUB SWAP1 REVERT JUMPDEST PUSH1 0x40 MLOAD DUP1 PUSH1 0xE0 ADD PUSH1 0x40 MSTORE DUP1 PUSH1 0x1 DUP2 MSTORE PUSH1 0x20 ADD PUSH1 0x1 DUP2 MSTORE PUSH1 0x20 ADD PUSH1 0x0 DUP2 MSTORE PUSH1 0x20 ADD PUSH1 0x64 DUP2 MSTORE PUSH1 0x20 ADD PUSH1 0x0 DUP2 MSTORE PUSH1 0x20 ADD TIMESTAMP DUP2 MSTORE PUSH1 0x20 ADD PUSH1 0x1 ISZERO ISZERO DUP2 MSTORE POP PUSH1 0x1 PUSH1 0x0 CALLER PUSH20 0xFFFFFFFFFFFFFFFFFFFFFFFFFFFFFFFFFFFFFFFF AND PUSH20 0xFFFFFFFFFFFFFFFFFFFFFFFFFFFFFFFFFFFFFFFF AND DUP2 MSTORE PUSH1 0x20 ADD SWAP1 DUP2 MSTORE PUSH1 0x20 ADD PUSH1 0x0 KECCAK256 PUSH1 0x0 DUP3 ADD MLOAD DUP2 PUSH1 0x0 ADD SSTORE PUSH1 0x20 DUP3 ADD MLOAD DUP2 PUSH1 0x1 ADD SSTORE PUSH1 0x40 DUP3 ADD MLOAD DUP2 PUSH1 0x2 ADD SSTORE PUSH1 0x60 DUP3 ADD MLOAD DUP2 PUSH1 0x3 ADD SSTORE PUSH1 0x80 DUP3 ADD MLOAD DUP2 PUSH1 0x4 ADD SSTORE PUSH1 0xA0 DUP3 ADD MLOAD DUP2 PUSH1 0x5 ADD SSTORE PUSH1 0xC0 DUP3 ADD MLOAD DUP2 PUSH1 0x6 ADD PUSH1 0x0 PUSH2 0x100 EXP DUP2 SLOAD DUP2 PUSH1 0xFF MUL NOT AND SWAP1 DUP4 ISZERO ISZERO MUL OR SWAP1 SSTORE POP SWAP1 POP POP PUSH1 0x0 DUP1 ADD PUSH1 0x0 DUP2 SLOAD DUP1 SWAP3 SWAP2 SWAP1 PUSH2 0x682 SWAP1 PUSH2 0x3049 JUMP JUMPDEST SWAP2 SWAP1 POP SSTORE POP PUSH1 0x2 CALLER SWAP1 DUP1 PUSH1 0x1 DUP2 SLOAD ADD DUP1 DUP3 SSTORE DUP1 SWAP2 POP POP PUSH1 0x1 SWAP1 SUB SWAP1 PUSH1 0x0 MSTORE PUSH1 0x20 PUSH1 0x0 KECCAK256 ADD PUSH1 0x0 SWAP1 SWAP2 SWAP1 SWAP2 SWAP1 SWAP2 PUSH2 0x100 EXP DUP2 SLOAD DUP2 PUSH20 0xFFFFFFFFFFFFFFFFFFFFFFFFFFFFFFFFFFFFFFFF MUL NOT AND SWAP1 DUP4 PUSH20 0xFFFFFFFFFFFFFFFFFFFFFFFFFFFFFFFFFFFFFFFF AND MUL OR SWAP1 SSTORE POP CALLER PUSH20 0xFFFFFFFFFFFFFFFFFFFFFFFFFFFFFFFFFFFFFFFF AND PUSH32 0xDBD350B0FEDFDA470DEAAF32F91E1578F2E0A1ECA99A0F2C8435B6595DCFD294 PUSH1 0x1 DUP1 PUSH1 0x64 PUSH1 0x40 MLOAD PUSH2 0x736 SWAP4 SWAP3 SWAP2 SWAP1 PUSH2 0x3111 JUMP JUMPDEST PUSH1 0x40 MLOAD DUP1 SWAP2 SUB SWAP1 LOG2 JUMP JUMPDEST PUSH1 0x5 PUSH1 0x20 MSTORE DUP1 PUSH1 0x0 MSTORE PUSH1 0x40 PUSH1 0x0 KECCAK256 PUSH1 0x0 SWAP2 POP SWAP1 POP DUP1 PUSH1 0x0 ADD SLOAD SWAP1 DUP1 PUSH1 0x1 ADD DUP1 SLOAD PUSH2 0x769 SWAP1 PUSH2 0x3177 JUMP JUMPDEST DUP1 PUSH1 0x1F ADD PUSH1 0x20 DUP1 SWAP2 DIV MUL PUSH1 0x20 ADD PUSH1 0x40 MLOAD SWAP1 DUP2 ADD PUSH1 0x40 MSTORE DUP1 SWAP3 SWAP2 SWAP1 DUP2 DUP2 MSTORE PUSH1 0x20 ADD DUP3 DUP1 SLOAD PUSH2 0x795 SWAP1 PUSH2 0x3177 JUMP JUMPDEST DUP1 ISZERO PUSH2 0x7E2 JUMPI DUP1 PUSH1 0x1F LT PUSH2 0x7B7 JUMPI PUSH2 0x100 DUP1 DUP4 SLOAD DIV MUL DUP4 MSTORE SWAP2 PUSH1 0x20 ADD SWAP2 PUSH2 0x7E2 JUMP JUMPDEST DUP3 ADD SWAP2 SWAP1 PUSH1 0x0 MSTORE PUSH1 0x20 PUSH1 0x0 KECCAK256 SWAP1 JUMPDEST DUP2 SLOAD DUP2 MSTORE SWAP1 PUSH1 0x1 ADD SWAP1 PUSH1 0x20 ADD DUP1 DUP4 GT PUSH2 0x7C5 JUMPI DUP3 SWAP1 SUB PUSH1 0x1F AND DUP3 ADD SWAP2 JUMPDEST POP POP POP POP POP SWAP1 DUP1 PUSH1 0x2 ADD DUP1 SLOAD PUSH2 0x7F7 SWAP1 PUSH2 0x3177 JUMP JUMPDEST DUP1 PUSH1 0x1F ADD PUSH1 0x20 DUP1 SWAP2 DIV MUL PUSH1 0x20 ADD PUSH1 0x40 MLOAD SWAP1 DUP2 ADD PUSH1 0x40 MSTORE DUP1 SWAP3 SWAP2 SWAP1 DUP2 DUP2 MSTORE PUSH1 0x20 ADD DUP3 DUP1 SLOAD PUSH2 0x823 SWAP1 PUSH2 0x3177 JUMP JUMPDEST DUP1 ISZERO PUSH2 0x870 JUMPI DUP1 PUSH1 0x1F LT PUSH2 0x845 JUMPI PUSH2 0x100 DUP1 DUP4 SLOAD DIV MUL DUP4 MSTORE SWAP2 PUSH1 0x20 ADD SWAP2 PUSH2 0x870 JUMP JUMPDEST DUP3 ADD SWAP2 SWAP1 PUSH1 0x0 MSTORE PUSH1 0x20 PUSH1 0x0 KECCAK256 SWAP1 JUMPDEST DUP2 SLOAD DUP2 MSTORE SWAP1 PUSH1 0x1 ADD SWAP1 PUSH1 0x20 ADD DUP1 DUP4 GT PUSH2 0x853 JUMPI DUP3 SWAP1 SUB PUSH1 0x1F AND DUP3 ADD SWAP2 JUMPDEST POP POP POP POP POP SWAP1 DUP1 PUSH1 0x3 ADD SLOAD SWAP1 DUP1 PUSH1 0x4 ADD DUP1 SLOAD PUSH2 0x88B SWAP1 PUSH2 0x3177 JUMP JUMPDEST DUP1 PUSH1 0x1F ADD PUSH1 0x20 DUP1 SWAP2 DIV MUL PUSH1 0x20 ADD PUSH1 0x40 MLOAD SWAP1 DUP2 ADD PUSH1 0x40 MSTORE DUP1 SWAP3 SWAP2 SWAP1 DUP2 DUP2 MSTORE PUSH1 0x20 ADD DUP3 DUP1 SLOAD PUSH2 0x8B7 SWAP1 PUSH2 0x3177 JUMP JUMPDEST DUP1 ISZERO PUSH2 0x904 JUMPI DUP1 PUSH1 0x1F LT PUSH2 0x8D9 JUMPI PUSH2 0x100 DUP1 DUP4 SLOAD DIV MUL DUP4 MSTORE SWAP2 PUSH1 0x20 ADD SWAP2 PUSH2 0x904 JUMP JUMPDEST DUP3 ADD SWAP2 SWAP1 PUSH1 0x0 MSTORE PUSH1 0x20 PUSH1 0x0 KECCAK256 SWAP1 JUMPDEST DUP2 SLOAD DUP2 MSTORE SWAP1 PUSH1 0x1 ADD SWAP1 PUSH1 0x20 ADD DUP1 DUP4 GT PUSH2 0x8E7 JUMPI DUP3 SWAP1 SUB PUSH1 0x1F AND DUP3 ADD SWAP2 JUMPDEST POP POP POP POP POP SWAP1 DUP1 PUSH1 0x5 ADD PUSH1 0x0 SWAP1 SLOAD SWAP1 PUSH2 0x100 EXP SWAP1 DIV PUSH1 0xFF AND SWAP1 POP DUP7 JUMP JUMPDEST CALLER PUSH1 0x1 PUSH1 0x0 DUP3 PUSH20 0xFFFFFFFFFFFFFFFFFFFFFFFFFFFFFFFFFFFFFFFF AND PUSH20 0xFFFFFFFFFFFFFFFFFFFFFFFFFFFFFFFFFFFFFFFF AND DUP2 MSTORE PUSH1 0x20 ADD SWAP1 DUP2 MSTORE PUSH1 0x20 ADD PUSH1 0x0 KECCAK256 PUSH1 0x6 ADD PUSH1 0x0 SWAP1 SLOAD SWAP1 PUSH2 0x100 EXP SWAP1 DIV PUSH1 0xFF AND PUSH2 0x9B1 JUMPI PUSH1 0x40 MLOAD PUSH32 0x8C379A000000000000000000000000000000000000000000000000000000000 DUP2 MSTORE PUSH1 0x4 ADD PUSH2 0x9A8 SWAP1 PUSH2 0x31F4 JUMP JUMPDEST PUSH1 0x40 MLOAD DUP1 SWAP2 SUB SWAP1 REVERT JUMPDEST PUSH1 0x1 PUSH1 0x0 CALLER PUSH20 0xFFFFFFFFFFFFFFFFFFFFFFFFFFFFFFFFFFFFFFFF AND PUSH20 0xFFFFFFFFFFFFFFFFFFFFFFFFFFFFFFFFFFFFFFFF AND DUP2 MSTORE PUSH1 0x20 ADD SWAP1 DUP2 MSTORE PUSH1 0x20 ADD PUSH1 0x0 KECCAK256 PUSH1 0x1 ADD PUSH1 0x0 DUP2 SLOAD DUP1 SWAP3 SWAP2 SWAP1 PUSH2 0xA04 SWAP1 PUSH2 0x3049 JUMP JUMPDEST SWAP2 SWAP1 POP SSTORE POP PUSH1 0x64 PUSH1 0x1 PUSH1 0x0 CALLER PUSH20 0xFFFFFFFFFFFFFFFFFFFFFFFFFFFFFFFFFFFFFFFF AND PUSH20 0xFFFFFFFFFFFFFFFFFFFFFFFFFFFFFFFFFFFFFFFF AND DUP2 MSTORE PUSH1 0x20 ADD SWAP1 DUP2 MSTORE PUSH1 0x20 ADD PUSH1 0x0 KECCAK256 PUSH1 0x3 ADD DUP2 SWAP1 SSTORE POP CALLER PUSH20 0xFFFFFFFFFFFFFFFFFFFFFFFFFFFFFFFFFFFFFFFF AND PUSH32 0x85223984C4720843B1B5AA66F09162E4D7494973839E9C8DBEA375C91978D4F4 PUSH1 0x1 PUSH1 0x0 CALLER PUSH20 0xFFFFFFFFFFFFFFFFFFFFFFFFFFFFFFFFFFFFFFFF AND PUSH20 0xFFFFFFFFFFFFFFFFFFFFFFFFFFFFFFFFFFFFFFFF AND DUP2 MSTORE PUSH1 0x20 ADD SWAP1 DUP2 MSTORE PUSH1 0x20 ADD PUSH1 0x0 KECCAK256 PUSH1 0x1 ADD SLOAD PUSH1 0x40 MLOAD PUSH2 0xAD9 SWAP2 SWAP1 PUSH2 0x2A03 JUMP JUMPDEST PUSH1 0x40 MLOAD DUP1 SWAP2 SUB SWAP1 LOG2 POP JUMP JUMPDEST PUSH2 0xAEC PUSH2 0x255D JUMP JUMPDEST PUSH1 0x3 PUSH1 0x0 DUP4 DUP2 MSTORE PUSH1 0x20 ADD SWAP1 DUP2 MSTORE PUSH1 0x20 ADD PUSH1 0x0 KECCAK256 PUSH1 0x7 ADD PUSH1 0x0 SWAP1 SLOAD SWAP1 PUSH2 0x100 EXP SWAP1 DIV PUSH1 0xFF AND PUSH2 0xB4F JUMPI PUSH1 0x40 MLOAD PUSH32 0x8C379A000000000000000000000000000000000000000000000000000000000 DUP2 MSTORE PUSH1 0x4 ADD PUSH2 0xB46 SWAP1 PUSH2 0x3260 JUMP JUMPDEST PUSH1 0x40 MLOAD DUP1 SWAP2 SUB SWAP1 REVERT JUMPDEST PUSH1 0x3 PUSH1 0x0 DUP4 DUP2 MSTORE PUSH1 0x20 ADD SWAP1 DUP2 MSTORE PUSH1 0x20 ADD PUSH1 0x0 KECCAK256 PUSH1 0x40 MLOAD DUP1 PUSH2 0x120 ADD PUSH1 0x40 MSTORE SWAP1 DUP2 PUSH1 0x0 DUP3 ADD SLOAD DUP2 MSTORE PUSH1 0x20 ADD PUSH1 0x1 DUP3 ADD DUP1 SLOAD PUSH2 0xB88 SWAP1 PUSH2 0x3177 JUMP JUMPDEST DUP1 PUSH1 0x1F ADD PUSH1 0x20 DUP1 SWAP2 DIV MUL PUSH1 0x20 ADD PUSH1 0x40 MLOAD SWAP1 DUP2 ADD PUSH1 0x40 MSTORE DUP1 SWAP3 SWAP2 SWAP1 DUP2 DUP2 MSTORE PUSH1 0x20 ADD DUP3 DUP1 SLOAD PUSH2 0xBB4 SWAP1 PUSH2 0x3177 JUMP JUMPDEST DUP1 ISZERO PUSH2 0xC01 JUMPI DUP1 PUSH1 0x1F LT PUSH2 0xBD6 JUMPI PUSH2 0x100 DUP1 DUP4 SLOAD DIV MUL DUP4 MSTORE SWAP2 PUSH1 0x20 ADD SWAP2 PUSH2 0xC01 JUMP JUMPDEST DUP3 ADD SWAP2 SWAP1 PUSH1 0x0 MSTORE PUSH1 0x20 PUSH1 0x0 KECCAK256 SWAP1 JUMPDEST DUP2 SLOAD DUP2 MSTORE SWAP1 PUSH1 0x1 ADD SWAP1 PUSH1 0x20 ADD DUP1 DUP4 GT PUSH2 0xBE4 JUMPI DUP3 SWAP1 SUB PUSH1 0x1F AND DUP3 ADD SWAP2 JUMPDEST POP POP POP POP POP DUP2 MSTORE PUSH1 0x20 ADD PUSH1 0x2 DUP3 ADD PUSH1 0x0 SWAP1 SLOAD SWAP1 PUSH2 0x100 EXP SWAP1 DIV PUSH1 0xFF AND PUSH1 0x2 DUP2 GT ISZERO PUSH2 0xC2F JUMPI PUSH2 0xC2E PUSH2 0x2896 JUMP JUMPDEST JUMPDEST PUSH1 0x2 DUP2 GT ISZERO PUSH2 0xC41 JUMPI PUSH2 0xC40 PUSH2 0x2896 JUMP JUMPDEST JUMPDEST DUP2 MSTORE PUSH1 0x20 ADD PUSH1 0x3 DUP3 ADD SLOAD DUP2 MSTORE PUSH1 0x20 ADD PUSH1 0x4 DUP3 ADD SLOAD DUP2 MSTORE PUSH1 0x20 ADD PUSH1 0x5 DUP3 ADD SLOAD DUP2 MSTORE PUSH1 0x20 ADD PUSH1 0x6 DUP3 ADD SLOAD DUP2 MSTORE PUSH1 0x20 ADD PUSH1 0x7 DUP3 ADD PUSH1 0x0 SWAP1 SLOAD SWAP1 PUSH2 0x100 EXP SWAP1 DIV PUSH1 0xFF AND ISZERO ISZERO ISZERO ISZERO DUP2 MSTORE PUSH1 0x20 ADD PUSH1 0x7 DUP3 ADD PUSH1 0x1 SWAP1 SLOAD SWAP1 PUSH2 0x100 EXP SWAP1 DIV PUSH1 0xFF AND ISZERO ISZERO ISZERO ISZERO DUP2 MSTORE POP POP SWAP1 POP SWAP2 SWAP1 POP JUMP JUMPDEST CALLER PUSH1 0x1 PUSH1 0x0 DUP3 PUSH20 0xFFFFFFFFFFFFFFFFFFFFFFFFFFFFFFFFFFFFFFFF AND PUSH20 0xFFFFFFFFFFFFFFFFFFFFFFFFFFFFFFFFFFFFFFFF AND DUP2 MSTORE PUSH1 0x20 ADD SWAP1 DUP2 MSTORE PUSH1 0x20 ADD PUSH1 0x0 KECCAK256 PUSH1 0x6 ADD PUSH1 0x0 SWAP1 SLOAD SWAP1 PUSH2 0x100 EXP SWAP1 DIV PUSH1 0xFF AND PUSH2 0xD3A JUMPI PUSH1 0x40 MLOAD PUSH32 0x8C379A000000000000000000000000000000000000000000000000000000000 DUP2 MSTORE PUSH1 0x4 ADD PUSH2 0xD31 SWAP1 PUSH2 0x31F4 JUMP JUMPDEST PUSH1 0x40 MLOAD DUP1 SWAP2 SUB SWAP1 REVERT JUMPDEST PUSH1 0x1 PUSH1 0x0 CALLER PUSH20 0xFFFFFFFFFFFFFFFFFFFFFFFFFFFFFFFFFFFFFFFF AND PUSH20 0xFFFFFFFFFFFFFFFFFFFFFFFFFFFFFFFFFFFFFFFF AND DUP2 MSTORE PUSH1 0x20 ADD SWAP1 DUP2 MSTORE PUSH1 0x20 ADD PUSH1 0x0 KECCAK256 PUSH1 0x0 ADD PUSH1 0x0 DUP2 SLOAD DUP1 SWAP3 SWAP2 SWAP1 PUSH2 0xD8D SWAP1 PUSH2 0x3049 JUMP JUMPDEST SWAP2 SWAP1 POP SSTORE POP CALLER PUSH20 0xFFFFFFFFFFFFFFFFFFFFFFFFFFFFFFFFFFFFFFFF AND PUSH32 0xB90E2E9522B348DA704B6CE77ABDE64428DA1F2907A1706FB8D82CF83447E316 PUSH1 0x1 PUSH1 0x0 CALLER PUSH20 0xFFFFFFFFFFFFFFFFFFFFFFFFFFFFFFFFFFFFFFFF AND PUSH20 0xFFFFFFFFFFFFFFFFFFFFFFFFFFFFFFFFFFFFFFFF AND DUP2 MSTORE PUSH1 0x20 ADD SWAP1 DUP2 MSTORE PUSH1 0x20 ADD PUSH1 0x0 KECCAK256 PUSH1 0x0 ADD SLOAD PUSH1 0x40 MLOAD PUSH2 0xE1A SWAP2 SWAP1 PUSH2 0x2A03 JUMP JUMPDEST PUSH1 0x40 MLOAD DUP1 SWAP2 SUB SWAP1 LOG2 POP JUMP JUMPDEST PUSH1 0x6 SLOAD DUP2 JUMP JUMPDEST PUSH1 0x3 PUSH1 0x0 DUP3 DUP2 MSTORE PUSH1 0x20 ADD SWAP1 DUP2 MSTORE PUSH1 0x20 ADD PUSH1 0x0 KECCAK256 PUSH1 0x7 ADD PUSH1 0x0 SWAP1 SLOAD SWAP1 PUSH2 0x100 EXP SWAP1 DIV PUSH1 0xFF AND PUSH2 0xE8E JUMPI PUSH1 0x40 MLOAD PUSH32 0x8C379A000000000000000000000000000000000000000000000000000000000 DUP2 MSTORE PUSH1 0x4 ADD PUSH2 0xE85 SWAP1 PUSH2 0x3260 JUMP JUMPDEST PUSH1 0x40 MLOAD DUP1 SWAP2 SUB SWAP1 REVERT JUMPDEST PUSH1 0x3 PUSH1 0x0 DUP3 DUP2 MSTORE PUSH1 0x20 ADD SWAP1 DUP2 MSTORE PUSH1 0x20 ADD PUSH1 0x0 KECCAK256 PUSH1 0x7 ADD PUSH1 0x1 SWAP1 SLOAD SWAP1 PUSH2 0x100 EXP SWAP1 DIV PUSH1 0xFF AND ISZERO PUSH2 0xEF2 JUMPI PUSH1 0x40 MLOAD PUSH32 0x8C379A000000000000000000000000000000000000000000000000000000000 DUP2 MSTORE PUSH1 0x4 ADD PUSH2 0xEE9 SWAP1 PUSH2 0x32CC JUMP JUMPDEST PUSH1 0x40 MLOAD DUP1 SWAP2 SUB SWAP1 REVERT JUMPDEST PUSH1 0x1 PUSH1 0x3 PUSH1 0x0 DUP4 DUP2 MSTORE PUSH1 0x20 ADD SWAP1 DUP2 MSTORE PUSH1 0x20 ADD PUSH1 0x0 KECCAK256 PUSH1 0x7 ADD PUSH1 0x1 PUSH2 0x100 EXP DUP2 SLOAD DUP2 PUSH1 0xFF MUL NOT AND SWAP1 DUP4 ISZERO ISZERO MUL OR SWAP1 SSTORE POP PUSH1 0x3 PUSH1 0x0 DUP3 DUP2 MSTORE PUSH1 0x20 ADD SWAP1 DUP2 MSTORE PUSH1 0x20 ADD PUSH1 0x0 KECCAK256 PUSH1 0x7 ADD PUSH1 0x1 SWAP1 SLOAD SWAP1 PUSH2 0x100 EXP SWAP1 DIV PUSH1 0xFF AND ISZERO PUSH2 0xF73 JUMPI PUSH2 0xF53 DUP2 PUSH2 0x24E5 JUMP JUMPDEST PUSH2 0xF72 PUSH1 0x3 PUSH1 0x0 DUP4 DUP2 MSTORE PUSH1 0x20 ADD SWAP1 DUP2 MSTORE PUSH1 0x20 ADD PUSH1 0x0 KECCAK256 PUSH1 0x6 ADD SLOAD PUSH2 0x1792 JUMP JUMPDEST JUMPDEST POP JUMP JUMPDEST PUSH1 0x0 PUSH1 0x4 PUSH1 0x0 DUP2 SLOAD DUP1 SWAP3 SWAP2 SWAP1 PUSH2 0xF8B SWAP1 PUSH2 0x3049 JUMP JUMPDEST SWAP2 SWAP1 POP SSTORE POP PUSH1 0x40 MLOAD DUP1 PUSH2 0x120 ADD PUSH1 0x40 MSTORE DUP1 PUSH1 0x4 SLOAD DUP2 MSTORE PUSH1 0x20 ADD PUSH1 0x40 MLOAD DUP1 PUSH1 0x40 ADD PUSH1 0x40 MSTORE DUP1 PUSH1 0x6 DUP2 MSTORE PUSH1 0x20 ADD PUSH32 0x676F626C696E0000000000000000000000000000000000000000000000000000 DUP2 MSTORE POP DUP2 MSTORE PUSH1 0x20 ADD PUSH1 0x1 PUSH1 0x2 DUP2 GT ISZERO PUSH2 0xFF3 JUMPI PUSH2 0xFF2 PUSH2 0x2896 JUMP JUMPDEST JUMPDEST DUP2 MSTORE PUSH1 0x20 ADD PUSH1 0x1E DUP2 MSTORE PUSH1 0x20 ADD PUSH1 0xF DUP2 MSTORE PUSH1 0x20 ADD PUSH1 0x14 DUP2 MSTORE PUSH1 0x20 ADD PUSH1 0x3C DUP2 MSTORE PUSH1 0x20 ADD PUSH1 0x1 ISZERO ISZERO DUP2 MSTORE PUSH1 0x20 ADD PUSH1 0x0 ISZERO ISZERO DUP2 MSTORE POP PUSH1 0x3 PUSH1 0x0 PUSH1 0x4 SLOAD DUP2 MSTORE PUSH1 0x20 ADD SWAP1 DUP2 MSTORE PUSH1 0x20 ADD PUSH1 0x0 KECCAK256 PUSH1 0x0 DUP3 ADD MLOAD DUP2 PUSH1 0x0 ADD SSTORE PUSH1 0x20 DUP3 ADD MLOAD DUP2 PUSH1 0x1 ADD SWAP1 DUP2 PUSH2 0x1058 SWAP2 SWAP1 PUSH2 0x34BD JUMP JUMPDEST POP PUSH1 0x40 DUP3 ADD MLOAD DUP2 PUSH1 0x2 ADD PUSH1 0x0 PUSH2 0x100 EXP DUP2 SLOAD DUP2 PUSH1 0xFF MUL NOT AND SWAP1 DUP4 PUSH1 0x2 DUP2 GT ISZERO PUSH2 0x1084 JUMPI PUSH2 0x1083 PUSH2 0x2896 JUMP JUMPDEST JUMPDEST MUL OR SWAP1 SSTORE POP PUSH1 0x60 DUP3 ADD MLOAD DUP2 PUSH1 0x3 ADD SSTORE PUSH1 0x80 DUP3 ADD MLOAD DUP2 PUSH1 0x4 ADD SSTORE PUSH1 0xA0 DUP3 ADD MLOAD DUP2 PUSH1 0x5 ADD SSTORE PUSH1 0xC0 DUP3 ADD MLOAD DUP2 PUSH1 0x6 ADD SSTORE PUSH1 0xE0 DUP3 ADD MLOAD DUP2 PUSH1 0x7 ADD PUSH1 0x0 PUSH2 0x100 EXP DUP2 SLOAD DUP2 PUSH1 0xFF MUL NOT AND SWAP1 DUP4 ISZERO ISZERO MUL OR SWAP1 SSTORE POP PUSH2 0x100 DUP3 ADD MLOAD DUP2 PUSH1 0x7 ADD PUSH1 0x1 PUSH2 0x100 EXP DUP2 SLOAD DUP2 PUSH1 0xFF MUL NOT AND SWAP1 DUP4 ISZERO ISZERO MUL OR SWAP1 SSTORE POP SWAP1 POP POP PUSH1 0x4 SLOAD PUSH32 0x9D349582AD64820490413CDDCB008BB423A05FA7B839D10BF64452AD77BE447B PUSH1 0x1 PUSH1 0x1E PUSH1 0xF PUSH1 0x14 PUSH1 0x3C PUSH1 0x40 MLOAD PUSH2 0x1134 SWAP6 SWAP5 SWAP4 SWAP3 SWAP2 SWAP1 PUSH2 0x36C7 JUMP JUMPDEST PUSH1 0x40 MLOAD DUP1 SWAP2 SUB SWAP1 LOG2 PUSH1 0x4 SLOAD SWAP1 POP SWAP1 JUMP JUMPDEST CALLER PUSH1 0x1 PUSH1 0x0 DUP3 PUSH20 0xFFFFFFFFFFFFFFFFFFFFFFFFFFFFFFFFFFFFFFFF AND PUSH20 0xFFFFFFFFFFFFFFFFFFFFFFFFFFFFFFFFFFFFFFFF AND DUP2 MSTORE PUSH1 0x20 ADD SWAP1 DUP2 MSTORE PUSH1 0x20 ADD PUSH1 0x0 KECCAK256 PUSH1 0x6 ADD PUSH1 0x0 SWAP1 SLOAD SWAP1 PUSH2 0x100 EXP SWAP1 DIV PUSH1 0xFF AND PUSH2 0x11D4 JUMPI PUSH1 0x40 MLOAD PUSH32 0x8C379A000000000000000000000000000000000000000000000000000000000 DUP2 MSTORE PUSH1 0x4 ADD PUSH2 0x11CB SWAP1 PUSH2 0x31F4 JUMP JUMPDEST PUSH1 0x40 MLOAD DUP1 SWAP2 SUB SWAP1 REVERT JUMPDEST PUSH1 0x64 DUP3 GT ISZERO PUSH2 0x1218 JUMPI PUSH1 0x40 MLOAD PUSH32 0x8C379A000000000000000000000000000000000000000000000000000000000 DUP2 MSTORE PUSH1 0x4 ADD PUSH2 0x120F SWAP1 PUSH2 0x3779 JUMP JUMPDEST PUSH1 0x40 MLOAD DUP1 SWAP2 SUB SWAP1 REVERT JUMPDEST DUP2 PUSH1 0x1 PUSH1 0x0 CALLER PUSH20 0xFFFFFFFFFFFFFFFFFFFFFFFFFFFFFFFFFFFFFFFF AND PUSH20 0xFFFFFFFFFFFFFFFFFFFFFFFFFFFFFFFFFFFFFFFF AND DUP2 MSTORE PUSH1 0x20 ADD SWAP1 DUP2 MSTORE PUSH1 0x20 ADD PUSH1 0x0 KECCAK256 PUSH1 0x3 ADD DUP2 SWAP1 SSTORE POP CALLER PUSH20 0xFFFFFFFFFFFFFFFFFFFFFFFFFFFFFFFFFFFFFFFF AND PUSH32 0x19A6C61462D6E1C7792CCA1474187ABBDFD347D8E3917FE14B8C3B9C3C020A99 DUP4 PUSH1 0x40 MLOAD PUSH2 0x12A5 SWAP2 SWAP1 PUSH2 0x2A03 JUMP JUMPDEST PUSH1 0x40 MLOAD DUP1 SWAP2 SUB SWAP1 LOG2 POP POP JUMP JUMPDEST PUSH1 0x0 PUSH1 0x4 PUSH1 0x0 DUP2 SLOAD DUP1 SWAP3 SWAP2 SWAP1 PUSH2 0x12C6 SWAP1 PUSH2 0x3049 JUMP JUMPDEST SWAP2 SWAP1 POP SSTORE POP PUSH1 0x40 MLOAD DUP1 PUSH2 0x120 ADD PUSH1 0x40 MSTORE DUP1 PUSH1 0x4 SLOAD DUP2 MSTORE PUSH1 0x20 ADD PUSH1 0x40 MLOAD DUP1 PUSH1 0x40 ADD PUSH1 0x40 MSTORE DUP1 PUSH1 0x4 DUP2 MSTORE PUSH1 0x20 ADD PUSH32 0x626F737300000000000000000000000000000000000000000000000000000000 DUP2 MSTORE POP DUP2 MSTORE PUSH1 0x20 ADD PUSH1 0x2 DUP1 DUP2 GT ISZERO PUSH2 0x132D JUMPI PUSH2 0x132C PUSH2 0x2896 JUMP JUMPDEST JUMPDEST DUP2 MSTORE PUSH1 0x20 ADD PUSH1 0x64 DUP2 MSTORE PUSH1 0x20 ADD PUSH1 0x19 DUP2 MSTORE PUSH1 0x20 ADD PUSH1 0x64 DUP2 MSTORE PUSH1 0x20 ADD PUSH1 0x96 DUP2 MSTORE PUSH1 0x20 ADD PUSH1 0x1 ISZERO ISZERO DUP2 MSTORE PUSH1 0x20 ADD PUSH1 0x0 ISZERO ISZERO DUP2 MSTORE POP PUSH1 0x3 PUSH1 0x0 PUSH1 0x4 SLOAD DUP2 MSTORE PUSH1 0x20 ADD SWAP1 DUP2 MSTORE PUSH1 0x20 ADD PUSH1 0x0 KECCAK256 PUSH1 0x0 DUP3 ADD MLOAD DUP2 PUSH1 0x0 ADD SSTORE PUSH1 0x20 DUP3 ADD MLOAD DUP2 PUSH1 0x1 ADD SWAP1 DUP2 PUSH2 0x1392 SWAP2 SWAP1 PUSH2 0x34BD JUMP JUMPDEST POP PUSH1 0x40 DUP3 ADD MLOAD DUP2 PUSH1 0x2 ADD PUSH1 0x0 PUSH2 0x100 EXP DUP2 SLOAD DUP2 PUSH1 0xFF MUL NOT AND SWAP1 DUP4 PUSH1 0x2 DUP2 GT ISZERO PUSH2 0x13BE JUMPI PUSH2 0x13BD PUSH2 0x2896 JUMP JUMPDEST JUMPDEST MUL OR SWAP1 SSTORE POP PUSH1 0x60 DUP3 ADD MLOAD DUP2 PUSH1 0x3 ADD SSTORE PUSH1 0x80 DUP3 ADD MLOAD DUP2 PUSH1 0x4 ADD SSTORE PUSH1 0xA0 DUP3 ADD MLOAD DUP2 PUSH1 0x5 ADD SSTORE PUSH1 0xC0 DUP3 ADD MLOAD DUP2 PUSH1 0x6 ADD SSTORE PUSH1 0xE0 DUP3 ADD MLOAD DUP2 PUSH1 0x7 ADD PUSH1 0x0 PUSH2 0x100 EXP DUP2 SLOAD DUP2 PUSH1 0xFF MUL NOT AND SWAP1 DUP4 ISZERO ISZERO MUL OR SWAP1 SSTORE POP PUSH2 0x100 DUP3 ADD MLOAD DUP2 PUSH1 0x7 ADD PUSH1 0x1 PUSH2 0x100 EXP DUP2 SLOAD DUP2 PUSH1 0xFF MUL NOT AND SWAP1 DUP4 ISZERO ISZERO MUL OR SWAP1 SSTORE POP SWAP1 POP POP PUSH1 0x4 SLOAD PUSH32 0x9D349582AD64820490413CDDCB008BB423A05FA7B839D10BF64452AD77BE447B PUSH1 0x2 PUSH1 0x64 PUSH1 0x19 PUSH1 0x64 PUSH1 0x96 PUSH1 0x40 MLOAD PUSH2 0x146E SWAP6 SWAP5 SWAP4 SWAP3 SWAP2 SWAP1 PUSH2 0x385B JUMP JUMPDEST PUSH1 0x40 MLOAD DUP1 SWAP2 SUB SWAP1 LOG2 PUSH1 0x4 SLOAD SWAP1 POP SWAP1 JUMP JUMPDEST PUSH2 0x1486 PUSH2 0x25BF JUMP JUMPDEST PUSH1 0x5 PUSH1 0x0 DUP4 DUP2 MSTORE PUSH1 0x20 ADD SWAP1 DUP2 MSTORE PUSH1 0x20 ADD PUSH1 0x0 KECCAK256 PUSH1 0x5 ADD PUSH1 0x0 SWAP1 SLOAD SWAP1 PUSH2 0x100 EXP SWAP1 DIV PUSH1 0xFF AND PUSH2 0x14E9 JUMPI PUSH1 0x40 MLOAD PUSH32 0x8C379A000000000000000000000000000000000000000000000000000000000 DUP2 MSTORE PUSH1 0x4 ADD PUSH2 0x14E0 SWAP1 PUSH2 0x390D JUMP JUMPDEST PUSH1 0x40 MLOAD DUP1 SWAP2 SUB SWAP1 REVERT JUMPDEST PUSH1 0x5 PUSH1 0x0 DUP4 DUP2 MSTORE PUSH1 0x20 ADD SWAP1 DUP2 MSTORE PUSH1 0x20 ADD PUSH1 0x0 KECCAK256 PUSH1 0x40 MLOAD DUP1 PUSH1 0xC0 ADD PUSH1 0x40 MSTORE SWAP1 DUP2 PUSH1 0x0 DUP3 ADD SLOAD DUP2 MSTORE PUSH1 0x20 ADD PUSH1 0x1 DUP3 ADD DUP1 SLOAD PUSH2 0x1521 SWAP1 PUSH2 0x3177 JUMP JUMPDEST DUP1 PUSH1 0x1F ADD PUSH1 0x20 DUP1 SWAP2 DIV MUL PUSH1 0x20 ADD PUSH1 0x40 MLOAD SWAP1 DUP2 ADD PUSH1 0x40 MSTORE DUP1 SWAP3 SWAP2 SWAP1 DUP2 DUP2 MSTORE PUSH1 0x20 ADD DUP3 DUP1 SLOAD PUSH2 0x154D SWAP1 PUSH2 0x3177 JUMP JUMPDEST DUP1 ISZERO PUSH2 0x159A JUMPI DUP1 PUSH1 0x1F LT PUSH2 0x156F JUMPI PUSH2 0x100 DUP1 DUP4 SLOAD DIV MUL DUP4 MSTORE SWAP2 PUSH1 0x20 ADD SWAP2 PUSH2 0x159A JUMP JUMPDEST DUP3 ADD SWAP2 SWAP1 PUSH1 0x0 MSTORE PUSH1 0x20 PUSH1 0x0 KECCAK256 SWAP1 JUMPDEST DUP2 SLOAD DUP2 MSTORE SWAP1 PUSH1 0x1 ADD SWAP1 PUSH1 0x20 ADD DUP1 DUP4 GT PUSH2 0x157D JUMPI DUP3 SWAP1 SUB PUSH1 0x1F AND DUP3 ADD SWAP2 JUMPDEST POP POP POP POP POP DUP2 MSTORE PUSH1 0x20 ADD PUSH1 0x2 DUP3 ADD DUP1 SLOAD PUSH2 0x15B3 SWAP1 PUSH2 0x3177 JUMP JUMPDEST DUP1 PUSH1 0x1F ADD PUSH1 0x20 DUP1 SWAP2 DIV MUL PUSH1 0x20 ADD PUSH1 0x40 MLOAD SWAP1 DUP2 ADD PUSH1 0x40 MSTORE DUP1 SWAP3 SWAP2 SWAP1 DUP2 DUP2 MSTORE PUSH1 0x20 ADD DUP3 DUP1 SLOAD PUSH2 0x15DF SWAP1 PUSH2 0x3177 JUMP JUMPDEST DUP1 ISZERO PUSH2 0x162C JUMPI DUP1 PUSH1 0x1F LT PUSH2 0x1601 JUMPI PUSH2 0x100 DUP1 DUP4 SLOAD DIV MUL DUP4 MSTORE SWAP2 PUSH1 0x20 ADD SWAP2 PUSH2 0x162C JUMP JUMPDEST DUP3 ADD SWAP2 SWAP1 PUSH1 0x0 MSTORE PUSH1 0x20 PUSH1 0x0 KECCAK256 SWAP1 JUMPDEST DUP2 SLOAD DUP2 MSTORE SWAP1 PUSH1 0x1 ADD SWAP1 PUSH1 0x20 ADD DUP1 DUP4 GT PUSH2 0x160F JUMPI DUP3 SWAP1 SUB PUSH1 0x1F AND DUP3 ADD SWAP2 JUMPDEST POP POP POP POP POP DUP2 MSTORE PUSH1 0x20 ADD PUSH1 0x3 DUP3 ADD SLOAD DUP2 MSTORE PUSH1 0x20 ADD PUSH1 0x4 DUP3 ADD DUP1 SLOAD PUSH2 0x164F SWAP1 PUSH2 0x3177 JUMP JUMPDEST DUP1 PUSH1 0x1F ADD PUSH1 0x20 DUP1 SWAP2 DIV MUL PUSH1 0x20 ADD PUSH1 0x40 MLOAD SWAP1 DUP2 ADD PUSH1 0x40 MSTORE DUP1 SWAP3 SWAP2 SWAP1 DUP2 DUP2 MSTORE PUSH1 0x20 ADD DUP3 DUP1 SLOAD PUSH2 0x167B SWAP1 PUSH2 0x3177 JUMP JUMPDEST DUP1 ISZERO PUSH2 0x16C8 JUMPI DUP1 PUSH1 0x1F LT PUSH2 0x169D JUMPI PUSH2 0x100 DUP1 DUP4 SLOAD DIV MUL DUP4 MSTORE SWAP2 PUSH1 0x20 ADD SWAP2 PUSH2 0x16C8 JUMP JUMPDEST DUP3 ADD SWAP2 SWAP1 PUSH1 0x0 MSTORE PUSH1 0x20 PUSH1 0x0 KECCAK256 SWAP1 JUMPDEST DUP2 SLOAD DUP2 MSTORE SWAP1 PUSH1 0x1 ADD SWAP1 PUSH1 0x20 ADD DUP1 DUP4 GT PUSH2 0x16AB JUMPI DUP3 SWAP1 SUB PUSH1 0x1F AND DUP3 ADD SWAP2 JUMPDEST POP POP POP POP POP DUP2 MSTORE PUSH1 0x20 ADD PUSH1 0x5 DUP3 ADD PUSH1 0x0 SWAP1 SLOAD SWAP1 PUSH2 0x100 EXP SWAP1 DIV PUSH1 0xFF AND ISZERO ISZERO ISZERO ISZERO DUP2 MSTORE POP POP SWAP1 POP SWAP2 SWAP1 POP JUMP JUMPDEST PUSH2 0x16FB PUSH2 0x25F7 JUMP JUMPDEST PUSH1 0x0 PUSH1 0x40 MLOAD DUP1 PUSH1 0x20 ADD PUSH1 0x40 MSTORE SWAP1 DUP2 PUSH1 0x0 DUP3 ADD SLOAD DUP2 MSTORE POP POP SWAP1 POP SWAP1 JUMP JUMPDEST PUSH1 0x7 PUSH1 0x20 MSTORE DUP2 PUSH1 0x0 MSTORE PUSH1 0x40 PUSH1 0x0 KECCAK256 DUP2 DUP2 SLOAD DUP2 LT PUSH2 0x1733 JUMPI PUSH1 0x0 DUP1 REVERT JUMPDEST SWAP1 PUSH1 0x0 MSTORE PUSH1 0x20 PUSH1 0x0 KECCAK256 ADD PUSH1 0x0 SWAP2 POP SWAP2 POP POP SLOAD DUP2 JUMP JUMPDEST PUSH1 0x0 PUSH1 0x1 PUSH1 0x0 CALLER PUSH20 0xFFFFFFFFFFFFFFFFFFFFFFFFFFFFFFFFFFFFFFFF AND PUSH20 0xFFFFFFFFFFFFFFFFFFFFFFFFFFFFFFFFFFFFFFFF AND DUP2 MSTORE PUSH1 0x20 ADD SWAP1 DUP2 MSTORE PUSH1 0x20 ADD PUSH1 0x0 KECCAK256 PUSH1 0x4 ADD SLOAD SWAP1 POP SWAP1 JUMP JUMPDEST CALLER PUSH1 0x1 PUSH1 0x0 DUP3 PUSH20 0xFFFFFFFFFFFFFFFFFFFFFFFFFFFFFFFFFFFFFFFF AND PUSH20 0xFFFFFFFFFFFFFFFFFFFFFFFFFFFFFFFFFFFFFFFF AND DUP2 MSTORE PUSH1 0x20 ADD SWAP1 DUP2 MSTORE PUSH1 0x20 ADD PUSH1 0x0 KECCAK256 PUSH1 0x6 ADD PUSH1 0x0 SWAP1 SLOAD SWAP1 PUSH2 0x100 EXP SWAP1 DIV PUSH1 0xFF AND PUSH2 0x1822 JUMPI PUSH1 0x40 MLOAD PUSH32 0x8C379A000000000000000000000000000000000000000000000000000000000 DUP2 MSTORE PUSH1 0x4 ADD PUSH2 0x1819 SWAP1 PUSH2 0x31F4 JUMP JUMPDEST PUSH1 0x40 MLOAD DUP1 SWAP2 SUB SWAP1 REVERT JUMPDEST DUP2 PUSH1 0x1 PUSH1 0x0 CALLER PUSH20 0xFFFFFFFFFFFFFFFFFFFFFFFFFFFFFFFFFFFFFFFF AND PUSH20 0xFFFFFFFFFFFFFFFFFFFFFFFFFFFFFFFFFFFFFFFF AND DUP2 MSTORE PUSH1 0x20 ADD SWAP1 DUP2 MSTORE PUSH1 0x20 ADD PUSH1 0x0 KECCAK256 PUSH1 0x2 ADD PUSH1 0x0 DUP3 DUP3 SLOAD PUSH2 0x1874 SWAP2 SWAP1 PUSH2 0x392D JUMP JUMPDEST SWAP3 POP POP DUP2 SWAP1 SSTORE POP PUSH1 0x64 PUSH1 0x1 PUSH1 0x0 CALLER PUSH20 0xFFFFFFFFFFFFFFFFFFFFFFFFFFFFFFFFFFFFFFFF AND PUSH20 0xFFFFFFFFFFFFFFFFFFFFFFFFFFFFFFFFFFFFFFFF AND DUP2 MSTORE PUSH1 0x20 ADD SWAP1 DUP2 MSTORE PUSH1 0x20 ADD PUSH1 0x0 KECCAK256 PUSH1 0x1 ADD SLOAD PUSH2 0x18CA SWAP2 SWAP1 PUSH2 0x3961 JUMP JUMPDEST PUSH1 0x1 PUSH1 0x0 CALLER PUSH20 0xFFFFFFFFFFFFFFFFFFFFFFFFFFFFFFFFFFFFFFFF AND PUSH20 0xFFFFFFFFFFFFFFFFFFFFFFFFFFFFFFFFFFFFFFFF AND DUP2 MSTORE PUSH1 0x20 ADD SWAP1 DUP2 MSTORE PUSH1 0x20 ADD PUSH1 0x0 KECCAK256 PUSH1 0x2 ADD SLOAD LT PUSH2 0x191B JUMPI PUSH2 0x191A PUSH2 0x921 JUMP JUMPDEST JUMPDEST POP POP JUMP JUMPDEST PUSH1 0x60 DUP2 PUSH1 0x1 PUSH1 0x0 DUP3 PUSH20 0xFFFFFFFFFFFFFFFFFFFFFFFFFFFFFFFFFFFFFFFF AND PUSH20 0xFFFFFFFFFFFFFFFFFFFFFFFFFFFFFFFFFFFFFFFF AND DUP2 MSTORE PUSH1 0x20 ADD SWAP1 DUP2 MSTORE PUSH1 0x20 ADD PUSH1 0x0 KECCAK256 PUSH1 0x6 ADD PUSH1 0x0 SWAP1 SLOAD SWAP1 PUSH2 0x100 EXP SWAP1 DIV PUSH1 0xFF AND PUSH2 0x19B1 JUMPI PUSH1 0x40 MLOAD PUSH32 0x8C379A000000000000000000000000000000000000000000000000000000000 DUP2 MSTORE PUSH1 0x4 ADD PUSH2 0x19A8 SWAP1 PUSH2 0x31F4 JUMP JUMPDEST PUSH1 0x40 MLOAD DUP1 SWAP2 SUB SWAP1 REVERT JUMPDEST PUSH1 0x7 PUSH1 0x0 DUP5 PUSH20 0xFFFFFFFFFFFFFFFFFFFFFFFFFFFFFFFFFFFFFFFF AND PUSH20 0xFFFFFFFFFFFFFFFFFFFFFFFFFFFFFFFFFFFFFFFF AND DUP2 MSTORE PUSH1 0x20 ADD SWAP1 DUP2 MSTORE PUSH1 0x20 ADD PUSH1 0x0 KECCAK256 DUP1 SLOAD DUP1 PUSH1 0x20 MUL PUSH1 0x20 ADD PUSH1 0x40 MLOAD SWAP1 DUP2 ADD PUSH1 0x40 MSTORE DUP1 SWAP3 SWAP2 SWAP1 DUP2 DUP2 MSTORE PUSH1 0x20 ADD DUP3 DUP1 SLOAD DUP1 ISZERO PUSH2 0x1A3A JUMPI PUSH1 0x20 MUL DUP3 ADD SWAP2 SWAP1 PUSH1 0x0 MSTORE PUSH1 0x20 PUSH1 0x0 KECCAK256 SWAP1 JUMPDEST DUP2 SLOAD DUP2 MSTORE PUSH1 0x20 ADD SWAP1 PUSH1 0x1 ADD SWAP1 DUP1 DUP4 GT PUSH2 0x1A26 JUMPI JUMPDEST POP POP POP POP POP SWAP2 POP POP SWAP2 SWAP1 POP JUMP JUMPDEST PUSH1 0x0 PUSH1 0x4 PUSH1 0x0 DUP2 SLOAD DUP1 SWAP3 SWAP2 SWAP1 PUSH2 0x1A5C SWAP1 PUSH2 0x3049 JUMP JUMPDEST SWAP2 SWAP1 POP SSTORE POP PUSH1 0x40 MLOAD DUP1 PUSH2 0x120 ADD PUSH1 0x40 MSTORE DUP1 PUSH1 0x4 SLOAD DUP2 MSTORE PUSH1 0x20 ADD PUSH1 0x40 MLOAD DUP1 PUSH1 0x40 ADD PUSH1 0x40 MSTORE DUP1 PUSH1 0x5 DUP2 MSTORE PUSH1 0x20 ADD PUSH32 0x736C696D65000000000000000000000000000000000000000000000000000000 DUP2 MSTORE POP DUP2 MSTORE PUSH1 0x20 ADD PUSH1 0x0 PUSH1 0x2 DUP2 GT ISZERO PUSH2 0x1AC4 JUMPI PUSH2 0x1AC3 PUSH2 0x2896 JUMP JUMPDEST JUMPDEST DUP2 MSTORE PUSH1 0x20 ADD PUSH1 0xF DUP2 MSTORE PUSH1 0x20 ADD PUSH1 0xA DUP2 MSTORE PUSH1 0x20 ADD PUSH1 0x5 DUP2 MSTORE PUSH1 0x20 ADD PUSH1 0x28 DUP2 MSTORE PUSH1 0x20 ADD PUSH1 0x1 ISZERO ISZERO DUP2 MSTORE PUSH1 0x20 ADD PUSH1 0x0 ISZERO ISZERO DUP2 MSTORE POP PUSH1 0x3 PUSH1 0x0 PUSH1 0x4 SLOAD DUP2 MSTORE PUSH1 0x20 ADD SWAP1 DUP2 MSTORE PUSH1 0x20 ADD PUSH1 0x0 KECCAK256 PUSH1 0x0 DUP3 ADD MLOAD DUP2 PUSH1 0x0 ADD SSTORE PUSH1 0x20 DUP3 ADD MLOAD DUP2 PUSH1 0x1 ADD SWAP1 DUP2 PUSH2 0x1B29 SWAP2 SWAP1 PUSH2 0x34BD JUMP JUMPDEST POP PUSH1 0x40 DUP3 ADD MLOAD DUP2 PUSH1 0x2 ADD PUSH1 0x0 PUSH2 0x100 EXP DUP2 SLOAD DUP2 PUSH1 0xFF MUL NOT AND SWAP1 DUP4 PUSH1 0x2 DUP2 GT ISZERO PUSH2 0x1B55 JUMPI PUSH2 0x1B54 PUSH2 0x2896 JUMP JUMPDEST JUMPDEST MUL OR SWAP1 SSTORE POP PUSH1 0x60 DUP3 ADD MLOAD DUP2 PUSH1 0x3 ADD SSTORE PUSH1 0x80 DUP3 ADD MLOAD DUP2 PUSH1 0x4 ADD SSTORE PUSH1 0xA0 DUP3 ADD MLOAD DUP2 PUSH1 0x5 ADD SSTORE PUSH1 0xC0 DUP3 ADD MLOAD DUP2 PUSH1 0x6 ADD SSTORE PUSH1 0xE0 DUP3 ADD MLOAD DUP2 PUSH1 0x7 ADD PUSH1 0x0 PUSH2 0x100 EXP DUP2 SLOAD DUP2 PUSH1 0xFF MUL NOT AND SWAP1 DUP4 ISZERO ISZERO MUL OR SWAP1 SSTORE POP PUSH2 0x100 DUP3 ADD MLOAD DUP2 PUSH1 0x7 ADD PUSH1 0x1 PUSH2 0x100 EXP DUP2 SLOAD DUP2 PUSH1 0xFF MUL NOT AND SWAP1 DUP4 ISZERO ISZERO MUL OR SWAP1 SSTORE POP SWAP1 POP POP PUSH1 0x4 SLOAD PUSH32 0x9D349582AD64820490413CDDCB008BB423A05FA7B839D10BF64452AD77BE447B PUSH1 0x0 PUSH1 0xF PUSH1 0xA PUSH1 0x5 PUSH1 0x28 PUSH1 0x40 MLOAD PUSH2 0x1C05 SWAP6 SWAP5 SWAP4 SWAP3 SWAP2 SWAP1 PUSH2 0x3AA0 JUMP JUMPDEST PUSH1 0x40 MLOAD DUP1 SWAP2 SUB SWAP1 LOG2 PUSH1 0x4 SLOAD SWAP1 POP SWAP1 JUMP JUMPDEST PUSH2 0x1C1D PUSH2 0x260A JUMP JUMPDEST PUSH1 0x1 PUSH1 0x0 CALLER PUSH20 0xFFFFFFFFFFFFFFFFFFFFFFFFFFFFFFFFFFFFFFFF AND PUSH20 0xFFFFFFFFFFFFFFFFFFFFFFFFFFFFFFFFFFFFFFFF AND DUP2 MSTORE PUSH1 0x20 ADD SWAP1 DUP2 MSTORE PUSH1 0x20 ADD PUSH1 0x0 KECCAK256 PUSH1 0x6 ADD PUSH1 0x0 SWAP1 SLOAD SWAP1 PUSH2 0x100 EXP SWAP1 DIV PUSH1 0xFF AND PUSH2 0x1CAC JUMPI PUSH1 0x40 MLOAD PUSH32 0x8C379A000000000000000000000000000000000000000000000000000000000 DUP2 MSTORE PUSH1 0x4 ADD PUSH2 0x1CA3 SWAP1 PUSH2 0x31F4 JUMP JUMPDEST PUSH1 0x40 MLOAD DUP1 SWAP2 SUB SWAP1 REVERT JUMPDEST PUSH1 0x1 PUSH1 0x0 CALLER PUSH20 0xFFFFFFFFFFFFFFFFFFFFFFFFFFFFFFFFFFFFFFFF AND PUSH20 0xFFFFFFFFFFFFFFFFFFFFFFFFFFFFFFFFFFFFFFFF AND DUP2 MSTORE PUSH1 0x20 ADD SWAP1 DUP2 MSTORE PUSH1 0x20 ADD PUSH1 0x0 KECCAK256 PUSH1 0x40 MLOAD DUP1 PUSH1 0xE0 ADD PUSH1 0x40 MSTORE SWAP1 DUP2 PUSH1 0x0 DUP3 ADD SLOAD DUP2 MSTORE PUSH1 0x20 ADD PUSH1 0x1 DUP3 ADD SLOAD DUP2 MSTORE PUSH1 0x20 ADD PUSH1 0x2 DUP3 ADD SLOAD DUP2 MSTORE PUSH1 0x20 ADD PUSH1 0x3 DUP3 ADD SLOAD DUP2 MSTORE PUSH1 0x20 ADD PUSH1 0x4 DUP3 ADD SLOAD DUP2 MSTORE PUSH1 0x20 ADD PUSH1 0x5 DUP3 ADD SLOAD DUP2 MSTORE PUSH1 0x20 ADD PUSH1 0x6 DUP3 ADD PUSH1 0x0 SWAP1 SLOAD SWAP1 PUSH2 0x100 EXP SWAP1 DIV PUSH1 0xFF AND ISZERO ISZERO ISZERO ISZERO DUP2 MSTORE POP POP SWAP1 POP SWAP1 JUMP JUMPDEST PUSH1 0x0 DUP1 PUSH1 0x0 ADD SLOAD SWAP1 POP DUP2 JUMP JUMPDEST CALLER PUSH1 0x1 PUSH1 0x0 DUP3 PUSH20 0xFFFFFFFFFFFFFFFFFFFFFFFFFFFFFFFFFFFFFFFF AND PUSH20 0xFFFFFFFFFFFFFFFFFFFFFFFFFFFFFFFFFFFFFFFF AND DUP2 MSTORE PUSH1 0x20 ADD SWAP1 DUP2 MSTORE PUSH1 0x20 ADD PUSH1 0x0 KECCAK256 PUSH1 0x6 ADD PUSH1 0x0 SWAP1 SLOAD SWAP1 PUSH2 0x100 EXP SWAP1 DIV PUSH1 0xFF AND PUSH2 0x1DEE JUMPI PUSH1 0x40 MLOAD PUSH32 0x8C379A000000000000000000000000000000000000000000000000000000000 DUP2 MSTORE PUSH1 0x4 ADD PUSH2 0x1DE5 SWAP1 PUSH2 0x31F4 JUMP JUMPDEST PUSH1 0x40 MLOAD DUP1 SWAP2 SUB SWAP1 REVERT JUMPDEST PUSH1 0x5 PUSH1 0x0 DUP4 DUP2 MSTORE PUSH1 0x20 ADD SWAP1 DUP2 MSTORE PUSH1 0x20 ADD PUSH1 0x0 KECCAK256 PUSH1 0x5 ADD PUSH1 0x0 SWAP1 SLOAD SWAP1 PUSH2 0x100 EXP SWAP1 DIV PUSH1 0xFF AND PUSH2 0x1E51 JUMPI PUSH1 0x40 MLOAD PUSH32 0x8C379A000000000000000000000000000000000000000000000000000000000 DUP2 MSTORE PUSH1 0x4 ADD PUSH2 0x1E48 SWAP1 PUSH2 0x390D JUMP JUMPDEST PUSH1 0x40 MLOAD DUP1 SWAP2 SUB SWAP1 REVERT JUMPDEST PUSH1 0x5 PUSH1 0x0 DUP4 DUP2 MSTORE PUSH1 0x20 ADD SWAP1 DUP2 MSTORE PUSH1 0x20 ADD PUSH1 0x0 KECCAK256 PUSH1 0x3 ADD SLOAD PUSH1 0x1 PUSH1 0x0 CALLER PUSH20 0xFFFFFFFFFFFFFFFFFFFFFFFFFFFFFFFFFFFFFFFF AND PUSH20 0xFFFFFFFFFFFFFFFFFFFFFFFFFFFFFFFFFFFFFFFF AND DUP2 MSTORE PUSH1 0x20 ADD SWAP1 DUP2 MSTORE PUSH1 0x20 ADD PUSH1 0x0 KECCAK256 PUSH1 0x4 ADD SLOAD LT ISZERO PUSH2 0x1EEC JUMPI PUSH1 0x40 MLOAD PUSH32 0x8C379A000000000000000000000000000000000000000000000000000000000 DUP2 MSTORE PUSH1 0x4 ADD PUSH2 0x1EE3 SWAP1 PUSH2 0x3B52 JUMP JUMPDEST PUSH1 0x40 MLOAD DUP1 SWAP2 SUB SWAP1 REVERT JUMPDEST PUSH1 0x0 PUSH1 0x7 PUSH1 0x0 CALLER PUSH20 0xFFFFFFFFFFFFFFFFFFFFFFFFFFFFFFFFFFFFFFFF AND PUSH20 0xFFFFFFFFFFFFFFFFFFFFFFFFFFFFFFFFFFFFFFFF AND DUP2 MSTORE PUSH1 0x20 ADD SWAP1 DUP2 MSTORE PUSH1 0x20 ADD PUSH1 0x0 KECCAK256 SWAP1 POP PUSH1 0x0 JUMPDEST DUP2 DUP1 SLOAD SWAP1 POP DUP2 LT ISZERO PUSH2 0x1FB6 JUMPI DUP4 DUP3 PUSH1 0x1 DUP4 PUSH2 0x1F4D SWAP2 SWAP1 PUSH2 0x392D JUMP JUMPDEST DUP2 SLOAD DUP2 LT PUSH2 0x1F5E JUMPI PUSH2 0x1F5D PUSH2 0x3B72 JUMP JUMPDEST JUMPDEST SWAP1 PUSH1 0x0 MSTORE PUSH1 0x20 PUSH1 0x0 KECCAK256 ADD SLOAD SUB PUSH2 0x1FA9 JUMPI PUSH1 0x40 MLOAD PUSH32 0x8C379A000000000000000000000000000000000000000000000000000000000 DUP2 MSTORE PUSH1 0x4 ADD PUSH2 0x1FA0 SWAP1 PUSH2 0x3BED JUMP JUMPDEST PUSH1 0x40 MLOAD DUP1 SWAP2 SUB SWAP1 REVERT JUMPDEST DUP1 DUP1 PUSH1 0x1 ADD SWAP2 POP POP PUSH2 0x1F32 JUMP JUMPDEST POP PUSH1 0x5 PUSH1 0x0 DUP5 DUP2 MSTORE PUSH1 0x20 ADD SWAP1 DUP2 MSTORE PUSH1 0x20 ADD PUSH1 0x0 KECCAK256 PUSH1 0x3 ADD SLOAD PUSH1 0x1 PUSH1 0x0 CALLER PUSH20 0xFFFFFFFFFFFFFFFFFFFFFFFFFFFFFFFFFFFFFFFF AND PUSH20 0xFFFFFFFFFFFFFFFFFFFFFFFFFFFFFFFFFFFFFFFF AND DUP2 MSTORE PUSH1 0x20 ADD SWAP1 DUP2 MSTORE PUSH1 0x20 ADD PUSH1 0x0 KECCAK256 PUSH1 0x4 ADD PUSH1 0x0 DUP3 DUP3 SLOAD PUSH2 0x201F SWAP2 SWAP1 PUSH2 0x3C0D JUMP JUMPDEST SWAP3 POP POP DUP2 SWAP1 SSTORE POP PUSH1 0x7 PUSH1 0x0 CALLER PUSH20 0xFFFFFFFFFFFFFFFFFFFFFFFFFFFFFFFFFFFFFFFF AND PUSH20 0xFFFFFFFFFFFFFFFFFFFFFFFFFFFFFFFFFFFFFFFF AND DUP2 MSTORE PUSH1 0x20 ADD SWAP1 DUP2 MSTORE PUSH1 0x20 ADD PUSH1 0x0 KECCAK256 DUP4 SWAP1 DUP1 PUSH1 0x1 DUP2 SLOAD ADD DUP1 DUP3 SSTORE DUP1 SWAP2 POP POP PUSH1 0x1 SWAP1 SUB SWAP1 PUSH1 0x0 MSTORE PUSH1 0x20 PUSH1 0x0 KECCAK256 ADD PUSH1 0x0 SWAP1 SWAP2 SWAP1 SWAP2 SWAP1 SWAP2 POP SSTORE CALLER PUSH20 0xFFFFFFFFFFFFFFFFFFFFFFFFFFFFFFFFFFFFFFFF AND PUSH32 0x792FE07C0F3CE4EF42DF79C4A2B07925168CDDBAABF7A7EF1351F027A3760313 DUP5 PUSH1 0x40 MLOAD PUSH2 0x20D2 SWAP2 SWAP1 PUSH2 0x2A03 JUMP JUMPDEST PUSH1 0x40 MLOAD DUP1 SWAP2 SUB SWAP1 LOG2 POP POP POP JUMP JUMPDEST PUSH1 0x4 SLOAD DUP2 JUMP JUMPDEST PUSH1 0x3 PUSH1 0x20 MSTORE DUP1 PUSH1 0x0 MSTORE PUSH1 0x40 PUSH1 0x0 KECCAK256 PUSH1 0x0 SWAP2 POP SWAP1 POP DUP1 PUSH1 0x0 ADD SLOAD SWAP1 DUP1 PUSH1 0x1 ADD DUP1 SLOAD PUSH2 0x210E SWAP1 PUSH2 0x3177 JUMP JUMPDEST DUP1 PUSH1 0x1F ADD PUSH1 0x20 DUP1 SWAP2 DIV MUL PUSH1 0x20 ADD PUSH1 0x40 MLOAD SWAP1 DUP2 ADD PUSH1 0x40 MSTORE DUP1 SWAP3 SWAP2 SWAP1 DUP2 DUP2 MSTORE PUSH1 0x20 ADD DUP3 DUP1 SLOAD PUSH2 0x213A SWAP1 PUSH2 0x3177 JUMP JUMPDEST DUP1 ISZERO PUSH2 0x2187 JUMPI DUP1 PUSH1 0x1F LT PUSH2 0x215C JUMPI PUSH2 0x100 DUP1 DUP4 SLOAD DIV MUL DUP4 MSTORE SWAP2 PUSH1 0x20 ADD SWAP2 PUSH2 0x2187 JUMP JUMPDEST DUP3 ADD SWAP2 SWAP1 PUSH1 0x0 MSTORE PUSH1 0x20 PUSH1 0x0 KECCAK256 SWAP1 JUMPDEST DUP2 SLOAD DUP2 MSTORE SWAP1 PUSH1 0x1 ADD SWAP1 PUSH1 0x20 ADD DUP1 DUP4 GT PUSH2 0x216A JUMPI DUP3 SWAP1 SUB PUSH1 0x1F AND DUP3 ADD SWAP2 JUMPDEST POP POP POP POP POP SWAP1 DUP1 PUSH1 0x2 ADD PUSH1 0x0 SWAP1 SLOAD SWAP1 PUSH2 0x100 EXP SWAP1 DIV PUSH1 0xFF AND SWAP1 DUP1 PUSH1 0x3 ADD SLOAD SWAP1 DUP1 PUSH1 0x4 ADD SLOAD SWAP1 DUP1 PUSH1 0x5 ADD SLOAD SWAP1 DUP1 PUSH1 0x6 ADD SLOAD SWAP1 DUP1 PUSH1 0x7 ADD PUSH1 0x0 SWAP1 SLOAD SWAP1 PUSH2 0x100 EXP SWAP1 DIV PUSH1 0xFF AND SWAP1 DUP1 PUSH1 0x7 ADD PUSH1 0x1 SWAP1 SLOAD SWAP1 PUSH2 0x100 EXP SWAP1 DIV PUSH1 0xFF AND SWAP1 POP DUP10 JUMP JUMPDEST PUSH1 0x1 PUSH1 0x20 MSTORE DUP1 PUSH1 0x0 MSTORE PUSH1 0x40 PUSH1 0x0 KECCAK256 PUSH1 0x0 SWAP2 POP SWAP1 POP DUP1 PUSH1 0x0 ADD SLOAD SWAP1 DUP1 PUSH1 0x1 ADD SLOAD SWAP1 DUP1 PUSH1 0x2 ADD SLOAD SWAP1 DUP1 PUSH1 0x3 ADD SLOAD SWAP1 DUP1 PUSH1 0x4 ADD SLOAD SWAP1 DUP1 PUSH1 0x5 ADD SLOAD SWAP1 DUP1 PUSH1 0x6 ADD PUSH1 0x0 SWAP1 SLOAD SWAP1 PUSH2 0x100 EXP SWAP1 DIV PUSH1 0xFF AND SWAP1 POP DUP8 JUMP JUMPDEST PUSH1 0x60 PUSH1 0x0 PUSH1 0x6 SLOAD PUSH8 0xFFFFFFFFFFFFFFFF DUP2 GT ISZERO PUSH2 0x2251 JUMPI PUSH2 0x2250 PUSH2 0x32EC JUMP JUMPDEST JUMPDEST PUSH1 0x40 MLOAD SWAP1 DUP1 DUP3 MSTORE DUP1 PUSH1 0x20 MUL PUSH1 0x20 ADD DUP3 ADD PUSH1 0x40 MSTORE DUP1 ISZERO PUSH2 0x228A JUMPI DUP2 PUSH1 0x20 ADD JUMPDEST PUSH2 0x2277 PUSH2 0x25BF JUMP JUMPDEST DUP2 MSTORE PUSH1 0x20 ADD SWAP1 PUSH1 0x1 SWAP1 SUB SWAP1 DUP2 PUSH2 0x226F JUMPI SWAP1 POP JUMPDEST POP SWAP1 POP PUSH1 0x0 PUSH1 0x1 SWAP1 POP JUMPDEST PUSH1 0x6 SLOAD DUP2 GT PUSH2 0x24DD JUMPI PUSH1 0x5 PUSH1 0x0 DUP3 DUP2 MSTORE PUSH1 0x20 ADD SWAP1 DUP2 MSTORE PUSH1 0x20 ADD PUSH1 0x0 KECCAK256 PUSH1 0x40 MLOAD DUP1 PUSH1 0xC0 ADD PUSH1 0x40 MSTORE SWAP1 DUP2 PUSH1 0x0 DUP3 ADD SLOAD DUP2 MSTORE PUSH1 0x20 ADD PUSH1 0x1 DUP3 ADD DUP1 SLOAD PUSH2 0x22D5 SWAP1 PUSH2 0x3177 JUMP JUMPDEST DUP1 PUSH1 0x1F ADD PUSH1 0x20 DUP1 SWAP2 DIV MUL PUSH1 0x20 ADD PUSH1 0x40 MLOAD SWAP1 DUP2 ADD PUSH1 0x40 MSTORE DUP1 SWAP3 SWAP2 SWAP1 DUP2 DUP2 MSTORE PUSH1 0x20 ADD DUP3 DUP1 SLOAD PUSH2 0x2301 SWAP1 PUSH2 0x3177 JUMP JUMPDEST DUP1 ISZERO PUSH2 0x234E JUMPI DUP1 PUSH1 0x1F LT PUSH2 0x2323 JUMPI PUSH2 0x100 DUP1 DUP4 SLOAD DIV MUL DUP4 MSTORE SWAP2 PUSH1 0x20 ADD SWAP2 PUSH2 0x234E JUMP JUMPDEST DUP3 ADD SWAP2 SWAP1 PUSH1 0x0 MSTORE PUSH1 0x20 PUSH1 0x0 KECCAK256 SWAP1 JUMPDEST DUP2 SLOAD DUP2 MSTORE SWAP1 PUSH1 0x1 ADD SWAP1 PUSH1 0x20 ADD DUP1 DUP4 GT PUSH2 0x2331 JUMPI DUP3 SWAP1 SUB PUSH1 0x1F AND DUP3 ADD SWAP2 JUMPDEST POP POP POP POP POP DUP2 MSTORE PUSH1 0x20 ADD PUSH1 0x2 DUP3 ADD DUP1 SLOAD PUSH2 0x2367 SWAP1 PUSH2 0x3177 JUMP JUMPDEST DUP1 PUSH1 0x1F ADD PUSH1 0x20 DUP1 SWAP2 DIV MUL PUSH1 0x20 ADD PUSH1 0x40 MLOAD SWAP1 DUP2 ADD PUSH1 0x40 MSTORE DUP1 SWAP3 SWAP2 SWAP1 DUP2 DUP2 MSTORE PUSH1 0x20 ADD DUP3 DUP1 SLOAD PUSH2 0x2393 SWAP1 PUSH2 0x3177 JUMP JUMPDEST DUP1 ISZERO PUSH2 0x23E0 JUMPI DUP1 PUSH1 0x1F LT PUSH2 0x23B5 JUMPI PUSH2 0x100 DUP1 DUP4 SLOAD DIV MUL DUP4 MSTORE SWAP2 PUSH1 0x20 ADD SWAP2 PUSH2 0x23E0 JUMP JUMPDEST DUP3 ADD SWAP2 SWAP1 PUSH1 0x0 MSTORE PUSH1 0x20 PUSH1 0x0 KECCAK256 SWAP1 JUMPDEST DUP2 SLOAD DUP2 MSTORE SWAP1 PUSH1 0x1 ADD SWAP1 PUSH1 0x20 ADD DUP1 DUP4 GT PUSH2 0x23C3 JUMPI DUP3 SWAP1 SUB PUSH1 0x1F AND DUP3 ADD SWAP2 JUMPDEST POP POP POP POP POP DUP2 MSTORE PUSH1 0x20 ADD PUSH1 0x3 DUP3 ADD SLOAD DUP2 MSTORE PUSH1 0x20 ADD PUSH1 0x4 DUP3 ADD DUP1 SLOAD PUSH2 0x2403 SWAP1 PUSH2 0x3177 JUMP JUMPDEST DUP1 PUSH1 0x1F ADD PUSH1 0x20 DUP1 SWAP2 DIV MUL PUSH1 0x20 ADD PUSH1 0x40 MLOAD SWAP1 DUP2 ADD PUSH1 0x40 MSTORE DUP1 SWAP3 SWAP2 SWAP1 DUP2 DUP2 MSTORE PUSH1 0x20 ADD DUP3 DUP1 SLOAD PUSH2 0x242F SWAP1 PUSH2 0x3177 JUMP JUMPDEST DUP1 ISZERO PUSH2 0x247C JUMPI DUP1 PUSH1 0x1F LT PUSH2 0x2451 JUMPI PUSH2 0x100 DUP1 DUP4 SLOAD DIV MUL DUP4 MSTORE SWAP2 PUSH1 0x20 ADD SWAP2 PUSH2 0x247C JUMP JUMPDEST DUP3 ADD SWAP2 SWAP1 PUSH1 0x0 MSTORE PUSH1 0x20 PUSH1 0x0 KECCAK256 SWAP1 JUMPDEST DUP2 SLOAD DUP2 MSTORE SWAP1 PUSH1 0x1 ADD SWAP1 PUSH1 0x20 ADD DUP1 DUP4 GT PUSH2 0x245F JUMPI DUP3 SWAP1 SUB PUSH1 0x1F AND DUP3 ADD SWAP2 JUMPDEST POP POP POP POP POP DUP2 MSTORE PUSH1 0x20 ADD PUSH1 0x5 DUP3 ADD PUSH1 0x0 SWAP1 SLOAD SWAP1 PUSH2 0x100 EXP SWAP1 DIV PUSH1 0xFF AND ISZERO ISZERO ISZERO ISZERO DUP2 MSTORE POP POP DUP3 PUSH1 0x1 DUP4 PUSH2 0x24AE SWAP2 SWAP1 PUSH2 0x3C0D JUMP JUMPDEST DUP2 MLOAD DUP2 LT PUSH2 0x24BF JUMPI PUSH2 0x24BE PUSH2 0x3B72 JUMP JUMPDEST JUMPDEST PUSH1 0x20 MUL PUSH1 0x20 ADD ADD DUP2 SWAP1 MSTORE POP DUP1 DUP1 PUSH2 0x24D5 SWAP1 PUSH2 0x3049 JUMP JUMPDEST SWAP2 POP POP PUSH2 0x2294 JUMP JUMPDEST POP DUP1 SWAP2 POP POP SWAP1 JUMP JUMPDEST PUSH1 0x0 PUSH1 0x3 PUSH1 0x0 DUP4 DUP2 MSTORE PUSH1 0x20 ADD SWAP1 DUP2 MSTORE PUSH1 0x20 ADD PUSH1 0x0 KECCAK256 PUSH1 0x5 ADD SLOAD SWAP1 POP DUP1 PUSH1 0x1 PUSH1 0x0 CALLER PUSH20 0xFFFFFFFFFFFFFFFFFFFFFFFFFFFFFFFFFFFFFFFF AND PUSH20 0xFFFFFFFFFFFFFFFFFFFFFFFFFFFFFFFFFFFFFFFF AND DUP2 MSTORE PUSH1 0x20 ADD SWAP1 DUP2 MSTORE PUSH1 0x20 ADD PUSH1 0x0 KECCAK256 PUSH1 0x4 ADD PUSH1 0x0 DUP3 DUP3 SLOAD PUSH2 0x2552 SWAP2 SWAP1 PUSH2 0x392D JUMP JUMPDEST SWAP3 POP POP DUP2 SWAP1 SSTORE POP POP POP JUMP JUMPDEST PUSH1 0x40 MLOAD DUP1 PUSH2 0x120 ADD PUSH1 0x40 MSTORE DUP1 PUSH1 0x0 DUP2 MSTORE PUSH1 0x20 ADD PUSH1 0x60 DUP2 MSTORE PUSH1 0x20 ADD PUSH1 0x0 PUSH1 0x2 DUP2 GT ISZERO PUSH2 0x258B JUMPI PUSH2 0x258A PUSH2 0x2896 JUMP JUMPDEST JUMPDEST DUP2 MSTORE PUSH1 0x20 ADD PUSH1 0x0 DUP2 MSTORE PUSH1 0x20 ADD PUSH1 0x0 DUP2 MSTORE PUSH1 0x20 ADD PUSH1 0x0 DUP2 MSTORE PUSH1 0x20 ADD PUSH1 0x0 DUP2 MSTORE PUSH1 0x20 ADD PUSH1 0x0 ISZERO ISZERO DUP2 MSTORE PUSH1 0x20 ADD PUSH1 0x0 ISZERO ISZERO DUP2 MSTORE POP SWAP1 JUMP JUMPDEST PUSH1 0x40 MLOAD DUP1 PUSH1 0xC0 ADD PUSH1 0x40 MSTORE DUP1 PUSH1 0x0 DUP2 MSTORE PUSH1 0x20 ADD PUSH1 0x60 DUP2 MSTORE PUSH1 0x20 ADD PUSH1 0x60 DUP2 MSTORE PUSH1 0x20 ADD PUSH1 0x0 DUP2 MSTORE PUSH1 0x20 ADD PUSH1 0x60 DUP2 MSTORE PUSH1 0x20 ADD PUSH1 0x0 ISZERO ISZERO DUP2 MSTORE POP SWAP1 JUMP JUMPDEST PUSH1 0x40 MLOAD DUP1 PUSH1 0x20 ADD PUSH1 0x40 MSTORE DUP1 PUSH1 0x0 DUP2 MSTORE POP SWAP1 JUMP JUMPDEST PUSH1 0x40 MLOAD DUP1 PUSH1 0xE0 ADD PUSH1 0x40 MSTORE DUP1 PUSH1 0x0 DUP2 MSTORE PUSH1 0x20 ADD PUSH1 0x0 DUP2 MSTORE PUSH1 0x20 ADD PUSH1 0x0 DUP2 MSTORE PUSH1 0x20 ADD PUSH1 0x0 DUP2 MSTORE PUSH1 0x20 ADD PUSH1 0x0 DUP2 MSTORE PUSH1 0x20 ADD PUSH1 0x0 DUP2 MSTORE PUSH1 0x20 ADD PUSH1 0x0 ISZERO ISZERO DUP2 MSTORE POP SWAP1 JUMP JUMPDEST PUSH1 0x0 DUP1 REVERT JUMPDEST PUSH1 0x0 DUP2 SWAP1 POP SWAP2 SWAP1 POP JUMP JUMPDEST PUSH2 0x2661 DUP2 PUSH2 0x264E JUMP JUMPDEST DUP2 EQ PUSH2 0x266C JUMPI PUSH1 0x0 DUP1 REVERT JUMPDEST POP JUMP JUMPDEST PUSH1 0x0 DUP2 CALLDATALOAD SWAP1 POP PUSH2 0x267E DUP2 PUSH2 0x2658 JUMP JUMPDEST SWAP3 SWAP2 POP POP JUMP JUMPDEST PUSH1 0x0 PUSH1 0x20 DUP3 DUP5 SUB SLT ISZERO PUSH2 0x269A JUMPI PUSH2 0x2699 PUSH2 0x2649 JUMP JUMPDEST JUMPDEST PUSH1 0x0 PUSH2 0x26A8 DUP5 DUP3 DUP6 ADD PUSH2 0x266F JUMP JUMPDEST SWAP2 POP POP SWAP3 SWAP2 POP POP JUMP JUMPDEST PUSH1 0x0 PUSH20 0xFFFFFFFFFFFFFFFFFFFFFFFFFFFFFFFFFFFFFFFF DUP3 AND SWAP1 POP SWAP2 SWAP1 POP JUMP JUMPDEST PUSH1 0x0 PUSH2 0x26DC DUP3 PUSH2 0x26B1 JUMP JUMPDEST SWAP1 POP SWAP2 SWAP1 POP JUMP JUMPDEST PUSH2 0x26EC DUP2 PUSH2 0x26D1 JUMP JUMPDEST DUP3 MSTORE POP POP JUMP JUMPDEST PUSH1 0x0 PUSH1 0x20 DUP3 ADD SWAP1 POP PUSH2 0x2707 PUSH1 0x0 DUP4 ADD DUP5 PUSH2 0x26E3 JUMP JUMPDEST SWAP3 SWAP2 POP POP JUMP JUMPDEST PUSH2 0x2716 DUP2 PUSH2 0x264E JUMP JUMPDEST DUP3 MSTORE POP POP JUMP JUMPDEST PUSH1 0x0 DUP2 MLOAD SWAP1 POP SWAP2 SWAP1 POP JUMP JUMPDEST PUSH1 0x0 DUP3 DUP3 MSTORE PUSH1 0x20 DUP3 ADD SWAP1 POP SWAP3 SWAP2 POP POP JUMP JUMPDEST PUSH1 0x0 JUMPDEST DUP4 DUP2 LT ISZERO PUSH2 0x2756 JUMPI DUP1 DUP3 ADD MLOAD DUP2 DUP5 ADD MSTORE PUSH1 0x20 DUP2 ADD SWAP1 POP PUSH2 0x273B JUMP JUMPDEST PUSH1 0x0 DUP5 DUP5 ADD MSTORE POP POP POP POP JUMP JUMPDEST PUSH1 0x0 PUSH1 0x1F NOT PUSH1 0x1F DUP4 ADD AND SWAP1 POP SWAP2 SWAP1 POP JUMP JUMPDEST PUSH1 0x0 PUSH2 0x277E DUP3 PUSH2 0x271C JUMP JUMPDEST PUSH2 0x2788 DUP2 DUP6 PUSH2 0x2727 JUMP JUMPDEST SWAP4 POP PUSH2 0x2798 DUP2 DUP6 PUSH1 0x20 DUP7 ADD PUSH2 0x2738 JUMP JUMPDEST PUSH2 0x27A1 DUP2 PUSH2 0x2762 JUMP JUMPDEST DUP5 ADD SWAP2 POP POP SWAP3 SWAP2 POP POP JUMP JUMPDEST PUSH1 0x0 DUP2 ISZERO ISZERO SWAP1 POP SWAP2 SWAP1 POP JUMP JUMPDEST PUSH2 0x27C1 DUP2 PUSH2 0x27AC JUMP JUMPDEST DUP3 MSTORE POP POP JUMP JUMPDEST PUSH1 0x0 PUSH1 0xC0 DUP3 ADD SWAP1 POP PUSH2 0x27DC PUSH1 0x0 DUP4 ADD DUP10 PUSH2 0x270D JUMP JUMPDEST DUP2 DUP2 SUB PUSH1 0x20 DUP4 ADD MSTORE PUSH2 0x27EE DUP2 DUP9 PUSH2 0x2773 JUMP JUMPDEST SWAP1 POP DUP2 DUP2 SUB PUSH1 0x40 DUP4 ADD MSTORE PUSH2 0x2802 DUP2 DUP8 PUSH2 0x2773 JUMP JUMPDEST SWAP1 POP PUSH2 0x2811 PUSH1 0x60 DUP4 ADD DUP7 PUSH2 0x270D JUMP JUMPDEST DUP2 DUP2 SUB PUSH1 0x80 DUP4 ADD MSTORE PUSH2 0x2823 DUP2 DUP6 PUSH2 0x2773 JUMP JUMPDEST SWAP1 POP PUSH2 0x2832 PUSH1 0xA0 DUP4 ADD DUP5 PUSH2 0x27B8 JUMP JUMPDEST SWAP8 SWAP7 POP POP POP POP POP POP POP JUMP JUMPDEST PUSH2 0x2846 DUP2 PUSH2 0x264E JUMP JUMPDEST DUP3 MSTORE POP POP JUMP JUMPDEST PUSH1 0x0 DUP3 DUP3 MSTORE PUSH1 0x20 DUP3 ADD SWAP1 POP SWAP3 SWAP2 POP POP JUMP JUMPDEST PUSH1 0x0 PUSH2 0x2868 DUP3 PUSH2 0x271C JUMP JUMPDEST PUSH2 0x2872 DUP2 DUP6 PUSH2 0x284C JUMP JUMPDEST SWAP4 POP PUSH2 0x2882 DUP2 DUP6 PUSH1 0x20 DUP7 ADD PUSH2 0x2738 JUMP JUMPDEST PUSH2 0x288B DUP2 PUSH2 0x2762 JUMP JUMPDEST DUP5 ADD SWAP2 POP POP SWAP3 SWAP2 POP POP JUMP JUMPDEST PUSH32 0x4E487B7100000000000000000000000000000000000000000000000000000000 PUSH1 0x0 MSTORE PUSH1 0x21 PUSH1 0x4 MSTORE PUSH1 0x24 PUSH1 0x0 REVERT JUMPDEST PUSH1 0x3 DUP2 LT PUSH2 0x28D6 JUMPI PUSH2 0x28D5 PUSH2 0x2896 JUMP JUMPDEST JUMPDEST POP JUMP JUMPDEST PUSH1 0x0 DUP2 SWAP1 POP PUSH2 0x28E7 DUP3 PUSH2 0x28C5 JUMP JUMPDEST SWAP2 SWAP1 POP JUMP JUMPDEST PUSH1 0x0 PUSH2 0x28F7 DUP3 PUSH2 0x28D9 JUMP JUMPDEST SWAP1 POP SWAP2 SWAP1 POP JUMP JUMPDEST PUSH2 0x2907 DUP2 PUSH2 0x28EC JUMP JUMPDEST DUP3 MSTORE POP POP JUMP JUMPDEST PUSH2 0x2916 DUP2 PUSH2 0x27AC JUMP JUMPDEST DUP3 MSTORE POP POP JUMP JUMPDEST PUSH1 0x0 PUSH2 0x120 DUP4 ADD PUSH1 0x0 DUP4 ADD MLOAD PUSH2 0x2935 PUSH1 0x0 DUP7 ADD DUP3 PUSH2 0x283D JUMP JUMPDEST POP PUSH1 0x20 DUP4 ADD MLOAD DUP5 DUP3 SUB PUSH1 0x20 DUP7 ADD MSTORE PUSH2 0x294D DUP3 DUP3 PUSH2 0x285D JUMP JUMPDEST SWAP2 POP POP PUSH1 0x40 DUP4 ADD MLOAD PUSH2 0x2962 PUSH1 0x40 DUP7 ADD DUP3 PUSH2 0x28FE JUMP JUMPDEST POP PUSH1 0x60 DUP4 ADD MLOAD PUSH2 0x2975 PUSH1 0x60 DUP7 ADD DUP3 PUSH2 0x283D JUMP JUMPDEST POP PUSH1 0x80 DUP4 ADD MLOAD PUSH2 0x2988 PUSH1 0x80 DUP7 ADD DUP3 PUSH2 0x283D JUMP JUMPDEST POP PUSH1 0xA0 DUP4 ADD MLOAD PUSH2 0x299B PUSH1 0xA0 DUP7 ADD DUP3 PUSH2 0x283D JUMP JUMPDEST POP PUSH1 0xC0 DUP4 ADD MLOAD PUSH2 0x29AE PUSH1 0xC0 DUP7 ADD DUP3 PUSH2 0x283D JUMP JUMPDEST POP PUSH1 0xE0 DUP4 ADD MLOAD PUSH2 0x29C1 PUSH1 0xE0 DUP7 ADD DUP3 PUSH2 0x290D JUMP JUMPDEST POP PUSH2 0x100 DUP4 ADD MLOAD PUSH2 0x29D6 PUSH2 0x100 DUP7 ADD DUP3 PUSH2 0x290D JUMP JUMPDEST POP DUP1 SWAP2 POP POP SWAP3 SWAP2 POP POP JUMP JUMPDEST PUSH1 0x0 PUSH1 0x20 DUP3 ADD SWAP1 POP DUP2 DUP2 SUB PUSH1 0x0 DUP4 ADD MSTORE PUSH2 0x29FB DUP2 DUP5 PUSH2 0x291C JUMP JUMPDEST SWAP1 POP SWAP3 SWAP2 POP POP JUMP JUMPDEST PUSH1 0x0 PUSH1 0x20 DUP3 ADD SWAP1 POP PUSH2 0x2A18 PUSH1 0x0 DUP4 ADD DUP5 PUSH2 0x270D JUMP JUMPDEST SWAP3 SWAP2 POP POP JUMP JUMPDEST PUSH1 0x0 PUSH1 0xC0 DUP4 ADD PUSH1 0x0 DUP4 ADD MLOAD PUSH2 0x2A36 PUSH1 0x0 DUP7 ADD DUP3 PUSH2 0x283D JUMP JUMPDEST POP PUSH1 0x20 DUP4 ADD MLOAD DUP5 DUP3 SUB PUSH1 0x20 DUP7 ADD MSTORE PUSH2 0x2A4E DUP3 DUP3 PUSH2 0x285D JUMP JUMPDEST SWAP2 POP POP PUSH1 0x40 DUP4 ADD MLOAD DUP5 DUP3 SUB PUSH1 0x40 DUP7 ADD MSTORE PUSH2 0x2A68 DUP3 DUP3 PUSH2 0x285D JUMP JUMPDEST SWAP2 POP POP PUSH1 0x60 DUP4 ADD MLOAD PUSH2 0x2A7D PUSH1 0x60 DUP7 ADD DUP3 PUSH2 0x283D JUMP JUMPDEST POP PUSH1 0x80 DUP4 ADD MLOAD DUP5 DUP3 SUB PUSH1 0x80 DUP7 ADD MSTORE PUSH2 0x2A95 DUP3 DUP3 PUSH2 0x285D JUMP JUMPDEST SWAP2 POP POP PUSH1 0xA0 DUP4 ADD MLOAD PUSH2 0x2AAA PUSH1 0xA0 DUP7 ADD DUP3 PUSH2 0x290D JUMP JUMPDEST POP DUP1 SWAP2 POP POP SWAP3 SWAP2 POP POP JUMP JUMPDEST PUSH1 0x0 PUSH1 0x20 DUP3 ADD SWAP1 POP DUP2 DUP2 SUB PUSH1 0x0 DUP4 ADD MSTORE PUSH2 0x2ACF DUP2 DUP5 PUSH2 0x2A1E JUMP JUMPDEST SWAP1 POP SWAP3 SWAP2 POP POP JUMP JUMPDEST PUSH1 0x20 DUP3 ADD PUSH1 0x0 DUP3 ADD MLOAD PUSH2 0x2AED PUSH1 0x0 DUP6 ADD DUP3 PUSH2 0x283D JUMP JUMPDEST POP POP POP POP JUMP JUMPDEST PUSH1 0x0 PUSH1 0x20 DUP3 ADD SWAP1 POP PUSH2 0x2B08 PUSH1 0x0 DUP4 ADD DUP5 PUSH2 0x2AD7 JUMP JUMPDEST SWAP3 SWAP2 POP POP JUMP JUMPDEST PUSH2 0x2B17 DUP2 PUSH2 0x26D1 JUMP JUMPDEST DUP2 EQ PUSH2 0x2B22 JUMPI PUSH1 0x0 DUP1 REVERT JUMPDEST POP JUMP JUMPDEST PUSH1 0x0 DUP2 CALLDATALOAD SWAP1 POP PUSH2 0x2B34 DUP2 PUSH2 0x2B0E JUMP JUMPDEST SWAP3 SWAP2 POP POP JUMP JUMPDEST PUSH1 0x0 DUP1 PUSH1 0x40 DUP4 DUP6 SUB SLT ISZERO PUSH2 0x2B51 JUMPI PUSH2 0x2B50 PUSH2 0x2649 JUMP JUMPDEST JUMPDEST PUSH1 0x0 PUSH2 0x2B5F DUP6 DUP3 DUP7 ADD PUSH2 0x2B25 JUMP JUMPDEST SWAP3 POP POP PUSH1 0x20 PUSH2 0x2B70 DUP6 DUP3 DUP7 ADD PUSH2 0x266F JUMP JUMPDEST SWAP2 POP POP SWAP3 POP SWAP3 SWAP1 POP JUMP JUMPDEST PUSH1 0x0 PUSH1 0x20 DUP3 DUP5 SUB SLT ISZERO PUSH2 0x2B90 JUMPI PUSH2 0x2B8F PUSH2 0x2649 JUMP JUMPDEST JUMPDEST PUSH1 0x0 PUSH2 0x2B9E DUP5 DUP3 DUP6 ADD PUSH2 0x2B25 JUMP JUMPDEST SWAP2 POP POP SWAP3 SWAP2 POP POP JUMP JUMPDEST PUSH1 0x0 DUP2 MLOAD SWAP1 POP SWAP2 SWAP1 POP JUMP JUMPDEST PUSH1 0x0 DUP3 DUP3 MSTORE PUSH1 0x20 DUP3 ADD SWAP1 POP SWAP3 SWAP2 POP POP JUMP JUMPDEST PUSH1 0x0 DUP2 SWAP1 POP PUSH1 0x20 DUP3 ADD SWAP1 POP SWAP2 SWAP1 POP JUMP JUMPDEST PUSH1 0x0 PUSH2 0x2BDF DUP4 DUP4 PUSH2 0x283D JUMP JUMPDEST PUSH1 0x20 DUP4 ADD SWAP1 POP SWAP3 SWAP2 POP POP JUMP JUMPDEST PUSH1 0x0 PUSH1 0x20 DUP3 ADD SWAP1 POP SWAP2 SWAP1 POP JUMP JUMPDEST PUSH1 0x0 PUSH2 0x2C03 DUP3 PUSH2 0x2BA7 JUMP JUMPDEST PUSH2 0x2C0D DUP2 DUP6 PUSH2 0x2BB2 JUMP JUMPDEST SWAP4 POP PUSH2 0x2C18 DUP4 PUSH2 0x2BC3 JUMP JUMPDEST DUP1 PUSH1 0x0 JUMPDEST DUP4 DUP2 LT ISZERO PUSH2 0x2C49 JUMPI DUP2 MLOAD PUSH2 0x2C30 DUP9 DUP3 PUSH2 0x2BD3 JUMP JUMPDEST SWAP8 POP PUSH2 0x2C3B DUP4 PUSH2 0x2BEB JUMP JUMPDEST SWAP3 POP POP PUSH1 0x1 DUP2 ADD SWAP1 POP PUSH2 0x2C1C JUMP JUMPDEST POP DUP6 SWAP4 POP POP POP POP SWAP3 SWAP2 POP POP JUMP JUMPDEST PUSH1 0x0 PUSH1 0x20 DUP3 ADD SWAP1 POP DUP2 DUP2 SUB PUSH1 0x0 DUP4 ADD MSTORE PUSH2 0x2C70 DUP2 DUP5 PUSH2 0x2BF8 JUMP JUMPDEST SWAP1 POP SWAP3 SWAP2 POP POP JUMP JUMPDEST PUSH1 0xE0 DUP3 ADD PUSH1 0x0 DUP3 ADD MLOAD PUSH2 0x2C8E PUSH1 0x0 DUP6 ADD DUP3 PUSH2 0x283D JUMP JUMPDEST POP PUSH1 0x20 DUP3 ADD MLOAD PUSH2 0x2CA1 PUSH1 0x20 DUP6 ADD DUP3 PUSH2 0x283D JUMP JUMPDEST POP PUSH1 0x40 DUP3 ADD MLOAD PUSH2 0x2CB4 PUSH1 0x40 DUP6 ADD DUP3 PUSH2 0x283D JUMP JUMPDEST POP PUSH1 0x60 DUP3 ADD MLOAD PUSH2 0x2CC7 PUSH1 0x60 DUP6 ADD DUP3 PUSH2 0x283D JUMP JUMPDEST POP PUSH1 0x80 DUP3 ADD MLOAD PUSH2 0x2CDA PUSH1 0x80 DUP6 ADD DUP3 PUSH2 0x283D JUMP JUMPDEST POP PUSH1 0xA0 DUP3 ADD MLOAD PUSH2 0x2CED PUSH1 0xA0 DUP6 ADD DUP3 PUSH2 0x283D JUMP JUMPDEST POP PUSH1 0xC0 DUP3 ADD MLOAD PUSH2 0x2D00 PUSH1 0xC0 DUP6 ADD DUP3 PUSH2 0x290D JUMP JUMPDEST POP POP POP POP JUMP JUMPDEST PUSH1 0x0 PUSH1 0xE0 DUP3 ADD SWAP1 POP PUSH2 0x2D1B PUSH1 0x0 DUP4 ADD DUP5 PUSH2 0x2C78 JUMP JUMPDEST SWAP3 SWAP2 POP POP JUMP JUMPDEST PUSH2 0x2D2A DUP2 PUSH2 0x28EC JUMP JUMPDEST DUP3 MSTORE POP POP JUMP JUMPDEST PUSH1 0x0 PUSH2 0x120 DUP3 ADD SWAP1 POP PUSH2 0x2D46 PUSH1 0x0 DUP4 ADD DUP13 PUSH2 0x270D JUMP JUMPDEST DUP2 DUP2 SUB PUSH1 0x20 DUP4 ADD MSTORE PUSH2 0x2D58 DUP2 DUP12 PUSH2 0x2773 JUMP JUMPDEST SWAP1 POP PUSH2 0x2D67 PUSH1 0x40 DUP4 ADD DUP11 PUSH2 0x2D21 JUMP JUMPDEST PUSH2 0x2D74 PUSH1 0x60 DUP4 ADD DUP10 PUSH2 0x270D JUMP JUMPDEST PUSH2 0x2D81 PUSH1 0x80 DUP4 ADD DUP9 PUSH2 0x270D JUMP JUMPDEST PUSH2 0x2D8E PUSH1 0xA0 DUP4 ADD DUP8 PUSH2 0x270D JUMP JUMPDEST PUSH2 0x2D9B PUSH1 0xC0 DUP4 ADD DUP7 PUSH2 0x270D JUMP JUMPDEST PUSH2 0x2DA8 PUSH1 0xE0 DUP4 ADD DUP6 PUSH2 0x27B8 JUMP JUMPDEST PUSH2 0x2DB6 PUSH2 0x100 DUP4 ADD DUP5 PUSH2 0x27B8 JUMP JUMPDEST SWAP11 SWAP10 POP POP POP POP POP POP POP POP POP POP JUMP JUMPDEST PUSH1 0x0 PUSH1 0xE0 DUP3 ADD SWAP1 POP PUSH2 0x2DD9 PUSH1 0x0 DUP4 ADD DUP11 PUSH2 0x270D JUMP JUMPDEST PUSH2 0x2DE6 PUSH1 0x20 DUP4 ADD DUP10 PUSH2 0x270D JUMP JUMPDEST PUSH2 0x2DF3 PUSH1 0x40 DUP4 ADD DUP9 PUSH2 0x270D JUMP JUMPDEST PUSH2 0x2E00 PUSH1 0x60 DUP4 ADD DUP8 PUSH2 0x270D JUMP JUMPDEST PUSH2 0x2E0D PUSH1 0x80 DUP4 ADD DUP7 PUSH2 0x270D JUMP JUMPDEST PUSH2 0x2E1A PUSH1 0xA0 DUP4 ADD DUP6 PUSH2 0x270D JUMP JUMPDEST PUSH2 0x2E27 PUSH1 0xC0 DUP4 ADD DUP5 PUSH2 0x27B8 JUMP JUMPDEST SWAP9 SWAP8 POP POP POP POP POP POP POP POP JUMP JUMPDEST PUSH1 0x0 DUP2 MLOAD SWAP1 POP SWAP2 SWAP1 POP JUMP JUMPDEST PUSH1 0x0 DUP3 DUP3 MSTORE PUSH1 0x20 DUP3 ADD SWAP1 POP SWAP3 SWAP2 POP POP JUMP JUMPDEST PUSH1 0x0 DUP2 SWAP1 POP PUSH1 0x20 DUP3 ADD SWAP1 POP SWAP2 SWAP1 POP JUMP JUMPDEST PUSH1 0x0 PUSH1 0xC0 DUP4 ADD PUSH1 0x0 DUP4 ADD MLOAD PUSH2 0x2E77 PUSH1 0x0 DUP7 ADD DUP3 PUSH2 0x283D JUMP JUMPDEST POP PUSH1 0x20 DUP4 ADD MLOAD DUP5 DUP3 SUB PUSH1 0x20 DUP7 ADD MSTORE PUSH2 0x2E8F DUP3 DUP3 PUSH2 0x285D JUMP JUMPDEST SWAP2 POP POP PUSH1 0x40 DUP4 ADD MLOAD DUP5 DUP3 SUB PUSH1 0x40 DUP7 ADD MSTORE PUSH2 0x2EA9 DUP3 DUP3 PUSH2 0x285D JUMP JUMPDEST SWAP2 POP POP PUSH1 0x60 DUP4 ADD MLOAD PUSH2 0x2EBE PUSH1 0x60 DUP7 ADD DUP3 PUSH2 0x283D JUMP JUMPDEST POP PUSH1 0x80 DUP4 ADD MLOAD DUP5 DUP3 SUB PUSH1 0x80 DUP7 ADD MSTORE PUSH2 0x2ED6 DUP3 DUP3 PUSH2 0x285D JUMP JUMPDEST SWAP2 POP POP PUSH1 0xA0 DUP4 ADD MLOAD PUSH2 0x2EEB PUSH1 0xA0 DUP7 ADD DUP3 PUSH2 0x290D JUMP JUMPDEST POP DUP1 SWAP2 POP POP SWAP3 SWAP2 POP POP JUMP JUMPDEST PUSH1 0x0 PUSH2 0x2F02 DUP4 DUP4 PUSH2 0x2E5F JUMP JUMPDEST SWAP1 POP SWAP3 SWAP2 POP POP JUMP JUMPDEST PUSH1 0x0 PUSH1 0x20 DUP3 ADD SWAP1 POP SWAP2 SWAP1 POP JUMP JUMPDEST PUSH1 0x0 PUSH2 0x2F22 DUP3 PUSH2 0x2E33 JUMP JUMPDEST PUSH2 0x2F2C DUP2 DUP6 PUSH2 0x2E3E JUMP JUMPDEST SWAP4 POP DUP4 PUSH1 0x20 DUP3 MUL DUP6 ADD PUSH2 0x2F3E DUP6 PUSH2 0x2E4F JUMP JUMPDEST DUP1 PUSH1 0x0 JUMPDEST DUP6 DUP2 LT ISZERO PUSH2 0x2F7A JUMPI DUP5 DUP5 SUB DUP10 MSTORE DUP2 MLOAD PUSH2 0x2F5B DUP6 DUP3 PUSH2 0x2EF6 JUMP JUMPDEST SWAP5 POP PUSH2 0x2F66 DUP4 PUSH2 0x2F0A JUMP JUMPDEST SWAP3 POP PUSH1 0x20 DUP11 ADD SWAP10 POP POP PUSH1 0x1 DUP2 ADD SWAP1 POP PUSH2 0x2F42 JUMP JUMPDEST POP DUP3 SWAP8 POP DUP8 SWAP6 POP POP POP POP POP POP SWAP3 SWAP2 POP POP JUMP JUMPDEST PUSH1 0x0 PUSH1 0x20 DUP3 ADD SWAP1 POP DUP2 DUP2 SUB PUSH1 0x0 DUP4 ADD MSTORE PUSH2 0x2FA6 DUP2 DUP5 PUSH2 0x2F17 JUMP JUMPDEST SWAP1 POP SWAP3 SWAP2 POP POP JUMP JUMPDEST PUSH32 0x506C6179657220616C7265616479206578697374730000000000000000000000 PUSH1 0x0 DUP3 ADD MSTORE POP JUMP JUMPDEST PUSH1 0x0 PUSH2 0x2FE4 PUSH1 0x15 DUP4 PUSH2 0x2727 JUMP JUMPDEST SWAP2 POP PUSH2 0x2FEF DUP3 PUSH2 0x2FAE JUMP JUMPDEST PUSH1 0x20 DUP3 ADD SWAP1 POP SWAP2 SWAP1 POP JUMP JUMPDEST PUSH1 0x0 PUSH1 0x20 DUP3 ADD SWAP1 POP DUP2 DUP2 SUB PUSH1 0x0 DUP4 ADD MSTORE PUSH2 0x3013 DUP2 PUSH2 0x2FD7 JUMP JUMPDEST SWAP1 POP SWAP2 SWAP1 POP JUMP JUMPDEST PUSH32 0x4E487B7100000000000000000000000000000000000000000000000000000000 PUSH1 0x0 MSTORE PUSH1 0x11 PUSH1 0x4 MSTORE PUSH1 0x24 PUSH1 0x0 REVERT JUMPDEST PUSH1 0x0 PUSH2 0x3054 DUP3 PUSH2 0x264E JUMP JUMPDEST SWAP2 POP PUSH32 0xFFFFFFFFFFFFFFFFFFFFFFFFFFFFFFFFFFFFFFFFFFFFFFFFFFFFFFFFFFFFFFFF DUP3 SUB PUSH2 0x3086 JUMPI PUSH2 0x3085 PUSH2 0x301A JUMP JUMPDEST JUMPDEST PUSH1 0x1 DUP3 ADD SWAP1 POP SWAP2 SWAP1 POP JUMP JUMPDEST PUSH1 0x0 DUP2 SWAP1 POP SWAP2 SWAP1 POP JUMP JUMPDEST PUSH1 0x0 DUP2 SWAP1 POP SWAP2 SWAP1 POP JUMP JUMPDEST PUSH1 0x0 PUSH2 0x30C0 PUSH2 0x30BB PUSH2 0x30B6 DUP5 PUSH2 0x3091 JUMP JUMPDEST PUSH2 0x309B JUMP JUMPDEST PUSH2 0x264E JUMP JUMPDEST SWAP1 POP SWAP2 SWAP1 POP JUMP JUMPDEST PUSH2 0x30D0 DUP2 PUSH2 0x30A5 JUMP JUMPDEST DUP3 MSTORE POP POP JUMP JUMPDEST PUSH1 0x0 DUP2 SWAP1 POP SWAP2 SWAP1 POP JUMP JUMPDEST PUSH1 0x0 PUSH2 0x30FB PUSH2 0x30F6 PUSH2 0x30F1 DUP5 PUSH2 0x30D6 JUMP JUMPDEST PUSH2 0x309B JUMP JUMPDEST PUSH2 0x264E JUMP JUMPDEST SWAP1 POP SWAP2 SWAP1 POP JUMP JUMPDEST PUSH2 0x310B DUP2 PUSH2 0x30E0 JUMP JUMPDEST DUP3 MSTORE POP POP JUMP JUMPDEST PUSH1 0x0 PUSH1 0x60 DUP3 ADD SWAP1 POP PUSH2 0x3126 PUSH1 0x0 DUP4 ADD DUP7 PUSH2 0x30C7 JUMP JUMPDEST PUSH2 0x3133 PUSH1 0x20 DUP4 ADD DUP6 PUSH2 0x30C7 JUMP JUMPDEST PUSH2 0x3140 PUSH1 0x40 DUP4 ADD DUP5 PUSH2 0x3102 JUMP JUMPDEST SWAP5 SWAP4 POP POP POP POP JUMP JUMPDEST PUSH32 0x4E487B7100000000000000000000000000000000000000000000000000000000 PUSH1 0x0 MSTORE PUSH1 0x22 PUSH1 0x4 MSTORE PUSH1 0x24 PUSH1 0x0 REVERT JUMPDEST PUSH1 0x0 PUSH1 0x2 DUP3 DIV SWAP1 POP PUSH1 0x1 DUP3 AND DUP1 PUSH2 0x318F JUMPI PUSH1 0x7F DUP3 AND SWAP2 POP JUMPDEST PUSH1 0x20 DUP3 LT DUP2 SUB PUSH2 0x31A2 JUMPI PUSH2 0x31A1 PUSH2 0x3148 JUMP JUMPDEST JUMPDEST POP SWAP2 SWAP1 POP JUMP JUMPDEST PUSH32 0x506C6179657220646F6573206E6F742065786973740000000000000000000000 PUSH1 0x0 DUP3 ADD MSTORE POP JUMP JUMPDEST PUSH1 0x0 PUSH2 0x31DE PUSH1 0x15 DUP4 PUSH2 0x2727 JUMP JUMPDEST SWAP2 POP PUSH2 0x31E9 DUP3 PUSH2 0x31A8 JUMP JUMPDEST PUSH1 0x20 DUP3 ADD SWAP1 POP SWAP2 SWAP1 POP JUMP JUMPDEST PUSH1 0x0 PUSH1 0x20 DUP3 ADD SWAP1 POP DUP2 DUP2 SUB PUSH1 0x0 DUP4 ADD MSTORE PUSH2 0x320D DUP2 PUSH2 0x31D1 JUMP JUMPDEST SWAP1 POP SWAP2 SWAP1 POP JUMP JUMPDEST PUSH32 0x4D6F6220646F6573206E6F742065786973740000000000000000000000000000 PUSH1 0x0 DUP3 ADD MSTORE POP JUMP JUMPDEST PUSH1 0x0 PUSH2 0x324A PUSH1 0x12 DUP4 PUSH2 0x2727 JUMP JUMPDEST SWAP2 POP PUSH2 0x3255 DUP3 PUSH2 0x3214 JUMP JUMPDEST PUSH1 0x20 DUP3 ADD SWAP1 POP SWAP2 SWAP1 POP JUMP JUMPDEST PUSH1 0x0 PUSH1 0x20 DUP3 ADD SWAP1 POP DUP2 DUP2 SUB PUSH1 0x0 DUP4 ADD MSTORE PUSH2 0x3279 DUP2 PUSH2 0x323D JUMP JUMPDEST SWAP1 POP SWAP2 SWAP1 POP JUMP JUMPDEST PUSH32 0x4D6F6220697320616C7265616479206465616400000000000000000000000000 PUSH1 0x0 DUP3 ADD MSTORE POP JUMP JUMPDEST PUSH1 0x0 PUSH2 0x32B6 PUSH1 0x13 DUP4 PUSH2 0x2727 JUMP JUMPDEST SWAP2 POP PUSH2 0x32C1 DUP3 PUSH2 0x3280 JUMP JUMPDEST PUSH1 0x20 DUP3 ADD SWAP1 POP SWAP2 SWAP1 POP JUMP JUMPDEST PUSH1 0x0 PUSH1 0x20 DUP3 ADD SWAP1 POP DUP2 DUP2 SUB PUSH1 0x0 DUP4 ADD MSTORE PUSH2 0x32E5 DUP2 PUSH2 0x32A9 JUMP JUMPDEST SWAP1 POP SWAP2 SWAP1 POP JUMP JUMPDEST PUSH32 0x4E487B7100000000000000000000000000000000000000000000000000000000 PUSH1 0x0 MSTORE PUSH1 0x41 PUSH1 0x4 MSTORE PUSH1 0x24 PUSH1 0x0 REVERT JUMPDEST PUSH1 0x0 DUP2 SWAP1 POP DUP2 PUSH1 0x0 MSTORE PUSH1 0x20 PUSH1 0x0 KECCAK256 SWAP1 POP SWAP2 SWAP1 POP JUMP JUMPDEST PUSH1 0x0 PUSH1 0x20 PUSH1 0x1F DUP4 ADD DIV SWAP1 POP SWAP2 SWAP1 POP JUMP JUMPDEST PUSH1 0x0 DUP3 DUP3 SHL SWAP1 POP SWAP3 SWAP2 POP POP JUMP JUMPDEST PUSH1 0x0 PUSH1 0x8 DUP4 MUL PUSH2 0x337D PUSH32 0xFFFFFFFFFFFFFFFFFFFFFFFFFFFFFFFFFFFFFFFFFFFFFFFFFFFFFFFFFFFFFFFF DUP3 PUSH2 0x3340 JUMP JUMPDEST PUSH2 0x3387 DUP7 DUP4 PUSH2 0x3340 JUMP JUMPDEST SWAP6 POP DUP1 NOT DUP5 AND SWAP4 POP DUP1 DUP7 AND DUP5 OR SWAP3 POP POP POP SWAP4 SWAP3 POP POP POP JUMP JUMPDEST PUSH1 0x0 PUSH2 0x33BA PUSH2 0x33B5 PUSH2 0x33B0 DUP5 PUSH2 0x264E JUMP JUMPDEST PUSH2 0x309B JUMP JUMPDEST PUSH2 0x264E JUMP JUMPDEST SWAP1 POP SWAP2 SWAP1 POP JUMP JUMPDEST PUSH1 0x0 DUP2 SWAP1 POP SWAP2 SWAP1 POP JUMP JUMPDEST PUSH2 0x33D4 DUP4 PUSH2 0x339F JUMP JUMPDEST PUSH2 0x33E8 PUSH2 0x33E0 DUP3 PUSH2 0x33C1 JUMP JUMPDEST DUP5 DUP5 SLOAD PUSH2 0x334D JUMP JUMPDEST DUP3 SSTORE POP POP POP POP JUMP JUMPDEST PUSH1 0x0 SWAP1 JUMP JUMPDEST PUSH2 0x33FD PUSH2 0x33F0 JUMP JUMPDEST PUSH2 0x3408 DUP2 DUP5 DUP5 PUSH2 0x33CB JUMP JUMPDEST POP POP POP JUMP JUMPDEST JUMPDEST DUP2 DUP2 LT ISZERO PUSH2 0x342C JUMPI PUSH2 0x3421 PUSH1 0x0 DUP3 PUSH2 0x33F5 JUMP JUMPDEST PUSH1 0x1 DUP2 ADD SWAP1 POP PUSH2 0x340E JUMP JUMPDEST POP POP JUMP JUMPDEST PUSH1 0x1F DUP3 GT ISZERO PUSH2 0x3471 JUMPI PUSH2 0x3442 DUP2 PUSH2 0x331B JUMP JUMPDEST PUSH2 0x344B DUP5 PUSH2 0x3330 JUMP JUMPDEST DUP2 ADD PUSH1 0x20 DUP6 LT ISZERO PUSH2 0x345A JUMPI DUP2 SWAP1 POP JUMPDEST PUSH2 0x346E PUSH2 0x3466 DUP6 PUSH2 0x3330 JUMP JUMPDEST DUP4 ADD DUP3 PUSH2 0x340D JUMP JUMPDEST POP POP JUMPDEST POP POP POP JUMP JUMPDEST PUSH1 0x0 DUP3 DUP3 SHR SWAP1 POP SWAP3 SWAP2 POP POP JUMP JUMPDEST PUSH1 0x0 PUSH2 0x3494 PUSH1 0x0 NOT DUP5 PUSH1 0x8 MUL PUSH2 0x3476 JUMP JUMPDEST NOT DUP1 DUP4 AND SWAP2 POP POP SWAP3 SWAP2 POP POP JUMP JUMPDEST PUSH1 0x0 PUSH2 0x34AD DUP4 DUP4 PUSH2 0x3483 JUMP JUMPDEST SWAP2 POP DUP3 PUSH1 0x2 MUL DUP3 OR SWAP1 POP SWAP3 SWAP2 POP POP JUMP JUMPDEST PUSH2 0x34C6 DUP3 PUSH2 0x271C JUMP JUMPDEST PUSH8 0xFFFFFFFFFFFFFFFF DUP2 GT ISZERO PUSH2 0x34DF JUMPI PUSH2 0x34DE PUSH2 0x32EC JUMP JUMPDEST JUMPDEST PUSH2 0x34E9 DUP3 SLOAD PUSH2 0x3177 JUMP JUMPDEST PUSH2 0x34F4 DUP3 DUP3 DUP6 PUSH2 0x3430 JUMP JUMPDEST PUSH1 0x0 PUSH1 0x20 SWAP1 POP PUSH1 0x1F DUP4 GT PUSH1 0x1 DUP2 EQ PUSH2 0x3527 JUMPI PUSH1 0x0 DUP5 ISZERO PUSH2 0x3515 JUMPI DUP3 DUP8 ADD MLOAD SWAP1 POP JUMPDEST PUSH2 0x351F DUP6 DUP3 PUSH2 0x34A1 JUMP JUMPDEST DUP7 SSTORE POP PUSH2 0x3587 JUMP JUMPDEST PUSH1 0x1F NOT DUP5 AND PUSH2 0x3535 DUP7 PUSH2 0x331B JUMP JUMPDEST PUSH1 0x0 JUMPDEST DUP3 DUP2 LT ISZERO PUSH2 0x355D JUMPI DUP5 DUP10 ADD MLOAD DUP3 SSTORE PUSH1 0x1 DUP3 ADD SWAP2 POP PUSH1 0x20 DUP6 ADD SWAP5 POP PUSH1 0x20 DUP2 ADD SWAP1 POP PUSH2 0x3538 JUMP JUMPDEST DUP7 DUP4 LT ISZERO PUSH2 0x357A JUMPI DUP5 DUP10 ADD MLOAD PUSH2 0x3576 PUSH1 0x1F DUP10 AND DUP3 PUSH2 0x3483 JUMP JUMPDEST DUP4 SSTORE POP JUMPDEST PUSH1 0x1 PUSH1 0x2 DUP9 MUL ADD DUP9 SSTORE POP POP POP JUMPDEST POP POP POP POP POP POP JUMP JUMPDEST PUSH32 0x676F626C696E0000000000000000000000000000000000000000000000000000 PUSH1 0x0 DUP3 ADD MSTORE POP JUMP JUMPDEST PUSH1 0x0 PUSH2 0x35C5 PUSH1 0x6 DUP4 PUSH2 0x2727 JUMP JUMPDEST SWAP2 POP PUSH2 0x35D0 DUP3 PUSH2 0x358F JUMP JUMPDEST PUSH1 0x20 DUP3 ADD SWAP1 POP SWAP2 SWAP1 POP JUMP JUMPDEST PUSH1 0x0 DUP2 SWAP1 POP SWAP2 SWAP1 POP JUMP JUMPDEST PUSH1 0x0 PUSH2 0x3600 PUSH2 0x35FB PUSH2 0x35F6 DUP5 PUSH2 0x35DB JUMP JUMPDEST PUSH2 0x309B JUMP JUMPDEST PUSH2 0x264E JUMP JUMPDEST SWAP1 POP SWAP2 SWAP1 POP JUMP JUMPDEST PUSH2 0x3610 DUP2 PUSH2 0x35E5 JUMP JUMPDEST DUP3 MSTORE POP POP JUMP JUMPDEST PUSH1 0x0 DUP2 SWAP1 POP SWAP2 SWAP1 POP JUMP JUMPDEST PUSH1 0x0 PUSH2 0x363B PUSH2 0x3636 PUSH2 0x3631 DUP5 PUSH2 0x3616 JUMP JUMPDEST PUSH2 0x309B JUMP JUMPDEST PUSH2 0x264E JUMP JUMPDEST SWAP1 POP SWAP2 SWAP1 POP JUMP JUMPDEST PUSH2 0x364B DUP2 PUSH2 0x3620 JUMP JUMPDEST DUP3 MSTORE POP POP JUMP JUMPDEST PUSH1 0x0 DUP2 SWAP1 POP SWAP2 SWAP1 POP JUMP JUMPDEST PUSH1 0x0 PUSH2 0x3676 PUSH2 0x3671 PUSH2 0x366C DUP5 PUSH2 0x3651 JUMP JUMPDEST PUSH2 0x309B JUMP JUMPDEST PUSH2 0x264E JUMP JUMPDEST SWAP1 POP SWAP2 SWAP1 POP JUMP JUMPDEST PUSH2 0x3686 DUP2 PUSH2 0x365B JUMP JUMPDEST DUP3 MSTORE POP POP JUMP JUMPDEST PUSH1 0x0 DUP2 SWAP1 POP SWAP2 SWAP1 POP JUMP JUMPDEST PUSH1 0x0 PUSH2 0x36B1 PUSH2 0x36AC PUSH2 0x36A7 DUP5 PUSH2 0x368C JUMP JUMPDEST PUSH2 0x309B JUMP JUMPDEST PUSH2 0x264E JUMP JUMPDEST SWAP1 POP SWAP2 SWAP1 POP JUMP JUMPDEST PUSH2 0x36C1 DUP2 PUSH2 0x3696 JUMP JUMPDEST DUP3 MSTORE POP POP JUMP JUMPDEST PUSH1 0x0 PUSH1 0xC0 DUP3 ADD SWAP1 POP DUP2 DUP2 SUB PUSH1 0x0 DUP4 ADD MSTORE PUSH2 0x36E0 DUP2 PUSH2 0x35B8 JUMP JUMPDEST SWAP1 POP PUSH2 0x36EF PUSH1 0x20 DUP4 ADD DUP9 PUSH2 0x2D21 JUMP JUMPDEST PUSH2 0x36FC PUSH1 0x40 DUP4 ADD DUP8 PUSH2 0x3607 JUMP JUMPDEST PUSH2 0x3709 PUSH1 0x60 DUP4 ADD DUP7 PUSH2 0x3642 JUMP JUMPDEST PUSH2 0x3716 PUSH1 0x80 DUP4 ADD DUP6 PUSH2 0x367D JUMP JUMPDEST PUSH2 0x3723 PUSH1 0xA0 DUP4 ADD DUP5 PUSH2 0x36B8 JUMP JUMPDEST SWAP7 SWAP6 POP POP POP POP POP POP JUMP JUMPDEST PUSH32 0x4865616C74682063616E6E6F7420657863656564203130300000000000000000 PUSH1 0x0 DUP3 ADD MSTORE POP JUMP JUMPDEST PUSH1 0x0 PUSH2 0x3763 PUSH1 0x18 DUP4 PUSH2 0x2727 JUMP JUMPDEST SWAP2 POP PUSH2 0x376E DUP3 PUSH2 0x372D JUMP JUMPDEST PUSH1 0x20 DUP3 ADD SWAP1 POP SWAP2 SWAP1 POP JUMP JUMPDEST PUSH1 0x0 PUSH1 0x20 DUP3 ADD SWAP1 POP DUP2 DUP2 SUB PUSH1 0x0 DUP4 ADD MSTORE PUSH2 0x3792 DUP2 PUSH2 0x3756 JUMP JUMPDEST SWAP1 POP SWAP2 SWAP1 POP JUMP JUMPDEST PUSH32 0x626F737300000000000000000000000000000000000000000000000000000000 PUSH1 0x0 DUP3 ADD MSTORE POP JUMP JUMPDEST PUSH1 0x0 PUSH2 0x37CF PUSH1 0x4 DUP4 PUSH2 0x2727 JUMP JUMPDEST SWAP2 POP PUSH2 0x37DA DUP3 PUSH2 0x3799 JUMP JUMPDEST PUSH1 0x20 DUP3 ADD SWAP1 POP SWAP2 SWAP1 POP JUMP JUMPDEST PUSH1 0x0 DUP2 SWAP1 POP SWAP2 SWAP1 POP JUMP JUMPDEST PUSH1 0x0 PUSH2 0x380A PUSH2 0x3805 PUSH2 0x3800 DUP5 PUSH2 0x37E5 JUMP JUMPDEST PUSH2 0x309B JUMP JUMPDEST PUSH2 0x264E JUMP JUMPDEST SWAP1 POP SWAP2 SWAP1 POP JUMP JUMPDEST PUSH2 0x381A DUP2 PUSH2 0x37EF JUMP JUMPDEST DUP3 MSTORE POP POP JUMP JUMPDEST PUSH1 0x0 DUP2 SWAP1 POP SWAP2 SWAP1 POP JUMP JUMPDEST PUSH1 0x0 PUSH2 0x3845 PUSH2 0x3840 PUSH2 0x383B DUP5 PUSH2 0x3820 JUMP JUMPDEST PUSH2 0x309B JUMP JUMPDEST PUSH2 0x264E JUMP JUMPDEST SWAP1 POP SWAP2 SWAP1 POP JUMP JUMPDEST PUSH2 0x3855 DUP2 PUSH2 0x382A JUMP JUMPDEST DUP3 MSTORE POP POP JUMP JUMPDEST PUSH1 0x0 PUSH1 0xC0 DUP3 ADD SWAP1 POP DUP2 DUP2 SUB PUSH1 0x0 DUP4 ADD MSTORE PUSH2 0x3874 DUP2 PUSH2 0x37C2 JUMP JUMPDEST SWAP1 POP PUSH2 0x3883 PUSH1 0x20 DUP4 ADD DUP9 PUSH2 0x2D21 JUMP JUMPDEST PUSH2 0x3890 PUSH1 0x40 DUP4 ADD DUP8 PUSH2 0x3102 JUMP JUMPDEST PUSH2 0x389D PUSH1 0x60 DUP4 ADD DUP7 PUSH2 0x3811 JUMP JUMPDEST PUSH2 0x38AA PUSH1 0x80 DUP4 ADD DUP6 PUSH2 0x3102 JUMP JUMPDEST PUSH2 0x38B7 PUSH1 0xA0 DUP4 ADD DUP5 PUSH2 0x384C JUMP JUMPDEST SWAP7 SWAP6 POP POP POP POP POP POP JUMP JUMPDEST PUSH32 0x4974656D20646F6573206E6F7420657869737400000000000000000000000000 PUSH1 0x0 DUP3 ADD MSTORE POP JUMP JUMPDEST PUSH1 0x0 PUSH2 0x38F7 PUSH1 0x13 DUP4 PUSH2 0x2727 JUMP JUMPDEST SWAP2 POP PUSH2 0x3902 DUP3 PUSH2 0x38C1 JUMP JUMPDEST PUSH1 0x20 DUP3 ADD SWAP1 POP SWAP2 SWAP1 POP JUMP JUMPDEST PUSH1 0x0 PUSH1 0x20 DUP3 ADD SWAP1 POP DUP2 DUP2 SUB PUSH1 0x0 DUP4 ADD MSTORE PUSH2 0x3926 DUP2 PUSH2 0x38EA JUMP JUMPDEST SWAP1 POP SWAP2 SWAP1 POP JUMP JUMPDEST PUSH1 0x0 PUSH2 0x3938 DUP3 PUSH2 0x264E JUMP JUMPDEST SWAP2 POP PUSH2 0x3943 DUP4 PUSH2 0x264E JUMP JUMPDEST SWAP3 POP DUP3 DUP3 ADD SWAP1 POP DUP1 DUP3 GT ISZERO PUSH2 0x395B JUMPI PUSH2 0x395A PUSH2 0x301A JUMP JUMPDEST JUMPDEST SWAP3 SWAP2 POP POP JUMP JUMPDEST PUSH1 0x0 PUSH2 0x396C DUP3 PUSH2 0x264E JUMP JUMPDEST SWAP2 POP PUSH2 0x3977 DUP4 PUSH2 0x264E JUMP JUMPDEST SWAP3 POP DUP3 DUP3 MUL PUSH2 0x3985 DUP2 PUSH2 0x264E JUMP JUMPDEST SWAP2 POP DUP3 DUP3 DIV DUP5 EQ DUP4 ISZERO OR PUSH2 0x399C JUMPI PUSH2 0x399B PUSH2 0x301A JUMP JUMPDEST JUMPDEST POP SWAP3 SWAP2 POP POP JUMP JUMPDEST PUSH32 0x736C696D65000000000000000000000000000000000000000000000000000000 PUSH1 0x0 DUP3 ADD MSTORE POP JUMP JUMPDEST PUSH1 0x0 PUSH2 0x39D9 PUSH1 0x5 DUP4 PUSH2 0x2727 JUMP JUMPDEST SWAP2 POP PUSH2 0x39E4 DUP3 PUSH2 0x39A3 JUMP JUMPDEST PUSH1 0x20 DUP3 ADD SWAP1 POP SWAP2 SWAP1 POP JUMP JUMPDEST PUSH1 0x0 DUP2 SWAP1 POP SWAP2 SWAP1 POP JUMP JUMPDEST PUSH1 0x0 PUSH2 0x3A14 PUSH2 0x3A0F PUSH2 0x3A0A DUP5 PUSH2 0x39EF JUMP JUMPDEST PUSH2 0x309B JUMP JUMPDEST PUSH2 0x264E JUMP JUMPDEST SWAP1 POP SWAP2 SWAP1 POP JUMP JUMPDEST PUSH2 0x3A24 DUP2 PUSH2 0x39F9 JUMP JUMPDEST DUP3 MSTORE POP POP JUMP JUMPDEST PUSH1 0x0 DUP2 SWAP1 POP SWAP2 SWAP1 POP JUMP JUMPDEST PUSH1 0x0 PUSH2 0x3A4F PUSH2 0x3A4A PUSH2 0x3A45 DUP5 PUSH2 0x3A2A JUMP JUMPDEST PUSH2 0x309B JUMP JUMPDEST PUSH2 0x264E JUMP JUMPDEST SWAP1 POP SWAP2 SWAP1 POP JUMP JUMPDEST PUSH2 0x3A5F DUP2 PUSH2 0x3A34 JUMP JUMPDEST DUP3 MSTORE POP POP JUMP JUMPDEST PUSH1 0x0 DUP2 SWAP1 POP SWAP2 SWAP1 POP JUMP JUMPDEST PUSH1 0x0 PUSH2 0x3A8A PUSH2 0x3A85 PUSH2 0x3A80 DUP5 PUSH2 0x3A65 JUMP JUMPDEST PUSH2 0x309B JUMP JUMPDEST PUSH2 0x264E JUMP JUMPDEST SWAP1 POP SWAP2 SWAP1 POP JUMP JUMPDEST PUSH2 0x3A9A DUP2 PUSH2 0x3A6F JUMP JUMPDEST DUP3 MSTORE POP POP JUMP JUMPDEST PUSH1 0x0 PUSH1 0xC0 DUP3 ADD SWAP1 POP DUP2 DUP2 SUB PUSH1 0x0 DUP4 ADD MSTORE PUSH2 0x3AB9 DUP2 PUSH2 0x39CC JUMP JUMPDEST SWAP1 POP PUSH2 0x3AC8 PUSH1 0x20 DUP4 ADD DUP9 PUSH2 0x2D21 JUMP JUMPDEST PUSH2 0x3AD5 PUSH1 0x40 DUP4 ADD DUP8 PUSH2 0x3642 JUMP JUMPDEST PUSH2 0x3AE2 PUSH1 0x60 DUP4 ADD DUP7 PUSH2 0x3A1B JUMP JUMPDEST PUSH2 0x3AEF PUSH1 0x80 DUP4 ADD DUP6 PUSH2 0x3A56 JUMP JUMPDEST PUSH2 0x3AFC PUSH1 0xA0 DUP4 ADD DUP5 PUSH2 0x3A91 JUMP JUMPDEST SWAP7 SWAP6 POP POP POP POP POP POP JUMP JUMPDEST PUSH32 0x4E6F7420656E6F75676820636F696E7300000000000000000000000000000000 PUSH1 0x0 DUP3 ADD MSTORE POP JUMP JUMPDEST PUSH1 0x0 PUSH2 0x3B3C PUSH1 0x10 DUP4 PUSH2 0x2727 JUMP JUMPDEST SWAP2 POP PUSH2 0x3B47 DUP3 PUSH2 0x3B06 JUMP JUMPDEST PUSH1 0x20 DUP3 ADD SWAP1 POP SWAP2 SWAP1 POP JUMP JUMPDEST PUSH1 0x0 PUSH1 0x20 DUP3 ADD SWAP1 POP DUP2 DUP2 SUB PUSH1 0x0 DUP4 ADD MSTORE PUSH2 0x3B6B DUP2 PUSH2 0x3B2F JUMP JUMPDEST SWAP1 POP SWAP2 SWAP1 POP JUMP JUMPDEST PUSH32 0x4E487B7100000000000000000000000000000000000000000000000000000000 PUSH1 0x0 MSTORE PUSH1 0x32 PUSH1 0x4 MSTORE PUSH1 0x24 PUSH1 0x0 REVERT JUMPDEST PUSH32 0x4974656D20616C7265616479206F776E65640000000000000000000000000000 PUSH1 0x0 DUP3 ADD MSTORE POP JUMP JUMPDEST PUSH1 0x0 PUSH2 0x3BD7 PUSH1 0x12 DUP4 PUSH2 0x2727 JUMP JUMPDEST SWAP2 POP PUSH2 0x3BE2 DUP3 PUSH2 0x3BA1 JUMP JUMPDEST PUSH1 0x20 DUP3 ADD SWAP1 POP SWAP2 SWAP1 POP JUMP JUMPDEST PUSH1 0x0 PUSH1 0x20 DUP3 ADD SWAP1 POP DUP2 DUP2 SUB PUSH1 0x0 DUP4 ADD MSTORE PUSH2 0x3C06 DUP2 PUSH2 0x3BCA JUMP JUMPDEST SWAP1 POP SWAP2 SWAP1 POP JUMP JUMPDEST PUSH1 0x0 PUSH2 0x3C18 DUP3 PUSH2 0x264E JUMP JUMPDEST SWAP2 POP PUSH2 0x3C23 DUP4 PUSH2 0x264E JUMP JUMPDEST SWAP3 POP DUP3 DUP3 SUB SWAP1 POP DUP2 DUP2 GT ISZERO PUSH2 0x3C3B JUMPI PUSH2 0x3C3A PUSH2 0x301A JUMP JUMPDEST JUMPDEST SWAP3 SWAP2 POP POP JUMP INVALID LOG2 PUSH5 0x6970667358 0x22 SLT KECCAK256 DUP2 0xAD 0xB4 0xD9 ISZERO 0xBB 0xD4 0xAA BLOCKHASH GT SMOD SWAP5 SIGNEXTEND CODECOPY 0xE2 MUL 0xBA 0xD5 ISZERO 0xBE 0xCC TLOAD LOG1 0x2E SWAP15 EXTCODESIZE 0xE9 0xC3 MSIZE SHL SGT GAS PUSH5 0x736F6C6343 STOP ADDMOD SHR STOP CALLER COINBASE KECCAK256 PUSH17 0x6F77657266756C2073776F726420696E66 PUSH22 0x736564207769746820457468657265756D2773206D69 PUSH8 0x68744120636C6F61 PUSH12 0x2074686174206772616E7473 KECCAK256 PUSH20 0x7465616C746820616E64207370656564416E2075 PUSH15 0x627265616B61626C6520736869656C PUSH5 0x20666F7267 PUSH6 0x642066726F6D KECCAK256 TIMESTAMP PUSH10 0x74636F696E426F6F7473 KECCAK256 PUSH21 0x686174206772616E7420696E6372656469626C6520 PUSH20 0x7065656420616E64206167696C69747900000000 "
        },
        "methodIdentifiers": {
          "addExperience(uint256)": "c37c3555",
          "createBoss()": "b11f127b",
          "createGoblin()": "8d0b7269",
          "createPlayer()": "3fa9fcf8",
          "createSlime()": "c6fb11b8",
          "gameState()": "d1f9c24d",
          "getAllStoreItems()": "ec8474e6",
          "getGameState()": "b7d0628b",
          "getMob(uint256)": "5bbee18c",
          "getPlayerCoins()": "bc8ccc45",
          "getPlayerInfo()": "d1df81df",
          "getPlayerItems(address)": "c64118f5",
          "getStoreItem(uint256)": "b4b5e6a9",
          "itemCount()": "6bfb0d01",
          "killMob(uint256)": "7a7e4d81",
          "levelUp()": "4ea1ecf9",
          "mobCount()": "d933a540",
          "mobs(uint256)": "da4711b4",
          "playerAddresses(uint256)": "15c6aee2",
          "playerItems(address,uint256)": "ba816ac7",
          "players(address)": "e2eb41ff",
          "purchaseItem(uint256)": "d38ea5bf",
          "stageCleared()": "6b6846ac",
          "storeItems(uint256)": "43f2cdb2",
          "updateHealth(uint256)": "9976d220"
        }
      }
    }
  }
}