{
  "_format": "hh-sol-artifact-1",
  "contractName": "GameState",
  "sourceName": "contracts/GameState.sol",
  "abi": [
    {
      "inputs": [],
      "stateMutability": "nonpayable",
      "type": "constructor"
    },
    {
      "anonymous": false,
      "inputs": [
        {
          "indexed": true,
          "internalType": "address",
          "name": "player",
          "type": "address"
        }
      ],
      "name": "PlayerJoined",
      "type": "event"
    },
    {
      "anonymous": false,
      "inputs": [
        {
          "indexed": true,
          "internalType": "address",
          "name": "player",
          "type": "address"
        },
        {
          "indexed": false,
          "internalType": "uint256",
          "name": "newLevel",
          "type": "uint256"
        },
        {
          "indexed": false,
          "internalType": "uint256",
          "name": "newExp",
          "type": "uint256"
        }
      ],
      "name": "PlayerUpdated",
      "type": "event"
    },
    {
      "anonymous": false,
      "inputs": [
        {
          "indexed": false,
          "internalType": "uint256",
          "name": "round",
          "type": "uint256"
        },
        {
          "indexed": false,
          "internalType": "bool",
          "name": "isPaused",
          "type": "bool"
        }
      ],
      "name": "WorldStateUpdated",
      "type": "event"
    },
    {
      "inputs": [
        {
          "internalType": "address",
          "name": "playerAddr",
          "type": "address"
        }
      ],
      "name": "getPlayerState",
      "outputs": [
        {
          "internalType": "uint256",
          "name": "level",
          "type": "uint256"
        },
        {
          "internalType": "uint256",
          "name": "exp",
          "type": "uint256"
        },
        {
          "internalType": "bool",
          "name": "isActive",
          "type": "bool"
        },
        {
          "internalType": "uint256",
          "name": "lastPlayTime",
          "type": "uint256"
        }
      ],
      "stateMutability": "view",
      "type": "function"
    },
    {
      "inputs": [],
      "name": "getWorldState",
      "outputs": [
        {
          "internalType": "uint256",
          "name": "round",
          "type": "uint256"
        },
        {
          "internalType": "uint256",
          "name": "numPlayers",
          "type": "uint256"
        },
        {
          "internalType": "bool",
          "name": "isPaused",
          "type": "bool"
        }
      ],
      "stateMutability": "view",
      "type": "function"
    },
    {
      "inputs": [],
      "name": "joinGame",
      "outputs": [],
      "stateMutability": "nonpayable",
      "type": "function"
    },
    {
      "inputs": [
        {
          "internalType": "address",
          "name": "",
          "type": "address"
        }
      ],
      "name": "players",
      "outputs": [
        {
          "internalType": "address",
          "name": "addr",
          "type": "address"
        },
        {
          "internalType": "uint256",
          "name": "level",
          "type": "uint256"
        },
        {
          "internalType": "uint256",
          "name": "experience",
          "type": "uint256"
        },
        {
          "internalType": "bool",
          "name": "isActive",
          "type": "bool"
        },
        {
          "internalType": "uint256",
          "name": "lastPlayTime",
          "type": "uint256"
        }
      ],
      "stateMutability": "view",
      "type": "function"
    },
    {
      "inputs": [
        {
          "internalType": "uint256",
          "name": "newLevel",
          "type": "uint256"
        },
        {
          "internalType": "uint256",
          "name": "newExp",
          "type": "uint256"
        }
      ],
      "name": "updatePlayerState",
      "outputs": [],
      "stateMutability": "nonpayable",
      "type": "function"
    },
    {
      "inputs": [
        {
          "internalType": "uint256",
          "name": "newRound",
          "type": "uint256"
        },
        {
          "internalType": "bool",
          "name": "isPaused",
          "type": "bool"
        }
      ],
      "name": "updateWorldState",
      "outputs": [],
      "stateMutability": "nonpayable",
      "type": "function"
    },
    {
      "inputs": [],
      "name": "worldState",
      "outputs": [
        {
          "internalType": "uint256",
          "name": "currentRound",
          "type": "uint256"
        },
        {
          "internalType": "uint256",
          "name": "totalPlayers",
          "type": "uint256"
        },
        {
          "internalType": "bool",
          "name": "isPaused",
          "type": "bool"
        }
      ],
      "stateMutability": "view",
      "type": "function"
    }
  ],
  "bytecode": "0x6080604052348015600f57600080fd5b5060405180606001604052806000815260200160008152602001600015158152506001600082015181600001556020820151816001015560408201518160020160006101000a81548160ff021916908315150217905550905050610b23806100786000396000f3fe608060405234801561001057600080fd5b506004361061007d5760003560e01c8063bdfd55bf1161005b578063bdfd55bf146100da578063c01ca43f146100fa578063d4f77b1c1461012d578063e2eb41ff146101375761007d565b80630835ce6414610082578063671eb0d21461009e5780639707d051146100be575b600080fd5b61009c600480360381019061009791906106fc565b61016b565b005b6100a66102ab565b6040516100b593929190610766565b60405180910390f35b6100d860048036038101906100d391906107c9565b6102d9565b005b6100e261033d565b6040516100f193929190610766565b60405180910390f35b610114600480360381019061010f9190610867565b610362565b6040516101249493929190610894565b60405180910390f35b610135610468565b005b610151600480360381019061014c9190610867565b61065e565b6040516101629594939291906108e8565b60405180910390f35b6000803373ffffffffffffffffffffffffffffffffffffffff1673ffffffffffffffffffffffffffffffffffffffff16815260200190815260200160002060030160009054906101000a900460ff166101f9576040517f08c379a00000000000000000000000000000000000000000000000000000000081526004016101f090610998565b60405180910390fd5b60008060003373ffffffffffffffffffffffffffffffffffffffff1673ffffffffffffffffffffffffffffffffffffffff16815260200190815260200160002090508281600101819055508181600201819055504281600401819055503373ffffffffffffffffffffffffffffffffffffffff167feac5a746cb9e5a2a1da1e502d2b2246e4aa451e7c95bd80337427016d40a8083848460405161029e9291906109b8565b60405180910390a2505050565b60008060006001600001546001800154600160020160009054906101000a900460ff16925092509250909192565b8160016000018190555080600160020160006101000a81548160ff0219169083151502179055507f60219e73b55b0692c5e90a71a7673d60aa5a887825af3e589bcb0ab144eae2ab82826040516103319291906109e1565b60405180910390a15050565b60018060000154908060010154908060020160009054906101000a900460ff16905083565b60008060008060008060008773ffffffffffffffffffffffffffffffffffffffff1673ffffffffffffffffffffffffffffffffffffffff1681526020019081526020016000206040518060a00160405290816000820160009054906101000a900473ffffffffffffffffffffffffffffffffffffffff1673ffffffffffffffffffffffffffffffffffffffff1673ffffffffffffffffffffffffffffffffffffffff16815260200160018201548152602001600282015481526020016003820160009054906101000a900460ff16151515158152602001600482015481525050905080602001518160400151826060015183608001519450945094509450509193509193565b6000803373ffffffffffffffffffffffffffffffffffffffff1673ffffffffffffffffffffffffffffffffffffffff16815260200190815260200160002060030160009054906101000a900460ff16156104f7576040517f08c379a00000000000000000000000000000000000000000000000000000000081526004016104ee90610a56565b60405180910390fd5b6040518060a001604052803373ffffffffffffffffffffffffffffffffffffffff1681526020016001815260200160008152602001600115158152602001428152506000803373ffffffffffffffffffffffffffffffffffffffff1673ffffffffffffffffffffffffffffffffffffffff16815260200190815260200160002060008201518160000160006101000a81548173ffffffffffffffffffffffffffffffffffffffff021916908373ffffffffffffffffffffffffffffffffffffffff160217905550602082015181600101556040820151816002015560608201518160030160006101000a81548160ff0219169083151502179055506080820151816004015590505060018001600081548092919061061490610aa5565b91905055503373ffffffffffffffffffffffffffffffffffffffff167f31e760aa525306aba638a784082a013b6a1cc0a9a1789f3f22281c0453b10b1f60405160405180910390a2565b60006020528060005260406000206000915090508060000160009054906101000a900473ffffffffffffffffffffffffffffffffffffffff16908060010154908060020154908060030160009054906101000a900460ff16908060040154905085565b600080fd5b6000819050919050565b6106d9816106c6565b81146106e457600080fd5b50565b6000813590506106f6816106d0565b92915050565b60008060408385031215610713576107126106c1565b5b6000610721858286016106e7565b9250506020610732858286016106e7565b9150509250929050565b610745816106c6565b82525050565b60008115159050919050565b6107608161074b565b82525050565b600060608201905061077b600083018661073c565b610788602083018561073c565b6107956040830184610757565b949350505050565b6107a68161074b565b81146107b157600080fd5b50565b6000813590506107c38161079d565b92915050565b600080604083850312156107e0576107df6106c1565b5b60006107ee858286016106e7565b92505060206107ff858286016107b4565b9150509250929050565b600073ffffffffffffffffffffffffffffffffffffffff82169050919050565b600061083482610809565b9050919050565b61084481610829565b811461084f57600080fd5b50565b6000813590506108618161083b565b92915050565b60006020828403121561087d5761087c6106c1565b5b600061088b84828501610852565b91505092915050565b60006080820190506108a9600083018761073c565b6108b6602083018661073c565b6108c36040830185610757565b6108d0606083018461073c565b95945050505050565b6108e281610829565b82525050565b600060a0820190506108fd60008301886108d9565b61090a602083018761073c565b610917604083018661073c565b6109246060830185610757565b610931608083018461073c565b9695505050505050565b600082825260208201905092915050565b7f506c6179657220646f6573206e6f742065786973740000000000000000000000600082015250565b600061098260158361093b565b915061098d8261094c565b602082019050919050565b600060208201905081810360008301526109b181610975565b9050919050565b60006040820190506109cd600083018561073c565b6109da602083018461073c565b9392505050565b60006040820190506109f6600083018561073c565b610a036020830184610757565b9392505050565b7f506c6179657220616c7265616479206578697374730000000000000000000000600082015250565b6000610a4060158361093b565b9150610a4b82610a0a565b602082019050919050565b60006020820190508181036000830152610a6f81610a33565b9050919050565b7f4e487b7100000000000000000000000000000000000000000000000000000000600052601160045260246000fd5b6000610ab0826106c6565b91507fffffffffffffffffffffffffffffffffffffffffffffffffffffffffffffffff8203610ae257610ae1610a76565b5b60018201905091905056fea2646970667358221220cf7dc750e3691b43f7e604ae1881c4a1ed5b4d94aaaf9b8ff9e2f9aacbd6860a64736f6c634300081c0033",
  "linkReferences": {},
  "deployedLinkReferences": {}
}