{
  "_format": "hh-sol-artifact-1",
  "contractName": "GameStateManager",
  "sourceName": "contracts/GameStateManager.sol",
  "abi": [
    {
      "inputs": [],
      "stateMutability": "nonpayable",
      "type": "constructor"
    },
    {
      "anonymous": false,
      "inputs": [
        {
          "indexed": false,
          "internalType": "uint256",
          "name": "itemId",
          "type": "uint256"
        },
        {
          "indexed": false,
          "internalType": "string",
          "name": "itemName",
          "type": "string"
        }
      ],
      "name": "ItemAddedToStore",
      "type": "event"
    },
    {
      "anonymous": false,
      "inputs": [
        {
          "indexed": true,
          "internalType": "address",
          "name": "playerAddress",
          "type": "address"
        },
        {
          "indexed": false,
          "internalType": "uint256",
          "name": "itemId",
          "type": "uint256"
        }
      ],
      "name": "ItemPurchased",
      "type": "event"
    },
    {
      "anonymous": false,
      "inputs": [
        {
          "indexed": true,
          "internalType": "uint256",
          "name": "mobId",
          "type": "uint256"
        },
        {
          "indexed": false,
          "internalType": "string",
          "name": "name",
          "type": "string"
        },
        {
          "indexed": false,
          "internalType": "enum GameStateManager.EnemyType",
          "name": "enemyType",
          "type": "uint8"
        },
        {
          "indexed": false,
          "internalType": "uint256",
          "name": "health",
          "type": "uint256"
        },
        {
          "indexed": false,
          "internalType": "uint256",
          "name": "attack",
          "type": "uint256"
        },
        {
          "indexed": false,
          "internalType": "uint256",
          "name": "coinsDropped",
          "type": "uint256"
        },
        {
          "indexed": false,
          "internalType": "uint256",
          "name": "expDropped",
          "type": "uint256"
        }
      ],
      "name": "MobCreated",
      "type": "event"
    },
    {
      "anonymous": false,
      "inputs": [
        {
          "indexed": true,
          "internalType": "address",
          "name": "playerAddress",
          "type": "address"
        },
        {
          "indexed": false,
          "internalType": "uint256",
          "name": "initialStage",
          "type": "uint256"
        },
        {
          "indexed": false,
          "internalType": "uint256",
          "name": "initialLevel",
          "type": "uint256"
        },
        {
          "indexed": false,
          "internalType": "uint256",
          "name": "initialHealth",
          "type": "uint256"
        }
      ],
      "name": "PlayerCreated",
      "type": "event"
    },
    {
      "anonymous": false,
      "inputs": [
        {
          "indexed": true,
          "internalType": "address",
          "name": "playerAddress",
          "type": "address"
        },
        {
          "indexed": false,
          "internalType": "uint256",
          "name": "newHealth",
          "type": "uint256"
        }
      ],
      "name": "PlayerHealthUpdated",
      "type": "event"
    },
    {
      "anonymous": false,
      "inputs": [
        {
          "indexed": true,
          "internalType": "address",
          "name": "playerAddress",
          "type": "address"
        },
        {
          "indexed": false,
          "internalType": "uint256",
          "name": "newLevel",
          "type": "uint256"
        }
      ],
      "name": "PlayerLeveledUp",
      "type": "event"
    },
    {
      "anonymous": false,
      "inputs": [
        {
          "indexed": true,
          "internalType": "address",
          "name": "playerAddresses",
          "type": "address"
        },
        {
          "indexed": false,
          "internalType": "uint256",
          "name": "newStage",
          "type": "uint256"
        }
      ],
      "name": "PlayerStageCleared",
      "type": "event"
    },
    {
      "inputs": [
        {
          "internalType": "uint256",
          "name": "_exp",
          "type": "uint256"
        }
      ],
      "name": "addExperience",
      "outputs": [],
      "stateMutability": "nonpayable",
      "type": "function"
    },
    {
      "inputs": [],
      "name": "createBoss",
      "outputs": [
        {
          "internalType": "uint256",
          "name": "",
          "type": "uint256"
        }
      ],
      "stateMutability": "nonpayable",
      "type": "function"
    },
    {
      "inputs": [],
      "name": "createGoblin",
      "outputs": [
        {
          "internalType": "uint256",
          "name": "",
          "type": "uint256"
        }
      ],
      "stateMutability": "nonpayable",
      "type": "function"
    },
    {
      "inputs": [],
      "name": "createPlayer",
      "outputs": [],
      "stateMutability": "nonpayable",
      "type": "function"
    },
    {
      "inputs": [],
      "name": "createSlime",
      "outputs": [
        {
          "internalType": "uint256",
          "name": "",
          "type": "uint256"
        }
      ],
      "stateMutability": "nonpayable",
      "type": "function"
    },
    {
      "inputs": [],
      "name": "gameState",
      "outputs": [
        {
          "internalType": "uint256",
          "name": "totalPlayers",
          "type": "uint256"
        }
      ],
      "stateMutability": "view",
      "type": "function"
    },
    {
      "inputs": [],
      "name": "getAllStoreItems",
      "outputs": [
        {
          "components": [
            {
              "internalType": "uint256",
              "name": "id",
              "type": "uint256"
            },
            {
              "internalType": "string",
              "name": "name",
              "type": "string"
            },
            {
              "internalType": "string",
              "name": "description",
              "type": "string"
            },
            {
              "internalType": "uint256",
              "name": "price",
              "type": "uint256"
            },
            {
              "internalType": "string",
              "name": "image",
              "type": "string"
            },
            {
              "internalType": "bool",
              "name": "exists",
              "type": "bool"
            }
          ],
          "internalType": "struct GameStateManager.Item[]",
          "name": "",
          "type": "tuple[]"
        }
      ],
      "stateMutability": "view",
      "type": "function"
    },
    {
      "inputs": [],
      "name": "getGameState",
      "outputs": [
        {
          "components": [
            {
              "internalType": "uint256",
              "name": "totalPlayers",
              "type": "uint256"
            }
          ],
          "internalType": "struct GameStateManager.GameState",
          "name": "",
          "type": "tuple"
        }
      ],
      "stateMutability": "view",
      "type": "function"
    },
    {
      "inputs": [
        {
          "internalType": "uint256",
          "name": "_mobId",
          "type": "uint256"
        }
      ],
      "name": "getMob",
      "outputs": [
        {
          "components": [
            {
              "internalType": "uint256",
              "name": "id",
              "type": "uint256"
            },
            {
              "internalType": "string",
              "name": "name",
              "type": "string"
            },
            {
              "internalType": "enum GameStateManager.EnemyType",
              "name": "enemyType",
              "type": "uint8"
            },
            {
              "internalType": "uint256",
              "name": "health",
              "type": "uint256"
            },
            {
              "internalType": "uint256",
              "name": "attack",
              "type": "uint256"
            },
            {
              "internalType": "uint256",
              "name": "coinsDropped",
              "type": "uint256"
            },
            {
              "internalType": "uint256",
              "name": "expDropped",
              "type": "uint256"
            },
            {
              "internalType": "bool",
              "name": "exists",
              "type": "bool"
            },
            {
              "internalType": "bool",
              "name": "isDead",
              "type": "bool"
            }
          ],
          "internalType": "struct GameStateManager.Mob",
          "name": "",
          "type": "tuple"
        }
      ],
      "stateMutability": "view",
      "type": "function"
    },
    {
      "inputs": [],
      "name": "getPlayerCoins",
      "outputs": [
        {
          "internalType": "uint256",
          "name": "",
          "type": "uint256"
        }
      ],
      "stateMutability": "view",
      "type": "function"
    },
    {
      "inputs": [],
      "name": "getPlayerInfo",
      "outputs": [
        {
          "components": [
            {
              "internalType": "uint256",
              "name": "stage",
              "type": "uint256"
            },
            {
              "internalType": "uint256",
              "name": "level",
              "type": "uint256"
            },
            {
              "internalType": "uint256",
              "name": "experience",
              "type": "uint256"
            },
            {
              "internalType": "uint256",
              "name": "health",
              "type": "uint256"
            },
            {
              "internalType": "uint256",
              "name": "coins",
              "type": "uint256"
            },
            {
              "internalType": "uint256",
              "name": "createdAt",
              "type": "uint256"
            },
            {
              "internalType": "bool",
              "name": "exists",
              "type": "bool"
            }
          ],
          "internalType": "struct GameStateManager.Player",
          "name": "",
          "type": "tuple"
        }
      ],
      "stateMutability": "view",
      "type": "function"
    },
    {
      "inputs": [
        {
          "internalType": "address",
          "name": "_playerAddress",
          "type": "address"
        }
      ],
      "name": "getPlayerItems",
      "outputs": [
        {
          "internalType": "bool[]",
          "name": "",
          "type": "bool[]"
        }
      ],
      "stateMutability": "view",
      "type": "function"
    },
    {
      "inputs": [
        {
          "internalType": "uint256",
          "name": "_itemId",
          "type": "uint256"
        }
      ],
      "name": "getStoreItem",
      "outputs": [
        {
          "components": [
            {
              "internalType": "uint256",
              "name": "id",
              "type": "uint256"
            },
            {
              "internalType": "string",
              "name": "name",
              "type": "string"
            },
            {
              "internalType": "string",
              "name": "description",
              "type": "string"
            },
            {
              "internalType": "uint256",
              "name": "price",
              "type": "uint256"
            },
            {
              "internalType": "string",
              "name": "image",
              "type": "string"
            },
            {
              "internalType": "bool",
              "name": "exists",
              "type": "bool"
            }
          ],
          "internalType": "struct GameStateManager.Item",
          "name": "",
          "type": "tuple"
        }
      ],
      "stateMutability": "view",
      "type": "function"
    },
    {
      "inputs": [],
      "name": "itemCount",
      "outputs": [
        {
          "internalType": "uint256",
          "name": "",
          "type": "uint256"
        }
      ],
      "stateMutability": "view",
      "type": "function"
    },
    {
      "inputs": [],
      "name": "levelUp",
      "outputs": [],
      "stateMutability": "nonpayable",
      "type": "function"
    },
    {
      "inputs": [],
      "name": "mobCount",
      "outputs": [
        {
          "internalType": "uint256",
          "name": "",
          "type": "uint256"
        }
      ],
      "stateMutability": "view",
      "type": "function"
    },
    {
      "inputs": [
        {
          "internalType": "uint256",
          "name": "",
          "type": "uint256"
        }
      ],
      "name": "mobs",
      "outputs": [
        {
          "internalType": "uint256",
          "name": "id",
          "type": "uint256"
        },
        {
          "internalType": "string",
          "name": "name",
          "type": "string"
        },
        {
          "internalType": "enum GameStateManager.EnemyType",
          "name": "enemyType",
          "type": "uint8"
        },
        {
          "internalType": "uint256",
          "name": "health",
          "type": "uint256"
        },
        {
          "internalType": "uint256",
          "name": "attack",
          "type": "uint256"
        },
        {
          "internalType": "uint256",
          "name": "coinsDropped",
          "type": "uint256"
        },
        {
          "internalType": "uint256",
          "name": "expDropped",
          "type": "uint256"
        },
        {
          "internalType": "bool",
          "name": "exists",
          "type": "bool"
        },
        {
          "internalType": "bool",
          "name": "isDead",
          "type": "bool"
        }
      ],
      "stateMutability": "view",
      "type": "function"
    },
    {
      "inputs": [
        {
          "internalType": "uint256",
          "name": "",
          "type": "uint256"
        }
      ],
      "name": "playerAddresses",
      "outputs": [
        {
          "internalType": "address",
          "name": "",
          "type": "address"
        }
      ],
      "stateMutability": "view",
      "type": "function"
    },
    {
      "inputs": [
        {
          "internalType": "address",
          "name": "",
          "type": "address"
        }
      ],
      "name": "playerCoins",
      "outputs": [
        {
          "internalType": "uint256",
          "name": "",
          "type": "uint256"
        }
      ],
      "stateMutability": "view",
      "type": "function"
    },
    {
      "inputs": [
        {
          "internalType": "address",
          "name": "",
          "type": "address"
        },
        {
          "internalType": "uint256",
          "name": "",
          "type": "uint256"
        }
      ],
      "name": "playerItems",
      "outputs": [
        {
          "internalType": "bool",
          "name": "",
          "type": "bool"
        }
      ],
      "stateMutability": "view",
      "type": "function"
    },
    {
      "inputs": [
        {
          "internalType": "address",
          "name": "",
          "type": "address"
        }
      ],
      "name": "players",
      "outputs": [
        {
          "internalType": "uint256",
          "name": "stage",
          "type": "uint256"
        },
        {
          "internalType": "uint256",
          "name": "level",
          "type": "uint256"
        },
        {
          "internalType": "uint256",
          "name": "experience",
          "type": "uint256"
        },
        {
          "internalType": "uint256",
          "name": "health",
          "type": "uint256"
        },
        {
          "internalType": "uint256",
          "name": "coins",
          "type": "uint256"
        },
        {
          "internalType": "uint256",
          "name": "createdAt",
          "type": "uint256"
        },
        {
          "internalType": "bool",
          "name": "exists",
          "type": "bool"
        }
      ],
      "stateMutability": "view",
      "type": "function"
    },
    {
      "inputs": [
        {
          "internalType": "uint256",
          "name": "_itemId",
          "type": "uint256"
        }
      ],
      "name": "purchaseItem",
      "outputs": [],
      "stateMutability": "nonpayable",
      "type": "function"
    },
    {
      "inputs": [],
      "name": "stageCleared",
      "outputs": [],
      "stateMutability": "nonpayable",
      "type": "function"
    },
    {
      "inputs": [
        {
          "internalType": "uint256",
          "name": "",
          "type": "uint256"
        }
      ],
      "name": "storeItems",
      "outputs": [
        {
          "internalType": "uint256",
          "name": "id",
          "type": "uint256"
        },
        {
          "internalType": "string",
          "name": "name",
          "type": "string"
        },
        {
          "internalType": "string",
          "name": "description",
          "type": "string"
        },
        {
          "internalType": "uint256",
          "name": "price",
          "type": "uint256"
        },
        {
          "internalType": "string",
          "name": "image",
          "type": "string"
        },
        {
          "internalType": "bool",
          "name": "exists",
          "type": "bool"
        }
      ],
      "stateMutability": "view",
      "type": "function"
    },
    {
      "inputs": [
        {
          "internalType": "uint256",
          "name": "_newHealth",
          "type": "uint256"
        }
      ],
      "name": "updateHealth",
      "outputs": [],
      "stateMutability": "nonpayable",
      "type": "function"
    },
    {
      "inputs": [
        {
          "internalType": "uint256",
          "name": "_mobId",
          "type": "uint256"
        },
        {
          "internalType": "uint256",
          "name": "_damage",
          "type": "uint256"
        }
      ],
      "name": "updateMobHealth",
      "outputs": [],
      "stateMutability": "nonpayable",
      "type": "function"
    }
  ],
  "bytecode": "0x608060405234801561001057600080fd5b506040518060200160405280600081525060008082015181600001559050506100c660016040518060400160405280600e81526020017f457468657265756d2053776f72640000000000000000000000000000000000008152506040518060600160405280602e815260200161482d602e913960646040518060400160405280600e81526020017f2f6574682d73776f72642e706e670000000000000000000000000000000000008152506103f860201b60201c565b61015d60026040518060400160405280600e81526020017f426974636f696e20536869656c640000000000000000000000000000000000008152506040518060600160405280602981526020016148806029913960966040518060400160405280600f81526020017f2f6274632d736869656c642e706e6700000000000000000000000000000000008152506103f860201b60201c565b6101f460036040518060400160405280600f81526020017f436861696e6c696e6b20426f6f747300000000000000000000000000000000008152506040518060600160405280602d81526020016148a9602d9139600a6040518060400160405280600f81526020017f2f6c696e6b2d626f6f74732e706e6700000000000000000000000000000000008152506103f860201b60201c565b6102a860046040518060400160405280600e81526020017f506f6c6b61646f742041726d6f720000000000000000000000000000000000008152506040518060400160405280602081526020017f41726d6f72207468617420636f6e6e6563747320616e642070726f746563747381525060c86040518060400160405280600e81526020017f2f646f742d61726d6f722e706e670000000000000000000000000000000000008152506103f860201b60201c565b61035c60056040518060400160405280600b81526020017f43617264616e6f20426f770000000000000000000000000000000000000000008152506040518060400160405280601a81526020017f41207072656369736520616e6420706f77657266756c20626f7700000000000081525060786040518060400160405280600c81526020017f2f6164612d626f772e706e6700000000000000000000000000000000000000008152506103f860201b60201c565b6103f360066040518060400160405280600c81526020017f536f6c616e6120436c6f616b000000000000000000000000000000000000000081525060405180606001604052806025815260200161485b6025913960506040518060400160405280600e81526020017f2f736f6c2d636c6f616b2e706e670000000000000000000000000000000000008152506103f860201b60201c565b610a39565b6006600086815260200190815260200160002060050160009054906101000a900460ff161561045c576040517f08c379a0000000000000000000000000000000000000000000000000000000008152600401610453906105cd565b60405180910390fd5b6040518060c0016040528086815260200185815260200184815260200183815260200182815260200160011515815250600660008781526020019081526020016000206000820151816000015560208201518160010190816104be919061083d565b5060408201518160020190816104d4919061083d565b506060820151816003015560808201518160040190816104f4919061083d565b5060a08201518160050160006101000a81548160ff0219169083151502179055509050506007600081548092919061052b9061093e565b91905055507fdf23d688f8641641c72272cec9726d4c8db91ac0d0f47017f795b8bb53a445368585604051610561929190610a09565b60405180910390a15050505050565b600082825260208201905092915050565b7f4974656d20494420616c72656164792065786973747300000000000000000000600082015250565b60006105b7601683610570565b91506105c282610581565b602082019050919050565b600060208201905081810360008301526105e6816105aa565b9050919050565b600081519050919050565b7f4e487b7100000000000000000000000000000000000000000000000000000000600052604160045260246000fd5b7f4e487b7100000000000000000000000000000000000000000000000000000000600052602260045260246000fd5b6000600282049050600182168061066e57607f821691505b60208210810361068157610680610627565b5b50919050565b60008190508160005260206000209050919050565b60006020601f8301049050919050565b600082821b905092915050565b6000600883026106e97fffffffffffffffffffffffffffffffffffffffffffffffffffffffffffffffff826106ac565b6106f386836106ac565b95508019841693508086168417925050509392505050565b6000819050919050565b6000819050919050565b600061073a6107356107308461070b565b610715565b61070b565b9050919050565b6000819050919050565b6107548361071f565b61076861076082610741565b8484546106b9565b825550505050565b600090565b61077d610770565b61078881848461074b565b505050565b5b818110156107ac576107a1600082610775565b60018101905061078e565b5050565b601f8211156107f1576107c281610687565b6107cb8461069c565b810160208510156107da578190505b6107ee6107e68561069c565b83018261078d565b50505b505050565b600082821c905092915050565b6000610814600019846008026107f6565b1980831691505092915050565b600061082d8383610803565b9150826002028217905092915050565b610846826105ed565b67ffffffffffffffff81111561085f5761085e6105f8565b5b6108698254610656565b6108748282856107b0565b600060209050601f8311600181146108a75760008415610895578287015190505b61089f8582610821565b865550610907565b601f1984166108b586610687565b60005b828110156108dd578489015182556001820191506020850194506020810190506108b8565b868310156108fa57848901516108f6601f891682610803565b8355505b6001600288020188555050505b505050505050565b7f4e487b7100000000000000000000000000000000000000000000000000000000600052601160045260246000fd5b60006109498261070b565b91507fffffffffffffffffffffffffffffffffffffffffffffffffffffffffffffffff820361097b5761097a61090f565b5b600182019050919050565b61098f8161070b565b82525050565b60005b838110156109b3578082015181840152602081019050610998565b60008484015250505050565b6000601f19601f8301169050919050565b60006109db826105ed565b6109e58185610570565b93506109f5818560208601610995565b6109fe816109bf565b840191505092915050565b6000604082019050610a1e6000830185610986565b8181036020830152610a3081846109d0565b90509392505050565b613de580610a486000396000f3fe608060405234801561001057600080fd5b506004361061018e5760003560e01c8063b7d0628b116100de578063d1df81df11610097578063d933a54011610071578063d933a54014610466578063da4711b414610484578063e2eb41ff146104bc578063ec8474e6146104f25761018e565b8063d1df81df1461040e578063d1f9c24d1461042c578063d38ea5bf1461044a5761018e565b8063b7d0628b14610338578063ba816ac714610356578063bc8ccc4514610386578063c37c3555146103a4578063c64118f5146103c0578063c6fb11b8146103f05761018e565b8063695119461161014b5780638d0b7269116101255780638d0b7269146102b05780639976d220146102ce578063b11f127b146102ea578063b4b5e6a9146103085761018e565b8063695119461461026c5780636b6846ac146102885780636bfb0d01146102925761018e565b806315c6aee21461019357806332f79bb9146101c35780633fa9fcf8146101f357806343f2cdb2146101fd5780634ea1ecf9146102325780635bbee18c1461023c575b600080fd5b6101ad60048036038101906101a89190612797565b610510565b6040516101ba9190612805565b60405180910390f35b6101dd60048036038101906101d8919061284c565b61054f565b6040516101ea9190612888565b60405180910390f35b6101fb610567565b005b61021760048036038101906102129190612797565b6107a3565b6040516102299695949392919061294e565b60405180910390f35b61023a610984565b005b61025660048036038101906102519190612797565b610b47565b6040516102639190612b68565b60405180910390f35b61028660048036038101906102819190612b8a565b610d0d565b005b610290610ec5565b005b61029a611040565b6040516102a79190612888565b60405180910390f35b6102b8611046565b6040516102c59190612888565b60405180910390f35b6102e860048036038101906102e39190612797565b611214565b005b6102f2611381565b6040516102ff9190612888565b60405180910390f35b610322600480360381019061031d9190612797565b61154e565b60405161032f9190612c61565b60405180910390f35b6103406117c3565b60405161034d9190612c9f565b60405180910390f35b610370600480360381019061036b9190612cba565b6117e7565b60405161037d9190612cfa565b60405180910390f35b61038e611816565b60405161039b9190612888565b60405180910390f35b6103be60048036038101906103b99190612797565b61185d565b005b6103da60048036038101906103d5919061284c565b6119ea565b6040516103e79190612dc4565b60405180910390f35b6103f8611b88565b6040516104059190612888565b60405180910390f35b610416611d56565b6040516104239190612e74565b60405180910390f35b610434611e93565b6040516104419190612888565b60405180910390f35b610464600480360381019061045f9190612797565b611e9f565b005b61046e6121f5565b60405161047b9190612888565b60405180910390f35b61049e60048036038101906104999190612797565b6121fb565b6040516104b399989796959493929190612e9e565b60405180910390f35b6104d660048036038101906104d1919061284c565b6122f8565b6040516104e99796959493929190612f32565b60405180910390f35b6104fa612347565b60405161050791906130fa565b60405180910390f35b6003818154811061052057600080fd5b906000526020600020016000915054906101000a900473ffffffffffffffffffffffffffffffffffffffff1681565b60026020528060005260406000206000915090505481565b600160003373ffffffffffffffffffffffffffffffffffffffff1673ffffffffffffffffffffffffffffffffffffffff16815260200190815260200160002060060160009054906101000a900460ff16156105f7576040517f08c379a00000000000000000000000000000000000000000000000000000000081526004016105ee90613168565b60405180910390fd5b6040518060e00160405280600181526020016001815260200160008152602001606481526020016000815260200142815260200160011515815250600160003373ffffffffffffffffffffffffffffffffffffffff1673ffffffffffffffffffffffffffffffffffffffff168152602001908152602001600020600082015181600001556020820151816001015560408201518160020155606082015181600301556080820151816004015560a0820151816005015560c08201518160060160006101000a81548160ff0219169083151502179055509050506000800160008154809291906106e5906131b7565b91905055506003339080600181540180825580915050600190039060005260206000200160009091909190916101000a81548173ffffffffffffffffffffffffffffffffffffffff021916908373ffffffffffffffffffffffffffffffffffffffff1602179055503373ffffffffffffffffffffffffffffffffffffffff167fdbd350b0fedfda470deaaf32f91e1578f2e0a1eca99a0f2c8435b6595dcfd29460018060646040516107999392919061327f565b60405180910390a2565b60066020528060005260406000206000915090508060000154908060010180546107cc906132e5565b80601f01602080910402602001604051908101604052809291908181526020018280546107f8906132e5565b80156108455780601f1061081a57610100808354040283529160200191610845565b820191906000526020600020905b81548152906001019060200180831161082857829003601f168201915b50505050509080600201805461085a906132e5565b80601f0160208091040260200160405190810160405280929190818152602001828054610886906132e5565b80156108d35780601f106108a8576101008083540402835291602001916108d3565b820191906000526020600020905b8154815290600101906020018083116108b657829003601f168201915b5050505050908060030154908060040180546108ee906132e5565b80601f016020809104026020016040519081016040528092919081815260200182805461091a906132e5565b80156109675780601f1061093c57610100808354040283529160200191610967565b820191906000526020600020905b81548152906001019060200180831161094a57829003601f168201915b5050505050908060050160009054906101000a900460ff16905086565b33600160008273ffffffffffffffffffffffffffffffffffffffff1673ffffffffffffffffffffffffffffffffffffffff16815260200190815260200160002060060160009054906101000a900460ff16610a14576040517f08c379a0000000000000000000000000000000000000000000000000000000008152600401610a0b90613362565b60405180910390fd5b600160003373ffffffffffffffffffffffffffffffffffffffff1673ffffffffffffffffffffffffffffffffffffffff1681526020019081526020016000206001016000815480929190610a67906131b7565b91905055506064600160003373ffffffffffffffffffffffffffffffffffffffff1673ffffffffffffffffffffffffffffffffffffffff168152602001908152602001600020600301819055503373ffffffffffffffffffffffffffffffffffffffff167f85223984c4720843b1b5aa66f09162e4d7494973839e9c8dbea375c91978d4f4600160003373ffffffffffffffffffffffffffffffffffffffff1673ffffffffffffffffffffffffffffffffffffffff16815260200190815260200160002060010154604051610b3c9190612888565b60405180910390a250565b610b4f612670565b6004600083815260200190815260200160002060070160009054906101000a900460ff16610bb2576040517f08c379a0000000000000000000000000000000000000000000000000000000008152600401610ba9906133ce565b60405180910390fd5b600460008381526020019081526020016000206040518061012001604052908160008201548152602001600182018054610beb906132e5565b80601f0160208091040260200160405190810160405280929190818152602001828054610c17906132e5565b8015610c645780601f10610c3957610100808354040283529160200191610c64565b820191906000526020600020905b815481529060010190602001808311610c4757829003601f168201915b505050505081526020016002820160009054906101000a900460ff166002811115610c9257610c91612a1d565b5b6002811115610ca457610ca3612a1d565b5b8152602001600382015481526020016004820154815260200160058201548152602001600682015481526020016007820160009054906101000a900460ff161515151581526020016007820160019054906101000a900460ff1615151515815250509050919050565b6004600083815260200190815260200160002060070160009054906101000a900460ff16610d70576040517f08c379a0000000000000000000000000000000000000000000000000000000008152600401610d67906133ce565b60405180910390fd5b6004600083815260200190815260200160002060070160019054906101000a900460ff1615610dd4576040517f08c379a0000000000000000000000000000000000000000000000000000000008152600401610dcb9061343a565b60405180910390fd5b60046000838152602001908152602001600020600301548110610e41576000600460008481526020019081526020016000206003018190555060016004600084815260200190815260200160002060070160016101000a81548160ff021916908315150217905550610e6f565b80600460008481526020019081526020016000206003016000828254610e67919061345a565b925050819055505b6004600083815260200190815260200160002060070160019054906101000a900460ff1615610ec157610ea1826125fb565b610ec0600460008481526020019081526020016000206006015461185d565b5b5050565b33600160008273ffffffffffffffffffffffffffffffffffffffff1673ffffffffffffffffffffffffffffffffffffffff16815260200190815260200160002060060160009054906101000a900460ff16610f55576040517f08c379a0000000000000000000000000000000000000000000000000000000008152600401610f4c90613362565b60405180910390fd5b600160003373ffffffffffffffffffffffffffffffffffffffff1673ffffffffffffffffffffffffffffffffffffffff1681526020019081526020016000206000016000815480929190610fa8906131b7565b91905055503373ffffffffffffffffffffffffffffffffffffffff167fb90e2e9522b348da704b6ce77abde64428da1f2907a1706fb8d82cf83447e316600160003373ffffffffffffffffffffffffffffffffffffffff1673ffffffffffffffffffffffffffffffffffffffff168152602001908152602001600020600001546040516110359190612888565b60405180910390a250565b60075481565b60006005600081548092919061105b906131b7565b919050555060405180610120016040528060055481526020016040518060400160405280600d81526020017f466f7265737420476f626c696e000000000000000000000000000000000000008152508152602001600160028111156110c3576110c2612a1d565b5b8152602001601e8152602001600f815260200160148152602001603c815260200160011515815260200160001515815250600460006005548152602001908152602001600020600082015181600001556020820151816001019081611128919061365f565b5060408201518160020160006101000a81548160ff0219169083600281111561115457611153612a1d565b5b0217905550606082015181600301556080820151816004015560a0820151816005015560c0820151816006015560e08201518160070160006101000a81548160ff0219169083151502179055506101008201518160070160016101000a81548160ff0219169083151502179055509050506005547f9d349582ad64820490413cddcb008bb423a05fa7b839d10bf64452ad77be447b6001601e600f6014603c604051611204959493929190613869565b60405180910390a2600554905090565b33600160008273ffffffffffffffffffffffffffffffffffffffff1673ffffffffffffffffffffffffffffffffffffffff16815260200190815260200160002060060160009054906101000a900460ff166112a4576040517f08c379a000000000000000000000000000000000000000000000000000000000815260040161129b90613362565b60405180910390fd5b60648211156112e8576040517f08c379a00000000000000000000000000000000000000000000000000000000081526004016112df9061391b565b60405180910390fd5b81600160003373ffffffffffffffffffffffffffffffffffffffff1673ffffffffffffffffffffffffffffffffffffffff168152602001908152602001600020600301819055503373ffffffffffffffffffffffffffffffffffffffff167f19a6c61462d6e1c7792cca1474187abbdfd347d8e3917fe14b8c3b9c3c020a99836040516113759190612888565b60405180910390a25050565b600060056000815480929190611396906131b7565b919050555060405180610120016040528060055481526020016040518060400160405280601481526020017f436861696e76657273652044657374726f79657200000000000000000000000081525081526020016002808111156113fd576113fc612a1d565b5b81526020016064815260200160198152602001606481526020016096815260200160011515815260200160001515815250600460006005548152602001908152602001600020600082015181600001556020820151816001019081611462919061365f565b5060408201518160020160006101000a81548160ff0219169083600281111561148e5761148d612a1d565b5b0217905550606082015181600301556080820151816004015560a0820151816005015560c0820151816006015560e08201518160070160006101000a81548160ff0219169083151502179055506101008201518160070160016101000a81548160ff0219169083151502179055509050506005547f9d349582ad64820490413cddcb008bb423a05fa7b839d10bf64452ad77be447b6002606460196064609660405161153e9594939291906139fd565b60405180910390a2600554905090565b6115566126d2565b6006600083815260200190815260200160002060050160009054906101000a900460ff166115b9576040517f08c379a00000000000000000000000000000000000000000000000000000000081526004016115b090613aaf565b60405180910390fd5b600660008381526020019081526020016000206040518060c0016040529081600082015481526020016001820180546115f1906132e5565b80601f016020809104026020016040519081016040528092919081815260200182805461161d906132e5565b801561166a5780601f1061163f5761010080835404028352916020019161166a565b820191906000526020600020905b81548152906001019060200180831161164d57829003601f168201915b50505050508152602001600282018054611683906132e5565b80601f01602080910402602001604051908101604052809291908181526020018280546116af906132e5565b80156116fc5780601f106116d1576101008083540402835291602001916116fc565b820191906000526020600020905b8154815290600101906020018083116116df57829003601f168201915b505050505081526020016003820154815260200160048201805461171f906132e5565b80601f016020809104026020016040519081016040528092919081815260200182805461174b906132e5565b80156117985780601f1061176d57610100808354040283529160200191611798565b820191906000526020600020905b81548152906001019060200180831161177b57829003601f168201915b505050505081526020016005820160009054906101000a900460ff1615151515815250509050919050565b6117cb61270a565b6000604051806020016040529081600082015481525050905090565b60086020528160005260406000206020528060005260406000206000915091509054906101000a900460ff1681565b6000600260003373ffffffffffffffffffffffffffffffffffffffff1673ffffffffffffffffffffffffffffffffffffffff16815260200190815260200160002054905090565b33600160008273ffffffffffffffffffffffffffffffffffffffff1673ffffffffffffffffffffffffffffffffffffffff16815260200190815260200160002060060160009054906101000a900460ff166118ed576040517f08c379a00000000000000000000000000000000000000000000000000000000081526004016118e490613362565b60405180910390fd5b81600160003373ffffffffffffffffffffffffffffffffffffffff1673ffffffffffffffffffffffffffffffffffffffff168152602001908152602001600020600201600082825461193f9190613acf565b925050819055506064600160003373ffffffffffffffffffffffffffffffffffffffff1673ffffffffffffffffffffffffffffffffffffffff168152602001908152602001600020600101546119959190613b03565b600160003373ffffffffffffffffffffffffffffffffffffffff1673ffffffffffffffffffffffffffffffffffffffff16815260200190815260200160002060020154106119e6576119e5610984565b5b5050565b606081600160008273ffffffffffffffffffffffffffffffffffffffff1673ffffffffffffffffffffffffffffffffffffffff16815260200190815260200160002060060160009054906101000a900460ff16611a7c576040517f08c379a0000000000000000000000000000000000000000000000000000000008152600401611a7390613362565b60405180910390fd5b600060075467ffffffffffffffff811115611a9a57611a9961348e565b5b604051908082528060200260200182016040528015611ac85781602001602082028036833780820191505090505b5090506000600190505b6007548111611b7d57600860008673ffffffffffffffffffffffffffffffffffffffff1673ffffffffffffffffffffffffffffffffffffffff168152602001908152602001600020600082815260200190815260200160002060009054906101000a900460ff1682600183611b47919061345a565b81518110611b5857611b57613b45565b5b6020026020010190151590811515815250508080611b75906131b7565b915050611ad2565b508092505050919050565b600060056000815480929190611b9d906131b7565b919050555060405180610120016040528060055481526020016040518060400160405280600b81526020017f426173696320536c696d65000000000000000000000000000000000000000000815250815260200160006002811115611c0557611c04612a1d565b5b8152602001600f8152602001600a8152602001600581526020016028815260200160011515815260200160001515815250600460006005548152602001908152602001600020600082015181600001556020820151816001019081611c6a919061365f565b5060408201518160020160006101000a81548160ff02191690836002811115611c9657611c95612a1d565b5b0217905550606082015181600301556080820151816004015560a0820151816005015560c0820151816006015560e08201518160070160006101000a81548160ff0219169083151502179055506101008201518160070160016101000a81548160ff0219169083151502179055509050506005547f9d349582ad64820490413cddcb008bb423a05fa7b839d10bf64452ad77be447b6000600f600a60056028604051611d46959493929190613c71565b60405180910390a2600554905090565b611d5e61271d565b600160003373ffffffffffffffffffffffffffffffffffffffff1673ffffffffffffffffffffffffffffffffffffffff16815260200190815260200160002060060160009054906101000a900460ff16611ded576040517f08c379a0000000000000000000000000000000000000000000000000000000008152600401611de490613362565b60405180910390fd5b600160003373ffffffffffffffffffffffffffffffffffffffff1673ffffffffffffffffffffffffffffffffffffffff1681526020019081526020016000206040518060e00160405290816000820154815260200160018201548152602001600282015481526020016003820154815260200160048201548152602001600582015481526020016006820160009054906101000a900460ff161515151581525050905090565b60008060000154905081565b33600160008273ffffffffffffffffffffffffffffffffffffffff1673ffffffffffffffffffffffffffffffffffffffff16815260200190815260200160002060060160009054906101000a900460ff16611f2f576040517f08c379a0000000000000000000000000000000000000000000000000000000008152600401611f2690613362565b60405180910390fd5b6006600083815260200190815260200160002060050160009054906101000a900460ff16611f92576040517f08c379a0000000000000000000000000000000000000000000000000000000008152600401611f8990613aaf565b60405180910390fd5b600860003373ffffffffffffffffffffffffffffffffffffffff1673ffffffffffffffffffffffffffffffffffffffff168152602001908152602001600020600083815260200190815260200160002060009054906101000a900460ff1615612030576040517f08c379a000000000000000000000000000000000000000000000000000000000815260040161202790613d23565b60405180910390fd5b6006600083815260200190815260200160002060030154600160003373ffffffffffffffffffffffffffffffffffffffff1673ffffffffffffffffffffffffffffffffffffffff1681526020019081526020016000206004015410156120cb576040517f08c379a00000000000000000000000000000000000000000000000000000000081526004016120c290613d8f565b60405180910390fd5b6006600083815260200190815260200160002060030154600160003373ffffffffffffffffffffffffffffffffffffffff1673ffffffffffffffffffffffffffffffffffffffff1681526020019081526020016000206004016000828254612133919061345a565b925050819055506001600860003373ffffffffffffffffffffffffffffffffffffffff1673ffffffffffffffffffffffffffffffffffffffff168152602001908152602001600020600084815260200190815260200160002060006101000a81548160ff0219169083151502179055503373ffffffffffffffffffffffffffffffffffffffff167f792fe07c0f3ce4ef42df79c4a2b07925168cddbaabf7a7ef1351f027a3760313836040516121e99190612888565b60405180910390a25050565b60055481565b6004602052806000526040600020600091509050806000015490806001018054612224906132e5565b80601f0160208091040260200160405190810160405280929190818152602001828054612250906132e5565b801561229d5780601f106122725761010080835404028352916020019161229d565b820191906000526020600020905b81548152906001019060200180831161228057829003601f168201915b5050505050908060020160009054906101000a900460ff16908060030154908060040154908060050154908060060154908060070160009054906101000a900460ff16908060070160019054906101000a900460ff16905089565b60016020528060005260406000206000915090508060000154908060010154908060020154908060030154908060040154908060050154908060060160009054906101000a900460ff16905087565b6060600060075467ffffffffffffffff8111156123675761236661348e565b5b6040519080825280602002602001820160405280156123a057816020015b61238d6126d2565b8152602001906001900390816123855790505b5090506000600190505b60075481116125f357600660008281526020019081526020016000206040518060c0016040529081600082015481526020016001820180546123eb906132e5565b80601f0160208091040260200160405190810160405280929190818152602001828054612417906132e5565b80156124645780601f1061243957610100808354040283529160200191612464565b820191906000526020600020905b81548152906001019060200180831161244757829003601f168201915b5050505050815260200160028201805461247d906132e5565b80601f01602080910402602001604051908101604052809291908181526020018280546124a9906132e5565b80156124f65780601f106124cb576101008083540402835291602001916124f6565b820191906000526020600020905b8154815290600101906020018083116124d957829003601f168201915b5050505050815260200160038201548152602001600482018054612519906132e5565b80601f0160208091040260200160405190810160405280929190818152602001828054612545906132e5565b80156125925780601f1061256757610100808354040283529160200191612592565b820191906000526020600020905b81548152906001019060200180831161257557829003601f168201915b505050505081526020016005820160009054906101000a900460ff161515151581525050826001836125c4919061345a565b815181106125d5576125d4613b45565b5b602002602001018190525080806125eb906131b7565b9150506123aa565b508091505090565b60006004600083815260200190815260200160002060050154905080600260003373ffffffffffffffffffffffffffffffffffffffff1673ffffffffffffffffffffffffffffffffffffffff16815260200190815260200160002060008282546126659190613acf565b925050819055505050565b60405180610120016040528060008152602001606081526020016000600281111561269e5761269d612a1d565b5b8152602001600081526020016000815260200160008152602001600081526020016000151581526020016000151581525090565b6040518060c0016040528060008152602001606081526020016060815260200160008152602001606081526020016000151581525090565b6040518060200160405280600081525090565b6040518060e001604052806000815260200160008152602001600081526020016000815260200160008152602001600081526020016000151581525090565b600080fd5b6000819050919050565b61277481612761565b811461277f57600080fd5b50565b6000813590506127918161276b565b92915050565b6000602082840312156127ad576127ac61275c565b5b60006127bb84828501612782565b91505092915050565b600073ffffffffffffffffffffffffffffffffffffffff82169050919050565b60006127ef826127c4565b9050919050565b6127ff816127e4565b82525050565b600060208201905061281a60008301846127f6565b92915050565b612829816127e4565b811461283457600080fd5b50565b60008135905061284681612820565b92915050565b6000602082840312156128625761286161275c565b5b600061287084828501612837565b91505092915050565b61288281612761565b82525050565b600060208201905061289d6000830184612879565b92915050565b600081519050919050565b600082825260208201905092915050565b60005b838110156128dd5780820151818401526020810190506128c2565b60008484015250505050565b6000601f19601f8301169050919050565b6000612905826128a3565b61290f81856128ae565b935061291f8185602086016128bf565b612928816128e9565b840191505092915050565b60008115159050919050565b61294881612933565b82525050565b600060c0820190506129636000830189612879565b818103602083015261297581886128fa565b9050818103604083015261298981876128fa565b90506129986060830186612879565b81810360808301526129aa81856128fa565b90506129b960a083018461293f565b979650505050505050565b6129cd81612761565b82525050565b600082825260208201905092915050565b60006129ef826128a3565b6129f981856129d3565b9350612a098185602086016128bf565b612a12816128e9565b840191505092915050565b7f4e487b7100000000000000000000000000000000000000000000000000000000600052602160045260246000fd5b60038110612a5d57612a5c612a1d565b5b50565b6000819050612a6e82612a4c565b919050565b6000612a7e82612a60565b9050919050565b612a8e81612a73565b82525050565b612a9d81612933565b82525050565b600061012083016000830151612abc60008601826129c4565b5060208301518482036020860152612ad482826129e4565b9150506040830151612ae96040860182612a85565b506060830151612afc60608601826129c4565b506080830151612b0f60808601826129c4565b5060a0830151612b2260a08601826129c4565b5060c0830151612b3560c08601826129c4565b5060e0830151612b4860e0860182612a94565b50610100830151612b5d610100860182612a94565b508091505092915050565b60006020820190508181036000830152612b828184612aa3565b905092915050565b60008060408385031215612ba157612ba061275c565b5b6000612baf85828601612782565b9250506020612bc085828601612782565b9150509250929050565b600060c083016000830151612be260008601826129c4565b5060208301518482036020860152612bfa82826129e4565b91505060408301518482036040860152612c1482826129e4565b9150506060830151612c2960608601826129c4565b5060808301518482036080860152612c4182826129e4565b91505060a0830151612c5660a0860182612a94565b508091505092915050565b60006020820190508181036000830152612c7b8184612bca565b905092915050565b602082016000820151612c9960008501826129c4565b50505050565b6000602082019050612cb46000830184612c83565b92915050565b60008060408385031215612cd157612cd061275c565b5b6000612cdf85828601612837565b9250506020612cf085828601612782565b9150509250929050565b6000602082019050612d0f600083018461293f565b92915050565b600081519050919050565b600082825260208201905092915050565b6000819050602082019050919050565b6000612d4d8383612a94565b60208301905092915050565b6000602082019050919050565b6000612d7182612d15565b612d7b8185612d20565b9350612d8683612d31565b8060005b83811015612db7578151612d9e8882612d41565b9750612da983612d59565b925050600181019050612d8a565b5085935050505092915050565b60006020820190508181036000830152612dde8184612d66565b905092915050565b60e082016000820151612dfc60008501826129c4565b506020820151612e0f60208501826129c4565b506040820151612e2260408501826129c4565b506060820151612e3560608501826129c4565b506080820151612e4860808501826129c4565b5060a0820151612e5b60a08501826129c4565b5060c0820151612e6e60c0850182612a94565b50505050565b600060e082019050612e896000830184612de6565b92915050565b612e9881612a73565b82525050565b600061012082019050612eb4600083018c612879565b8181036020830152612ec6818b6128fa565b9050612ed5604083018a612e8f565b612ee26060830189612879565b612eef6080830188612879565b612efc60a0830187612879565b612f0960c0830186612879565b612f1660e083018561293f565b612f2461010083018461293f565b9a9950505050505050505050565b600060e082019050612f47600083018a612879565b612f546020830189612879565b612f616040830188612879565b612f6e6060830187612879565b612f7b6080830186612879565b612f8860a0830185612879565b612f9560c083018461293f565b98975050505050505050565b600081519050919050565b600082825260208201905092915050565b6000819050602082019050919050565b600060c083016000830151612fe560008601826129c4565b5060208301518482036020860152612ffd82826129e4565b9150506040830151848203604086015261301782826129e4565b915050606083015161302c60608601826129c4565b506080830151848203608086015261304482826129e4565b91505060a083015161305960a0860182612a94565b508091505092915050565b60006130708383612fcd565b905092915050565b6000602082019050919050565b600061309082612fa1565b61309a8185612fac565b9350836020820285016130ac85612fbd565b8060005b858110156130e857848403895281516130c98582613064565b94506130d483613078565b925060208a019950506001810190506130b0565b50829750879550505050505092915050565b600060208201905081810360008301526131148184613085565b905092915050565b7f506c6179657220616c7265616479206578697374730000000000000000000000600082015250565b60006131526015836128ae565b915061315d8261311c565b602082019050919050565b6000602082019050818103600083015261318181613145565b9050919050565b7f4e487b7100000000000000000000000000000000000000000000000000000000600052601160045260246000fd5b60006131c282612761565b91507fffffffffffffffffffffffffffffffffffffffffffffffffffffffffffffffff82036131f4576131f3613188565b5b600182019050919050565b6000819050919050565b6000819050919050565b600061322e613229613224846131ff565b613209565b612761565b9050919050565b61323e81613213565b82525050565b6000819050919050565b600061326961326461325f84613244565b613209565b612761565b9050919050565b6132798161324e565b82525050565b60006060820190506132946000830186613235565b6132a16020830185613235565b6132ae6040830184613270565b949350505050565b7f4e487b7100000000000000000000000000000000000000000000000000000000600052602260045260246000fd5b600060028204905060018216806132fd57607f821691505b6020821081036133105761330f6132b6565b5b50919050565b7f506c6179657220646f6573206e6f742065786973740000000000000000000000600082015250565b600061334c6015836128ae565b915061335782613316565b602082019050919050565b6000602082019050818103600083015261337b8161333f565b9050919050565b7f4d6f6220646f6573206e6f742065786973740000000000000000000000000000600082015250565b60006133b86012836128ae565b91506133c382613382565b602082019050919050565b600060208201905081810360008301526133e7816133ab565b9050919050565b7f4d6f6220697320616c7265616479206465616400000000000000000000000000600082015250565b60006134246013836128ae565b915061342f826133ee565b602082019050919050565b6000602082019050818103600083015261345381613417565b9050919050565b600061346582612761565b915061347083612761565b925082820390508181111561348857613487613188565b5b92915050565b7f4e487b7100000000000000000000000000000000000000000000000000000000600052604160045260246000fd5b60008190508160005260206000209050919050565b60006020601f8301049050919050565b600082821b905092915050565b60006008830261351f7fffffffffffffffffffffffffffffffffffffffffffffffffffffffffffffffff826134e2565b61352986836134e2565b95508019841693508086168417925050509392505050565b600061355c61355761355284612761565b613209565b612761565b9050919050565b6000819050919050565b61357683613541565b61358a61358282613563565b8484546134ef565b825550505050565b600090565b61359f613592565b6135aa81848461356d565b505050565b5b818110156135ce576135c3600082613597565b6001810190506135b0565b5050565b601f821115613613576135e4816134bd565b6135ed846134d2565b810160208510156135fc578190505b613610613608856134d2565b8301826135af565b50505b505050565b600082821c905092915050565b600061363660001984600802613618565b1980831691505092915050565b600061364f8383613625565b9150826002028217905092915050565b613668826128a3565b67ffffffffffffffff8111156136815761368061348e565b5b61368b82546132e5565b6136968282856135d2565b600060209050601f8311600181146136c957600084156136b7578287015190505b6136c18582613643565b865550613729565b601f1984166136d7866134bd565b60005b828110156136ff578489015182556001820191506020850194506020810190506136da565b8683101561371c5784890151613718601f891682613625565b8355505b6001600288020188555050505b505050505050565b7f466f7265737420476f626c696e00000000000000000000000000000000000000600082015250565b6000613767600d836128ae565b915061377282613731565b602082019050919050565b6000819050919050565b60006137a261379d6137988461377d565b613209565b612761565b9050919050565b6137b281613787565b82525050565b6000819050919050565b60006137dd6137d86137d3846137b8565b613209565b612761565b9050919050565b6137ed816137c2565b82525050565b6000819050919050565b600061381861381361380e846137f3565b613209565b612761565b9050919050565b613828816137fd565b82525050565b6000819050919050565b600061385361384e6138498461382e565b613209565b612761565b9050919050565b61386381613838565b82525050565b600060c08201905081810360008301526138828161375a565b90506138916020830188612e8f565b61389e60408301876137a9565b6138ab60608301866137e4565b6138b8608083018561381f565b6138c560a083018461385a565b9695505050505050565b7f4865616c74682063616e6e6f7420657863656564203130300000000000000000600082015250565b60006139056018836128ae565b9150613910826138cf565b602082019050919050565b60006020820190508181036000830152613934816138f8565b9050919050565b7f436861696e76657273652044657374726f796572000000000000000000000000600082015250565b60006139716014836128ae565b915061397c8261393b565b602082019050919050565b6000819050919050565b60006139ac6139a76139a284613987565b613209565b612761565b9050919050565b6139bc81613991565b82525050565b6000819050919050565b60006139e76139e26139dd846139c2565b613209565b612761565b9050919050565b6139f7816139cc565b82525050565b600060c0820190508181036000830152613a1681613964565b9050613a256020830188612e8f565b613a326040830187613270565b613a3f60608301866139b3565b613a4c6080830185613270565b613a5960a08301846139ee565b9695505050505050565b7f4974656d20646f6573206e6f7420657869737400000000000000000000000000600082015250565b6000613a996013836128ae565b9150613aa482613a63565b602082019050919050565b60006020820190508181036000830152613ac881613a8c565b9050919050565b6000613ada82612761565b9150613ae583612761565b9250828201905080821115613afd57613afc613188565b5b92915050565b6000613b0e82612761565b9150613b1983612761565b9250828202613b2781612761565b91508282048414831517613b3e57613b3d613188565b5b5092915050565b7f4e487b7100000000000000000000000000000000000000000000000000000000600052603260045260246000fd5b7f426173696320536c696d65000000000000000000000000000000000000000000600082015250565b6000613baa600b836128ae565b9150613bb582613b74565b602082019050919050565b6000819050919050565b6000613be5613be0613bdb84613bc0565b613209565b612761565b9050919050565b613bf581613bca565b82525050565b6000819050919050565b6000613c20613c1b613c1684613bfb565b613209565b612761565b9050919050565b613c3081613c05565b82525050565b6000819050919050565b6000613c5b613c56613c5184613c36565b613209565b612761565b9050919050565b613c6b81613c40565b82525050565b600060c0820190508181036000830152613c8a81613b9d565b9050613c996020830188612e8f565b613ca660408301876137e4565b613cb36060830186613bec565b613cc06080830185613c27565b613ccd60a0830184613c62565b9695505050505050565b7f4974656d20616c7265616479206f776e65640000000000000000000000000000600082015250565b6000613d0d6012836128ae565b9150613d1882613cd7565b602082019050919050565b60006020820190508181036000830152613d3c81613d00565b9050919050565b7f4e6f7420656e6f75676820636f696e7300000000000000000000000000000000600082015250565b6000613d796010836128ae565b9150613d8482613d43565b602082019050919050565b60006020820190508181036000830152613da881613d6c565b905091905056fea26469706673582212200421658de88989887792ac9206c52ed5da63b149c07d5bf8f5c414e17e489c3764736f6c634300081c00334120706f77657266756c2073776f726420696e6675736564207769746820457468657265756d2773206d696768744120636c6f616b2074686174206772616e747320737465616c746820616e64207370656564416e20756e627265616b61626c6520736869656c6420666f726765642066726f6d20426974636f696e426f6f74732074686174206772616e7420696e6372656469626c6520737065656420616e64206167696c697479",
  "linkReferences": {},
  "deployedLinkReferences": {}
}