{
  "_format": "hh-sol-artifact-1",
  "contractName": "GameStateManager",
  "sourceName": "contracts/GameStateManager.sol",
  "abi": [
    {
      "inputs": [],
      "stateMutability": "nonpayable",
      "type": "constructor"
    },
    {
      "anonymous": false,
      "inputs": [
        {
          "indexed": false,
          "internalType": "uint256",
          "name": "itemId",
          "type": "uint256"
        },
        {
          "indexed": false,
          "internalType": "string",
          "name": "itemName",
          "type": "string"
        }
      ],
      "name": "ItemAddedToStore",
      "type": "event"
    },
    {
      "anonymous": false,
      "inputs": [
        {
          "indexed": true,
          "internalType": "address",
          "name": "playerAddress",
          "type": "address"
        },
        {
          "indexed": false,
          "internalType": "uint256",
          "name": "itemId",
          "type": "uint256"
        }
      ],
      "name": "ItemPurchased",
      "type": "event"
    },
    {
      "anonymous": false,
      "inputs": [
        {
          "indexed": true,
          "internalType": "uint256",
          "name": "mobId",
          "type": "uint256"
        },
        {
          "indexed": false,
          "internalType": "string",
          "name": "name",
          "type": "string"
        },
        {
          "indexed": false,
          "internalType": "enum GameStateManager.EnemyType",
          "name": "enemyType",
          "type": "uint8"
        },
        {
          "indexed": false,
          "internalType": "uint256",
          "name": "health",
          "type": "uint256"
        },
        {
          "indexed": false,
          "internalType": "uint256",
          "name": "attack",
          "type": "uint256"
        },
        {
          "indexed": false,
          "internalType": "uint256",
          "name": "coinsDropped",
          "type": "uint256"
        },
        {
          "indexed": false,
          "internalType": "uint256",
          "name": "expDropped",
          "type": "uint256"
        }
      ],
      "name": "MobCreated",
      "type": "event"
    },
    {
      "anonymous": false,
      "inputs": [
        {
          "indexed": true,
          "internalType": "address",
          "name": "playerAddress",
          "type": "address"
        },
        {
          "indexed": false,
          "internalType": "uint256",
          "name": "initialStage",
          "type": "uint256"
        },
        {
          "indexed": false,
          "internalType": "uint256",
          "name": "initialLevel",
          "type": "uint256"
        },
        {
          "indexed": false,
          "internalType": "uint256",
          "name": "initialHealth",
          "type": "uint256"
        }
      ],
      "name": "PlayerCreated",
      "type": "event"
    },
    {
      "anonymous": false,
      "inputs": [
        {
          "indexed": true,
          "internalType": "address",
          "name": "playerAddress",
          "type": "address"
        },
        {
          "indexed": false,
          "internalType": "uint256",
          "name": "newHealth",
          "type": "uint256"
        }
      ],
      "name": "PlayerHealthUpdated",
      "type": "event"
    },
    {
      "anonymous": false,
      "inputs": [
        {
          "indexed": true,
          "internalType": "address",
          "name": "playerAddress",
          "type": "address"
        },
        {
          "indexed": false,
          "internalType": "uint256",
          "name": "newLevel",
          "type": "uint256"
        }
      ],
      "name": "PlayerLeveledUp",
      "type": "event"
    },
    {
      "anonymous": false,
      "inputs": [
        {
          "indexed": true,
          "internalType": "address",
          "name": "playerAddresses",
          "type": "address"
        },
        {
          "indexed": false,
          "internalType": "uint256",
          "name": "newStage",
          "type": "uint256"
        }
      ],
      "name": "PlayerStageCleared",
      "type": "event"
    },
    {
      "inputs": [
        {
          "internalType": "uint256",
          "name": "_exp",
          "type": "uint256"
        }
      ],
      "name": "addExperience",
      "outputs": [],
      "stateMutability": "nonpayable",
      "type": "function"
    },
    {
      "inputs": [],
      "name": "createBoss",
      "outputs": [
        {
          "internalType": "uint256",
          "name": "",
          "type": "uint256"
        }
      ],
      "stateMutability": "nonpayable",
      "type": "function"
    },
    {
      "inputs": [],
      "name": "createGoblin",
      "outputs": [
        {
          "internalType": "uint256",
          "name": "",
          "type": "uint256"
        }
      ],
      "stateMutability": "nonpayable",
      "type": "function"
    },
    {
      "inputs": [],
      "name": "createPlayer",
      "outputs": [],
      "stateMutability": "nonpayable",
      "type": "function"
    },
    {
      "inputs": [],
      "name": "createSlime",
      "outputs": [
        {
          "internalType": "uint256",
          "name": "",
          "type": "uint256"
        }
      ],
      "stateMutability": "nonpayable",
      "type": "function"
    },
    {
      "inputs": [],
      "name": "gameState",
      "outputs": [
        {
          "internalType": "uint256",
          "name": "totalPlayers",
          "type": "uint256"
        }
      ],
      "stateMutability": "view",
      "type": "function"
    },
    {
      "inputs": [],
      "name": "getAllStoreItems",
      "outputs": [
        {
          "components": [
            {
              "internalType": "uint256",
              "name": "id",
              "type": "uint256"
            },
            {
              "internalType": "string",
              "name": "name",
              "type": "string"
            },
            {
              "internalType": "string",
              "name": "description",
              "type": "string"
            },
            {
              "internalType": "uint256",
              "name": "price",
              "type": "uint256"
            },
            {
              "internalType": "string",
              "name": "image",
              "type": "string"
            },
            {
              "internalType": "bool",
              "name": "exists",
              "type": "bool"
            }
          ],
          "internalType": "struct GameStateManager.Item[]",
          "name": "",
          "type": "tuple[]"
        }
      ],
      "stateMutability": "view",
      "type": "function"
    },
    {
      "inputs": [],
      "name": "getGameState",
      "outputs": [
        {
          "components": [
            {
              "internalType": "uint256",
              "name": "totalPlayers",
              "type": "uint256"
            }
          ],
          "internalType": "struct GameStateManager.GameState",
          "name": "",
          "type": "tuple"
        }
      ],
      "stateMutability": "view",
      "type": "function"
    },
    {
      "inputs": [
        {
          "internalType": "uint256",
          "name": "_mobId",
          "type": "uint256"
        }
      ],
      "name": "getMob",
      "outputs": [
        {
          "components": [
            {
              "internalType": "uint256",
              "name": "id",
              "type": "uint256"
            },
            {
              "internalType": "string",
              "name": "name",
              "type": "string"
            },
            {
              "internalType": "enum GameStateManager.EnemyType",
              "name": "enemyType",
              "type": "uint8"
            },
            {
              "internalType": "uint256",
              "name": "health",
              "type": "uint256"
            },
            {
              "internalType": "uint256",
              "name": "attack",
              "type": "uint256"
            },
            {
              "internalType": "uint256",
              "name": "coinsDropped",
              "type": "uint256"
            },
            {
              "internalType": "uint256",
              "name": "expDropped",
              "type": "uint256"
            },
            {
              "internalType": "bool",
              "name": "exists",
              "type": "bool"
            },
            {
              "internalType": "bool",
              "name": "isDead",
              "type": "bool"
            }
          ],
          "internalType": "struct GameStateManager.Mob",
          "name": "",
          "type": "tuple"
        }
      ],
      "stateMutability": "view",
      "type": "function"
    },
    {
      "inputs": [],
      "name": "getPlayerCoins",
      "outputs": [
        {
          "internalType": "uint256",
          "name": "",
          "type": "uint256"
        }
      ],
      "stateMutability": "view",
      "type": "function"
    },
    {
      "inputs": [],
      "name": "getPlayerInfo",
      "outputs": [
        {
          "components": [
            {
              "internalType": "uint256",
              "name": "stage",
              "type": "uint256"
            },
            {
              "internalType": "uint256",
              "name": "level",
              "type": "uint256"
            },
            {
              "internalType": "uint256",
              "name": "experience",
              "type": "uint256"
            },
            {
              "internalType": "uint256",
              "name": "health",
              "type": "uint256"
            },
            {
              "internalType": "uint256",
              "name": "coins",
              "type": "uint256"
            },
            {
              "internalType": "uint256",
              "name": "createdAt",
              "type": "uint256"
            },
            {
              "internalType": "bool",
              "name": "exists",
              "type": "bool"
            }
          ],
          "internalType": "struct GameStateManager.Player",
          "name": "",
          "type": "tuple"
        }
      ],
      "stateMutability": "view",
      "type": "function"
    },
    {
      "inputs": [
        {
          "internalType": "address",
          "name": "_playerAddress",
          "type": "address"
        }
      ],
      "name": "getPlayerItems",
      "outputs": [
        {
          "internalType": "uint256[]",
          "name": "",
          "type": "uint256[]"
        }
      ],
      "stateMutability": "view",
      "type": "function"
    },
    {
      "inputs": [
        {
          "internalType": "uint256",
          "name": "_itemId",
          "type": "uint256"
        }
      ],
      "name": "getStoreItem",
      "outputs": [
        {
          "components": [
            {
              "internalType": "uint256",
              "name": "id",
              "type": "uint256"
            },
            {
              "internalType": "string",
              "name": "name",
              "type": "string"
            },
            {
              "internalType": "string",
              "name": "description",
              "type": "string"
            },
            {
              "internalType": "uint256",
              "name": "price",
              "type": "uint256"
            },
            {
              "internalType": "string",
              "name": "image",
              "type": "string"
            },
            {
              "internalType": "bool",
              "name": "exists",
              "type": "bool"
            }
          ],
          "internalType": "struct GameStateManager.Item",
          "name": "",
          "type": "tuple"
        }
      ],
      "stateMutability": "view",
      "type": "function"
    },
    {
      "inputs": [],
      "name": "itemCount",
      "outputs": [
        {
          "internalType": "uint256",
          "name": "",
          "type": "uint256"
        }
      ],
      "stateMutability": "view",
      "type": "function"
    },
    {
      "inputs": [],
      "name": "levelUp",
      "outputs": [],
      "stateMutability": "nonpayable",
      "type": "function"
    },
    {
      "inputs": [],
      "name": "mobCount",
      "outputs": [
        {
          "internalType": "uint256",
          "name": "",
          "type": "uint256"
        }
      ],
      "stateMutability": "view",
      "type": "function"
    },
    {
      "inputs": [
        {
          "internalType": "uint256",
          "name": "",
          "type": "uint256"
        }
      ],
      "name": "mobs",
      "outputs": [
        {
          "internalType": "uint256",
          "name": "id",
          "type": "uint256"
        },
        {
          "internalType": "string",
          "name": "name",
          "type": "string"
        },
        {
          "internalType": "enum GameStateManager.EnemyType",
          "name": "enemyType",
          "type": "uint8"
        },
        {
          "internalType": "uint256",
          "name": "health",
          "type": "uint256"
        },
        {
          "internalType": "uint256",
          "name": "attack",
          "type": "uint256"
        },
        {
          "internalType": "uint256",
          "name": "coinsDropped",
          "type": "uint256"
        },
        {
          "internalType": "uint256",
          "name": "expDropped",
          "type": "uint256"
        },
        {
          "internalType": "bool",
          "name": "exists",
          "type": "bool"
        },
        {
          "internalType": "bool",
          "name": "isDead",
          "type": "bool"
        }
      ],
      "stateMutability": "view",
      "type": "function"
    },
    {
      "inputs": [
        {
          "internalType": "uint256",
          "name": "",
          "type": "uint256"
        }
      ],
      "name": "playerAddresses",
      "outputs": [
        {
          "internalType": "address",
          "name": "",
          "type": "address"
        }
      ],
      "stateMutability": "view",
      "type": "function"
    },
    {
      "inputs": [
        {
          "internalType": "address",
          "name": "",
          "type": "address"
        },
        {
          "internalType": "uint256",
          "name": "",
          "type": "uint256"
        }
      ],
      "name": "playerItems",
      "outputs": [
        {
          "internalType": "uint256",
          "name": "",
          "type": "uint256"
        }
      ],
      "stateMutability": "view",
      "type": "function"
    },
    {
      "inputs": [
        {
          "internalType": "address",
          "name": "",
          "type": "address"
        }
      ],
      "name": "players",
      "outputs": [
        {
          "internalType": "uint256",
          "name": "stage",
          "type": "uint256"
        },
        {
          "internalType": "uint256",
          "name": "level",
          "type": "uint256"
        },
        {
          "internalType": "uint256",
          "name": "experience",
          "type": "uint256"
        },
        {
          "internalType": "uint256",
          "name": "health",
          "type": "uint256"
        },
        {
          "internalType": "uint256",
          "name": "coins",
          "type": "uint256"
        },
        {
          "internalType": "uint256",
          "name": "createdAt",
          "type": "uint256"
        },
        {
          "internalType": "bool",
          "name": "exists",
          "type": "bool"
        }
      ],
      "stateMutability": "view",
      "type": "function"
    },
    {
      "inputs": [
        {
          "internalType": "uint256",
          "name": "_itemId",
          "type": "uint256"
        }
      ],
      "name": "purchaseItem",
      "outputs": [],
      "stateMutability": "nonpayable",
      "type": "function"
    },
    {
      "inputs": [],
      "name": "stageCleared",
      "outputs": [],
      "stateMutability": "nonpayable",
      "type": "function"
    },
    {
      "inputs": [
        {
          "internalType": "uint256",
          "name": "",
          "type": "uint256"
        }
      ],
      "name": "storeItems",
      "outputs": [
        {
          "internalType": "uint256",
          "name": "id",
          "type": "uint256"
        },
        {
          "internalType": "string",
          "name": "name",
          "type": "string"
        },
        {
          "internalType": "string",
          "name": "description",
          "type": "string"
        },
        {
          "internalType": "uint256",
          "name": "price",
          "type": "uint256"
        },
        {
          "internalType": "string",
          "name": "image",
          "type": "string"
        },
        {
          "internalType": "bool",
          "name": "exists",
          "type": "bool"
        }
      ],
      "stateMutability": "view",
      "type": "function"
    },
    {
      "inputs": [
        {
          "internalType": "uint256",
          "name": "_newHealth",
          "type": "uint256"
        }
      ],
      "name": "updateHealth",
      "outputs": [],
      "stateMutability": "nonpayable",
      "type": "function"
    },
    {
      "inputs": [
        {
          "internalType": "uint256",
          "name": "_mobId",
          "type": "uint256"
        },
        {
          "internalType": "uint256",
          "name": "_damage",
          "type": "uint256"
        }
      ],
      "name": "updateMobHealth",
      "outputs": [],
      "stateMutability": "nonpayable",
      "type": "function"
    }
  ],
  "bytecode": "0x608060405234801561001057600080fd5b506040518060200160405280600081525060008082015181600001559050506100c660016040518060400160405280600e81526020017f457468657265756d2053776f72640000000000000000000000000000000000008152506040518060600160405280602e8152602001614760602e913960646040518060400160405280600e81526020017f2f6574682d73776f72642e706e670000000000000000000000000000000000008152506103f860201b60201c565b61015d60026040518060400160405280600e81526020017f426974636f696e20536869656c640000000000000000000000000000000000008152506040518060600160405280602981526020016147b36029913960966040518060400160405280600f81526020017f2f6274632d736869656c642e706e6700000000000000000000000000000000008152506103f860201b60201c565b6101f460036040518060400160405280600f81526020017f436861696e6c696e6b20426f6f747300000000000000000000000000000000008152506040518060600160405280602d81526020016147dc602d9139600a6040518060400160405280600f81526020017f2f6c696e6b2d626f6f74732e706e6700000000000000000000000000000000008152506103f860201b60201c565b6102a860046040518060400160405280600e81526020017f506f6c6b61646f742041726d6f720000000000000000000000000000000000008152506040518060400160405280602081526020017f41726d6f72207468617420636f6e6e6563747320616e642070726f746563747381525060c86040518060400160405280600e81526020017f2f646f742d61726d6f722e706e670000000000000000000000000000000000008152506103f860201b60201c565b61035c60056040518060400160405280600b81526020017f43617264616e6f20426f770000000000000000000000000000000000000000008152506040518060400160405280601a81526020017f41207072656369736520616e6420706f77657266756c20626f7700000000000081525060786040518060400160405280600c81526020017f2f6164612d626f772e706e6700000000000000000000000000000000000000008152506103f860201b60201c565b6103f360066040518060400160405280600c81526020017f536f6c616e6120436c6f616b000000000000000000000000000000000000000081525060405180606001604052806025815260200161478e6025913960506040518060400160405280600e81526020017f2f736f6c2d636c6f616b2e706e670000000000000000000000000000000000008152506103f860201b60201c565b610a39565b6005600086815260200190815260200160002060050160009054906101000a900460ff161561045c576040517f08c379a0000000000000000000000000000000000000000000000000000000008152600401610453906105cd565b60405180910390fd5b6040518060c0016040528086815260200185815260200184815260200183815260200182815260200160011515815250600560008781526020019081526020016000206000820151816000015560208201518160010190816104be919061083d565b5060408201518160020190816104d4919061083d565b506060820151816003015560808201518160040190816104f4919061083d565b5060a08201518160050160006101000a81548160ff0219169083151502179055509050506006600081548092919061052b9061093e565b91905055507fdf23d688f8641641c72272cec9726d4c8db91ac0d0f47017f795b8bb53a445368585604051610561929190610a09565b60405180910390a15050505050565b600082825260208201905092915050565b7f4974656d20494420616c72656164792065786973747300000000000000000000600082015250565b60006105b7601683610570565b91506105c282610581565b602082019050919050565b600060208201905081810360008301526105e6816105aa565b9050919050565b600081519050919050565b7f4e487b7100000000000000000000000000000000000000000000000000000000600052604160045260246000fd5b7f4e487b7100000000000000000000000000000000000000000000000000000000600052602260045260246000fd5b6000600282049050600182168061066e57607f821691505b60208210810361068157610680610627565b5b50919050565b60008190508160005260206000209050919050565b60006020601f8301049050919050565b600082821b905092915050565b6000600883026106e97fffffffffffffffffffffffffffffffffffffffffffffffffffffffffffffffff826106ac565b6106f386836106ac565b95508019841693508086168417925050509392505050565b6000819050919050565b6000819050919050565b600061073a6107356107308461070b565b610715565b61070b565b9050919050565b6000819050919050565b6107548361071f565b61076861076082610741565b8484546106b9565b825550505050565b600090565b61077d610770565b61078881848461074b565b505050565b5b818110156107ac576107a1600082610775565b60018101905061078e565b5050565b601f8211156107f1576107c281610687565b6107cb8461069c565b810160208510156107da578190505b6107ee6107e68561069c565b83018261078d565b50505b505050565b600082821c905092915050565b6000610814600019846008026107f6565b1980831691505092915050565b600061082d8383610803565b9150826002028217905092915050565b610846826105ed565b67ffffffffffffffff81111561085f5761085e6105f8565b5b6108698254610656565b6108748282856107b0565b600060209050601f8311600181146108a75760008415610895578287015190505b61089f8582610821565b865550610907565b601f1984166108b586610687565b60005b828110156108dd578489015182556001820191506020850194506020810190506108b8565b868310156108fa57848901516108f6601f891682610803565b8355505b6001600288020188555050505b505050505050565b7f4e487b7100000000000000000000000000000000000000000000000000000000600052601160045260246000fd5b60006109498261070b565b91507fffffffffffffffffffffffffffffffffffffffffffffffffffffffffffffffff820361097b5761097a61090f565b5b600182019050919050565b61098f8161070b565b82525050565b60005b838110156109b3578082015181840152602081019050610998565b60008484015250505050565b6000601f19601f8301169050919050565b60006109db826105ed565b6109e58185610570565b93506109f5818560208601610995565b6109fe816109bf565b840191505092915050565b6000604082019050610a1e6000830185610986565b8181036020830152610a3081846109d0565b90509392505050565b613d1880610a486000396000f3fe608060405234801561001057600080fd5b50600436106101735760003560e01c8063b7d0628b116100de578063d1df81df11610097578063d933a54011610071578063d933a5401461041b578063da4711b414610439578063e2eb41ff14610471578063ec8474e6146104a757610173565b8063d1df81df146103c3578063d1f9c24d146103e1578063d38ea5bf146103ff57610173565b8063b7d0628b146102ed578063ba816ac71461030b578063bc8ccc451461033b578063c37c355514610359578063c64118f514610375578063c6fb11b8146103a557610173565b80636b6846ac116101305780636b6846ac1461023d5780636bfb0d01146102475780638d0b7269146102655780639976d22014610283578063b11f127b1461029f578063b4b5e6a9146102bd57610173565b806315c6aee2146101785780633fa9fcf8146101a857806343f2cdb2146101b25780634ea1ecf9146101e75780635bbee18c146101f15780636951194614610221575b600080fd5b610192600480360381019061018d91906126e5565b6104c5565b60405161019f9190612753565b60405180910390f35b6101b0610504565b005b6101cc60048036038101906101c791906126e5565b610740565b6040516101de96959493929190612828565b60405180910390f35b6101ef610921565b005b61020b600480360381019061020691906126e5565b610ae4565b6040516102189190612a42565b60405180910390f35b61023b60048036038101906102369190612a64565b610caa565b005b610245610e62565b005b61024f610fdd565b60405161025c9190612aa4565b60405180910390f35b61026d610fe3565b60405161027a9190612aa4565b60405180910390f35b61029d600480360381019061029891906126e5565b6111b1565b005b6102a761131e565b6040516102b49190612aa4565b60405180910390f35b6102d760048036038101906102d291906126e5565b6114eb565b6040516102e49190612b56565b60405180910390f35b6102f5611760565b6040516103029190612b94565b60405180910390f35b61032560048036038101906103209190612bdb565b611784565b6040516103329190612aa4565b60405180910390f35b6103436117b5565b6040516103509190612aa4565b60405180910390f35b610373600480360381019061036e91906126e5565b6117ff565b005b61038f600480360381019061038a9190612c1b565b61198c565b60405161039c9190612cf7565b60405180910390f35b6103ad611ab4565b6040516103ba9190612aa4565b60405180910390f35b6103cb611c82565b6040516103d89190612da7565b60405180910390f35b6103e9611dbf565b6040516103f69190612aa4565b60405180910390f35b610419600480360381019061041491906126e5565b611dcb565b005b610423612140565b6040516104309190612aa4565b60405180910390f35b610453600480360381019061044e91906126e5565b612146565b60405161046899989796959493929190612dd1565b60405180910390f35b61048b60048036038101906104869190612c1b565b612243565b60405161049e9796959493929190612e65565b60405180910390f35b6104af612292565b6040516104bc919061302d565b60405180910390f35b600281815481106104d557600080fd5b906000526020600020016000915054906101000a900473ffffffffffffffffffffffffffffffffffffffff1681565b600160003373ffffffffffffffffffffffffffffffffffffffff1673ffffffffffffffffffffffffffffffffffffffff16815260200190815260200160002060060160009054906101000a900460ff1615610594576040517f08c379a000000000000000000000000000000000000000000000000000000000815260040161058b9061309b565b60405180910390fd5b6040518060e00160405280600181526020016001815260200160008152602001606481526020016000815260200142815260200160011515815250600160003373ffffffffffffffffffffffffffffffffffffffff1673ffffffffffffffffffffffffffffffffffffffff168152602001908152602001600020600082015181600001556020820151816001015560408201518160020155606082015181600301556080820151816004015560a0820151816005015560c08201518160060160006101000a81548160ff021916908315150217905550905050600080016000815480929190610682906130ea565b91905055506002339080600181540180825580915050600190039060005260206000200160009091909190916101000a81548173ffffffffffffffffffffffffffffffffffffffff021916908373ffffffffffffffffffffffffffffffffffffffff1602179055503373ffffffffffffffffffffffffffffffffffffffff167fdbd350b0fedfda470deaaf32f91e1578f2e0a1eca99a0f2c8435b6595dcfd2946001806064604051610736939291906131b2565b60405180910390a2565b600560205280600052604060002060009150905080600001549080600101805461076990613218565b80601f016020809104026020016040519081016040528092919081815260200182805461079590613218565b80156107e25780601f106107b7576101008083540402835291602001916107e2565b820191906000526020600020905b8154815290600101906020018083116107c557829003601f168201915b5050505050908060020180546107f790613218565b80601f016020809104026020016040519081016040528092919081815260200182805461082390613218565b80156108705780601f1061084557610100808354040283529160200191610870565b820191906000526020600020905b81548152906001019060200180831161085357829003601f168201915b50505050509080600301549080600401805461088b90613218565b80601f01602080910402602001604051908101604052809291908181526020018280546108b790613218565b80156109045780601f106108d957610100808354040283529160200191610904565b820191906000526020600020905b8154815290600101906020018083116108e757829003601f168201915b5050505050908060050160009054906101000a900460ff16905086565b33600160008273ffffffffffffffffffffffffffffffffffffffff1673ffffffffffffffffffffffffffffffffffffffff16815260200190815260200160002060060160009054906101000a900460ff166109b1576040517f08c379a00000000000000000000000000000000000000000000000000000000081526004016109a890613295565b60405180910390fd5b600160003373ffffffffffffffffffffffffffffffffffffffff1673ffffffffffffffffffffffffffffffffffffffff1681526020019081526020016000206001016000815480929190610a04906130ea565b91905055506064600160003373ffffffffffffffffffffffffffffffffffffffff1673ffffffffffffffffffffffffffffffffffffffff168152602001908152602001600020600301819055503373ffffffffffffffffffffffffffffffffffffffff167f85223984c4720843b1b5aa66f09162e4d7494973839e9c8dbea375c91978d4f4600160003373ffffffffffffffffffffffffffffffffffffffff1673ffffffffffffffffffffffffffffffffffffffff16815260200190815260200160002060010154604051610ad99190612aa4565b60405180910390a250565b610aec6125be565b6003600083815260200190815260200160002060070160009054906101000a900460ff16610b4f576040517f08c379a0000000000000000000000000000000000000000000000000000000008152600401610b4690613301565b60405180910390fd5b600360008381526020019081526020016000206040518061012001604052908160008201548152602001600182018054610b8890613218565b80601f0160208091040260200160405190810160405280929190818152602001828054610bb490613218565b8015610c015780601f10610bd657610100808354040283529160200191610c01565b820191906000526020600020905b815481529060010190602001808311610be457829003601f168201915b505050505081526020016002820160009054906101000a900460ff166002811115610c2f57610c2e6128f7565b5b6002811115610c4157610c406128f7565b5b8152602001600382015481526020016004820154815260200160058201548152602001600682015481526020016007820160009054906101000a900460ff161515151581526020016007820160019054906101000a900460ff1615151515815250509050919050565b6003600083815260200190815260200160002060070160009054906101000a900460ff16610d0d576040517f08c379a0000000000000000000000000000000000000000000000000000000008152600401610d0490613301565b60405180910390fd5b6003600083815260200190815260200160002060070160019054906101000a900460ff1615610d71576040517f08c379a0000000000000000000000000000000000000000000000000000000008152600401610d689061336d565b60405180910390fd5b60036000838152602001908152602001600020600301548110610dde576000600360008481526020019081526020016000206003018190555060016003600084815260200190815260200160002060070160016101000a81548160ff021916908315150217905550610e0c565b80600360008481526020019081526020016000206003016000828254610e04919061338d565b925050819055505b6003600083815260200190815260200160002060070160019054906101000a900460ff1615610e5e57610e3e82612546565b610e5d60036000848152602001908152602001600020600601546117ff565b5b5050565b33600160008273ffffffffffffffffffffffffffffffffffffffff1673ffffffffffffffffffffffffffffffffffffffff16815260200190815260200160002060060160009054906101000a900460ff16610ef2576040517f08c379a0000000000000000000000000000000000000000000000000000000008152600401610ee990613295565b60405180910390fd5b600160003373ffffffffffffffffffffffffffffffffffffffff1673ffffffffffffffffffffffffffffffffffffffff1681526020019081526020016000206000016000815480929190610f45906130ea565b91905055503373ffffffffffffffffffffffffffffffffffffffff167fb90e2e9522b348da704b6ce77abde64428da1f2907a1706fb8d82cf83447e316600160003373ffffffffffffffffffffffffffffffffffffffff1673ffffffffffffffffffffffffffffffffffffffff16815260200190815260200160002060000154604051610fd29190612aa4565b60405180910390a250565b60065481565b600060046000815480929190610ff8906130ea565b919050555060405180610120016040528060045481526020016040518060400160405280600d81526020017f466f7265737420476f626c696e000000000000000000000000000000000000008152508152602001600160028111156110605761105f6128f7565b5b8152602001601e8152602001600f815260200160148152602001603c8152602001600115158152602001600015158152506003600060045481526020019081526020016000206000820151816000015560208201518160010190816110c59190613592565b5060408201518160020160006101000a81548160ff021916908360028111156110f1576110f06128f7565b5b0217905550606082015181600301556080820151816004015560a0820151816005015560c0820151816006015560e08201518160070160006101000a81548160ff0219169083151502179055506101008201518160070160016101000a81548160ff0219169083151502179055509050506004547f9d349582ad64820490413cddcb008bb423a05fa7b839d10bf64452ad77be447b6001601e600f6014603c6040516111a195949392919061379c565b60405180910390a2600454905090565b33600160008273ffffffffffffffffffffffffffffffffffffffff1673ffffffffffffffffffffffffffffffffffffffff16815260200190815260200160002060060160009054906101000a900460ff16611241576040517f08c379a000000000000000000000000000000000000000000000000000000000815260040161123890613295565b60405180910390fd5b6064821115611285576040517f08c379a000000000000000000000000000000000000000000000000000000000815260040161127c9061384e565b60405180910390fd5b81600160003373ffffffffffffffffffffffffffffffffffffffff1673ffffffffffffffffffffffffffffffffffffffff168152602001908152602001600020600301819055503373ffffffffffffffffffffffffffffffffffffffff167f19a6c61462d6e1c7792cca1474187abbdfd347d8e3917fe14b8c3b9c3c020a99836040516113129190612aa4565b60405180910390a25050565b600060046000815480929190611333906130ea565b919050555060405180610120016040528060045481526020016040518060400160405280601481526020017f436861696e76657273652044657374726f796572000000000000000000000000815250815260200160028081111561139a576113996128f7565b5b815260200160648152602001601981526020016064815260200160968152602001600115158152602001600015158152506003600060045481526020019081526020016000206000820151816000015560208201518160010190816113ff9190613592565b5060408201518160020160006101000a81548160ff0219169083600281111561142b5761142a6128f7565b5b0217905550606082015181600301556080820151816004015560a0820151816005015560c0820151816006015560e08201518160070160006101000a81548160ff0219169083151502179055506101008201518160070160016101000a81548160ff0219169083151502179055509050506004547f9d349582ad64820490413cddcb008bb423a05fa7b839d10bf64452ad77be447b600260646019606460966040516114db959493929190613930565b60405180910390a2600454905090565b6114f3612620565b6005600083815260200190815260200160002060050160009054906101000a900460ff16611556576040517f08c379a000000000000000000000000000000000000000000000000000000000815260040161154d906139e2565b60405180910390fd5b600560008381526020019081526020016000206040518060c00160405290816000820154815260200160018201805461158e90613218565b80601f01602080910402602001604051908101604052809291908181526020018280546115ba90613218565b80156116075780601f106115dc57610100808354040283529160200191611607565b820191906000526020600020905b8154815290600101906020018083116115ea57829003601f168201915b5050505050815260200160028201805461162090613218565b80601f016020809104026020016040519081016040528092919081815260200182805461164c90613218565b80156116995780601f1061166e57610100808354040283529160200191611699565b820191906000526020600020905b81548152906001019060200180831161167c57829003601f168201915b50505050508152602001600382015481526020016004820180546116bc90613218565b80601f01602080910402602001604051908101604052809291908181526020018280546116e890613218565b80156117355780601f1061170a57610100808354040283529160200191611735565b820191906000526020600020905b81548152906001019060200180831161171857829003601f168201915b505050505081526020016005820160009054906101000a900460ff1615151515815250509050919050565b611768612658565b6000604051806020016040529081600082015481525050905090565b600760205281600052604060002081815481106117a057600080fd5b90600052602060002001600091509150505481565b6000600160003373ffffffffffffffffffffffffffffffffffffffff1673ffffffffffffffffffffffffffffffffffffffff16815260200190815260200160002060040154905090565b33600160008273ffffffffffffffffffffffffffffffffffffffff1673ffffffffffffffffffffffffffffffffffffffff16815260200190815260200160002060060160009054906101000a900460ff1661188f576040517f08c379a000000000000000000000000000000000000000000000000000000000815260040161188690613295565b60405180910390fd5b81600160003373ffffffffffffffffffffffffffffffffffffffff1673ffffffffffffffffffffffffffffffffffffffff16815260200190815260200160002060020160008282546118e19190613a02565b925050819055506064600160003373ffffffffffffffffffffffffffffffffffffffff1673ffffffffffffffffffffffffffffffffffffffff168152602001908152602001600020600101546119379190613a36565b600160003373ffffffffffffffffffffffffffffffffffffffff1673ffffffffffffffffffffffffffffffffffffffff168152602001908152602001600020600201541061198857611987610921565b5b5050565b606081600160008273ffffffffffffffffffffffffffffffffffffffff1673ffffffffffffffffffffffffffffffffffffffff16815260200190815260200160002060060160009054906101000a900460ff16611a1e576040517f08c379a0000000000000000000000000000000000000000000000000000000008152600401611a1590613295565b60405180910390fd5b600760008473ffffffffffffffffffffffffffffffffffffffff1673ffffffffffffffffffffffffffffffffffffffff168152602001908152602001600020805480602002602001604051908101604052809291908181526020018280548015611aa757602002820191906000526020600020905b815481526020019060010190808311611a93575b5050505050915050919050565b600060046000815480929190611ac9906130ea565b919050555060405180610120016040528060045481526020016040518060400160405280600b81526020017f426173696320536c696d65000000000000000000000000000000000000000000815250815260200160006002811115611b3157611b306128f7565b5b8152602001600f8152602001600a8152602001600581526020016028815260200160011515815260200160001515815250600360006004548152602001908152602001600020600082015181600001556020820151816001019081611b969190613592565b5060408201518160020160006101000a81548160ff02191690836002811115611bc257611bc16128f7565b5b0217905550606082015181600301556080820151816004015560a0820151816005015560c0820151816006015560e08201518160070160006101000a81548160ff0219169083151502179055506101008201518160070160016101000a81548160ff0219169083151502179055509050506004547f9d349582ad64820490413cddcb008bb423a05fa7b839d10bf64452ad77be447b6000600f600a60056028604051611c72959493929190613b75565b60405180910390a2600454905090565b611c8a61266b565b600160003373ffffffffffffffffffffffffffffffffffffffff1673ffffffffffffffffffffffffffffffffffffffff16815260200190815260200160002060060160009054906101000a900460ff16611d19576040517f08c379a0000000000000000000000000000000000000000000000000000000008152600401611d1090613295565b60405180910390fd5b600160003373ffffffffffffffffffffffffffffffffffffffff1673ffffffffffffffffffffffffffffffffffffffff1681526020019081526020016000206040518060e00160405290816000820154815260200160018201548152602001600282015481526020016003820154815260200160048201548152602001600582015481526020016006820160009054906101000a900460ff161515151581525050905090565b60008060000154905081565b33600160008273ffffffffffffffffffffffffffffffffffffffff1673ffffffffffffffffffffffffffffffffffffffff16815260200190815260200160002060060160009054906101000a900460ff16611e5b576040517f08c379a0000000000000000000000000000000000000000000000000000000008152600401611e5290613295565b60405180910390fd5b6005600083815260200190815260200160002060050160009054906101000a900460ff16611ebe576040517f08c379a0000000000000000000000000000000000000000000000000000000008152600401611eb5906139e2565b60405180910390fd5b6005600083815260200190815260200160002060030154600160003373ffffffffffffffffffffffffffffffffffffffff1673ffffffffffffffffffffffffffffffffffffffff168152602001908152602001600020600401541015611f59576040517f08c379a0000000000000000000000000000000000000000000000000000000008152600401611f5090613c27565b60405180910390fd5b6000600760003373ffffffffffffffffffffffffffffffffffffffff1673ffffffffffffffffffffffffffffffffffffffff168152602001908152602001600020905060005b81805490508110156120175783828281548110611fbf57611fbe613c47565b5b90600052602060002001540361200a576040517f08c379a000000000000000000000000000000000000000000000000000000000815260040161200190613cc2565b60405180910390fd5b8080600101915050611f9f565b506005600084815260200190815260200160002060030154600160003373ffffffffffffffffffffffffffffffffffffffff1673ffffffffffffffffffffffffffffffffffffffff1681526020019081526020016000206004016000828254612080919061338d565b92505081905550600760003373ffffffffffffffffffffffffffffffffffffffff1673ffffffffffffffffffffffffffffffffffffffff1681526020019081526020016000208390806001815401808255809150506001900390600052602060002001600090919091909150553373ffffffffffffffffffffffffffffffffffffffff167f792fe07c0f3ce4ef42df79c4a2b07925168cddbaabf7a7ef1351f027a3760313846040516121339190612aa4565b60405180910390a2505050565b60045481565b600360205280600052604060002060009150905080600001549080600101805461216f90613218565b80601f016020809104026020016040519081016040528092919081815260200182805461219b90613218565b80156121e85780601f106121bd576101008083540402835291602001916121e8565b820191906000526020600020905b8154815290600101906020018083116121cb57829003601f168201915b5050505050908060020160009054906101000a900460ff16908060030154908060040154908060050154908060060154908060070160009054906101000a900460ff16908060070160019054906101000a900460ff16905089565b60016020528060005260406000206000915090508060000154908060010154908060020154908060030154908060040154908060050154908060060160009054906101000a900460ff16905087565b6060600060065467ffffffffffffffff8111156122b2576122b16133c1565b5b6040519080825280602002602001820160405280156122eb57816020015b6122d8612620565b8152602001906001900390816122d05790505b5090506000600190505b600654811161253e57600560008281526020019081526020016000206040518060c00160405290816000820154815260200160018201805461233690613218565b80601f016020809104026020016040519081016040528092919081815260200182805461236290613218565b80156123af5780601f10612384576101008083540402835291602001916123af565b820191906000526020600020905b81548152906001019060200180831161239257829003601f168201915b505050505081526020016002820180546123c890613218565b80601f01602080910402602001604051908101604052809291908181526020018280546123f490613218565b80156124415780601f1061241657610100808354040283529160200191612441565b820191906000526020600020905b81548152906001019060200180831161242457829003601f168201915b505050505081526020016003820154815260200160048201805461246490613218565b80601f016020809104026020016040519081016040528092919081815260200182805461249090613218565b80156124dd5780601f106124b2576101008083540402835291602001916124dd565b820191906000526020600020905b8154815290600101906020018083116124c057829003601f168201915b505050505081526020016005820160009054906101000a900460ff1615151515815250508260018361250f919061338d565b815181106125205761251f613c47565b5b60200260200101819052508080612536906130ea565b9150506122f5565b508091505090565b60006003600083815260200190815260200160002060050154905080600160003373ffffffffffffffffffffffffffffffffffffffff1673ffffffffffffffffffffffffffffffffffffffff16815260200190815260200160002060040160008282546125b39190613a02565b925050819055505050565b6040518061012001604052806000815260200160608152602001600060028111156125ec576125eb6128f7565b5b8152602001600081526020016000815260200160008152602001600081526020016000151581526020016000151581525090565b6040518060c0016040528060008152602001606081526020016060815260200160008152602001606081526020016000151581525090565b6040518060200160405280600081525090565b6040518060e001604052806000815260200160008152602001600081526020016000815260200160008152602001600081526020016000151581525090565b600080fd5b6000819050919050565b6126c2816126af565b81146126cd57600080fd5b50565b6000813590506126df816126b9565b92915050565b6000602082840312156126fb576126fa6126aa565b5b6000612709848285016126d0565b91505092915050565b600073ffffffffffffffffffffffffffffffffffffffff82169050919050565b600061273d82612712565b9050919050565b61274d81612732565b82525050565b60006020820190506127686000830184612744565b92915050565b612777816126af565b82525050565b600081519050919050565b600082825260208201905092915050565b60005b838110156127b757808201518184015260208101905061279c565b60008484015250505050565b6000601f19601f8301169050919050565b60006127df8261277d565b6127e98185612788565b93506127f9818560208601612799565b612802816127c3565b840191505092915050565b60008115159050919050565b6128228161280d565b82525050565b600060c08201905061283d600083018961276e565b818103602083015261284f81886127d4565b9050818103604083015261286381876127d4565b9050612872606083018661276e565b818103608083015261288481856127d4565b905061289360a0830184612819565b979650505050505050565b6128a7816126af565b82525050565b600082825260208201905092915050565b60006128c98261277d565b6128d381856128ad565b93506128e3818560208601612799565b6128ec816127c3565b840191505092915050565b7f4e487b7100000000000000000000000000000000000000000000000000000000600052602160045260246000fd5b60038110612937576129366128f7565b5b50565b600081905061294882612926565b919050565b60006129588261293a565b9050919050565b6129688161294d565b82525050565b6129778161280d565b82525050565b600061012083016000830151612996600086018261289e565b50602083015184820360208601526129ae82826128be565b91505060408301516129c3604086018261295f565b5060608301516129d6606086018261289e565b5060808301516129e9608086018261289e565b5060a08301516129fc60a086018261289e565b5060c0830151612a0f60c086018261289e565b5060e0830151612a2260e086018261296e565b50610100830151612a3761010086018261296e565b508091505092915050565b60006020820190508181036000830152612a5c818461297d565b905092915050565b60008060408385031215612a7b57612a7a6126aa565b5b6000612a89858286016126d0565b9250506020612a9a858286016126d0565b9150509250929050565b6000602082019050612ab9600083018461276e565b92915050565b600060c083016000830151612ad7600086018261289e565b5060208301518482036020860152612aef82826128be565b91505060408301518482036040860152612b0982826128be565b9150506060830151612b1e606086018261289e565b5060808301518482036080860152612b3682826128be565b91505060a0830151612b4b60a086018261296e565b508091505092915050565b60006020820190508181036000830152612b708184612abf565b905092915050565b602082016000820151612b8e600085018261289e565b50505050565b6000602082019050612ba96000830184612b78565b92915050565b612bb881612732565b8114612bc357600080fd5b50565b600081359050612bd581612baf565b92915050565b60008060408385031215612bf257612bf16126aa565b5b6000612c0085828601612bc6565b9250506020612c11858286016126d0565b9150509250929050565b600060208284031215612c3157612c306126aa565b5b6000612c3f84828501612bc6565b91505092915050565b600081519050919050565b600082825260208201905092915050565b6000819050602082019050919050565b6000612c80838361289e565b60208301905092915050565b6000602082019050919050565b6000612ca482612c48565b612cae8185612c53565b9350612cb983612c64565b8060005b83811015612cea578151612cd18882612c74565b9750612cdc83612c8c565b925050600181019050612cbd565b5085935050505092915050565b60006020820190508181036000830152612d118184612c99565b905092915050565b60e082016000820151612d2f600085018261289e565b506020820151612d42602085018261289e565b506040820151612d55604085018261289e565b506060820151612d68606085018261289e565b506080820151612d7b608085018261289e565b5060a0820151612d8e60a085018261289e565b5060c0820151612da160c085018261296e565b50505050565b600060e082019050612dbc6000830184612d19565b92915050565b612dcb8161294d565b82525050565b600061012082019050612de7600083018c61276e565b8181036020830152612df9818b6127d4565b9050612e08604083018a612dc2565b612e15606083018961276e565b612e22608083018861276e565b612e2f60a083018761276e565b612e3c60c083018661276e565b612e4960e0830185612819565b612e57610100830184612819565b9a9950505050505050505050565b600060e082019050612e7a600083018a61276e565b612e87602083018961276e565b612e94604083018861276e565b612ea1606083018761276e565b612eae608083018661276e565b612ebb60a083018561276e565b612ec860c0830184612819565b98975050505050505050565b600081519050919050565b600082825260208201905092915050565b6000819050602082019050919050565b600060c083016000830151612f18600086018261289e565b5060208301518482036020860152612f3082826128be565b91505060408301518482036040860152612f4a82826128be565b9150506060830151612f5f606086018261289e565b5060808301518482036080860152612f7782826128be565b91505060a0830151612f8c60a086018261296e565b508091505092915050565b6000612fa38383612f00565b905092915050565b6000602082019050919050565b6000612fc382612ed4565b612fcd8185612edf565b935083602082028501612fdf85612ef0565b8060005b8581101561301b5784840389528151612ffc8582612f97565b945061300783612fab565b925060208a01995050600181019050612fe3565b50829750879550505050505092915050565b600060208201905081810360008301526130478184612fb8565b905092915050565b7f506c6179657220616c7265616479206578697374730000000000000000000000600082015250565b6000613085601583612788565b91506130908261304f565b602082019050919050565b600060208201905081810360008301526130b481613078565b9050919050565b7f4e487b7100000000000000000000000000000000000000000000000000000000600052601160045260246000fd5b60006130f5826126af565b91507fffffffffffffffffffffffffffffffffffffffffffffffffffffffffffffffff8203613127576131266130bb565b5b600182019050919050565b6000819050919050565b6000819050919050565b600061316161315c61315784613132565b61313c565b6126af565b9050919050565b61317181613146565b82525050565b6000819050919050565b600061319c61319761319284613177565b61313c565b6126af565b9050919050565b6131ac81613181565b82525050565b60006060820190506131c76000830186613168565b6131d46020830185613168565b6131e160408301846131a3565b949350505050565b7f4e487b7100000000000000000000000000000000000000000000000000000000600052602260045260246000fd5b6000600282049050600182168061323057607f821691505b602082108103613243576132426131e9565b5b50919050565b7f506c6179657220646f6573206e6f742065786973740000000000000000000000600082015250565b600061327f601583612788565b915061328a82613249565b602082019050919050565b600060208201905081810360008301526132ae81613272565b9050919050565b7f4d6f6220646f6573206e6f742065786973740000000000000000000000000000600082015250565b60006132eb601283612788565b91506132f6826132b5565b602082019050919050565b6000602082019050818103600083015261331a816132de565b9050919050565b7f4d6f6220697320616c7265616479206465616400000000000000000000000000600082015250565b6000613357601383612788565b915061336282613321565b602082019050919050565b600060208201905081810360008301526133868161334a565b9050919050565b6000613398826126af565b91506133a3836126af565b92508282039050818111156133bb576133ba6130bb565b5b92915050565b7f4e487b7100000000000000000000000000000000000000000000000000000000600052604160045260246000fd5b60008190508160005260206000209050919050565b60006020601f8301049050919050565b600082821b905092915050565b6000600883026134527fffffffffffffffffffffffffffffffffffffffffffffffffffffffffffffffff82613415565b61345c8683613415565b95508019841693508086168417925050509392505050565b600061348f61348a613485846126af565b61313c565b6126af565b9050919050565b6000819050919050565b6134a983613474565b6134bd6134b582613496565b848454613422565b825550505050565b600090565b6134d26134c5565b6134dd8184846134a0565b505050565b5b81811015613501576134f66000826134ca565b6001810190506134e3565b5050565b601f82111561354657613517816133f0565b61352084613405565b8101602085101561352f578190505b61354361353b85613405565b8301826134e2565b50505b505050565b600082821c905092915050565b60006135696000198460080261354b565b1980831691505092915050565b60006135828383613558565b9150826002028217905092915050565b61359b8261277d565b67ffffffffffffffff8111156135b4576135b36133c1565b5b6135be8254613218565b6135c9828285613505565b600060209050601f8311600181146135fc57600084156135ea578287015190505b6135f48582613576565b86555061365c565b601f19841661360a866133f0565b60005b828110156136325784890151825560018201915060208501945060208101905061360d565b8683101561364f578489015161364b601f891682613558565b8355505b6001600288020188555050505b505050505050565b7f466f7265737420476f626c696e00000000000000000000000000000000000000600082015250565b600061369a600d83612788565b91506136a582613664565b602082019050919050565b6000819050919050565b60006136d56136d06136cb846136b0565b61313c565b6126af565b9050919050565b6136e5816136ba565b82525050565b6000819050919050565b600061371061370b613706846136eb565b61313c565b6126af565b9050919050565b613720816136f5565b82525050565b6000819050919050565b600061374b61374661374184613726565b61313c565b6126af565b9050919050565b61375b81613730565b82525050565b6000819050919050565b600061378661378161377c84613761565b61313c565b6126af565b9050919050565b6137968161376b565b82525050565b600060c08201905081810360008301526137b58161368d565b90506137c46020830188612dc2565b6137d160408301876136dc565b6137de6060830186613717565b6137eb6080830185613752565b6137f860a083018461378d565b9695505050505050565b7f4865616c74682063616e6e6f7420657863656564203130300000000000000000600082015250565b6000613838601883612788565b915061384382613802565b602082019050919050565b600060208201905081810360008301526138678161382b565b9050919050565b7f436861696e76657273652044657374726f796572000000000000000000000000600082015250565b60006138a4601483612788565b91506138af8261386e565b602082019050919050565b6000819050919050565b60006138df6138da6138d5846138ba565b61313c565b6126af565b9050919050565b6138ef816138c4565b82525050565b6000819050919050565b600061391a613915613910846138f5565b61313c565b6126af565b9050919050565b61392a816138ff565b82525050565b600060c082019050818103600083015261394981613897565b90506139586020830188612dc2565b61396560408301876131a3565b61397260608301866138e6565b61397f60808301856131a3565b61398c60a0830184613921565b9695505050505050565b7f4974656d20646f6573206e6f7420657869737400000000000000000000000000600082015250565b60006139cc601383612788565b91506139d782613996565b602082019050919050565b600060208201905081810360008301526139fb816139bf565b9050919050565b6000613a0d826126af565b9150613a18836126af565b9250828201905080821115613a3057613a2f6130bb565b5b92915050565b6000613a41826126af565b9150613a4c836126af565b9250828202613a5a816126af565b91508282048414831517613a7157613a706130bb565b5b5092915050565b7f426173696320536c696d65000000000000000000000000000000000000000000600082015250565b6000613aae600b83612788565b9150613ab982613a78565b602082019050919050565b6000819050919050565b6000613ae9613ae4613adf84613ac4565b61313c565b6126af565b9050919050565b613af981613ace565b82525050565b6000819050919050565b6000613b24613b1f613b1a84613aff565b61313c565b6126af565b9050919050565b613b3481613b09565b82525050565b6000819050919050565b6000613b5f613b5a613b5584613b3a565b61313c565b6126af565b9050919050565b613b6f81613b44565b82525050565b600060c0820190508181036000830152613b8e81613aa1565b9050613b9d6020830188612dc2565b613baa6040830187613717565b613bb76060830186613af0565b613bc46080830185613b2b565b613bd160a0830184613b66565b9695505050505050565b7f4e6f7420656e6f75676820636f696e7300000000000000000000000000000000600082015250565b6000613c11601083612788565b9150613c1c82613bdb565b602082019050919050565b60006020820190508181036000830152613c4081613c04565b9050919050565b7f4e487b7100000000000000000000000000000000000000000000000000000000600052603260045260246000fd5b7f4974656d20616c7265616479206f776e65640000000000000000000000000000600082015250565b6000613cac601283612788565b9150613cb782613c76565b602082019050919050565b60006020820190508181036000830152613cdb81613c9f565b905091905056fea264697066735822122078e3b5dca494fb08f02695ccabc922419761afa7f5933424d25ddc9a516b02d064736f6c634300081c00334120706f77657266756c2073776f726420696e6675736564207769746820457468657265756d2773206d696768744120636c6f616b2074686174206772616e747320737465616c746820616e64207370656564416e20756e627265616b61626c6520736869656c6420666f726765642066726f6d20426974636f696e426f6f74732074686174206772616e7420696e6372656469626c6520737065656420616e64206167696c697479",
  "linkReferences": {},
  "deployedLinkReferences": {}
}