{
  "_format": "hh-sol-artifact-1",
  "contractName": "GameState",
  "sourceName": "contracts/GameState.sol",
  "abi": [
    {
      "inputs": [],
      "stateMutability": "nonpayable",
      "type": "constructor"
    },
    {
      "anonymous": false,
      "inputs": [
        {
          "indexed": true,
          "internalType": "address",
          "name": "player",
          "type": "address"
        }
      ],
      "name": "PlayerJoined",
      "type": "event"
    },
    {
      "anonymous": false,
      "inputs": [
        {
          "indexed": true,
          "internalType": "address",
          "name": "player",
          "type": "address"
        }
      ],
      "name": "PlayerLeft",
      "type": "event"
    },
    {
      "anonymous": false,
      "inputs": [
        {
          "indexed": true,
          "internalType": "address",
          "name": "player",
          "type": "address"
        }
      ],
      "name": "PlayerRejoined",
      "type": "event"
    },
    {
      "anonymous": false,
      "inputs": [
        {
          "indexed": true,
          "internalType": "address",
          "name": "player",
          "type": "address"
        },
        {
          "indexed": false,
          "internalType": "uint256",
          "name": "newLevel",
          "type": "uint256"
        },
        {
          "indexed": false,
          "internalType": "uint256",
          "name": "newExp",
          "type": "uint256"
        }
      ],
      "name": "PlayerUpdated",
      "type": "event"
    },
    {
      "anonymous": false,
      "inputs": [
        {
          "indexed": false,
          "internalType": "uint256",
          "name": "round",
          "type": "uint256"
        },
        {
          "indexed": false,
          "internalType": "bool",
          "name": "isPaused",
          "type": "bool"
        }
      ],
      "name": "WorldStateUpdated",
      "type": "event"
    },
    {
      "inputs": [
        {
          "internalType": "address",
          "name": "playerAddr",
          "type": "address"
        }
      ],
      "name": "getPlayerState",
      "outputs": [
        {
          "internalType": "uint256",
          "name": "level",
          "type": "uint256"
        },
        {
          "internalType": "uint256",
          "name": "exp",
          "type": "uint256"
        },
        {
          "internalType": "bool",
          "name": "isActive",
          "type": "bool"
        },
        {
          "internalType": "uint256",
          "name": "lastPlayTime",
          "type": "uint256"
        }
      ],
      "stateMutability": "view",
      "type": "function"
    },
    {
      "inputs": [],
      "name": "getWorldState",
      "outputs": [
        {
          "internalType": "uint256",
          "name": "round",
          "type": "uint256"
        },
        {
          "internalType": "uint256",
          "name": "numPlayers",
          "type": "uint256"
        },
        {
          "internalType": "bool",
          "name": "isPaused",
          "type": "bool"
        }
      ],
      "stateMutability": "view",
      "type": "function"
    },
    {
      "inputs": [],
      "name": "joinGame",
      "outputs": [],
      "stateMutability": "nonpayable",
      "type": "function"
    },
    {
      "inputs": [],
      "name": "leaveGame",
      "outputs": [],
      "stateMutability": "nonpayable",
      "type": "function"
    },
    {
      "inputs": [],
      "name": "owner",
      "outputs": [
        {
          "internalType": "address",
          "name": "",
          "type": "address"
        }
      ],
      "stateMutability": "view",
      "type": "function"
    },
    {
      "inputs": [
        {
          "internalType": "address",
          "name": "",
          "type": "address"
        }
      ],
      "name": "players",
      "outputs": [
        {
          "internalType": "address",
          "name": "addr",
          "type": "address"
        },
        {
          "internalType": "uint256",
          "name": "level",
          "type": "uint256"
        },
        {
          "internalType": "uint256",
          "name": "experience",
          "type": "uint256"
        },
        {
          "internalType": "bool",
          "name": "isActive",
          "type": "bool"
        },
        {
          "internalType": "uint256",
          "name": "lastPlayTime",
          "type": "uint256"
        }
      ],
      "stateMutability": "view",
      "type": "function"
    },
    {
      "inputs": [],
      "name": "rejoinGame",
      "outputs": [],
      "stateMutability": "nonpayable",
      "type": "function"
    },
    {
      "inputs": [
        {
          "internalType": "uint256",
          "name": "newLevel",
          "type": "uint256"
        },
        {
          "internalType": "uint256",
          "name": "newExp",
          "type": "uint256"
        }
      ],
      "name": "updatePlayerState",
      "outputs": [],
      "stateMutability": "nonpayable",
      "type": "function"
    },
    {
      "inputs": [
        {
          "internalType": "uint256",
          "name": "newRound",
          "type": "uint256"
        },
        {
          "internalType": "bool",
          "name": "isPaused",
          "type": "bool"
        }
      ],
      "name": "updateWorldState",
      "outputs": [],
      "stateMutability": "nonpayable",
      "type": "function"
    },
    {
      "inputs": [],
      "name": "worldState",
      "outputs": [
        {
          "internalType": "uint256",
          "name": "currentRound",
          "type": "uint256"
        },
        {
          "internalType": "uint256",
          "name": "totalPlayers",
          "type": "uint256"
        },
        {
          "internalType": "bool",
          "name": "isPaused",
          "type": "bool"
        }
      ],
      "stateMutability": "view",
      "type": "function"
    }
  ],
  "bytecode": "0x6080604052348015600f57600080fd5b5033600460006101000a81548173ffffffffffffffffffffffffffffffffffffffff021916908373ffffffffffffffffffffffffffffffffffffffff16021790555060405180606001604052806000815260200160008152602001600015158152506001600082015181600001556020820151816001015560408201518160020160006101000a81548160ff02191690831515021790555090505061100c806100b96000396000f3fe608060405234801561001057600080fd5b506004361061009e5760003560e01c8063baa6b27911610066578063baa6b27914610123578063bdfd55bf1461012d578063c01ca43f1461014d578063d4f77b1c14610180578063e2eb41ff1461018a5761009e565b80630835ce64146100a3578063671eb0d2146100bf5780638da5cb5b146100df5780639707d051146100fd578063b1501f9c14610119575b600080fd5b6100bd60048036038101906100b89190610aa3565b6101be565b005b6100c76102fe565b6040516100d693929190610b0d565b60405180910390f35b6100e761032c565b6040516100f49190610b85565b60405180910390f35b61011760048036038101906101129190610bcc565b610352565b005b610121610446565b005b61012b61058d565b005b6101356106e4565b60405161014493929190610b0d565b60405180910390f35b61016760048036038101906101629190610c38565b610709565b6040516101779493929190610c65565b60405180910390f35b61018861080f565b005b6101a4600480360381019061019f9190610c38565b610a05565b6040516101b5959493929190610caa565b60405180910390f35b6000803373ffffffffffffffffffffffffffffffffffffffff1673ffffffffffffffffffffffffffffffffffffffff16815260200190815260200160002060030160009054906101000a900460ff1661024c576040517f08c379a000000000000000000000000000000000000000000000000000000000815260040161024390610d5a565b60405180910390fd5b60008060003373ffffffffffffffffffffffffffffffffffffffff1673ffffffffffffffffffffffffffffffffffffffff16815260200190815260200160002090508281600101819055508181600201819055504281600401819055503373ffffffffffffffffffffffffffffffffffffffff167feac5a746cb9e5a2a1da1e502d2b2246e4aa451e7c95bd80337427016d40a808384846040516102f1929190610d7a565b60405180910390a2505050565b60008060006001600001546001800154600160020160009054906101000a900460ff16925092509250909192565b600460009054906101000a900473ffffffffffffffffffffffffffffffffffffffff1681565b600460009054906101000a900473ffffffffffffffffffffffffffffffffffffffff1673ffffffffffffffffffffffffffffffffffffffff163373ffffffffffffffffffffffffffffffffffffffff16146103e2576040517f08c379a00000000000000000000000000000000000000000000000000000000081526004016103d990610e15565b60405180910390fd5b8160016000018190555080600160020160006101000a81548160ff0219169083151502179055507f60219e73b55b0692c5e90a71a7673d60aa5a887825af3e589bcb0ab144eae2ab828260405161043a929190610e35565b60405180910390a15050565b6000803373ffffffffffffffffffffffffffffffffffffffff1673ffffffffffffffffffffffffffffffffffffffff16815260200190815260200160002060030160009054906101000a900460ff166104d4576040517f08c379a00000000000000000000000000000000000000000000000000000000081526004016104cb90610d5a565b60405180910390fd5b60008060003373ffffffffffffffffffffffffffffffffffffffff1673ffffffffffffffffffffffffffffffffffffffff16815260200190815260200160002060030160006101000a81548160ff02191690831515021790555060018001600081548092919061054390610e8d565b91905055503373ffffffffffffffffffffffffffffffffffffffff167f282b6298c0318f5d7d7f2483a6823972bdbe9d2798bcfe461159151be7d7b96960405160405180910390a2565b6000803373ffffffffffffffffffffffffffffffffffffffff1673ffffffffffffffffffffffffffffffffffffffff16815260200190815260200160002060030160009054906101000a900460ff161561061c576040517f08c379a000000000000000000000000000000000000000000000000000000000815260040161061390610f02565b60405180910390fd5b60008060003373ffffffffffffffffffffffffffffffffffffffff1673ffffffffffffffffffffffffffffffffffffffff168152602001908152602001600020905060018160030160006101000a81548160ff02191690831515021790555042816004018190555060018001600081548092919061069990610f22565b91905055503373ffffffffffffffffffffffffffffffffffffffff167f966fe0f9cf2b869c764da4382ed36ccccd3ace47cc6a4e5579c099e3565d16ac60405160405180910390a250565b60018060000154908060010154908060020160009054906101000a900460ff16905083565b60008060008060008060008773ffffffffffffffffffffffffffffffffffffffff1673ffffffffffffffffffffffffffffffffffffffff1681526020019081526020016000206040518060a00160405290816000820160009054906101000a900473ffffffffffffffffffffffffffffffffffffffff1673ffffffffffffffffffffffffffffffffffffffff1673ffffffffffffffffffffffffffffffffffffffff16815260200160018201548152602001600282015481526020016003820160009054906101000a900460ff16151515158152602001600482015481525050905080602001518160400151826060015183608001519450945094509450509193509193565b6000803373ffffffffffffffffffffffffffffffffffffffff1673ffffffffffffffffffffffffffffffffffffffff16815260200190815260200160002060030160009054906101000a900460ff161561089e576040517f08c379a000000000000000000000000000000000000000000000000000000000815260040161089590610fb6565b60405180910390fd5b6040518060a001604052803373ffffffffffffffffffffffffffffffffffffffff1681526020016001815260200160008152602001600115158152602001428152506000803373ffffffffffffffffffffffffffffffffffffffff1673ffffffffffffffffffffffffffffffffffffffff16815260200190815260200160002060008201518160000160006101000a81548173ffffffffffffffffffffffffffffffffffffffff021916908373ffffffffffffffffffffffffffffffffffffffff160217905550602082015181600101556040820151816002015560608201518160030160006101000a81548160ff021916908315150217905550608082015181600401559050506001800160008154809291906109bb90610f22565b91905055503373ffffffffffffffffffffffffffffffffffffffff167f31e760aa525306aba638a784082a013b6a1cc0a9a1789f3f22281c0453b10b1f60405160405180910390a2565b60006020528060005260406000206000915090508060000160009054906101000a900473ffffffffffffffffffffffffffffffffffffffff16908060010154908060020154908060030160009054906101000a900460ff16908060040154905085565b600080fd5b6000819050919050565b610a8081610a6d565b8114610a8b57600080fd5b50565b600081359050610a9d81610a77565b92915050565b60008060408385031215610aba57610ab9610a68565b5b6000610ac885828601610a8e565b9250506020610ad985828601610a8e565b9150509250929050565b610aec81610a6d565b82525050565b60008115159050919050565b610b0781610af2565b82525050565b6000606082019050610b226000830186610ae3565b610b2f6020830185610ae3565b610b3c6040830184610afe565b949350505050565b600073ffffffffffffffffffffffffffffffffffffffff82169050919050565b6000610b6f82610b44565b9050919050565b610b7f81610b64565b82525050565b6000602082019050610b9a6000830184610b76565b92915050565b610ba981610af2565b8114610bb457600080fd5b50565b600081359050610bc681610ba0565b92915050565b60008060408385031215610be357610be2610a68565b5b6000610bf185828601610a8e565b9250506020610c0285828601610bb7565b9150509250929050565b610c1581610b64565b8114610c2057600080fd5b50565b600081359050610c3281610c0c565b92915050565b600060208284031215610c4e57610c4d610a68565b5b6000610c5c84828501610c23565b91505092915050565b6000608082019050610c7a6000830187610ae3565b610c876020830186610ae3565b610c946040830185610afe565b610ca16060830184610ae3565b95945050505050565b600060a082019050610cbf6000830188610b76565b610ccc6020830187610ae3565b610cd96040830186610ae3565b610ce66060830185610afe565b610cf36080830184610ae3565b9695505050505050565b600082825260208201905092915050565b7f506c6179657220646f6573206e6f742065786973740000000000000000000000600082015250565b6000610d44601583610cfd565b9150610d4f82610d0e565b602082019050919050565b60006020820190508181036000830152610d7381610d37565b9050919050565b6000604082019050610d8f6000830185610ae3565b610d9c6020830184610ae3565b9392505050565b7f4f6e6c7920746865206f776e65722063616e20706572666f726d20746869732060008201527f616374696f6e0000000000000000000000000000000000000000000000000000602082015250565b6000610dff602683610cfd565b9150610e0a82610da3565b604082019050919050565b60006020820190508181036000830152610e2e81610df2565b9050919050565b6000604082019050610e4a6000830185610ae3565b610e576020830184610afe565b9392505050565b7f4e487b7100000000000000000000000000000000000000000000000000000000600052601160045260246000fd5b6000610e9882610a6d565b915060008203610eab57610eaa610e5e565b5b600182039050919050565b7f506c6179657220616c7265616479206163746976650000000000000000000000600082015250565b6000610eec601583610cfd565b9150610ef782610eb6565b602082019050919050565b60006020820190508181036000830152610f1b81610edf565b9050919050565b6000610f2d82610a6d565b91507fffffffffffffffffffffffffffffffffffffffffffffffffffffffffffffffff8203610f5f57610f5e610e5e565b5b600182019050919050565b7f506c6179657220616c7265616479206578697374730000000000000000000000600082015250565b6000610fa0601583610cfd565b9150610fab82610f6a565b602082019050919050565b60006020820190508181036000830152610fcf81610f93565b905091905056fea26469706673582212207ca967f1d54aece3ed588be117c60483848028b7c4eee41a597a96078413b44764736f6c634300081c0033",
  "linkReferences": {},
  "deployedLinkReferences": {}
}