{
  "_format": "hh-sol-artifact-1",
  "contractName": "GameStateManager",
  "sourceName": "contracts/GameStateManager.sol",
  "abi": [
    {
      "inputs": [],
      "stateMutability": "nonpayable",
      "type": "constructor"
    },
    {
      "anonymous": false,
      "inputs": [
        {
          "indexed": true,
          "internalType": "uint256",
          "name": "mobId",
          "type": "uint256"
        },
        {
          "indexed": false,
          "internalType": "string",
          "name": "name",
          "type": "string"
        },
        {
          "indexed": false,
          "internalType": "enum GameStateManager.EnemyType",
          "name": "enemyType",
          "type": "uint8"
        },
        {
          "indexed": false,
          "internalType": "uint256",
          "name": "health",
          "type": "uint256"
        },
        {
          "indexed": false,
          "internalType": "uint256",
          "name": "attack",
          "type": "uint256"
        },
        {
          "indexed": false,
          "internalType": "uint256",
          "name": "coinsDropped",
          "type": "uint256"
        }
      ],
      "name": "MobCreated",
      "type": "event"
    },
    {
      "anonymous": false,
      "inputs": [
        {
          "indexed": true,
          "internalType": "address",
          "name": "playerAddress",
          "type": "address"
        },
        {
          "indexed": false,
          "internalType": "uint256",
          "name": "initialStage",
          "type": "uint256"
        },
        {
          "indexed": false,
          "internalType": "uint256",
          "name": "initialLevel",
          "type": "uint256"
        },
        {
          "indexed": false,
          "internalType": "uint256",
          "name": "initialHealth",
          "type": "uint256"
        }
      ],
      "name": "PlayerCreated",
      "type": "event"
    },
    {
      "anonymous": false,
      "inputs": [
        {
          "indexed": true,
          "internalType": "address",
          "name": "playerAddress",
          "type": "address"
        },
        {
          "indexed": false,
          "internalType": "uint256",
          "name": "newHealth",
          "type": "uint256"
        }
      ],
      "name": "PlayerHealthUpdated",
      "type": "event"
    },
    {
      "anonymous": false,
      "inputs": [
        {
          "indexed": true,
          "internalType": "address",
          "name": "playerAddress",
          "type": "address"
        },
        {
          "indexed": false,
          "internalType": "uint256",
          "name": "newLevel",
          "type": "uint256"
        }
      ],
      "name": "PlayerLeveledUp",
      "type": "event"
    },
    {
      "inputs": [
        {
          "internalType": "uint256",
          "name": "_exp",
          "type": "uint256"
        }
      ],
      "name": "addExperience",
      "outputs": [],
      "stateMutability": "nonpayable",
      "type": "function"
    },
    {
      "inputs": [],
      "name": "createBoss",
      "outputs": [
        {
          "internalType": "uint256",
          "name": "",
          "type": "uint256"
        }
      ],
      "stateMutability": "nonpayable",
      "type": "function"
    },
    {
      "inputs": [],
      "name": "createGoblin",
      "outputs": [
        {
          "internalType": "uint256",
          "name": "",
          "type": "uint256"
        }
      ],
      "stateMutability": "nonpayable",
      "type": "function"
    },
    {
      "inputs": [],
      "name": "createPlayer",
      "outputs": [],
      "stateMutability": "nonpayable",
      "type": "function"
    },
    {
      "inputs": [],
      "name": "createSlime",
      "outputs": [
        {
          "internalType": "uint256",
          "name": "",
          "type": "uint256"
        }
      ],
      "stateMutability": "nonpayable",
      "type": "function"
    },
    {
      "inputs": [],
      "name": "enemyCount",
      "outputs": [
        {
          "internalType": "uint256",
          "name": "",
          "type": "uint256"
        }
      ],
      "stateMutability": "view",
      "type": "function"
    },
    {
      "inputs": [],
      "name": "gameState",
      "outputs": [
        {
          "internalType": "uint256",
          "name": "totalPlayers",
          "type": "uint256"
        }
      ],
      "stateMutability": "view",
      "type": "function"
    },
    {
      "inputs": [],
      "name": "getGameState",
      "outputs": [
        {
          "components": [
            {
              "internalType": "uint256",
              "name": "totalPlayers",
              "type": "uint256"
            }
          ],
          "internalType": "struct GameStateManager.GameState",
          "name": "",
          "type": "tuple"
        }
      ],
      "stateMutability": "view",
      "type": "function"
    },
    {
      "inputs": [
        {
          "internalType": "uint256",
          "name": "_mobId",
          "type": "uint256"
        }
      ],
      "name": "getMob",
      "outputs": [
        {
          "components": [
            {
              "internalType": "uint256",
              "name": "id",
              "type": "uint256"
            },
            {
              "internalType": "string",
              "name": "name",
              "type": "string"
            },
            {
              "internalType": "enum GameStateManager.EnemyType",
              "name": "enemyType",
              "type": "uint8"
            },
            {
              "internalType": "uint256",
              "name": "health",
              "type": "uint256"
            },
            {
              "internalType": "uint256",
              "name": "attack",
              "type": "uint256"
            },
            {
              "internalType": "uint256",
              "name": "coinsDropped",
              "type": "uint256"
            },
            {
              "internalType": "bool",
              "name": "exists",
              "type": "bool"
            },
            {
              "internalType": "bool",
              "name": "isDead",
              "type": "bool"
            }
          ],
          "internalType": "struct GameStateManager.Mob",
          "name": "",
          "type": "tuple"
        }
      ],
      "stateMutability": "view",
      "type": "function"
    },
    {
      "inputs": [],
      "name": "getPlayerCoins",
      "outputs": [
        {
          "internalType": "uint256",
          "name": "",
          "type": "uint256"
        }
      ],
      "stateMutability": "view",
      "type": "function"
    },
    {
      "inputs": [],
      "name": "getPlayerInfo",
      "outputs": [
        {
          "components": [
            {
              "internalType": "uint256",
              "name": "stage",
              "type": "uint256"
            },
            {
              "internalType": "uint256",
              "name": "level",
              "type": "uint256"
            },
            {
              "internalType": "uint256",
              "name": "experience",
              "type": "uint256"
            },
            {
              "internalType": "uint256",
              "name": "health",
              "type": "uint256"
            },
            {
              "internalType": "uint256",
              "name": "coins",
              "type": "uint256"
            },
            {
              "internalType": "uint256",
              "name": "createdAt",
              "type": "uint256"
            },
            {
              "internalType": "bool",
              "name": "exists",
              "type": "bool"
            }
          ],
          "internalType": "struct GameStateManager.Player",
          "name": "",
          "type": "tuple"
        }
      ],
      "stateMutability": "view",
      "type": "function"
    },
    {
      "inputs": [],
      "name": "itemCount",
      "outputs": [
        {
          "internalType": "uint256",
          "name": "",
          "type": "uint256"
        }
      ],
      "stateMutability": "view",
      "type": "function"
    },
    {
      "inputs": [],
      "name": "levelUp",
      "outputs": [],
      "stateMutability": "nonpayable",
      "type": "function"
    },
    {
      "inputs": [],
      "name": "mobCount",
      "outputs": [
        {
          "internalType": "uint256",
          "name": "",
          "type": "uint256"
        }
      ],
      "stateMutability": "view",
      "type": "function"
    },
    {
      "inputs": [
        {
          "internalType": "uint256",
          "name": "",
          "type": "uint256"
        }
      ],
      "name": "mobs",
      "outputs": [
        {
          "internalType": "uint256",
          "name": "id",
          "type": "uint256"
        },
        {
          "internalType": "string",
          "name": "name",
          "type": "string"
        },
        {
          "internalType": "enum GameStateManager.EnemyType",
          "name": "enemyType",
          "type": "uint8"
        },
        {
          "internalType": "uint256",
          "name": "health",
          "type": "uint256"
        },
        {
          "internalType": "uint256",
          "name": "attack",
          "type": "uint256"
        },
        {
          "internalType": "uint256",
          "name": "coinsDropped",
          "type": "uint256"
        },
        {
          "internalType": "bool",
          "name": "exists",
          "type": "bool"
        },
        {
          "internalType": "bool",
          "name": "isDead",
          "type": "bool"
        }
      ],
      "stateMutability": "view",
      "type": "function"
    },
    {
      "inputs": [
        {
          "internalType": "uint256",
          "name": "",
          "type": "uint256"
        }
      ],
      "name": "playerAddresses",
      "outputs": [
        {
          "internalType": "address",
          "name": "",
          "type": "address"
        }
      ],
      "stateMutability": "view",
      "type": "function"
    },
    {
      "inputs": [
        {
          "internalType": "address",
          "name": "",
          "type": "address"
        }
      ],
      "name": "playerCoins",
      "outputs": [
        {
          "internalType": "uint256",
          "name": "",
          "type": "uint256"
        }
      ],
      "stateMutability": "view",
      "type": "function"
    },
    {
      "inputs": [
        {
          "internalType": "address",
          "name": "",
          "type": "address"
        }
      ],
      "name": "players",
      "outputs": [
        {
          "internalType": "uint256",
          "name": "stage",
          "type": "uint256"
        },
        {
          "internalType": "uint256",
          "name": "level",
          "type": "uint256"
        },
        {
          "internalType": "uint256",
          "name": "experience",
          "type": "uint256"
        },
        {
          "internalType": "uint256",
          "name": "health",
          "type": "uint256"
        },
        {
          "internalType": "uint256",
          "name": "coins",
          "type": "uint256"
        },
        {
          "internalType": "uint256",
          "name": "createdAt",
          "type": "uint256"
        },
        {
          "internalType": "bool",
          "name": "exists",
          "type": "bool"
        }
      ],
      "stateMutability": "view",
      "type": "function"
    },
    {
      "inputs": [
        {
          "internalType": "uint256",
          "name": "_newHealth",
          "type": "uint256"
        }
      ],
      "name": "updateHealth",
      "outputs": [],
      "stateMutability": "nonpayable",
      "type": "function"
    },
    {
      "inputs": [
        {
          "internalType": "uint256",
          "name": "_mobId",
          "type": "uint256"
        },
        {
          "internalType": "uint256",
          "name": "_damage",
          "type": "uint256"
        }
      ],
      "name": "updateMobHealth",
      "outputs": [],
      "stateMutability": "nonpayable",
      "type": "function"
    }
  ],
  "bytecode": "0x6080604052348015600f57600080fd5b506040518060200160405280600081525060008082015181600001559050506128008061003d6000396000f3fe608060405234801561001057600080fd5b506004361061012c5760003560e01c8063b7d0628b116100ad578063d1df81df11610071578063d1df81df146102fb578063d1f9c24d14610319578063d933a54014610337578063da4711b414610355578063e2eb41ff1461038c5761012c565b8063b7d0628b14610267578063bc8ccc4514610285578063c37c3555146102a3578063c6fb11b8146102bf578063c7b53fcc146102dd5761012c565b806369511946116100f457806369511946146101d55780636bfb0d01146101f15780638d0b72691461020f5780639976d2201461022d578063b11f127b146102495761012c565b806315c6aee21461013157806332f79bb9146101615780633fa9fcf8146101915780634ea1ecf91461019b5780635bbee18c146101a5575b600080fd5b61014b600480360381019061014691906117fa565b6103c2565b6040516101589190611868565b60405180910390f35b61017b600480360381019061017691906118af565b610401565b60405161018891906118eb565b60405180910390f35b610199610419565b005b6101a3610655565b005b6101bf60048036038101906101ba91906117fa565b610818565b6040516101cc9190611ae7565b60405180910390f35b6101ef60048036038101906101ea9190611b09565b6109d4565b005b6101f9610b6d565b60405161020691906118eb565b60405180910390f35b610217610b73565b60405161022491906118eb565b60405180910390f35b610247600480360381019061024291906117fa565b610d2c565b005b610251610e99565b60405161025e91906118eb565b60405180910390f35b61026f611051565b60405161027c9190611b65565b60405180910390f35b61028d611075565b60405161029a91906118eb565b60405180910390f35b6102bd60048036038101906102b891906117fa565b6110bc565b005b6102c7611249565b6040516102d491906118eb565b60405180910390f35b6102e5611402565b6040516102f291906118eb565b60405180910390f35b610303611408565b6040516103109190611c0e565b60405180910390f35b610321611545565b60405161032e91906118eb565b60405180910390f35b61033f611551565b60405161034c91906118eb565b60405180910390f35b61036f600480360381019061036a91906117fa565b611557565b604051610383989796959493929190611c91565b60405180910390f35b6103a660048036038101906103a191906118af565b61164e565b6040516103b99796959493929190611d16565b60405180910390f35b600381815481106103d257600080fd5b906000526020600020016000915054906101000a900473ffffffffffffffffffffffffffffffffffffffff1681565b60026020528060005260406000206000915090505481565b600160003373ffffffffffffffffffffffffffffffffffffffff1673ffffffffffffffffffffffffffffffffffffffff16815260200190815260200160002060060160009054906101000a900460ff16156104a9576040517f08c379a00000000000000000000000000000000000000000000000000000000081526004016104a090611dd1565b60405180910390fd5b6040518060e00160405280600181526020016001815260200160008152602001606481526020016000815260200142815260200160011515815250600160003373ffffffffffffffffffffffffffffffffffffffff1673ffffffffffffffffffffffffffffffffffffffff168152602001908152602001600020600082015181600001556020820151816001015560408201518160020155606082015181600301556080820151816004015560a0820151816005015560c08201518160060160006101000a81548160ff02191690831515021790555090505060008001600081548092919061059790611e20565b91905055506003339080600181540180825580915050600190039060005260206000200160009091909190916101000a81548173ffffffffffffffffffffffffffffffffffffffff021916908373ffffffffffffffffffffffffffffffffffffffff1602179055503373ffffffffffffffffffffffffffffffffffffffff167fdbd350b0fedfda470deaaf32f91e1578f2e0a1eca99a0f2c8435b6595dcfd294600180606460405161064b93929190611ee8565b60405180910390a2565b33600160008273ffffffffffffffffffffffffffffffffffffffff1673ffffffffffffffffffffffffffffffffffffffff16815260200190815260200160002060060160009054906101000a900460ff166106e5576040517f08c379a00000000000000000000000000000000000000000000000000000000081526004016106dc90611f6b565b60405180910390fd5b600160003373ffffffffffffffffffffffffffffffffffffffff1673ffffffffffffffffffffffffffffffffffffffff168152602001908152602001600020600101600081548092919061073890611e20565b91905055506064600160003373ffffffffffffffffffffffffffffffffffffffff1673ffffffffffffffffffffffffffffffffffffffff168152602001908152602001600020600301819055503373ffffffffffffffffffffffffffffffffffffffff167f85223984c4720843b1b5aa66f09162e4d7494973839e9c8dbea375c91978d4f4600160003373ffffffffffffffffffffffffffffffffffffffff1673ffffffffffffffffffffffffffffffffffffffff1681526020019081526020016000206001015460405161080d91906118eb565b60405180910390a250565b610820611712565b6004600083815260200190815260200160002060060160009054906101000a900460ff16610883576040517f08c379a000000000000000000000000000000000000000000000000000000000815260040161087a90611fd7565b60405180910390fd5b6004600083815260200190815260200160002060405180610100016040529081600082015481526020016001820180546108bc90612026565b80601f01602080910402602001604051908101604052809291908181526020018280546108e890612026565b80156109355780601f1061090a57610100808354040283529160200191610935565b820191906000526020600020905b81548152906001019060200180831161091857829003601f168201915b505050505081526020016002820160009054906101000a900460ff166002811115610963576109626119a5565b5b6002811115610975576109746119a5565b5b81526020016003820154815260200160048201548152602001600582015481526020016006820160009054906101000a900460ff161515151581526020016006820160019054906101000a900460ff1615151515815250509050919050565b6004600083815260200190815260200160002060060160009054906101000a900460ff16610a37576040517f08c379a0000000000000000000000000000000000000000000000000000000008152600401610a2e90611fd7565b60405180910390fd5b6004600083815260200190815260200160002060060160019054906101000a900460ff1615610a9b576040517f08c379a0000000000000000000000000000000000000000000000000000000008152600401610a92906120a3565b60405180910390fd5b60046000838152602001908152602001600020600301548110610b08576000600460008481526020019081526020016000206003018190555060016004600084815260200190815260200160002060060160016101000a81548160ff021916908315150217905550610b36565b80600460008481526020019081526020016000206003016000828254610b2e91906120c3565b925050819055505b6004600083815260200190815260200160002060060160019054906101000a900460ff1615610b6957610b688261169d565b5b5050565b60065481565b600060056000815480929190610b8890611e20565b919050555060405180610100016040528060055481526020016040518060400160405280600d81526020017f466f7265737420476f626c696e00000000000000000000000000000000000000815250815260200160016002811115610bf057610bef6119a5565b5b8152602001601e8152602001600f8152602001600a815260200160011515815260200160001515815250600460006005548152602001908152602001600020600082015181600001556020820151816001019081610c4e91906122c8565b5060408201518160020160006101000a81548160ff02191690836002811115610c7a57610c796119a5565b5b0217905550606082015181600301556080820151816004015560a0820151816005015560c08201518160060160006101000a81548160ff02191690831515021790555060e08201518160060160016101000a81548160ff0219169083151502179055509050506005547fb581d10af1f82878347d9858345ccb4b89783663ba2cc79846e5ec87d7343de06001601e600f600a604051610d1c9493929190612497565b60405180910390a2600554905090565b33600160008273ffffffffffffffffffffffffffffffffffffffff1673ffffffffffffffffffffffffffffffffffffffff16815260200190815260200160002060060160009054906101000a900460ff16610dbc576040517f08c379a0000000000000000000000000000000000000000000000000000000008152600401610db390611f6b565b60405180910390fd5b6064821115610e00576040517f08c379a0000000000000000000000000000000000000000000000000000000008152600401610df79061253b565b60405180910390fd5b81600160003373ffffffffffffffffffffffffffffffffffffffff1673ffffffffffffffffffffffffffffffffffffffff168152602001908152602001600020600301819055503373ffffffffffffffffffffffffffffffffffffffff167f19a6c61462d6e1c7792cca1474187abbdfd347d8e3917fe14b8c3b9c3c020a9983604051610e8d91906118eb565b60405180910390a25050565b600060056000815480929190610eae90611e20565b919050555060405180610100016040528060055481526020016040518060400160405280601481526020017f436861696e76657273652044657374726f7965720000000000000000000000008152508152602001600280811115610f1557610f146119a5565b5b815260200160648152602001601981526020016032815260200160011515815260200160001515815250600460006005548152602001908152602001600020600082015181600001556020820151816001019081610f7391906122c8565b5060408201518160020160006101000a81548160ff02191690836002811115610f9f57610f9e6119a5565b5b0217905550606082015181600301556080820151816004015560a0820151816005015560c08201518160060160006101000a81548160ff02191690831515021790555060e08201518160060160016101000a81548160ff0219169083151502179055509050506005547fb581d10af1f82878347d9858345ccb4b89783663ba2cc79846e5ec87d7343de06002606460196032604051611041949392919061261d565b60405180910390a2600554905090565b61105961176d565b6000604051806020016040529081600082015481525050905090565b6000600260003373ffffffffffffffffffffffffffffffffffffffff1673ffffffffffffffffffffffffffffffffffffffff16815260200190815260200160002054905090565b33600160008273ffffffffffffffffffffffffffffffffffffffff1673ffffffffffffffffffffffffffffffffffffffff16815260200190815260200160002060060160009054906101000a900460ff1661114c576040517f08c379a000000000000000000000000000000000000000000000000000000000815260040161114390611f6b565b60405180910390fd5b81600160003373ffffffffffffffffffffffffffffffffffffffff1673ffffffffffffffffffffffffffffffffffffffff168152602001908152602001600020600201600082825461119e9190612675565b925050819055506064600160003373ffffffffffffffffffffffffffffffffffffffff1673ffffffffffffffffffffffffffffffffffffffff168152602001908152602001600020600101546111f491906126a9565b600160003373ffffffffffffffffffffffffffffffffffffffff1673ffffffffffffffffffffffffffffffffffffffff168152602001908152602001600020600201541061124557611244610655565b5b5050565b60006005600081548092919061125e90611e20565b919050555060405180610100016040528060055481526020016040518060400160405280600b81526020017f426173696320536c696d650000000000000000000000000000000000000000008152508152602001600060028111156112c6576112c56119a5565b5b8152602001600f8152602001600a8152602001600581526020016001151581526020016000151581525060046000600554815260200190815260200160002060008201518160000155602082015181600101908161132491906122c8565b5060408201518160020160006101000a81548160ff021916908360028111156113505761134f6119a5565b5b0217905550606082015181600301556080820151816004015560a0820151816005015560c08201518160060160006101000a81548160ff02191690831515021790555060e08201518160060160016101000a81548160ff0219169083151502179055509050506005547fb581d10af1f82878347d9858345ccb4b89783663ba2cc79846e5ec87d7343de06000600f600a60056040516113f29493929190612772565b60405180910390a2600554905090565b60075481565b611410611780565b600160003373ffffffffffffffffffffffffffffffffffffffff1673ffffffffffffffffffffffffffffffffffffffff16815260200190815260200160002060060160009054906101000a900460ff1661149f576040517f08c379a000000000000000000000000000000000000000000000000000000000815260040161149690611f6b565b60405180910390fd5b600160003373ffffffffffffffffffffffffffffffffffffffff1673ffffffffffffffffffffffffffffffffffffffff1681526020019081526020016000206040518060e00160405290816000820154815260200160018201548152602001600282015481526020016003820154815260200160048201548152602001600582015481526020016006820160009054906101000a900460ff161515151581525050905090565b60008060000154905081565b60055481565b600460205280600052604060002060009150905080600001549080600101805461158090612026565b80601f01602080910402602001604051908101604052809291908181526020018280546115ac90612026565b80156115f95780601f106115ce576101008083540402835291602001916115f9565b820191906000526020600020905b8154815290600101906020018083116115dc57829003601f168201915b5050505050908060020160009054906101000a900460ff16908060030154908060040154908060050154908060060160009054906101000a900460ff16908060060160019054906101000a900460ff16905088565b60016020528060005260406000206000915090508060000154908060010154908060020154908060030154908060040154908060050154908060060160009054906101000a900460ff16905087565b60006004600083815260200190815260200160002060050154905080600260003373ffffffffffffffffffffffffffffffffffffffff1673ffffffffffffffffffffffffffffffffffffffff16815260200190815260200160002060008282546117079190612675565b925050819055505050565b6040518061010001604052806000815260200160608152602001600060028111156117405761173f6119a5565b5b81526020016000815260200160008152602001600081526020016000151581526020016000151581525090565b6040518060200160405280600081525090565b6040518060e001604052806000815260200160008152602001600081526020016000815260200160008152602001600081526020016000151581525090565b600080fd5b6000819050919050565b6117d7816117c4565b81146117e257600080fd5b50565b6000813590506117f4816117ce565b92915050565b6000602082840312156118105761180f6117bf565b5b600061181e848285016117e5565b91505092915050565b600073ffffffffffffffffffffffffffffffffffffffff82169050919050565b600061185282611827565b9050919050565b61186281611847565b82525050565b600060208201905061187d6000830184611859565b92915050565b61188c81611847565b811461189757600080fd5b50565b6000813590506118a981611883565b92915050565b6000602082840312156118c5576118c46117bf565b5b60006118d38482850161189a565b91505092915050565b6118e5816117c4565b82525050565b600060208201905061190060008301846118dc565b92915050565b61190f816117c4565b82525050565b600081519050919050565b600082825260208201905092915050565b60005b8381101561194f578082015181840152602081019050611934565b60008484015250505050565b6000601f19601f8301169050919050565b600061197782611915565b6119818185611920565b9350611991818560208601611931565b61199a8161195b565b840191505092915050565b7f4e487b7100000000000000000000000000000000000000000000000000000000600052602160045260246000fd5b600381106119e5576119e46119a5565b5b50565b60008190506119f6826119d4565b919050565b6000611a06826119e8565b9050919050565b611a16816119fb565b82525050565b60008115159050919050565b611a3181611a1c565b82525050565b600061010083016000830151611a506000860182611906565b5060208301518482036020860152611a68828261196c565b9150506040830151611a7d6040860182611a0d565b506060830151611a906060860182611906565b506080830151611aa36080860182611906565b5060a0830151611ab660a0860182611906565b5060c0830151611ac960c0860182611a28565b5060e0830151611adc60e0860182611a28565b508091505092915050565b60006020820190508181036000830152611b018184611a37565b905092915050565b60008060408385031215611b2057611b1f6117bf565b5b6000611b2e858286016117e5565b9250506020611b3f858286016117e5565b9150509250929050565b602082016000820151611b5f6000850182611906565b50505050565b6000602082019050611b7a6000830184611b49565b92915050565b60e082016000820151611b966000850182611906565b506020820151611ba96020850182611906565b506040820151611bbc6040850182611906565b506060820151611bcf6060850182611906565b506080820151611be26080850182611906565b5060a0820151611bf560a0850182611906565b5060c0820151611c0860c0850182611a28565b50505050565b600060e082019050611c236000830184611b80565b92915050565b600082825260208201905092915050565b6000611c4582611915565b611c4f8185611c29565b9350611c5f818560208601611931565b611c688161195b565b840191505092915050565b611c7c816119fb565b82525050565b611c8b81611a1c565b82525050565b600061010082019050611ca7600083018b6118dc565b8181036020830152611cb9818a611c3a565b9050611cc86040830189611c73565b611cd560608301886118dc565b611ce260808301876118dc565b611cef60a08301866118dc565b611cfc60c0830185611c82565b611d0960e0830184611c82565b9998505050505050505050565b600060e082019050611d2b600083018a6118dc565b611d3860208301896118dc565b611d4560408301886118dc565b611d5260608301876118dc565b611d5f60808301866118dc565b611d6c60a08301856118dc565b611d7960c0830184611c82565b98975050505050505050565b7f506c6179657220616c7265616479206578697374730000000000000000000000600082015250565b6000611dbb601583611c29565b9150611dc682611d85565b602082019050919050565b60006020820190508181036000830152611dea81611dae565b9050919050565b7f4e487b7100000000000000000000000000000000000000000000000000000000600052601160045260246000fd5b6000611e2b826117c4565b91507fffffffffffffffffffffffffffffffffffffffffffffffffffffffffffffffff8203611e5d57611e5c611df1565b5b600182019050919050565b6000819050919050565b6000819050919050565b6000611e97611e92611e8d84611e68565b611e72565b6117c4565b9050919050565b611ea781611e7c565b82525050565b6000819050919050565b6000611ed2611ecd611ec884611ead565b611e72565b6117c4565b9050919050565b611ee281611eb7565b82525050565b6000606082019050611efd6000830186611e9e565b611f0a6020830185611e9e565b611f176040830184611ed9565b949350505050565b7f506c6179657220646f6573206e6f742065786973740000000000000000000000600082015250565b6000611f55601583611c29565b9150611f6082611f1f565b602082019050919050565b60006020820190508181036000830152611f8481611f48565b9050919050565b7f4d6f6220646f6573206e6f742065786973740000000000000000000000000000600082015250565b6000611fc1601283611c29565b9150611fcc82611f8b565b602082019050919050565b60006020820190508181036000830152611ff081611fb4565b9050919050565b7f4e487b7100000000000000000000000000000000000000000000000000000000600052602260045260246000fd5b6000600282049050600182168061203e57607f821691505b60208210810361205157612050611ff7565b5b50919050565b7f4d6f6220697320616c7265616479206465616400000000000000000000000000600082015250565b600061208d601383611c29565b915061209882612057565b602082019050919050565b600060208201905081810360008301526120bc81612080565b9050919050565b60006120ce826117c4565b91506120d9836117c4565b92508282039050818111156120f1576120f0611df1565b5b92915050565b7f4e487b7100000000000000000000000000000000000000000000000000000000600052604160045260246000fd5b60008190508160005260206000209050919050565b60006020601f8301049050919050565b600082821b905092915050565b6000600883026121887fffffffffffffffffffffffffffffffffffffffffffffffffffffffffffffffff8261214b565b612192868361214b565b95508019841693508086168417925050509392505050565b60006121c56121c06121bb846117c4565b611e72565b6117c4565b9050919050565b6000819050919050565b6121df836121aa565b6121f36121eb826121cc565b848454612158565b825550505050565b600090565b6122086121fb565b6122138184846121d6565b505050565b5b818110156122375761222c600082612200565b600181019050612219565b5050565b601f82111561227c5761224d81612126565b6122568461213b565b81016020851015612265578190505b6122796122718561213b565b830182612218565b50505b505050565b600082821c905092915050565b600061229f60001984600802612281565b1980831691505092915050565b60006122b8838361228e565b9150826002028217905092915050565b6122d182611915565b67ffffffffffffffff8111156122ea576122e96120f7565b5b6122f48254612026565b6122ff82828561223b565b600060209050601f8311600181146123325760008415612320578287015190505b61232a85826122ac565b865550612392565b601f19841661234086612126565b60005b8281101561236857848901518255600182019150602085019450602081019050612343565b868310156123855784890151612381601f89168261228e565b8355505b6001600288020188555050505b505050505050565b7f466f7265737420476f626c696e00000000000000000000000000000000000000600082015250565b60006123d0600d83611c29565b91506123db8261239a565b602082019050919050565b6000819050919050565b600061240b612406612401846123e6565b611e72565b6117c4565b9050919050565b61241b816123f0565b82525050565b6000819050919050565b600061244661244161243c84612421565b611e72565b6117c4565b9050919050565b6124568161242b565b82525050565b6000819050919050565b600061248161247c6124778461245c565b611e72565b6117c4565b9050919050565b61249181612466565b82525050565b600060a08201905081810360008301526124b0816123c3565b90506124bf6020830187611c73565b6124cc6040830186612412565b6124d9606083018561244d565b6124e66080830184612488565b95945050505050565b7f4865616c74682063616e6e6f7420657863656564203130300000000000000000600082015250565b6000612525601883611c29565b9150612530826124ef565b602082019050919050565b6000602082019050818103600083015261255481612518565b9050919050565b7f436861696e76657273652044657374726f796572000000000000000000000000600082015250565b6000612591601483611c29565b915061259c8261255b565b602082019050919050565b6000819050919050565b60006125cc6125c76125c2846125a7565b611e72565b6117c4565b9050919050565b6125dc816125b1565b82525050565b6000819050919050565b60006126076126026125fd846125e2565b611e72565b6117c4565b9050919050565b612617816125ec565b82525050565b600060a082019050818103600083015261263681612584565b90506126456020830187611c73565b6126526040830186611ed9565b61265f60608301856125d3565b61266c608083018461260e565b95945050505050565b6000612680826117c4565b915061268b836117c4565b92508282019050808211156126a3576126a2611df1565b5b92915050565b60006126b4826117c4565b91506126bf836117c4565b92508282026126cd816117c4565b915082820484148315176126e4576126e3611df1565b5b5092915050565b7f426173696320536c696d65000000000000000000000000000000000000000000600082015250565b6000612721600b83611c29565b915061272c826126eb565b602082019050919050565b6000819050919050565b600061275c61275761275284612737565b611e72565b6117c4565b9050919050565b61276c81612741565b82525050565b600060a082019050818103600083015261278b81612714565b905061279a6020830187611c73565b6127a7604083018661244d565b6127b46060830185612488565b6127c16080830184612763565b9594505050505056fea2646970667358221220e2eb0052c5975ee2d418d9672bb315611b60e5499d880e1c88a92db778e3c23664736f6c634300081c0033",
  "linkReferences": {},
  "deployedLinkReferences": {}
}