{
  "_format": "hh-sol-artifact-1",
  "contractName": "GameStateManager",
  "sourceName": "contracts/GameStateManager.sol",
  "abi": [
    {
      "inputs": [],
      "stateMutability": "nonpayable",
      "type": "constructor"
    },
    {
      "anonymous": false,
      "inputs": [
        {
          "indexed": false,
          "internalType": "uint256",
          "name": "itemId",
          "type": "uint256"
        },
        {
          "indexed": false,
          "internalType": "string",
          "name": "itemName",
          "type": "string"
        }
      ],
      "name": "ItemAddedToStore",
      "type": "event"
    },
    {
      "anonymous": false,
      "inputs": [
        {
          "indexed": true,
          "internalType": "address",
          "name": "playerAddress",
          "type": "address"
        },
        {
          "indexed": false,
          "internalType": "uint256",
          "name": "itemId",
          "type": "uint256"
        }
      ],
      "name": "ItemPurchased",
      "type": "event"
    },
    {
      "anonymous": false,
      "inputs": [
        {
          "indexed": true,
          "internalType": "uint256",
          "name": "mobId",
          "type": "uint256"
        },
        {
          "indexed": false,
          "internalType": "string",
          "name": "name",
          "type": "string"
        },
        {
          "indexed": false,
          "internalType": "enum GameStateManager.EnemyType",
          "name": "enemyType",
          "type": "uint8"
        },
        {
          "indexed": false,
          "internalType": "uint256",
          "name": "health",
          "type": "uint256"
        },
        {
          "indexed": false,
          "internalType": "uint256",
          "name": "attack",
          "type": "uint256"
        },
        {
          "indexed": false,
          "internalType": "uint256",
          "name": "coinsDropped",
          "type": "uint256"
        },
        {
          "indexed": false,
          "internalType": "uint256",
          "name": "expDropped",
          "type": "uint256"
        }
      ],
      "name": "MobCreated",
      "type": "event"
    },
    {
      "anonymous": false,
      "inputs": [
        {
          "indexed": true,
          "internalType": "address",
          "name": "playerAddress",
          "type": "address"
        },
        {
          "indexed": false,
          "internalType": "uint256",
          "name": "initialStage",
          "type": "uint256"
        },
        {
          "indexed": false,
          "internalType": "uint256",
          "name": "initialLevel",
          "type": "uint256"
        },
        {
          "indexed": false,
          "internalType": "uint256",
          "name": "initialHealth",
          "type": "uint256"
        }
      ],
      "name": "PlayerCreated",
      "type": "event"
    },
    {
      "anonymous": false,
      "inputs": [
        {
          "indexed": true,
          "internalType": "address",
          "name": "playerAddress",
          "type": "address"
        },
        {
          "indexed": false,
          "internalType": "uint256",
          "name": "newHealth",
          "type": "uint256"
        }
      ],
      "name": "PlayerHealthUpdated",
      "type": "event"
    },
    {
      "anonymous": false,
      "inputs": [
        {
          "indexed": true,
          "internalType": "address",
          "name": "playerAddress",
          "type": "address"
        },
        {
          "indexed": false,
          "internalType": "uint256",
          "name": "newLevel",
          "type": "uint256"
        }
      ],
      "name": "PlayerLeveledUp",
      "type": "event"
    },
    {
      "anonymous": false,
      "inputs": [
        {
          "indexed": true,
          "internalType": "address",
          "name": "playerAddresses",
          "type": "address"
        },
        {
          "indexed": false,
          "internalType": "uint256",
          "name": "newStage",
          "type": "uint256"
        }
      ],
      "name": "PlayerStageCleared",
      "type": "event"
    },
    {
      "inputs": [
        {
          "internalType": "uint256",
          "name": "_exp",
          "type": "uint256"
        }
      ],
      "name": "addExperience",
      "outputs": [],
      "stateMutability": "nonpayable",
      "type": "function"
    },
    {
      "inputs": [],
      "name": "createBoss",
      "outputs": [
        {
          "internalType": "uint256",
          "name": "",
          "type": "uint256"
        }
      ],
      "stateMutability": "nonpayable",
      "type": "function"
    },
    {
      "inputs": [],
      "name": "createGoblin",
      "outputs": [
        {
          "internalType": "uint256",
          "name": "",
          "type": "uint256"
        }
      ],
      "stateMutability": "nonpayable",
      "type": "function"
    },
    {
      "inputs": [],
      "name": "createPlayer",
      "outputs": [],
      "stateMutability": "nonpayable",
      "type": "function"
    },
    {
      "inputs": [],
      "name": "createSlime",
      "outputs": [
        {
          "internalType": "uint256",
          "name": "",
          "type": "uint256"
        }
      ],
      "stateMutability": "nonpayable",
      "type": "function"
    },
    {
      "inputs": [],
      "name": "gameState",
      "outputs": [
        {
          "internalType": "uint256",
          "name": "totalPlayers",
          "type": "uint256"
        }
      ],
      "stateMutability": "view",
      "type": "function"
    },
    {
      "inputs": [],
      "name": "getAllStoreItems",
      "outputs": [
        {
          "components": [
            {
              "internalType": "uint256",
              "name": "id",
              "type": "uint256"
            },
            {
              "internalType": "string",
              "name": "name",
              "type": "string"
            },
            {
              "internalType": "string",
              "name": "description",
              "type": "string"
            },
            {
              "internalType": "uint256",
              "name": "price",
              "type": "uint256"
            },
            {
              "internalType": "string",
              "name": "image",
              "type": "string"
            },
            {
              "internalType": "bool",
              "name": "exists",
              "type": "bool"
            }
          ],
          "internalType": "struct GameStateManager.Item[]",
          "name": "",
          "type": "tuple[]"
        }
      ],
      "stateMutability": "view",
      "type": "function"
    },
    {
      "inputs": [],
      "name": "getGameState",
      "outputs": [
        {
          "components": [
            {
              "internalType": "uint256",
              "name": "totalPlayers",
              "type": "uint256"
            }
          ],
          "internalType": "struct GameStateManager.GameState",
          "name": "",
          "type": "tuple"
        }
      ],
      "stateMutability": "view",
      "type": "function"
    },
    {
      "inputs": [
        {
          "internalType": "uint256",
          "name": "_mobId",
          "type": "uint256"
        }
      ],
      "name": "getMob",
      "outputs": [
        {
          "components": [
            {
              "internalType": "uint256",
              "name": "id",
              "type": "uint256"
            },
            {
              "internalType": "string",
              "name": "name",
              "type": "string"
            },
            {
              "internalType": "enum GameStateManager.EnemyType",
              "name": "enemyType",
              "type": "uint8"
            },
            {
              "internalType": "uint256",
              "name": "health",
              "type": "uint256"
            },
            {
              "internalType": "uint256",
              "name": "attack",
              "type": "uint256"
            },
            {
              "internalType": "uint256",
              "name": "coinsDropped",
              "type": "uint256"
            },
            {
              "internalType": "uint256",
              "name": "expDropped",
              "type": "uint256"
            },
            {
              "internalType": "bool",
              "name": "exists",
              "type": "bool"
            },
            {
              "internalType": "bool",
              "name": "isDead",
              "type": "bool"
            }
          ],
          "internalType": "struct GameStateManager.Mob",
          "name": "",
          "type": "tuple"
        }
      ],
      "stateMutability": "view",
      "type": "function"
    },
    {
      "inputs": [],
      "name": "getPlayerCoins",
      "outputs": [
        {
          "internalType": "uint256",
          "name": "",
          "type": "uint256"
        }
      ],
      "stateMutability": "view",
      "type": "function"
    },
    {
      "inputs": [],
      "name": "getPlayerInfo",
      "outputs": [
        {
          "components": [
            {
              "internalType": "uint256",
              "name": "stage",
              "type": "uint256"
            },
            {
              "internalType": "uint256",
              "name": "level",
              "type": "uint256"
            },
            {
              "internalType": "uint256",
              "name": "experience",
              "type": "uint256"
            },
            {
              "internalType": "uint256",
              "name": "health",
              "type": "uint256"
            },
            {
              "internalType": "uint256",
              "name": "coins",
              "type": "uint256"
            },
            {
              "internalType": "uint256",
              "name": "createdAt",
              "type": "uint256"
            },
            {
              "internalType": "bool",
              "name": "exists",
              "type": "bool"
            }
          ],
          "internalType": "struct GameStateManager.Player",
          "name": "",
          "type": "tuple"
        }
      ],
      "stateMutability": "view",
      "type": "function"
    },
    {
      "inputs": [
        {
          "internalType": "address",
          "name": "_playerAddress",
          "type": "address"
        }
      ],
      "name": "getPlayerItems",
      "outputs": [
        {
          "internalType": "uint256[]",
          "name": "",
          "type": "uint256[]"
        }
      ],
      "stateMutability": "view",
      "type": "function"
    },
    {
      "inputs": [
        {
          "internalType": "uint256",
          "name": "_itemId",
          "type": "uint256"
        }
      ],
      "name": "getStoreItem",
      "outputs": [
        {
          "components": [
            {
              "internalType": "uint256",
              "name": "id",
              "type": "uint256"
            },
            {
              "internalType": "string",
              "name": "name",
              "type": "string"
            },
            {
              "internalType": "string",
              "name": "description",
              "type": "string"
            },
            {
              "internalType": "uint256",
              "name": "price",
              "type": "uint256"
            },
            {
              "internalType": "string",
              "name": "image",
              "type": "string"
            },
            {
              "internalType": "bool",
              "name": "exists",
              "type": "bool"
            }
          ],
          "internalType": "struct GameStateManager.Item",
          "name": "",
          "type": "tuple"
        }
      ],
      "stateMutability": "view",
      "type": "function"
    },
    {
      "inputs": [],
      "name": "itemCount",
      "outputs": [
        {
          "internalType": "uint256",
          "name": "",
          "type": "uint256"
        }
      ],
      "stateMutability": "view",
      "type": "function"
    },
    {
      "inputs": [
        {
          "internalType": "uint256",
          "name": "_mobId",
          "type": "uint256"
        }
      ],
      "name": "killMob",
      "outputs": [],
      "stateMutability": "nonpayable",
      "type": "function"
    },
    {
      "inputs": [],
      "name": "levelUp",
      "outputs": [],
      "stateMutability": "nonpayable",
      "type": "function"
    },
    {
      "inputs": [],
      "name": "mobCount",
      "outputs": [
        {
          "internalType": "uint256",
          "name": "",
          "type": "uint256"
        }
      ],
      "stateMutability": "view",
      "type": "function"
    },
    {
      "inputs": [
        {
          "internalType": "uint256",
          "name": "",
          "type": "uint256"
        }
      ],
      "name": "mobs",
      "outputs": [
        {
          "internalType": "uint256",
          "name": "id",
          "type": "uint256"
        },
        {
          "internalType": "string",
          "name": "name",
          "type": "string"
        },
        {
          "internalType": "enum GameStateManager.EnemyType",
          "name": "enemyType",
          "type": "uint8"
        },
        {
          "internalType": "uint256",
          "name": "health",
          "type": "uint256"
        },
        {
          "internalType": "uint256",
          "name": "attack",
          "type": "uint256"
        },
        {
          "internalType": "uint256",
          "name": "coinsDropped",
          "type": "uint256"
        },
        {
          "internalType": "uint256",
          "name": "expDropped",
          "type": "uint256"
        },
        {
          "internalType": "bool",
          "name": "exists",
          "type": "bool"
        },
        {
          "internalType": "bool",
          "name": "isDead",
          "type": "bool"
        }
      ],
      "stateMutability": "view",
      "type": "function"
    },
    {
      "inputs": [
        {
          "internalType": "uint256",
          "name": "",
          "type": "uint256"
        }
      ],
      "name": "playerAddresses",
      "outputs": [
        {
          "internalType": "address",
          "name": "",
          "type": "address"
        }
      ],
      "stateMutability": "view",
      "type": "function"
    },
    {
      "inputs": [
        {
          "internalType": "address",
          "name": "",
          "type": "address"
        },
        {
          "internalType": "uint256",
          "name": "",
          "type": "uint256"
        }
      ],
      "name": "playerItems",
      "outputs": [
        {
          "internalType": "uint256",
          "name": "",
          "type": "uint256"
        }
      ],
      "stateMutability": "view",
      "type": "function"
    },
    {
      "inputs": [
        {
          "internalType": "address",
          "name": "",
          "type": "address"
        }
      ],
      "name": "players",
      "outputs": [
        {
          "internalType": "uint256",
          "name": "stage",
          "type": "uint256"
        },
        {
          "internalType": "uint256",
          "name": "level",
          "type": "uint256"
        },
        {
          "internalType": "uint256",
          "name": "experience",
          "type": "uint256"
        },
        {
          "internalType": "uint256",
          "name": "health",
          "type": "uint256"
        },
        {
          "internalType": "uint256",
          "name": "coins",
          "type": "uint256"
        },
        {
          "internalType": "uint256",
          "name": "createdAt",
          "type": "uint256"
        },
        {
          "internalType": "bool",
          "name": "exists",
          "type": "bool"
        }
      ],
      "stateMutability": "view",
      "type": "function"
    },
    {
      "inputs": [
        {
          "internalType": "uint256",
          "name": "_itemId",
          "type": "uint256"
        }
      ],
      "name": "purchaseItem",
      "outputs": [],
      "stateMutability": "nonpayable",
      "type": "function"
    },
    {
      "inputs": [],
      "name": "stageCleared",
      "outputs": [],
      "stateMutability": "nonpayable",
      "type": "function"
    },
    {
      "inputs": [
        {
          "internalType": "uint256",
          "name": "",
          "type": "uint256"
        }
      ],
      "name": "storeItems",
      "outputs": [
        {
          "internalType": "uint256",
          "name": "id",
          "type": "uint256"
        },
        {
          "internalType": "string",
          "name": "name",
          "type": "string"
        },
        {
          "internalType": "string",
          "name": "description",
          "type": "string"
        },
        {
          "internalType": "uint256",
          "name": "price",
          "type": "uint256"
        },
        {
          "internalType": "string",
          "name": "image",
          "type": "string"
        },
        {
          "internalType": "bool",
          "name": "exists",
          "type": "bool"
        }
      ],
      "stateMutability": "view",
      "type": "function"
    },
    {
      "inputs": [
        {
          "internalType": "uint256",
          "name": "_newHealth",
          "type": "uint256"
        }
      ],
      "name": "updateHealth",
      "outputs": [],
      "stateMutability": "nonpayable",
      "type": "function"
    }
  ],
  "bytecode": "0x608060405234801561001057600080fd5b506040518060200160405280600081525060008082015181600001559050506100c660016040518060400160405280600e81526020017f457468657265756d2053776f72640000000000000000000000000000000000008152506040518060600160405280602e81526020016146b3602e913960646040518060400160405280600e81526020017f2f6574682d73776f72642e706e670000000000000000000000000000000000008152506103f860201b60201c565b61015d60026040518060400160405280600e81526020017f426974636f696e20536869656c640000000000000000000000000000000000008152506040518060600160405280602981526020016147066029913960966040518060400160405280600f81526020017f2f6274632d736869656c642e706e6700000000000000000000000000000000008152506103f860201b60201c565b6101f460036040518060400160405280600f81526020017f436861696e6c696e6b20426f6f747300000000000000000000000000000000008152506040518060600160405280602d815260200161472f602d9139600a6040518060400160405280600f81526020017f2f6c696e6b2d626f6f74732e706e6700000000000000000000000000000000008152506103f860201b60201c565b6102a860046040518060400160405280600e81526020017f506f6c6b61646f742041726d6f720000000000000000000000000000000000008152506040518060400160405280602081526020017f41726d6f72207468617420636f6e6e6563747320616e642070726f746563747381525060c86040518060400160405280600e81526020017f2f646f742d61726d6f722e706e670000000000000000000000000000000000008152506103f860201b60201c565b61035c60056040518060400160405280600b81526020017f43617264616e6f20426f770000000000000000000000000000000000000000008152506040518060400160405280601a81526020017f41207072656369736520616e6420706f77657266756c20626f7700000000000081525060786040518060400160405280600c81526020017f2f6164612d626f772e706e6700000000000000000000000000000000000000008152506103f860201b60201c565b6103f360066040518060400160405280600c81526020017f536f6c616e6120436c6f616b00000000000000000000000000000000000000008152506040518060600160405280602581526020016146e16025913960506040518060400160405280600e81526020017f2f736f6c2d636c6f616b2e706e670000000000000000000000000000000000008152506103f860201b60201c565b610a39565b6005600086815260200190815260200160002060050160009054906101000a900460ff161561045c576040517f08c379a0000000000000000000000000000000000000000000000000000000008152600401610453906105cd565b60405180910390fd5b6040518060c0016040528086815260200185815260200184815260200183815260200182815260200160011515815250600560008781526020019081526020016000206000820151816000015560208201518160010190816104be919061083d565b5060408201518160020190816104d4919061083d565b506060820151816003015560808201518160040190816104f4919061083d565b5060a08201518160050160006101000a81548160ff0219169083151502179055509050506006600081548092919061052b9061093e565b91905055507fdf23d688f8641641c72272cec9726d4c8db91ac0d0f47017f795b8bb53a445368585604051610561929190610a09565b60405180910390a15050505050565b600082825260208201905092915050565b7f4974656d20494420616c72656164792065786973747300000000000000000000600082015250565b60006105b7601683610570565b91506105c282610581565b602082019050919050565b600060208201905081810360008301526105e6816105aa565b9050919050565b600081519050919050565b7f4e487b7100000000000000000000000000000000000000000000000000000000600052604160045260246000fd5b7f4e487b7100000000000000000000000000000000000000000000000000000000600052602260045260246000fd5b6000600282049050600182168061066e57607f821691505b60208210810361068157610680610627565b5b50919050565b60008190508160005260206000209050919050565b60006020601f8301049050919050565b600082821b905092915050565b6000600883026106e97fffffffffffffffffffffffffffffffffffffffffffffffffffffffffffffffff826106ac565b6106f386836106ac565b95508019841693508086168417925050509392505050565b6000819050919050565b6000819050919050565b600061073a6107356107308461070b565b610715565b61070b565b9050919050565b6000819050919050565b6107548361071f565b61076861076082610741565b8484546106b9565b825550505050565b600090565b61077d610770565b61078881848461074b565b505050565b5b818110156107ac576107a1600082610775565b60018101905061078e565b5050565b601f8211156107f1576107c281610687565b6107cb8461069c565b810160208510156107da578190505b6107ee6107e68561069c565b83018261078d565b50505b505050565b600082821c905092915050565b6000610814600019846008026107f6565b1980831691505092915050565b600061082d8383610803565b9150826002028217905092915050565b610846826105ed565b67ffffffffffffffff81111561085f5761085e6105f8565b5b6108698254610656565b6108748282856107b0565b600060209050601f8311600181146108a75760008415610895578287015190505b61089f8582610821565b865550610907565b601f1984166108b586610687565b60005b828110156108dd578489015182556001820191506020850194506020810190506108b8565b868310156108fa57848901516108f6601f891682610803565b8355505b6001600288020188555050505b505050505050565b7f4e487b7100000000000000000000000000000000000000000000000000000000600052601160045260246000fd5b60006109498261070b565b91507fffffffffffffffffffffffffffffffffffffffffffffffffffffffffffffffff820361097b5761097a61090f565b5b600182019050919050565b61098f8161070b565b82525050565b60005b838110156109b3578082015181840152602081019050610998565b60008484015250505050565b6000601f19601f8301169050919050565b60006109db826105ed565b6109e58185610570565b93506109f5818560208601610995565b6109fe816109bf565b840191505092915050565b6000604082019050610a1e6000830185610986565b8181036020830152610a3081846109d0565b90509392505050565b613c6b80610a486000396000f3fe608060405234801561001057600080fd5b50600436106101735760003560e01c8063b7d0628b116100de578063d1df81df11610097578063d933a54011610071578063d933a5401461041b578063da4711b414610439578063e2eb41ff14610471578063ec8474e6146104a757610173565b8063d1df81df146103c3578063d1f9c24d146103e1578063d38ea5bf146103ff57610173565b8063b7d0628b146102ed578063ba816ac71461030b578063bc8ccc451461033b578063c37c355514610359578063c64118f514610375578063c6fb11b8146103a557610173565b80636bfb0d01116101305780636bfb0d011461022b5780637a7e4d81146102495780638d0b7269146102655780639976d22014610283578063b11f127b1461029f578063b4b5e6a9146102bd57610173565b806315c6aee2146101785780633fa9fcf8146101a857806343f2cdb2146101b25780634ea1ecf9146101e75780635bbee18c146101f15780636b6846ac14610221575b600080fd5b610192600480360381019061018d9190612678565b6104c5565b60405161019f91906126e6565b60405180910390f35b6101b0610504565b005b6101cc60048036038101906101c79190612678565b610740565b6040516101de969594939291906127bb565b60405180910390f35b6101ef610921565b005b61020b60048036038101906102069190612678565b610ae4565b60405161021891906129d5565b60405180910390f35b610229610caa565b005b610233610e25565b60405161024091906129f7565b60405180910390f35b610263600480360381019061025e9190612678565b610e2b565b005b61026d610f76565b60405161027a91906129f7565b60405180910390f35b61029d60048036038101906102989190612678565b611144565b005b6102a76112b1565b6040516102b491906129f7565b60405180910390f35b6102d760048036038101906102d29190612678565b61147e565b6040516102e49190612aa9565b60405180910390f35b6102f56116f3565b6040516103029190612ae7565b60405180910390f35b61032560048036038101906103209190612b2e565b611717565b60405161033291906129f7565b60405180910390f35b610343611748565b60405161035091906129f7565b60405180910390f35b610373600480360381019061036e9190612678565b611792565b005b61038f600480360381019061038a9190612b6e565b61191f565b60405161039c9190612c4a565b60405180910390f35b6103ad611a47565b6040516103ba91906129f7565b60405180910390f35b6103cb611c15565b6040516103d89190612cfa565b60405180910390f35b6103e9611d52565b6040516103f691906129f7565b60405180910390f35b61041960048036038101906104149190612678565b611d5e565b005b6104236120d3565b60405161043091906129f7565b60405180910390f35b610453600480360381019061044e9190612678565b6120d9565b60405161046899989796959493929190612d24565b60405180910390f35b61048b60048036038101906104869190612b6e565b6121d6565b60405161049e9796959493929190612db8565b60405180910390f35b6104af612225565b6040516104bc9190612f80565b60405180910390f35b600281815481106104d557600080fd5b906000526020600020016000915054906101000a900473ffffffffffffffffffffffffffffffffffffffff1681565b600160003373ffffffffffffffffffffffffffffffffffffffff1673ffffffffffffffffffffffffffffffffffffffff16815260200190815260200160002060060160009054906101000a900460ff1615610594576040517f08c379a000000000000000000000000000000000000000000000000000000000815260040161058b90612fee565b60405180910390fd5b6040518060e00160405280600181526020016001815260200160008152602001606481526020016000815260200142815260200160011515815250600160003373ffffffffffffffffffffffffffffffffffffffff1673ffffffffffffffffffffffffffffffffffffffff168152602001908152602001600020600082015181600001556020820151816001015560408201518160020155606082015181600301556080820151816004015560a0820151816005015560c08201518160060160006101000a81548160ff0219169083151502179055509050506000800160008154809291906106829061303d565b91905055506002339080600181540180825580915050600190039060005260206000200160009091909190916101000a81548173ffffffffffffffffffffffffffffffffffffffff021916908373ffffffffffffffffffffffffffffffffffffffff1602179055503373ffffffffffffffffffffffffffffffffffffffff167fdbd350b0fedfda470deaaf32f91e1578f2e0a1eca99a0f2c8435b6595dcfd294600180606460405161073693929190613105565b60405180910390a2565b60056020528060005260406000206000915090508060000154908060010180546107699061316b565b80601f01602080910402602001604051908101604052809291908181526020018280546107959061316b565b80156107e25780601f106107b7576101008083540402835291602001916107e2565b820191906000526020600020905b8154815290600101906020018083116107c557829003601f168201915b5050505050908060020180546107f79061316b565b80601f01602080910402602001604051908101604052809291908181526020018280546108239061316b565b80156108705780601f1061084557610100808354040283529160200191610870565b820191906000526020600020905b81548152906001019060200180831161085357829003601f168201915b50505050509080600301549080600401805461088b9061316b565b80601f01602080910402602001604051908101604052809291908181526020018280546108b79061316b565b80156109045780601f106108d957610100808354040283529160200191610904565b820191906000526020600020905b8154815290600101906020018083116108e757829003601f168201915b5050505050908060050160009054906101000a900460ff16905086565b33600160008273ffffffffffffffffffffffffffffffffffffffff1673ffffffffffffffffffffffffffffffffffffffff16815260200190815260200160002060060160009054906101000a900460ff166109b1576040517f08c379a00000000000000000000000000000000000000000000000000000000081526004016109a8906131e8565b60405180910390fd5b600160003373ffffffffffffffffffffffffffffffffffffffff1673ffffffffffffffffffffffffffffffffffffffff1681526020019081526020016000206001016000815480929190610a049061303d565b91905055506064600160003373ffffffffffffffffffffffffffffffffffffffff1673ffffffffffffffffffffffffffffffffffffffff168152602001908152602001600020600301819055503373ffffffffffffffffffffffffffffffffffffffff167f85223984c4720843b1b5aa66f09162e4d7494973839e9c8dbea375c91978d4f4600160003373ffffffffffffffffffffffffffffffffffffffff1673ffffffffffffffffffffffffffffffffffffffff16815260200190815260200160002060010154604051610ad991906129f7565b60405180910390a250565b610aec612551565b6003600083815260200190815260200160002060070160009054906101000a900460ff16610b4f576040517f08c379a0000000000000000000000000000000000000000000000000000000008152600401610b4690613254565b60405180910390fd5b600360008381526020019081526020016000206040518061012001604052908160008201548152602001600182018054610b889061316b565b80601f0160208091040260200160405190810160405280929190818152602001828054610bb49061316b565b8015610c015780601f10610bd657610100808354040283529160200191610c01565b820191906000526020600020905b815481529060010190602001808311610be457829003601f168201915b505050505081526020016002820160009054906101000a900460ff166002811115610c2f57610c2e61288a565b5b6002811115610c4157610c4061288a565b5b8152602001600382015481526020016004820154815260200160058201548152602001600682015481526020016007820160009054906101000a900460ff161515151581526020016007820160019054906101000a900460ff1615151515815250509050919050565b33600160008273ffffffffffffffffffffffffffffffffffffffff1673ffffffffffffffffffffffffffffffffffffffff16815260200190815260200160002060060160009054906101000a900460ff16610d3a576040517f08c379a0000000000000000000000000000000000000000000000000000000008152600401610d31906131e8565b60405180910390fd5b600160003373ffffffffffffffffffffffffffffffffffffffff1673ffffffffffffffffffffffffffffffffffffffff1681526020019081526020016000206000016000815480929190610d8d9061303d565b91905055503373ffffffffffffffffffffffffffffffffffffffff167fb90e2e9522b348da704b6ce77abde64428da1f2907a1706fb8d82cf83447e316600160003373ffffffffffffffffffffffffffffffffffffffff1673ffffffffffffffffffffffffffffffffffffffff16815260200190815260200160002060000154604051610e1a91906129f7565b60405180910390a250565b60065481565b6003600082815260200190815260200160002060070160009054906101000a900460ff16610e8e576040517f08c379a0000000000000000000000000000000000000000000000000000000008152600401610e8590613254565b60405180910390fd5b6003600082815260200190815260200160002060070160019054906101000a900460ff1615610ef2576040517f08c379a0000000000000000000000000000000000000000000000000000000008152600401610ee9906132c0565b60405180910390fd5b60016003600083815260200190815260200160002060070160016101000a81548160ff0219169083151502179055506003600082815260200190815260200160002060070160019054906101000a900460ff1615610f7357610f53816124d9565b610f726003600083815260200190815260200160002060060154611792565b5b50565b600060046000815480929190610f8b9061303d565b919050555060405180610120016040528060045481526020016040518060400160405280600681526020017f676f626c696e0000000000000000000000000000000000000000000000000000815250815260200160016002811115610ff357610ff261288a565b5b8152602001601e8152602001600f815260200160148152602001603c81526020016001151581526020016000151581525060036000600454815260200190815260200160002060008201518160000155602082015181600101908161105891906134b1565b5060408201518160020160006101000a81548160ff021916908360028111156110845761108361288a565b5b0217905550606082015181600301556080820151816004015560a0820151816005015560c0820151816006015560e08201518160070160006101000a81548160ff0219169083151502179055506101008201518160070160016101000a81548160ff0219169083151502179055509050506004547f9d349582ad64820490413cddcb008bb423a05fa7b839d10bf64452ad77be447b6001601e600f6014603c6040516111349594939291906136bb565b60405180910390a2600454905090565b33600160008273ffffffffffffffffffffffffffffffffffffffff1673ffffffffffffffffffffffffffffffffffffffff16815260200190815260200160002060060160009054906101000a900460ff166111d4576040517f08c379a00000000000000000000000000000000000000000000000000000000081526004016111cb906131e8565b60405180910390fd5b6064821115611218576040517f08c379a000000000000000000000000000000000000000000000000000000000815260040161120f9061376d565b60405180910390fd5b81600160003373ffffffffffffffffffffffffffffffffffffffff1673ffffffffffffffffffffffffffffffffffffffff168152602001908152602001600020600301819055503373ffffffffffffffffffffffffffffffffffffffff167f19a6c61462d6e1c7792cca1474187abbdfd347d8e3917fe14b8c3b9c3c020a99836040516112a591906129f7565b60405180910390a25050565b6000600460008154809291906112c69061303d565b919050555060405180610120016040528060045481526020016040518060400160405280600481526020017f626f737300000000000000000000000000000000000000000000000000000000815250815260200160028081111561132d5761132c61288a565b5b8152602001606481526020016019815260200160648152602001609681526020016001151581526020016000151581525060036000600454815260200190815260200160002060008201518160000155602082015181600101908161139291906134b1565b5060408201518160020160006101000a81548160ff021916908360028111156113be576113bd61288a565b5b0217905550606082015181600301556080820151816004015560a0820151816005015560c0820151816006015560e08201518160070160006101000a81548160ff0219169083151502179055506101008201518160070160016101000a81548160ff0219169083151502179055509050506004547f9d349582ad64820490413cddcb008bb423a05fa7b839d10bf64452ad77be447b6002606460196064609660405161146e95949392919061384f565b60405180910390a2600454905090565b6114866125b3565b6005600083815260200190815260200160002060050160009054906101000a900460ff166114e9576040517f08c379a00000000000000000000000000000000000000000000000000000000081526004016114e090613901565b60405180910390fd5b600560008381526020019081526020016000206040518060c0016040529081600082015481526020016001820180546115219061316b565b80601f016020809104026020016040519081016040528092919081815260200182805461154d9061316b565b801561159a5780601f1061156f5761010080835404028352916020019161159a565b820191906000526020600020905b81548152906001019060200180831161157d57829003601f168201915b505050505081526020016002820180546115b39061316b565b80601f01602080910402602001604051908101604052809291908181526020018280546115df9061316b565b801561162c5780601f106116015761010080835404028352916020019161162c565b820191906000526020600020905b81548152906001019060200180831161160f57829003601f168201915b505050505081526020016003820154815260200160048201805461164f9061316b565b80601f016020809104026020016040519081016040528092919081815260200182805461167b9061316b565b80156116c85780601f1061169d576101008083540402835291602001916116c8565b820191906000526020600020905b8154815290600101906020018083116116ab57829003601f168201915b505050505081526020016005820160009054906101000a900460ff1615151515815250509050919050565b6116fb6125eb565b6000604051806020016040529081600082015481525050905090565b6007602052816000526040600020818154811061173357600080fd5b90600052602060002001600091509150505481565b6000600160003373ffffffffffffffffffffffffffffffffffffffff1673ffffffffffffffffffffffffffffffffffffffff16815260200190815260200160002060040154905090565b33600160008273ffffffffffffffffffffffffffffffffffffffff1673ffffffffffffffffffffffffffffffffffffffff16815260200190815260200160002060060160009054906101000a900460ff16611822576040517f08c379a0000000000000000000000000000000000000000000000000000000008152600401611819906131e8565b60405180910390fd5b81600160003373ffffffffffffffffffffffffffffffffffffffff1673ffffffffffffffffffffffffffffffffffffffff16815260200190815260200160002060020160008282546118749190613921565b925050819055506064600160003373ffffffffffffffffffffffffffffffffffffffff1673ffffffffffffffffffffffffffffffffffffffff168152602001908152602001600020600101546118ca9190613955565b600160003373ffffffffffffffffffffffffffffffffffffffff1673ffffffffffffffffffffffffffffffffffffffff168152602001908152602001600020600201541061191b5761191a610921565b5b5050565b606081600160008273ffffffffffffffffffffffffffffffffffffffff1673ffffffffffffffffffffffffffffffffffffffff16815260200190815260200160002060060160009054906101000a900460ff166119b1576040517f08c379a00000000000000000000000000000000000000000000000000000000081526004016119a8906131e8565b60405180910390fd5b600760008473ffffffffffffffffffffffffffffffffffffffff1673ffffffffffffffffffffffffffffffffffffffff168152602001908152602001600020805480602002602001604051908101604052809291908181526020018280548015611a3a57602002820191906000526020600020905b815481526020019060010190808311611a26575b5050505050915050919050565b600060046000815480929190611a5c9061303d565b919050555060405180610120016040528060045481526020016040518060400160405280600581526020017f736c696d65000000000000000000000000000000000000000000000000000000815250815260200160006002811115611ac457611ac361288a565b5b8152602001600f8152602001600a8152602001600581526020016028815260200160011515815260200160001515815250600360006004548152602001908152602001600020600082015181600001556020820151816001019081611b2991906134b1565b5060408201518160020160006101000a81548160ff02191690836002811115611b5557611b5461288a565b5b0217905550606082015181600301556080820151816004015560a0820151816005015560c0820151816006015560e08201518160070160006101000a81548160ff0219169083151502179055506101008201518160070160016101000a81548160ff0219169083151502179055509050506004547f9d349582ad64820490413cddcb008bb423a05fa7b839d10bf64452ad77be447b6000600f600a60056028604051611c05959493929190613a94565b60405180910390a2600454905090565b611c1d6125fe565b600160003373ffffffffffffffffffffffffffffffffffffffff1673ffffffffffffffffffffffffffffffffffffffff16815260200190815260200160002060060160009054906101000a900460ff16611cac576040517f08c379a0000000000000000000000000000000000000000000000000000000008152600401611ca3906131e8565b60405180910390fd5b600160003373ffffffffffffffffffffffffffffffffffffffff1673ffffffffffffffffffffffffffffffffffffffff1681526020019081526020016000206040518060e00160405290816000820154815260200160018201548152602001600282015481526020016003820154815260200160048201548152602001600582015481526020016006820160009054906101000a900460ff161515151581525050905090565b60008060000154905081565b33600160008273ffffffffffffffffffffffffffffffffffffffff1673ffffffffffffffffffffffffffffffffffffffff16815260200190815260200160002060060160009054906101000a900460ff16611dee576040517f08c379a0000000000000000000000000000000000000000000000000000000008152600401611de5906131e8565b60405180910390fd5b6005600083815260200190815260200160002060050160009054906101000a900460ff16611e51576040517f08c379a0000000000000000000000000000000000000000000000000000000008152600401611e4890613901565b60405180910390fd5b6005600083815260200190815260200160002060030154600160003373ffffffffffffffffffffffffffffffffffffffff1673ffffffffffffffffffffffffffffffffffffffff168152602001908152602001600020600401541015611eec576040517f08c379a0000000000000000000000000000000000000000000000000000000008152600401611ee390613b46565b60405180910390fd5b6000600760003373ffffffffffffffffffffffffffffffffffffffff1673ffffffffffffffffffffffffffffffffffffffff168152602001908152602001600020905060005b8180549050811015611faa5783828281548110611f5257611f51613b66565b5b906000526020600020015403611f9d576040517f08c379a0000000000000000000000000000000000000000000000000000000008152600401611f9490613be1565b60405180910390fd5b8080600101915050611f32565b506005600084815260200190815260200160002060030154600160003373ffffffffffffffffffffffffffffffffffffffff1673ffffffffffffffffffffffffffffffffffffffff16815260200190815260200160002060040160008282546120139190613c01565b92505081905550600760003373ffffffffffffffffffffffffffffffffffffffff1673ffffffffffffffffffffffffffffffffffffffff1681526020019081526020016000208390806001815401808255809150506001900390600052602060002001600090919091909150553373ffffffffffffffffffffffffffffffffffffffff167f792fe07c0f3ce4ef42df79c4a2b07925168cddbaabf7a7ef1351f027a3760313846040516120c691906129f7565b60405180910390a2505050565b60045481565b60036020528060005260406000206000915090508060000154908060010180546121029061316b565b80601f016020809104026020016040519081016040528092919081815260200182805461212e9061316b565b801561217b5780601f106121505761010080835404028352916020019161217b565b820191906000526020600020905b81548152906001019060200180831161215e57829003601f168201915b5050505050908060020160009054906101000a900460ff16908060030154908060040154908060050154908060060154908060070160009054906101000a900460ff16908060070160019054906101000a900460ff16905089565b60016020528060005260406000206000915090508060000154908060010154908060020154908060030154908060040154908060050154908060060160009054906101000a900460ff16905087565b6060600060065467ffffffffffffffff811115612245576122446132e0565b5b60405190808252806020026020018201604052801561227e57816020015b61226b6125b3565b8152602001906001900390816122635790505b5090506000600190505b60065481116124d157600560008281526020019081526020016000206040518060c0016040529081600082015481526020016001820180546122c99061316b565b80601f01602080910402602001604051908101604052809291908181526020018280546122f59061316b565b80156123425780601f1061231757610100808354040283529160200191612342565b820191906000526020600020905b81548152906001019060200180831161232557829003601f168201915b5050505050815260200160028201805461235b9061316b565b80601f01602080910402602001604051908101604052809291908181526020018280546123879061316b565b80156123d45780601f106123a9576101008083540402835291602001916123d4565b820191906000526020600020905b8154815290600101906020018083116123b757829003601f168201915b50505050508152602001600382015481526020016004820180546123f79061316b565b80601f01602080910402602001604051908101604052809291908181526020018280546124239061316b565b80156124705780601f1061244557610100808354040283529160200191612470565b820191906000526020600020905b81548152906001019060200180831161245357829003601f168201915b505050505081526020016005820160009054906101000a900460ff161515151581525050826001836124a29190613c01565b815181106124b3576124b2613b66565b5b602002602001018190525080806124c99061303d565b915050612288565b508091505090565b60006003600083815260200190815260200160002060050154905080600160003373ffffffffffffffffffffffffffffffffffffffff1673ffffffffffffffffffffffffffffffffffffffff16815260200190815260200160002060040160008282546125469190613921565b925050819055505050565b60405180610120016040528060008152602001606081526020016000600281111561257f5761257e61288a565b5b8152602001600081526020016000815260200160008152602001600081526020016000151581526020016000151581525090565b6040518060c0016040528060008152602001606081526020016060815260200160008152602001606081526020016000151581525090565b6040518060200160405280600081525090565b6040518060e001604052806000815260200160008152602001600081526020016000815260200160008152602001600081526020016000151581525090565b600080fd5b6000819050919050565b61265581612642565b811461266057600080fd5b50565b6000813590506126728161264c565b92915050565b60006020828403121561268e5761268d61263d565b5b600061269c84828501612663565b91505092915050565b600073ffffffffffffffffffffffffffffffffffffffff82169050919050565b60006126d0826126a5565b9050919050565b6126e0816126c5565b82525050565b60006020820190506126fb60008301846126d7565b92915050565b61270a81612642565b82525050565b600081519050919050565b600082825260208201905092915050565b60005b8381101561274a57808201518184015260208101905061272f565b60008484015250505050565b6000601f19601f8301169050919050565b600061277282612710565b61277c818561271b565b935061278c81856020860161272c565b61279581612756565b840191505092915050565b60008115159050919050565b6127b5816127a0565b82525050565b600060c0820190506127d06000830189612701565b81810360208301526127e28188612767565b905081810360408301526127f68187612767565b90506128056060830186612701565b81810360808301526128178185612767565b905061282660a08301846127ac565b979650505050505050565b61283a81612642565b82525050565b600082825260208201905092915050565b600061285c82612710565b6128668185612840565b935061287681856020860161272c565b61287f81612756565b840191505092915050565b7f4e487b7100000000000000000000000000000000000000000000000000000000600052602160045260246000fd5b600381106128ca576128c961288a565b5b50565b60008190506128db826128b9565b919050565b60006128eb826128cd565b9050919050565b6128fb816128e0565b82525050565b61290a816127a0565b82525050565b6000610120830160008301516129296000860182612831565b50602083015184820360208601526129418282612851565b915050604083015161295660408601826128f2565b5060608301516129696060860182612831565b50608083015161297c6080860182612831565b5060a083015161298f60a0860182612831565b5060c08301516129a260c0860182612831565b5060e08301516129b560e0860182612901565b506101008301516129ca610100860182612901565b508091505092915050565b600060208201905081810360008301526129ef8184612910565b905092915050565b6000602082019050612a0c6000830184612701565b92915050565b600060c083016000830151612a2a6000860182612831565b5060208301518482036020860152612a428282612851565b91505060408301518482036040860152612a5c8282612851565b9150506060830151612a716060860182612831565b5060808301518482036080860152612a898282612851565b91505060a0830151612a9e60a0860182612901565b508091505092915050565b60006020820190508181036000830152612ac38184612a12565b905092915050565b602082016000820151612ae16000850182612831565b50505050565b6000602082019050612afc6000830184612acb565b92915050565b612b0b816126c5565b8114612b1657600080fd5b50565b600081359050612b2881612b02565b92915050565b60008060408385031215612b4557612b4461263d565b5b6000612b5385828601612b19565b9250506020612b6485828601612663565b9150509250929050565b600060208284031215612b8457612b8361263d565b5b6000612b9284828501612b19565b91505092915050565b600081519050919050565b600082825260208201905092915050565b6000819050602082019050919050565b6000612bd38383612831565b60208301905092915050565b6000602082019050919050565b6000612bf782612b9b565b612c018185612ba6565b9350612c0c83612bb7565b8060005b83811015612c3d578151612c248882612bc7565b9750612c2f83612bdf565b925050600181019050612c10565b5085935050505092915050565b60006020820190508181036000830152612c648184612bec565b905092915050565b60e082016000820151612c826000850182612831565b506020820151612c956020850182612831565b506040820151612ca86040850182612831565b506060820151612cbb6060850182612831565b506080820151612cce6080850182612831565b5060a0820151612ce160a0850182612831565b5060c0820151612cf460c0850182612901565b50505050565b600060e082019050612d0f6000830184612c6c565b92915050565b612d1e816128e0565b82525050565b600061012082019050612d3a600083018c612701565b8181036020830152612d4c818b612767565b9050612d5b604083018a612d15565b612d686060830189612701565b612d756080830188612701565b612d8260a0830187612701565b612d8f60c0830186612701565b612d9c60e08301856127ac565b612daa6101008301846127ac565b9a9950505050505050505050565b600060e082019050612dcd600083018a612701565b612dda6020830189612701565b612de76040830188612701565b612df46060830187612701565b612e016080830186612701565b612e0e60a0830185612701565b612e1b60c08301846127ac565b98975050505050505050565b600081519050919050565b600082825260208201905092915050565b6000819050602082019050919050565b600060c083016000830151612e6b6000860182612831565b5060208301518482036020860152612e838282612851565b91505060408301518482036040860152612e9d8282612851565b9150506060830151612eb26060860182612831565b5060808301518482036080860152612eca8282612851565b91505060a0830151612edf60a0860182612901565b508091505092915050565b6000612ef68383612e53565b905092915050565b6000602082019050919050565b6000612f1682612e27565b612f208185612e32565b935083602082028501612f3285612e43565b8060005b85811015612f6e5784840389528151612f4f8582612eea565b9450612f5a83612efe565b925060208a01995050600181019050612f36565b50829750879550505050505092915050565b60006020820190508181036000830152612f9a8184612f0b565b905092915050565b7f506c6179657220616c7265616479206578697374730000000000000000000000600082015250565b6000612fd860158361271b565b9150612fe382612fa2565b602082019050919050565b6000602082019050818103600083015261300781612fcb565b9050919050565b7f4e487b7100000000000000000000000000000000000000000000000000000000600052601160045260246000fd5b600061304882612642565b91507fffffffffffffffffffffffffffffffffffffffffffffffffffffffffffffffff820361307a5761307961300e565b5b600182019050919050565b6000819050919050565b6000819050919050565b60006130b46130af6130aa84613085565b61308f565b612642565b9050919050565b6130c481613099565b82525050565b6000819050919050565b60006130ef6130ea6130e5846130ca565b61308f565b612642565b9050919050565b6130ff816130d4565b82525050565b600060608201905061311a60008301866130bb565b61312760208301856130bb565b61313460408301846130f6565b949350505050565b7f4e487b7100000000000000000000000000000000000000000000000000000000600052602260045260246000fd5b6000600282049050600182168061318357607f821691505b6020821081036131965761319561313c565b5b50919050565b7f506c6179657220646f6573206e6f742065786973740000000000000000000000600082015250565b60006131d260158361271b565b91506131dd8261319c565b602082019050919050565b60006020820190508181036000830152613201816131c5565b9050919050565b7f4d6f6220646f6573206e6f742065786973740000000000000000000000000000600082015250565b600061323e60128361271b565b915061324982613208565b602082019050919050565b6000602082019050818103600083015261326d81613231565b9050919050565b7f4d6f6220697320616c7265616479206465616400000000000000000000000000600082015250565b60006132aa60138361271b565b91506132b582613274565b602082019050919050565b600060208201905081810360008301526132d98161329d565b9050919050565b7f4e487b7100000000000000000000000000000000000000000000000000000000600052604160045260246000fd5b60008190508160005260206000209050919050565b60006020601f8301049050919050565b600082821b905092915050565b6000600883026133717fffffffffffffffffffffffffffffffffffffffffffffffffffffffffffffffff82613334565b61337b8683613334565b95508019841693508086168417925050509392505050565b60006133ae6133a96133a484612642565b61308f565b612642565b9050919050565b6000819050919050565b6133c883613393565b6133dc6133d4826133b5565b848454613341565b825550505050565b600090565b6133f16133e4565b6133fc8184846133bf565b505050565b5b81811015613420576134156000826133e9565b600181019050613402565b5050565b601f821115613465576134368161330f565b61343f84613324565b8101602085101561344e578190505b61346261345a85613324565b830182613401565b50505b505050565b600082821c905092915050565b60006134886000198460080261346a565b1980831691505092915050565b60006134a18383613477565b9150826002028217905092915050565b6134ba82612710565b67ffffffffffffffff8111156134d3576134d26132e0565b5b6134dd825461316b565b6134e8828285613424565b600060209050601f83116001811461351b5760008415613509578287015190505b6135138582613495565b86555061357b565b601f1984166135298661330f565b60005b828110156135515784890151825560018201915060208501945060208101905061352c565b8683101561356e578489015161356a601f891682613477565b8355505b6001600288020188555050505b505050505050565b7f676f626c696e0000000000000000000000000000000000000000000000000000600082015250565b60006135b960068361271b565b91506135c482613583565b602082019050919050565b6000819050919050565b60006135f46135ef6135ea846135cf565b61308f565b612642565b9050919050565b613604816135d9565b82525050565b6000819050919050565b600061362f61362a6136258461360a565b61308f565b612642565b9050919050565b61363f81613614565b82525050565b6000819050919050565b600061366a61366561366084613645565b61308f565b612642565b9050919050565b61367a8161364f565b82525050565b6000819050919050565b60006136a56136a061369b84613680565b61308f565b612642565b9050919050565b6136b58161368a565b82525050565b600060c08201905081810360008301526136d4816135ac565b90506136e36020830188612d15565b6136f060408301876135fb565b6136fd6060830186613636565b61370a6080830185613671565b61371760a08301846136ac565b9695505050505050565b7f4865616c74682063616e6e6f7420657863656564203130300000000000000000600082015250565b600061375760188361271b565b915061376282613721565b602082019050919050565b600060208201905081810360008301526137868161374a565b9050919050565b7f626f737300000000000000000000000000000000000000000000000000000000600082015250565b60006137c360048361271b565b91506137ce8261378d565b602082019050919050565b6000819050919050565b60006137fe6137f96137f4846137d9565b61308f565b612642565b9050919050565b61380e816137e3565b82525050565b6000819050919050565b600061383961383461382f84613814565b61308f565b612642565b9050919050565b6138498161381e565b82525050565b600060c0820190508181036000830152613868816137b6565b90506138776020830188612d15565b61388460408301876130f6565b6138916060830186613805565b61389e60808301856130f6565b6138ab60a0830184613840565b9695505050505050565b7f4974656d20646f6573206e6f7420657869737400000000000000000000000000600082015250565b60006138eb60138361271b565b91506138f6826138b5565b602082019050919050565b6000602082019050818103600083015261391a816138de565b9050919050565b600061392c82612642565b915061393783612642565b925082820190508082111561394f5761394e61300e565b5b92915050565b600061396082612642565b915061396b83612642565b925082820261397981612642565b915082820484148315176139905761398f61300e565b5b5092915050565b7f736c696d65000000000000000000000000000000000000000000000000000000600082015250565b60006139cd60058361271b565b91506139d882613997565b602082019050919050565b6000819050919050565b6000613a08613a036139fe846139e3565b61308f565b612642565b9050919050565b613a18816139ed565b82525050565b6000819050919050565b6000613a43613a3e613a3984613a1e565b61308f565b612642565b9050919050565b613a5381613a28565b82525050565b6000819050919050565b6000613a7e613a79613a7484613a59565b61308f565b612642565b9050919050565b613a8e81613a63565b82525050565b600060c0820190508181036000830152613aad816139c0565b9050613abc6020830188612d15565b613ac96040830187613636565b613ad66060830186613a0f565b613ae36080830185613a4a565b613af060a0830184613a85565b9695505050505050565b7f4e6f7420656e6f75676820636f696e7300000000000000000000000000000000600082015250565b6000613b3060108361271b565b9150613b3b82613afa565b602082019050919050565b60006020820190508181036000830152613b5f81613b23565b9050919050565b7f4e487b7100000000000000000000000000000000000000000000000000000000600052603260045260246000fd5b7f4974656d20616c7265616479206f776e65640000000000000000000000000000600082015250565b6000613bcb60128361271b565b9150613bd682613b95565b602082019050919050565b60006020820190508181036000830152613bfa81613bbe565b9050919050565b6000613c0c82612642565b9150613c1783612642565b9250828203905081811115613c2f57613c2e61300e565b5b9291505056fea26469706673582212200c092e4122913ea4f3f33c29b4d08e6c5650eb01dfad285cb03df00ce0f9a30e64736f6c634300081c00334120706f77657266756c2073776f726420696e6675736564207769746820457468657265756d2773206d696768744120636c6f616b2074686174206772616e747320737465616c746820616e64207370656564416e20756e627265616b61626c6520736869656c6420666f726765642066726f6d20426974636f696e426f6f74732074686174206772616e7420696e6372656469626c6520737065656420616e64206167696c697479",
  "linkReferences": {},
  "deployedLinkReferences": {}
}