{
  "_format": "hh-sol-artifact-1",
  "contractName": "GameStateManager",
  "sourceName": "contracts/GameStateManager.sol",
  "abi": [
    {
      "inputs": [],
      "stateMutability": "nonpayable",
      "type": "constructor"
    },
    {
      "anonymous": false,
      "inputs": [
        {
          "indexed": false,
          "internalType": "uint256",
          "name": "itemId",
          "type": "uint256"
        },
        {
          "indexed": false,
          "internalType": "string",
          "name": "itemName",
          "type": "string"
        }
      ],
      "name": "ItemAddedToStore",
      "type": "event"
    },
    {
      "anonymous": false,
      "inputs": [
        {
          "indexed": true,
          "internalType": "address",
          "name": "playerAddress",
          "type": "address"
        },
        {
          "indexed": false,
          "internalType": "uint256",
          "name": "itemId",
          "type": "uint256"
        }
      ],
      "name": "ItemPurchased",
      "type": "event"
    },
    {
      "anonymous": false,
      "inputs": [
        {
          "indexed": true,
          "internalType": "uint256",
          "name": "mobId",
          "type": "uint256"
        },
        {
          "indexed": false,
          "internalType": "string",
          "name": "name",
          "type": "string"
        },
        {
          "indexed": false,
          "internalType": "enum GameStateManager.EnemyType",
          "name": "enemyType",
          "type": "uint8"
        },
        {
          "indexed": false,
          "internalType": "uint256",
          "name": "health",
          "type": "uint256"
        },
        {
          "indexed": false,
          "internalType": "uint256",
          "name": "attack",
          "type": "uint256"
        },
        {
          "indexed": false,
          "internalType": "uint256",
          "name": "coinsDropped",
          "type": "uint256"
        },
        {
          "indexed": false,
          "internalType": "uint256",
          "name": "expDropped",
          "type": "uint256"
        }
      ],
      "name": "MobCreated",
      "type": "event"
    },
    {
      "anonymous": false,
      "inputs": [
        {
          "indexed": true,
          "internalType": "address",
          "name": "playerAddress",
          "type": "address"
        },
        {
          "indexed": false,
          "internalType": "uint256",
          "name": "initialStage",
          "type": "uint256"
        },
        {
          "indexed": false,
          "internalType": "uint256",
          "name": "initialLevel",
          "type": "uint256"
        },
        {
          "indexed": false,
          "internalType": "uint256",
          "name": "initialHealth",
          "type": "uint256"
        }
      ],
      "name": "PlayerCreated",
      "type": "event"
    },
    {
      "anonymous": false,
      "inputs": [
        {
          "indexed": true,
          "internalType": "address",
          "name": "playerAddress",
          "type": "address"
        },
        {
          "indexed": false,
          "internalType": "uint256",
          "name": "newHealth",
          "type": "uint256"
        }
      ],
      "name": "PlayerHealthUpdated",
      "type": "event"
    },
    {
      "anonymous": false,
      "inputs": [
        {
          "indexed": true,
          "internalType": "address",
          "name": "playerAddress",
          "type": "address"
        },
        {
          "indexed": false,
          "internalType": "uint256",
          "name": "newLevel",
          "type": "uint256"
        }
      ],
      "name": "PlayerLeveledUp",
      "type": "event"
    },
    {
      "anonymous": false,
      "inputs": [
        {
          "indexed": true,
          "internalType": "address",
          "name": "playerAddresses",
          "type": "address"
        },
        {
          "indexed": false,
          "internalType": "uint256",
          "name": "newStage",
          "type": "uint256"
        }
      ],
      "name": "PlayerStageCleared",
      "type": "event"
    },
    {
      "inputs": [
        {
          "internalType": "uint256",
          "name": "_exp",
          "type": "uint256"
        }
      ],
      "name": "addExperience",
      "outputs": [],
      "stateMutability": "nonpayable",
      "type": "function"
    },
    {
      "inputs": [],
      "name": "createBoss",
      "outputs": [
        {
          "internalType": "uint256",
          "name": "",
          "type": "uint256"
        }
      ],
      "stateMutability": "nonpayable",
      "type": "function"
    },
    {
      "inputs": [],
      "name": "createGoblin",
      "outputs": [
        {
          "internalType": "uint256",
          "name": "",
          "type": "uint256"
        }
      ],
      "stateMutability": "nonpayable",
      "type": "function"
    },
    {
      "inputs": [],
      "name": "createPlayer",
      "outputs": [],
      "stateMutability": "nonpayable",
      "type": "function"
    },
    {
      "inputs": [],
      "name": "createSlime",
      "outputs": [
        {
          "internalType": "uint256",
          "name": "",
          "type": "uint256"
        }
      ],
      "stateMutability": "nonpayable",
      "type": "function"
    },
    {
      "inputs": [],
      "name": "gameState",
      "outputs": [
        {
          "internalType": "uint256",
          "name": "totalPlayers",
          "type": "uint256"
        }
      ],
      "stateMutability": "view",
      "type": "function"
    },
    {
      "inputs": [],
      "name": "getAllStoreItems",
      "outputs": [
        {
          "components": [
            {
              "internalType": "uint256",
              "name": "id",
              "type": "uint256"
            },
            {
              "internalType": "string",
              "name": "name",
              "type": "string"
            },
            {
              "internalType": "string",
              "name": "description",
              "type": "string"
            },
            {
              "internalType": "uint256",
              "name": "price",
              "type": "uint256"
            },
            {
              "internalType": "string",
              "name": "image",
              "type": "string"
            },
            {
              "internalType": "bool",
              "name": "exists",
              "type": "bool"
            }
          ],
          "internalType": "struct GameStateManager.Item[]",
          "name": "",
          "type": "tuple[]"
        }
      ],
      "stateMutability": "view",
      "type": "function"
    },
    {
      "inputs": [],
      "name": "getGameState",
      "outputs": [
        {
          "components": [
            {
              "internalType": "uint256",
              "name": "totalPlayers",
              "type": "uint256"
            }
          ],
          "internalType": "struct GameStateManager.GameState",
          "name": "",
          "type": "tuple"
        }
      ],
      "stateMutability": "view",
      "type": "function"
    },
    {
      "inputs": [
        {
          "internalType": "uint256",
          "name": "_mobId",
          "type": "uint256"
        }
      ],
      "name": "getMob",
      "outputs": [
        {
          "components": [
            {
              "internalType": "uint256",
              "name": "id",
              "type": "uint256"
            },
            {
              "internalType": "string",
              "name": "name",
              "type": "string"
            },
            {
              "internalType": "enum GameStateManager.EnemyType",
              "name": "enemyType",
              "type": "uint8"
            },
            {
              "internalType": "uint256",
              "name": "health",
              "type": "uint256"
            },
            {
              "internalType": "uint256",
              "name": "attack",
              "type": "uint256"
            },
            {
              "internalType": "uint256",
              "name": "coinsDropped",
              "type": "uint256"
            },
            {
              "internalType": "uint256",
              "name": "expDropped",
              "type": "uint256"
            },
            {
              "internalType": "bool",
              "name": "exists",
              "type": "bool"
            },
            {
              "internalType": "bool",
              "name": "isDead",
              "type": "bool"
            }
          ],
          "internalType": "struct GameStateManager.Mob",
          "name": "",
          "type": "tuple"
        }
      ],
      "stateMutability": "view",
      "type": "function"
    },
    {
      "inputs": [],
      "name": "getPlayerCoins",
      "outputs": [
        {
          "internalType": "uint256",
          "name": "",
          "type": "uint256"
        }
      ],
      "stateMutability": "view",
      "type": "function"
    },
    {
      "inputs": [],
      "name": "getPlayerInfo",
      "outputs": [
        {
          "components": [
            {
              "internalType": "uint256",
              "name": "stage",
              "type": "uint256"
            },
            {
              "internalType": "uint256",
              "name": "level",
              "type": "uint256"
            },
            {
              "internalType": "uint256",
              "name": "experience",
              "type": "uint256"
            },
            {
              "internalType": "uint256",
              "name": "health",
              "type": "uint256"
            },
            {
              "internalType": "uint256",
              "name": "coins",
              "type": "uint256"
            },
            {
              "internalType": "uint256",
              "name": "createdAt",
              "type": "uint256"
            },
            {
              "internalType": "bool",
              "name": "exists",
              "type": "bool"
            }
          ],
          "internalType": "struct GameStateManager.Player",
          "name": "",
          "type": "tuple"
        }
      ],
      "stateMutability": "view",
      "type": "function"
    },
    {
      "inputs": [
        {
          "internalType": "address",
          "name": "_playerAddress",
          "type": "address"
        }
      ],
      "name": "getPlayerItems",
      "outputs": [
        {
          "internalType": "bool[]",
          "name": "",
          "type": "bool[]"
        }
      ],
      "stateMutability": "view",
      "type": "function"
    },
    {
      "inputs": [
        {
          "internalType": "uint256",
          "name": "_itemId",
          "type": "uint256"
        }
      ],
      "name": "getStoreItem",
      "outputs": [
        {
          "components": [
            {
              "internalType": "uint256",
              "name": "id",
              "type": "uint256"
            },
            {
              "internalType": "string",
              "name": "name",
              "type": "string"
            },
            {
              "internalType": "string",
              "name": "description",
              "type": "string"
            },
            {
              "internalType": "uint256",
              "name": "price",
              "type": "uint256"
            },
            {
              "internalType": "string",
              "name": "image",
              "type": "string"
            },
            {
              "internalType": "bool",
              "name": "exists",
              "type": "bool"
            }
          ],
          "internalType": "struct GameStateManager.Item",
          "name": "",
          "type": "tuple"
        }
      ],
      "stateMutability": "view",
      "type": "function"
    },
    {
      "inputs": [],
      "name": "itemCount",
      "outputs": [
        {
          "internalType": "uint256",
          "name": "",
          "type": "uint256"
        }
      ],
      "stateMutability": "view",
      "type": "function"
    },
    {
      "inputs": [
        {
          "internalType": "uint256",
          "name": "_mobId",
          "type": "uint256"
        }
      ],
      "name": "killMob",
      "outputs": [],
      "stateMutability": "nonpayable",
      "type": "function"
    },
    {
      "inputs": [],
      "name": "levelUp",
      "outputs": [],
      "stateMutability": "nonpayable",
      "type": "function"
    },
    {
      "inputs": [],
      "name": "mobCount",
      "outputs": [
        {
          "internalType": "uint256",
          "name": "",
          "type": "uint256"
        }
      ],
      "stateMutability": "view",
      "type": "function"
    },
    {
      "inputs": [
        {
          "internalType": "uint256",
          "name": "",
          "type": "uint256"
        }
      ],
      "name": "mobs",
      "outputs": [
        {
          "internalType": "uint256",
          "name": "id",
          "type": "uint256"
        },
        {
          "internalType": "string",
          "name": "name",
          "type": "string"
        },
        {
          "internalType": "enum GameStateManager.EnemyType",
          "name": "enemyType",
          "type": "uint8"
        },
        {
          "internalType": "uint256",
          "name": "health",
          "type": "uint256"
        },
        {
          "internalType": "uint256",
          "name": "attack",
          "type": "uint256"
        },
        {
          "internalType": "uint256",
          "name": "coinsDropped",
          "type": "uint256"
        },
        {
          "internalType": "uint256",
          "name": "expDropped",
          "type": "uint256"
        },
        {
          "internalType": "bool",
          "name": "exists",
          "type": "bool"
        },
        {
          "internalType": "bool",
          "name": "isDead",
          "type": "bool"
        }
      ],
      "stateMutability": "view",
      "type": "function"
    },
    {
      "inputs": [
        {
          "internalType": "uint256",
          "name": "",
          "type": "uint256"
        }
      ],
      "name": "playerAddresses",
      "outputs": [
        {
          "internalType": "address",
          "name": "",
          "type": "address"
        }
      ],
      "stateMutability": "view",
      "type": "function"
    },
    {
      "inputs": [
        {
          "internalType": "address",
          "name": "",
          "type": "address"
        }
      ],
      "name": "playerCoins",
      "outputs": [
        {
          "internalType": "uint256",
          "name": "",
          "type": "uint256"
        }
      ],
      "stateMutability": "view",
      "type": "function"
    },
    {
      "inputs": [
        {
          "internalType": "address",
          "name": "",
          "type": "address"
        },
        {
          "internalType": "uint256",
          "name": "",
          "type": "uint256"
        }
      ],
      "name": "playerItems",
      "outputs": [
        {
          "internalType": "bool",
          "name": "",
          "type": "bool"
        }
      ],
      "stateMutability": "view",
      "type": "function"
    },
    {
      "inputs": [
        {
          "internalType": "address",
          "name": "",
          "type": "address"
        }
      ],
      "name": "players",
      "outputs": [
        {
          "internalType": "uint256",
          "name": "stage",
          "type": "uint256"
        },
        {
          "internalType": "uint256",
          "name": "level",
          "type": "uint256"
        },
        {
          "internalType": "uint256",
          "name": "experience",
          "type": "uint256"
        },
        {
          "internalType": "uint256",
          "name": "health",
          "type": "uint256"
        },
        {
          "internalType": "uint256",
          "name": "coins",
          "type": "uint256"
        },
        {
          "internalType": "uint256",
          "name": "createdAt",
          "type": "uint256"
        },
        {
          "internalType": "bool",
          "name": "exists",
          "type": "bool"
        }
      ],
      "stateMutability": "view",
      "type": "function"
    },
    {
      "inputs": [
        {
          "internalType": "uint256",
          "name": "_itemId",
          "type": "uint256"
        }
      ],
      "name": "purchaseItem",
      "outputs": [],
      "stateMutability": "nonpayable",
      "type": "function"
    },
    {
      "inputs": [],
      "name": "stageCleared",
      "outputs": [],
      "stateMutability": "nonpayable",
      "type": "function"
    },
    {
      "inputs": [
        {
          "internalType": "uint256",
          "name": "",
          "type": "uint256"
        }
      ],
      "name": "storeItems",
      "outputs": [
        {
          "internalType": "uint256",
          "name": "id",
          "type": "uint256"
        },
        {
          "internalType": "string",
          "name": "name",
          "type": "string"
        },
        {
          "internalType": "string",
          "name": "description",
          "type": "string"
        },
        {
          "internalType": "uint256",
          "name": "price",
          "type": "uint256"
        },
        {
          "internalType": "string",
          "name": "image",
          "type": "string"
        },
        {
          "internalType": "bool",
          "name": "exists",
          "type": "bool"
        }
      ],
      "stateMutability": "view",
      "type": "function"
    },
    {
      "inputs": [
        {
          "internalType": "uint256",
          "name": "_newHealth",
          "type": "uint256"
        }
      ],
      "name": "updateHealth",
      "outputs": [],
      "stateMutability": "nonpayable",
      "type": "function"
    }
  ],
  "bytecode": "0x608060405234801561001057600080fd5b506040518060200160405280600081525060008082015181600001559050506100c660016040518060400160405280600e81526020017f457468657265756d2053776f72640000000000000000000000000000000000008152506040518060600160405280602e8152602001614780602e913960646040518060400160405280600e81526020017f2f6574682d73776f72642e706e670000000000000000000000000000000000008152506103f860201b60201c565b61015d60026040518060400160405280600e81526020017f426974636f696e20536869656c640000000000000000000000000000000000008152506040518060600160405280602981526020016147d36029913960966040518060400160405280600f81526020017f2f6274632d736869656c642e706e6700000000000000000000000000000000008152506103f860201b60201c565b6101f460036040518060400160405280600f81526020017f436861696e6c696e6b20426f6f747300000000000000000000000000000000008152506040518060600160405280602d81526020016147fc602d9139600a6040518060400160405280600f81526020017f2f6c696e6b2d626f6f74732e706e6700000000000000000000000000000000008152506103f860201b60201c565b6102a860046040518060400160405280600e81526020017f506f6c6b61646f742041726d6f720000000000000000000000000000000000008152506040518060400160405280602081526020017f41726d6f72207468617420636f6e6e6563747320616e642070726f746563747381525060c86040518060400160405280600e81526020017f2f646f742d61726d6f722e706e670000000000000000000000000000000000008152506103f860201b60201c565b61035c60056040518060400160405280600b81526020017f43617264616e6f20426f770000000000000000000000000000000000000000008152506040518060400160405280601a81526020017f41207072656369736520616e6420706f77657266756c20626f7700000000000081525060786040518060400160405280600c81526020017f2f6164612d626f772e706e6700000000000000000000000000000000000000008152506103f860201b60201c565b6103f360066040518060400160405280600c81526020017f536f6c616e6120436c6f616b00000000000000000000000000000000000000008152506040518060600160405280602581526020016147ae6025913960506040518060400160405280600e81526020017f2f736f6c2d636c6f616b2e706e670000000000000000000000000000000000008152506103f860201b60201c565b610a39565b6006600086815260200190815260200160002060050160009054906101000a900460ff161561045c576040517f08c379a0000000000000000000000000000000000000000000000000000000008152600401610453906105cd565b60405180910390fd5b6040518060c0016040528086815260200185815260200184815260200183815260200182815260200160011515815250600660008781526020019081526020016000206000820151816000015560208201518160010190816104be919061083d565b5060408201518160020190816104d4919061083d565b506060820151816003015560808201518160040190816104f4919061083d565b5060a08201518160050160006101000a81548160ff0219169083151502179055509050506007600081548092919061052b9061093e565b91905055507fdf23d688f8641641c72272cec9726d4c8db91ac0d0f47017f795b8bb53a445368585604051610561929190610a09565b60405180910390a15050505050565b600082825260208201905092915050565b7f4974656d20494420616c72656164792065786973747300000000000000000000600082015250565b60006105b7601683610570565b91506105c282610581565b602082019050919050565b600060208201905081810360008301526105e6816105aa565b9050919050565b600081519050919050565b7f4e487b7100000000000000000000000000000000000000000000000000000000600052604160045260246000fd5b7f4e487b7100000000000000000000000000000000000000000000000000000000600052602260045260246000fd5b6000600282049050600182168061066e57607f821691505b60208210810361068157610680610627565b5b50919050565b60008190508160005260206000209050919050565b60006020601f8301049050919050565b600082821b905092915050565b6000600883026106e97fffffffffffffffffffffffffffffffffffffffffffffffffffffffffffffffff826106ac565b6106f386836106ac565b95508019841693508086168417925050509392505050565b6000819050919050565b6000819050919050565b600061073a6107356107308461070b565b610715565b61070b565b9050919050565b6000819050919050565b6107548361071f565b61076861076082610741565b8484546106b9565b825550505050565b600090565b61077d610770565b61078881848461074b565b505050565b5b818110156107ac576107a1600082610775565b60018101905061078e565b5050565b601f8211156107f1576107c281610687565b6107cb8461069c565b810160208510156107da578190505b6107ee6107e68561069c565b83018261078d565b50505b505050565b600082821c905092915050565b6000610814600019846008026107f6565b1980831691505092915050565b600061082d8383610803565b9150826002028217905092915050565b610846826105ed565b67ffffffffffffffff81111561085f5761085e6105f8565b5b6108698254610656565b6108748282856107b0565b600060209050601f8311600181146108a75760008415610895578287015190505b61089f8582610821565b865550610907565b601f1984166108b586610687565b60005b828110156108dd578489015182556001820191506020850194506020810190506108b8565b868310156108fa57848901516108f6601f891682610803565b8355505b6001600288020188555050505b505050505050565b7f4e487b7100000000000000000000000000000000000000000000000000000000600052601160045260246000fd5b60006109498261070b565b91507fffffffffffffffffffffffffffffffffffffffffffffffffffffffffffffffff820361097b5761097a61090f565b5b600182019050919050565b61098f8161070b565b82525050565b60005b838110156109b3578082015181840152602081019050610998565b60008484015250505050565b6000601f19601f8301169050919050565b60006109db826105ed565b6109e58185610570565b93506109f5818560208601610995565b6109fe816109bf565b840191505092915050565b6000604082019050610a1e6000830185610986565b8181036020830152610a3081846109d0565b90509392505050565b613d3880610a486000396000f3fe608060405234801561001057600080fd5b506004361061018e5760003560e01c8063b7d0628b116100de578063d1df81df11610097578063d933a54011610071578063d933a54014610466578063da4711b414610484578063e2eb41ff146104bc578063ec8474e6146104f25761018e565b8063d1df81df1461040e578063d1f9c24d1461042c578063d38ea5bf1461044a5761018e565b8063b7d0628b14610338578063ba816ac714610356578063bc8ccc4514610386578063c37c3555146103a4578063c64118f5146103c0578063c6fb11b8146103f05761018e565b80636b6846ac1161014b5780638d0b7269116101255780638d0b7269146102b05780639976d220146102ce578063b11f127b146102ea578063b4b5e6a9146103085761018e565b80636b6846ac1461026c5780636bfb0d01146102765780637a7e4d81146102945761018e565b806315c6aee21461019357806332f79bb9146101c35780633fa9fcf8146101f357806343f2cdb2146101fd5780634ea1ecf9146102325780635bbee18c1461023c575b600080fd5b6101ad60048036038101906101a8919061272a565b610510565b6040516101ba9190612798565b60405180910390f35b6101dd60048036038101906101d891906127df565b61054f565b6040516101ea919061281b565b60405180910390f35b6101fb610567565b005b6102176004803603810190610212919061272a565b6107a3565b604051610229969594939291906128e1565b60405180910390f35b61023a610984565b005b6102566004803603810190610251919061272a565b610b47565b6040516102639190612afb565b60405180910390f35b610274610d0d565b005b61027e610e88565b60405161028b919061281b565b60405180910390f35b6102ae60048036038101906102a9919061272a565b610e8e565b005b6102b8610fd9565b6040516102c5919061281b565b60405180910390f35b6102e860048036038101906102e3919061272a565b6111a7565b005b6102f2611314565b6040516102ff919061281b565b60405180910390f35b610322600480360381019061031d919061272a565b6114e1565b60405161032f9190612bb4565b60405180910390f35b610340611756565b60405161034d9190612bf2565b60405180910390f35b610370600480360381019061036b9190612c0d565b61177a565b60405161037d9190612c4d565b60405180910390f35b61038e6117a9565b60405161039b919061281b565b60405180910390f35b6103be60048036038101906103b9919061272a565b6117f0565b005b6103da60048036038101906103d591906127df565b61197d565b6040516103e79190612d17565b60405180910390f35b6103f8611b1b565b604051610405919061281b565b60405180910390f35b610416611ce9565b6040516104239190612dc7565b60405180910390f35b610434611e26565b604051610441919061281b565b60405180910390f35b610464600480360381019061045f919061272a565b611e32565b005b61046e612188565b60405161047b919061281b565b60405180910390f35b61049e6004803603810190610499919061272a565b61218e565b6040516104b399989796959493929190612df1565b60405180910390f35b6104d660048036038101906104d191906127df565b61228b565b6040516104e99796959493929190612e85565b60405180910390f35b6104fa6122da565b604051610507919061304d565b60405180910390f35b6003818154811061052057600080fd5b906000526020600020016000915054906101000a900473ffffffffffffffffffffffffffffffffffffffff1681565b60026020528060005260406000206000915090505481565b600160003373ffffffffffffffffffffffffffffffffffffffff1673ffffffffffffffffffffffffffffffffffffffff16815260200190815260200160002060060160009054906101000a900460ff16156105f7576040517f08c379a00000000000000000000000000000000000000000000000000000000081526004016105ee906130bb565b60405180910390fd5b6040518060e00160405280600181526020016001815260200160008152602001606481526020016000815260200142815260200160011515815250600160003373ffffffffffffffffffffffffffffffffffffffff1673ffffffffffffffffffffffffffffffffffffffff168152602001908152602001600020600082015181600001556020820151816001015560408201518160020155606082015181600301556080820151816004015560a0820151816005015560c08201518160060160006101000a81548160ff0219169083151502179055509050506000800160008154809291906106e59061310a565b91905055506003339080600181540180825580915050600190039060005260206000200160009091909190916101000a81548173ffffffffffffffffffffffffffffffffffffffff021916908373ffffffffffffffffffffffffffffffffffffffff1602179055503373ffffffffffffffffffffffffffffffffffffffff167fdbd350b0fedfda470deaaf32f91e1578f2e0a1eca99a0f2c8435b6595dcfd2946001806064604051610799939291906131d2565b60405180910390a2565b60066020528060005260406000206000915090508060000154908060010180546107cc90613238565b80601f01602080910402602001604051908101604052809291908181526020018280546107f890613238565b80156108455780601f1061081a57610100808354040283529160200191610845565b820191906000526020600020905b81548152906001019060200180831161082857829003601f168201915b50505050509080600201805461085a90613238565b80601f016020809104026020016040519081016040528092919081815260200182805461088690613238565b80156108d35780601f106108a8576101008083540402835291602001916108d3565b820191906000526020600020905b8154815290600101906020018083116108b657829003601f168201915b5050505050908060030154908060040180546108ee90613238565b80601f016020809104026020016040519081016040528092919081815260200182805461091a90613238565b80156109675780601f1061093c57610100808354040283529160200191610967565b820191906000526020600020905b81548152906001019060200180831161094a57829003601f168201915b5050505050908060050160009054906101000a900460ff16905086565b33600160008273ffffffffffffffffffffffffffffffffffffffff1673ffffffffffffffffffffffffffffffffffffffff16815260200190815260200160002060060160009054906101000a900460ff16610a14576040517f08c379a0000000000000000000000000000000000000000000000000000000008152600401610a0b906132b5565b60405180910390fd5b600160003373ffffffffffffffffffffffffffffffffffffffff1673ffffffffffffffffffffffffffffffffffffffff1681526020019081526020016000206001016000815480929190610a679061310a565b91905055506064600160003373ffffffffffffffffffffffffffffffffffffffff1673ffffffffffffffffffffffffffffffffffffffff168152602001908152602001600020600301819055503373ffffffffffffffffffffffffffffffffffffffff167f85223984c4720843b1b5aa66f09162e4d7494973839e9c8dbea375c91978d4f4600160003373ffffffffffffffffffffffffffffffffffffffff1673ffffffffffffffffffffffffffffffffffffffff16815260200190815260200160002060010154604051610b3c919061281b565b60405180910390a250565b610b4f612603565b6004600083815260200190815260200160002060070160009054906101000a900460ff16610bb2576040517f08c379a0000000000000000000000000000000000000000000000000000000008152600401610ba990613321565b60405180910390fd5b600460008381526020019081526020016000206040518061012001604052908160008201548152602001600182018054610beb90613238565b80601f0160208091040260200160405190810160405280929190818152602001828054610c1790613238565b8015610c645780601f10610c3957610100808354040283529160200191610c64565b820191906000526020600020905b815481529060010190602001808311610c4757829003601f168201915b505050505081526020016002820160009054906101000a900460ff166002811115610c9257610c916129b0565b5b6002811115610ca457610ca36129b0565b5b8152602001600382015481526020016004820154815260200160058201548152602001600682015481526020016007820160009054906101000a900460ff161515151581526020016007820160019054906101000a900460ff1615151515815250509050919050565b33600160008273ffffffffffffffffffffffffffffffffffffffff1673ffffffffffffffffffffffffffffffffffffffff16815260200190815260200160002060060160009054906101000a900460ff16610d9d576040517f08c379a0000000000000000000000000000000000000000000000000000000008152600401610d94906132b5565b60405180910390fd5b600160003373ffffffffffffffffffffffffffffffffffffffff1673ffffffffffffffffffffffffffffffffffffffff1681526020019081526020016000206000016000815480929190610df09061310a565b91905055503373ffffffffffffffffffffffffffffffffffffffff167fb90e2e9522b348da704b6ce77abde64428da1f2907a1706fb8d82cf83447e316600160003373ffffffffffffffffffffffffffffffffffffffff1673ffffffffffffffffffffffffffffffffffffffff16815260200190815260200160002060000154604051610e7d919061281b565b60405180910390a250565b60075481565b6004600082815260200190815260200160002060070160009054906101000a900460ff16610ef1576040517f08c379a0000000000000000000000000000000000000000000000000000000008152600401610ee890613321565b60405180910390fd5b6004600082815260200190815260200160002060070160019054906101000a900460ff1615610f55576040517f08c379a0000000000000000000000000000000000000000000000000000000008152600401610f4c9061338d565b60405180910390fd5b60016004600083815260200190815260200160002060070160016101000a81548160ff0219169083151502179055506004600082815260200190815260200160002060070160019054906101000a900460ff1615610fd657610fb68161258e565b610fd560046000838152602001908152602001600020600601546117f0565b5b50565b600060056000815480929190610fee9061310a565b919050555060405180610120016040528060055481526020016040518060400160405280600d81526020017f466f7265737420476f626c696e00000000000000000000000000000000000000815250815260200160016002811115611056576110556129b0565b5b8152602001601e8152602001600f815260200160148152602001603c8152602001600115158152602001600015158152506004600060055481526020019081526020016000206000820151816000015560208201518160010190816110bb919061357e565b5060408201518160020160006101000a81548160ff021916908360028111156110e7576110e66129b0565b5b0217905550606082015181600301556080820151816004015560a0820151816005015560c0820151816006015560e08201518160070160006101000a81548160ff0219169083151502179055506101008201518160070160016101000a81548160ff0219169083151502179055509050506005547f9d349582ad64820490413cddcb008bb423a05fa7b839d10bf64452ad77be447b6001601e600f6014603c604051611197959493929190613788565b60405180910390a2600554905090565b33600160008273ffffffffffffffffffffffffffffffffffffffff1673ffffffffffffffffffffffffffffffffffffffff16815260200190815260200160002060060160009054906101000a900460ff16611237576040517f08c379a000000000000000000000000000000000000000000000000000000000815260040161122e906132b5565b60405180910390fd5b606482111561127b576040517f08c379a00000000000000000000000000000000000000000000000000000000081526004016112729061383a565b60405180910390fd5b81600160003373ffffffffffffffffffffffffffffffffffffffff1673ffffffffffffffffffffffffffffffffffffffff168152602001908152602001600020600301819055503373ffffffffffffffffffffffffffffffffffffffff167f19a6c61462d6e1c7792cca1474187abbdfd347d8e3917fe14b8c3b9c3c020a9983604051611308919061281b565b60405180910390a25050565b6000600560008154809291906113299061310a565b919050555060405180610120016040528060055481526020016040518060400160405280601481526020017f436861696e76657273652044657374726f79657200000000000000000000000081525081526020016002808111156113905761138f6129b0565b5b815260200160648152602001601981526020016064815260200160968152602001600115158152602001600015158152506004600060055481526020019081526020016000206000820151816000015560208201518160010190816113f5919061357e565b5060408201518160020160006101000a81548160ff02191690836002811115611421576114206129b0565b5b0217905550606082015181600301556080820151816004015560a0820151816005015560c0820151816006015560e08201518160070160006101000a81548160ff0219169083151502179055506101008201518160070160016101000a81548160ff0219169083151502179055509050506005547f9d349582ad64820490413cddcb008bb423a05fa7b839d10bf64452ad77be447b600260646019606460966040516114d195949392919061391c565b60405180910390a2600554905090565b6114e9612665565b6006600083815260200190815260200160002060050160009054906101000a900460ff1661154c576040517f08c379a0000000000000000000000000000000000000000000000000000000008152600401611543906139ce565b60405180910390fd5b600660008381526020019081526020016000206040518060c00160405290816000820154815260200160018201805461158490613238565b80601f01602080910402602001604051908101604052809291908181526020018280546115b090613238565b80156115fd5780601f106115d2576101008083540402835291602001916115fd565b820191906000526020600020905b8154815290600101906020018083116115e057829003601f168201915b5050505050815260200160028201805461161690613238565b80601f016020809104026020016040519081016040528092919081815260200182805461164290613238565b801561168f5780601f106116645761010080835404028352916020019161168f565b820191906000526020600020905b81548152906001019060200180831161167257829003601f168201915b50505050508152602001600382015481526020016004820180546116b290613238565b80601f01602080910402602001604051908101604052809291908181526020018280546116de90613238565b801561172b5780601f106117005761010080835404028352916020019161172b565b820191906000526020600020905b81548152906001019060200180831161170e57829003601f168201915b505050505081526020016005820160009054906101000a900460ff1615151515815250509050919050565b61175e61269d565b6000604051806020016040529081600082015481525050905090565b60086020528160005260406000206020528060005260406000206000915091509054906101000a900460ff1681565b6000600260003373ffffffffffffffffffffffffffffffffffffffff1673ffffffffffffffffffffffffffffffffffffffff16815260200190815260200160002054905090565b33600160008273ffffffffffffffffffffffffffffffffffffffff1673ffffffffffffffffffffffffffffffffffffffff16815260200190815260200160002060060160009054906101000a900460ff16611880576040517f08c379a0000000000000000000000000000000000000000000000000000000008152600401611877906132b5565b60405180910390fd5b81600160003373ffffffffffffffffffffffffffffffffffffffff1673ffffffffffffffffffffffffffffffffffffffff16815260200190815260200160002060020160008282546118d291906139ee565b925050819055506064600160003373ffffffffffffffffffffffffffffffffffffffff1673ffffffffffffffffffffffffffffffffffffffff168152602001908152602001600020600101546119289190613a22565b600160003373ffffffffffffffffffffffffffffffffffffffff1673ffffffffffffffffffffffffffffffffffffffff168152602001908152602001600020600201541061197957611978610984565b5b5050565b606081600160008273ffffffffffffffffffffffffffffffffffffffff1673ffffffffffffffffffffffffffffffffffffffff16815260200190815260200160002060060160009054906101000a900460ff16611a0f576040517f08c379a0000000000000000000000000000000000000000000000000000000008152600401611a06906132b5565b60405180910390fd5b600060075467ffffffffffffffff811115611a2d57611a2c6133ad565b5b604051908082528060200260200182016040528015611a5b5781602001602082028036833780820191505090505b5090506000600190505b6007548111611b1057600860008673ffffffffffffffffffffffffffffffffffffffff1673ffffffffffffffffffffffffffffffffffffffff168152602001908152602001600020600082815260200190815260200160002060009054906101000a900460ff1682600183611ada9190613a64565b81518110611aeb57611aea613a98565b5b6020026020010190151590811515815250508080611b089061310a565b915050611a65565b508092505050919050565b600060056000815480929190611b309061310a565b919050555060405180610120016040528060055481526020016040518060400160405280600b81526020017f426173696320536c696d65000000000000000000000000000000000000000000815250815260200160006002811115611b9857611b976129b0565b5b8152602001600f8152602001600a8152602001600581526020016028815260200160011515815260200160001515815250600460006005548152602001908152602001600020600082015181600001556020820151816001019081611bfd919061357e565b5060408201518160020160006101000a81548160ff02191690836002811115611c2957611c286129b0565b5b0217905550606082015181600301556080820151816004015560a0820151816005015560c0820151816006015560e08201518160070160006101000a81548160ff0219169083151502179055506101008201518160070160016101000a81548160ff0219169083151502179055509050506005547f9d349582ad64820490413cddcb008bb423a05fa7b839d10bf64452ad77be447b6000600f600a60056028604051611cd9959493929190613bc4565b60405180910390a2600554905090565b611cf16126b0565b600160003373ffffffffffffffffffffffffffffffffffffffff1673ffffffffffffffffffffffffffffffffffffffff16815260200190815260200160002060060160009054906101000a900460ff16611d80576040517f08c379a0000000000000000000000000000000000000000000000000000000008152600401611d77906132b5565b60405180910390fd5b600160003373ffffffffffffffffffffffffffffffffffffffff1673ffffffffffffffffffffffffffffffffffffffff1681526020019081526020016000206040518060e00160405290816000820154815260200160018201548152602001600282015481526020016003820154815260200160048201548152602001600582015481526020016006820160009054906101000a900460ff161515151581525050905090565b60008060000154905081565b33600160008273ffffffffffffffffffffffffffffffffffffffff1673ffffffffffffffffffffffffffffffffffffffff16815260200190815260200160002060060160009054906101000a900460ff16611ec2576040517f08c379a0000000000000000000000000000000000000000000000000000000008152600401611eb9906132b5565b60405180910390fd5b6006600083815260200190815260200160002060050160009054906101000a900460ff16611f25576040517f08c379a0000000000000000000000000000000000000000000000000000000008152600401611f1c906139ce565b60405180910390fd5b600860003373ffffffffffffffffffffffffffffffffffffffff1673ffffffffffffffffffffffffffffffffffffffff168152602001908152602001600020600083815260200190815260200160002060009054906101000a900460ff1615611fc3576040517f08c379a0000000000000000000000000000000000000000000000000000000008152600401611fba90613c76565b60405180910390fd5b6006600083815260200190815260200160002060030154600160003373ffffffffffffffffffffffffffffffffffffffff1673ffffffffffffffffffffffffffffffffffffffff16815260200190815260200160002060040154101561205e576040517f08c379a000000000000000000000000000000000000000000000000000000000815260040161205590613ce2565b60405180910390fd5b6006600083815260200190815260200160002060030154600160003373ffffffffffffffffffffffffffffffffffffffff1673ffffffffffffffffffffffffffffffffffffffff16815260200190815260200160002060040160008282546120c69190613a64565b925050819055506001600860003373ffffffffffffffffffffffffffffffffffffffff1673ffffffffffffffffffffffffffffffffffffffff168152602001908152602001600020600084815260200190815260200160002060006101000a81548160ff0219169083151502179055503373ffffffffffffffffffffffffffffffffffffffff167f792fe07c0f3ce4ef42df79c4a2b07925168cddbaabf7a7ef1351f027a37603138360405161217c919061281b565b60405180910390a25050565b60055481565b60046020528060005260406000206000915090508060000154908060010180546121b790613238565b80601f01602080910402602001604051908101604052809291908181526020018280546121e390613238565b80156122305780601f1061220557610100808354040283529160200191612230565b820191906000526020600020905b81548152906001019060200180831161221357829003601f168201915b5050505050908060020160009054906101000a900460ff16908060030154908060040154908060050154908060060154908060070160009054906101000a900460ff16908060070160019054906101000a900460ff16905089565b60016020528060005260406000206000915090508060000154908060010154908060020154908060030154908060040154908060050154908060060160009054906101000a900460ff16905087565b6060600060075467ffffffffffffffff8111156122fa576122f96133ad565b5b60405190808252806020026020018201604052801561233357816020015b612320612665565b8152602001906001900390816123185790505b5090506000600190505b600754811161258657600660008281526020019081526020016000206040518060c00160405290816000820154815260200160018201805461237e90613238565b80601f01602080910402602001604051908101604052809291908181526020018280546123aa90613238565b80156123f75780601f106123cc576101008083540402835291602001916123f7565b820191906000526020600020905b8154815290600101906020018083116123da57829003601f168201915b5050505050815260200160028201805461241090613238565b80601f016020809104026020016040519081016040528092919081815260200182805461243c90613238565b80156124895780601f1061245e57610100808354040283529160200191612489565b820191906000526020600020905b81548152906001019060200180831161246c57829003601f168201915b50505050508152602001600382015481526020016004820180546124ac90613238565b80601f01602080910402602001604051908101604052809291908181526020018280546124d890613238565b80156125255780601f106124fa57610100808354040283529160200191612525565b820191906000526020600020905b81548152906001019060200180831161250857829003601f168201915b505050505081526020016005820160009054906101000a900460ff161515151581525050826001836125579190613a64565b8151811061256857612567613a98565b5b6020026020010181905250808061257e9061310a565b91505061233d565b508091505090565b60006004600083815260200190815260200160002060050154905080600260003373ffffffffffffffffffffffffffffffffffffffff1673ffffffffffffffffffffffffffffffffffffffff16815260200190815260200160002060008282546125f891906139ee565b925050819055505050565b604051806101200160405280600081526020016060815260200160006002811115612631576126306129b0565b5b8152602001600081526020016000815260200160008152602001600081526020016000151581526020016000151581525090565b6040518060c0016040528060008152602001606081526020016060815260200160008152602001606081526020016000151581525090565b6040518060200160405280600081525090565b6040518060e001604052806000815260200160008152602001600081526020016000815260200160008152602001600081526020016000151581525090565b600080fd5b6000819050919050565b612707816126f4565b811461271257600080fd5b50565b600081359050612724816126fe565b92915050565b6000602082840312156127405761273f6126ef565b5b600061274e84828501612715565b91505092915050565b600073ffffffffffffffffffffffffffffffffffffffff82169050919050565b600061278282612757565b9050919050565b61279281612777565b82525050565b60006020820190506127ad6000830184612789565b92915050565b6127bc81612777565b81146127c757600080fd5b50565b6000813590506127d9816127b3565b92915050565b6000602082840312156127f5576127f46126ef565b5b6000612803848285016127ca565b91505092915050565b612815816126f4565b82525050565b6000602082019050612830600083018461280c565b92915050565b600081519050919050565b600082825260208201905092915050565b60005b83811015612870578082015181840152602081019050612855565b60008484015250505050565b6000601f19601f8301169050919050565b600061289882612836565b6128a28185612841565b93506128b2818560208601612852565b6128bb8161287c565b840191505092915050565b60008115159050919050565b6128db816128c6565b82525050565b600060c0820190506128f6600083018961280c565b8181036020830152612908818861288d565b9050818103604083015261291c818761288d565b905061292b606083018661280c565b818103608083015261293d818561288d565b905061294c60a08301846128d2565b979650505050505050565b612960816126f4565b82525050565b600082825260208201905092915050565b600061298282612836565b61298c8185612966565b935061299c818560208601612852565b6129a58161287c565b840191505092915050565b7f4e487b7100000000000000000000000000000000000000000000000000000000600052602160045260246000fd5b600381106129f0576129ef6129b0565b5b50565b6000819050612a01826129df565b919050565b6000612a11826129f3565b9050919050565b612a2181612a06565b82525050565b612a30816128c6565b82525050565b600061012083016000830151612a4f6000860182612957565b5060208301518482036020860152612a678282612977565b9150506040830151612a7c6040860182612a18565b506060830151612a8f6060860182612957565b506080830151612aa26080860182612957565b5060a0830151612ab560a0860182612957565b5060c0830151612ac860c0860182612957565b5060e0830151612adb60e0860182612a27565b50610100830151612af0610100860182612a27565b508091505092915050565b60006020820190508181036000830152612b158184612a36565b905092915050565b600060c083016000830151612b356000860182612957565b5060208301518482036020860152612b4d8282612977565b91505060408301518482036040860152612b678282612977565b9150506060830151612b7c6060860182612957565b5060808301518482036080860152612b948282612977565b91505060a0830151612ba960a0860182612a27565b508091505092915050565b60006020820190508181036000830152612bce8184612b1d565b905092915050565b602082016000820151612bec6000850182612957565b50505050565b6000602082019050612c076000830184612bd6565b92915050565b60008060408385031215612c2457612c236126ef565b5b6000612c32858286016127ca565b9250506020612c4385828601612715565b9150509250929050565b6000602082019050612c6260008301846128d2565b92915050565b600081519050919050565b600082825260208201905092915050565b6000819050602082019050919050565b6000612ca08383612a27565b60208301905092915050565b6000602082019050919050565b6000612cc482612c68565b612cce8185612c73565b9350612cd983612c84565b8060005b83811015612d0a578151612cf18882612c94565b9750612cfc83612cac565b925050600181019050612cdd565b5085935050505092915050565b60006020820190508181036000830152612d318184612cb9565b905092915050565b60e082016000820151612d4f6000850182612957565b506020820151612d626020850182612957565b506040820151612d756040850182612957565b506060820151612d886060850182612957565b506080820151612d9b6080850182612957565b5060a0820151612dae60a0850182612957565b5060c0820151612dc160c0850182612a27565b50505050565b600060e082019050612ddc6000830184612d39565b92915050565b612deb81612a06565b82525050565b600061012082019050612e07600083018c61280c565b8181036020830152612e19818b61288d565b9050612e28604083018a612de2565b612e35606083018961280c565b612e42608083018861280c565b612e4f60a083018761280c565b612e5c60c083018661280c565b612e6960e08301856128d2565b612e776101008301846128d2565b9a9950505050505050505050565b600060e082019050612e9a600083018a61280c565b612ea7602083018961280c565b612eb4604083018861280c565b612ec1606083018761280c565b612ece608083018661280c565b612edb60a083018561280c565b612ee860c08301846128d2565b98975050505050505050565b600081519050919050565b600082825260208201905092915050565b6000819050602082019050919050565b600060c083016000830151612f386000860182612957565b5060208301518482036020860152612f508282612977565b91505060408301518482036040860152612f6a8282612977565b9150506060830151612f7f6060860182612957565b5060808301518482036080860152612f978282612977565b91505060a0830151612fac60a0860182612a27565b508091505092915050565b6000612fc38383612f20565b905092915050565b6000602082019050919050565b6000612fe382612ef4565b612fed8185612eff565b935083602082028501612fff85612f10565b8060005b8581101561303b578484038952815161301c8582612fb7565b945061302783612fcb565b925060208a01995050600181019050613003565b50829750879550505050505092915050565b600060208201905081810360008301526130678184612fd8565b905092915050565b7f506c6179657220616c7265616479206578697374730000000000000000000000600082015250565b60006130a5601583612841565b91506130b08261306f565b602082019050919050565b600060208201905081810360008301526130d481613098565b9050919050565b7f4e487b7100000000000000000000000000000000000000000000000000000000600052601160045260246000fd5b6000613115826126f4565b91507fffffffffffffffffffffffffffffffffffffffffffffffffffffffffffffffff8203613147576131466130db565b5b600182019050919050565b6000819050919050565b6000819050919050565b600061318161317c61317784613152565b61315c565b6126f4565b9050919050565b61319181613166565b82525050565b6000819050919050565b60006131bc6131b76131b284613197565b61315c565b6126f4565b9050919050565b6131cc816131a1565b82525050565b60006060820190506131e76000830186613188565b6131f46020830185613188565b61320160408301846131c3565b949350505050565b7f4e487b7100000000000000000000000000000000000000000000000000000000600052602260045260246000fd5b6000600282049050600182168061325057607f821691505b60208210810361326357613262613209565b5b50919050565b7f506c6179657220646f6573206e6f742065786973740000000000000000000000600082015250565b600061329f601583612841565b91506132aa82613269565b602082019050919050565b600060208201905081810360008301526132ce81613292565b9050919050565b7f4d6f6220646f6573206e6f742065786973740000000000000000000000000000600082015250565b600061330b601283612841565b9150613316826132d5565b602082019050919050565b6000602082019050818103600083015261333a816132fe565b9050919050565b7f4d6f6220697320616c7265616479206465616400000000000000000000000000600082015250565b6000613377601383612841565b915061338282613341565b602082019050919050565b600060208201905081810360008301526133a68161336a565b9050919050565b7f4e487b7100000000000000000000000000000000000000000000000000000000600052604160045260246000fd5b60008190508160005260206000209050919050565b60006020601f8301049050919050565b600082821b905092915050565b60006008830261343e7fffffffffffffffffffffffffffffffffffffffffffffffffffffffffffffffff82613401565b6134488683613401565b95508019841693508086168417925050509392505050565b600061347b613476613471846126f4565b61315c565b6126f4565b9050919050565b6000819050919050565b61349583613460565b6134a96134a182613482565b84845461340e565b825550505050565b600090565b6134be6134b1565b6134c981848461348c565b505050565b5b818110156134ed576134e26000826134b6565b6001810190506134cf565b5050565b601f82111561353257613503816133dc565b61350c846133f1565b8101602085101561351b578190505b61352f613527856133f1565b8301826134ce565b50505b505050565b600082821c905092915050565b600061355560001984600802613537565b1980831691505092915050565b600061356e8383613544565b9150826002028217905092915050565b61358782612836565b67ffffffffffffffff8111156135a05761359f6133ad565b5b6135aa8254613238565b6135b58282856134f1565b600060209050601f8311600181146135e857600084156135d6578287015190505b6135e08582613562565b865550613648565b601f1984166135f6866133dc565b60005b8281101561361e578489015182556001820191506020850194506020810190506135f9565b8683101561363b5784890151613637601f891682613544565b8355505b6001600288020188555050505b505050505050565b7f466f7265737420476f626c696e00000000000000000000000000000000000000600082015250565b6000613686600d83612841565b915061369182613650565b602082019050919050565b6000819050919050565b60006136c16136bc6136b78461369c565b61315c565b6126f4565b9050919050565b6136d1816136a6565b82525050565b6000819050919050565b60006136fc6136f76136f2846136d7565b61315c565b6126f4565b9050919050565b61370c816136e1565b82525050565b6000819050919050565b600061373761373261372d84613712565b61315c565b6126f4565b9050919050565b6137478161371c565b82525050565b6000819050919050565b600061377261376d6137688461374d565b61315c565b6126f4565b9050919050565b61378281613757565b82525050565b600060c08201905081810360008301526137a181613679565b90506137b06020830188612de2565b6137bd60408301876136c8565b6137ca6060830186613703565b6137d7608083018561373e565b6137e460a0830184613779565b9695505050505050565b7f4865616c74682063616e6e6f7420657863656564203130300000000000000000600082015250565b6000613824601883612841565b915061382f826137ee565b602082019050919050565b6000602082019050818103600083015261385381613817565b9050919050565b7f436861696e76657273652044657374726f796572000000000000000000000000600082015250565b6000613890601483612841565b915061389b8261385a565b602082019050919050565b6000819050919050565b60006138cb6138c66138c1846138a6565b61315c565b6126f4565b9050919050565b6138db816138b0565b82525050565b6000819050919050565b60006139066139016138fc846138e1565b61315c565b6126f4565b9050919050565b613916816138eb565b82525050565b600060c082019050818103600083015261393581613883565b90506139446020830188612de2565b61395160408301876131c3565b61395e60608301866138d2565b61396b60808301856131c3565b61397860a083018461390d565b9695505050505050565b7f4974656d20646f6573206e6f7420657869737400000000000000000000000000600082015250565b60006139b8601383612841565b91506139c382613982565b602082019050919050565b600060208201905081810360008301526139e7816139ab565b9050919050565b60006139f9826126f4565b9150613a04836126f4565b9250828201905080821115613a1c57613a1b6130db565b5b92915050565b6000613a2d826126f4565b9150613a38836126f4565b9250828202613a46816126f4565b91508282048414831517613a5d57613a5c6130db565b5b5092915050565b6000613a6f826126f4565b9150613a7a836126f4565b9250828203905081811115613a9257613a916130db565b5b92915050565b7f4e487b7100000000000000000000000000000000000000000000000000000000600052603260045260246000fd5b7f426173696320536c696d65000000000000000000000000000000000000000000600082015250565b6000613afd600b83612841565b9150613b0882613ac7565b602082019050919050565b6000819050919050565b6000613b38613b33613b2e84613b13565b61315c565b6126f4565b9050919050565b613b4881613b1d565b82525050565b6000819050919050565b6000613b73613b6e613b6984613b4e565b61315c565b6126f4565b9050919050565b613b8381613b58565b82525050565b6000819050919050565b6000613bae613ba9613ba484613b89565b61315c565b6126f4565b9050919050565b613bbe81613b93565b82525050565b600060c0820190508181036000830152613bdd81613af0565b9050613bec6020830188612de2565b613bf96040830187613703565b613c066060830186613b3f565b613c136080830185613b7a565b613c2060a0830184613bb5565b9695505050505050565b7f4974656d20616c7265616479206f776e65640000000000000000000000000000600082015250565b6000613c60601283612841565b9150613c6b82613c2a565b602082019050919050565b60006020820190508181036000830152613c8f81613c53565b9050919050565b7f4e6f7420656e6f75676820636f696e7300000000000000000000000000000000600082015250565b6000613ccc601083612841565b9150613cd782613c96565b602082019050919050565b60006020820190508181036000830152613cfb81613cbf565b905091905056fea2646970667358221220fbf372bafe4f480dedb92a20fd98d69a9dca5243adac794bd63f76f990c2b14b64736f6c634300081c00334120706f77657266756c2073776f726420696e6675736564207769746820457468657265756d2773206d696768744120636c6f616b2074686174206772616e747320737465616c746820616e64207370656564416e20756e627265616b61626c6520736869656c6420666f726765642066726f6d20426974636f696e426f6f74732074686174206772616e7420696e6372656469626c6520737065656420616e64206167696c697479",
  "linkReferences": {},
  "deployedLinkReferences": {}
}