{
  "_format": "hh-sol-artifact-1",
  "contractName": "GameStateManager",
  "sourceName": "contracts/GameStateManager.sol",
  "abi": [
    {
      "inputs": [],
      "stateMutability": "nonpayable",
      "type": "constructor"
    },
    {
      "anonymous": false,
      "inputs": [
        {
          "indexed": true,
          "internalType": "uint256",
          "name": "mobId",
          "type": "uint256"
        },
        {
          "indexed": false,
          "internalType": "string",
          "name": "name",
          "type": "string"
        },
        {
          "indexed": false,
          "internalType": "enum GameStateManager.EnemyType",
          "name": "enemyType",
          "type": "uint8"
        },
        {
          "indexed": false,
          "internalType": "uint256",
          "name": "health",
          "type": "uint256"
        },
        {
          "indexed": false,
          "internalType": "uint256",
          "name": "attack",
          "type": "uint256"
        },
        {
          "indexed": false,
          "internalType": "uint256",
          "name": "coinsDropped",
          "type": "uint256"
        }
      ],
      "name": "MobCreated",
      "type": "event"
    },
    {
      "anonymous": false,
      "inputs": [
        {
          "indexed": true,
          "internalType": "address",
          "name": "playerAddress",
          "type": "address"
        },
        {
          "indexed": false,
          "internalType": "uint256",
          "name": "initialStage",
          "type": "uint256"
        },
        {
          "indexed": false,
          "internalType": "uint256",
          "name": "initialLevel",
          "type": "uint256"
        },
        {
          "indexed": false,
          "internalType": "uint256",
          "name": "initialHealth",
          "type": "uint256"
        }
      ],
      "name": "PlayerCreated",
      "type": "event"
    },
    {
      "anonymous": false,
      "inputs": [
        {
          "indexed": true,
          "internalType": "address",
          "name": "playerAddress",
          "type": "address"
        },
        {
          "indexed": false,
          "internalType": "uint256",
          "name": "newHealth",
          "type": "uint256"
        }
      ],
      "name": "PlayerHealthUpdated",
      "type": "event"
    },
    {
      "anonymous": false,
      "inputs": [
        {
          "indexed": true,
          "internalType": "address",
          "name": "playerAddress",
          "type": "address"
        },
        {
          "indexed": false,
          "internalType": "uint256",
          "name": "newLevel",
          "type": "uint256"
        }
      ],
      "name": "PlayerLeveledUp",
      "type": "event"
    },
    {
      "anonymous": false,
      "inputs": [
        {
          "indexed": true,
          "internalType": "address",
          "name": "playerAddresses",
          "type": "address"
        },
        {
          "indexed": false,
          "internalType": "uint256",
          "name": "newStage",
          "type": "uint256"
        }
      ],
      "name": "PlayerStageCleared",
      "type": "event"
    },
    {
      "inputs": [
        {
          "internalType": "uint256",
          "name": "_exp",
          "type": "uint256"
        }
      ],
      "name": "addExperience",
      "outputs": [],
      "stateMutability": "nonpayable",
      "type": "function"
    },
    {
      "inputs": [],
      "name": "createBoss",
      "outputs": [
        {
          "internalType": "uint256",
          "name": "",
          "type": "uint256"
        }
      ],
      "stateMutability": "nonpayable",
      "type": "function"
    },
    {
      "inputs": [],
      "name": "createGoblin",
      "outputs": [
        {
          "internalType": "uint256",
          "name": "",
          "type": "uint256"
        }
      ],
      "stateMutability": "nonpayable",
      "type": "function"
    },
    {
      "inputs": [],
      "name": "createPlayer",
      "outputs": [],
      "stateMutability": "nonpayable",
      "type": "function"
    },
    {
      "inputs": [],
      "name": "createSlime",
      "outputs": [
        {
          "internalType": "uint256",
          "name": "",
          "type": "uint256"
        }
      ],
      "stateMutability": "nonpayable",
      "type": "function"
    },
    {
      "inputs": [],
      "name": "enemyCount",
      "outputs": [
        {
          "internalType": "uint256",
          "name": "",
          "type": "uint256"
        }
      ],
      "stateMutability": "view",
      "type": "function"
    },
    {
      "inputs": [],
      "name": "gameState",
      "outputs": [
        {
          "internalType": "uint256",
          "name": "totalPlayers",
          "type": "uint256"
        }
      ],
      "stateMutability": "view",
      "type": "function"
    },
    {
      "inputs": [],
      "name": "getGameState",
      "outputs": [
        {
          "components": [
            {
              "internalType": "uint256",
              "name": "totalPlayers",
              "type": "uint256"
            }
          ],
          "internalType": "struct GameStateManager.GameState",
          "name": "",
          "type": "tuple"
        }
      ],
      "stateMutability": "view",
      "type": "function"
    },
    {
      "inputs": [
        {
          "internalType": "uint256",
          "name": "_mobId",
          "type": "uint256"
        }
      ],
      "name": "getMob",
      "outputs": [
        {
          "components": [
            {
              "internalType": "uint256",
              "name": "id",
              "type": "uint256"
            },
            {
              "internalType": "string",
              "name": "name",
              "type": "string"
            },
            {
              "internalType": "enum GameStateManager.EnemyType",
              "name": "enemyType",
              "type": "uint8"
            },
            {
              "internalType": "uint256",
              "name": "health",
              "type": "uint256"
            },
            {
              "internalType": "uint256",
              "name": "attack",
              "type": "uint256"
            },
            {
              "internalType": "uint256",
              "name": "coinsDropped",
              "type": "uint256"
            },
            {
              "internalType": "bool",
              "name": "exists",
              "type": "bool"
            },
            {
              "internalType": "bool",
              "name": "isDead",
              "type": "bool"
            }
          ],
          "internalType": "struct GameStateManager.Mob",
          "name": "",
          "type": "tuple"
        }
      ],
      "stateMutability": "view",
      "type": "function"
    },
    {
      "inputs": [],
      "name": "getPlayerCoins",
      "outputs": [
        {
          "internalType": "uint256",
          "name": "",
          "type": "uint256"
        }
      ],
      "stateMutability": "view",
      "type": "function"
    },
    {
      "inputs": [],
      "name": "getPlayerInfo",
      "outputs": [
        {
          "components": [
            {
              "internalType": "uint256",
              "name": "stage",
              "type": "uint256"
            },
            {
              "internalType": "uint256",
              "name": "level",
              "type": "uint256"
            },
            {
              "internalType": "uint256",
              "name": "experience",
              "type": "uint256"
            },
            {
              "internalType": "uint256",
              "name": "health",
              "type": "uint256"
            },
            {
              "internalType": "uint256",
              "name": "coins",
              "type": "uint256"
            },
            {
              "internalType": "uint256",
              "name": "createdAt",
              "type": "uint256"
            },
            {
              "internalType": "bool",
              "name": "exists",
              "type": "bool"
            }
          ],
          "internalType": "struct GameStateManager.Player",
          "name": "",
          "type": "tuple"
        }
      ],
      "stateMutability": "view",
      "type": "function"
    },
    {
      "inputs": [],
      "name": "itemCount",
      "outputs": [
        {
          "internalType": "uint256",
          "name": "",
          "type": "uint256"
        }
      ],
      "stateMutability": "view",
      "type": "function"
    },
    {
      "inputs": [],
      "name": "levelUp",
      "outputs": [],
      "stateMutability": "nonpayable",
      "type": "function"
    },
    {
      "inputs": [],
      "name": "mobCount",
      "outputs": [
        {
          "internalType": "uint256",
          "name": "",
          "type": "uint256"
        }
      ],
      "stateMutability": "view",
      "type": "function"
    },
    {
      "inputs": [
        {
          "internalType": "uint256",
          "name": "",
          "type": "uint256"
        }
      ],
      "name": "mobs",
      "outputs": [
        {
          "internalType": "uint256",
          "name": "id",
          "type": "uint256"
        },
        {
          "internalType": "string",
          "name": "name",
          "type": "string"
        },
        {
          "internalType": "enum GameStateManager.EnemyType",
          "name": "enemyType",
          "type": "uint8"
        },
        {
          "internalType": "uint256",
          "name": "health",
          "type": "uint256"
        },
        {
          "internalType": "uint256",
          "name": "attack",
          "type": "uint256"
        },
        {
          "internalType": "uint256",
          "name": "coinsDropped",
          "type": "uint256"
        },
        {
          "internalType": "bool",
          "name": "exists",
          "type": "bool"
        },
        {
          "internalType": "bool",
          "name": "isDead",
          "type": "bool"
        }
      ],
      "stateMutability": "view",
      "type": "function"
    },
    {
      "inputs": [
        {
          "internalType": "uint256",
          "name": "",
          "type": "uint256"
        }
      ],
      "name": "playerAddresses",
      "outputs": [
        {
          "internalType": "address",
          "name": "",
          "type": "address"
        }
      ],
      "stateMutability": "view",
      "type": "function"
    },
    {
      "inputs": [
        {
          "internalType": "address",
          "name": "",
          "type": "address"
        }
      ],
      "name": "playerCoins",
      "outputs": [
        {
          "internalType": "uint256",
          "name": "",
          "type": "uint256"
        }
      ],
      "stateMutability": "view",
      "type": "function"
    },
    {
      "inputs": [
        {
          "internalType": "address",
          "name": "",
          "type": "address"
        }
      ],
      "name": "players",
      "outputs": [
        {
          "internalType": "uint256",
          "name": "stage",
          "type": "uint256"
        },
        {
          "internalType": "uint256",
          "name": "level",
          "type": "uint256"
        },
        {
          "internalType": "uint256",
          "name": "experience",
          "type": "uint256"
        },
        {
          "internalType": "uint256",
          "name": "health",
          "type": "uint256"
        },
        {
          "internalType": "uint256",
          "name": "coins",
          "type": "uint256"
        },
        {
          "internalType": "uint256",
          "name": "createdAt",
          "type": "uint256"
        },
        {
          "internalType": "bool",
          "name": "exists",
          "type": "bool"
        }
      ],
      "stateMutability": "view",
      "type": "function"
    },
    {
      "inputs": [],
      "name": "stageCleared",
      "outputs": [],
      "stateMutability": "nonpayable",
      "type": "function"
    },
    {
      "inputs": [
        {
          "internalType": "uint256",
          "name": "_newHealth",
          "type": "uint256"
        }
      ],
      "name": "updateHealth",
      "outputs": [],
      "stateMutability": "nonpayable",
      "type": "function"
    },
    {
      "inputs": [
        {
          "internalType": "uint256",
          "name": "_mobId",
          "type": "uint256"
        },
        {
          "internalType": "uint256",
          "name": "_damage",
          "type": "uint256"
        }
      ],
      "name": "updateMobHealth",
      "outputs": [],
      "stateMutability": "nonpayable",
      "type": "function"
    }
  ],
  "bytecode": "0x6080604052348015600f57600080fd5b506040518060200160405280600081525060008082015181600001559050506129908061003d6000396000f3fe608060405234801561001057600080fd5b50600436106101375760003560e01c8063b11f127b116100b8578063c7b53fcc1161007c578063c7b53fcc146102f2578063d1df81df14610310578063d1f9c24d1461032e578063d933a5401461034c578063da4711b41461036a578063e2eb41ff146103a157610137565b8063b11f127b1461025e578063b7d0628b1461027c578063bc8ccc451461029a578063c37c3555146102b8578063c6fb11b8146102d457610137565b806369511946116100ff57806369511946146101e05780636b6846ac146101fc5780636bfb0d01146102065780638d0b7269146102245780639976d2201461024257610137565b806315c6aee21461013c57806332f79bb91461016c5780633fa9fcf81461019c5780634ea1ecf9146101a65780635bbee18c146101b0575b600080fd5b6101566004803603810190610151919061198a565b6103d7565b60405161016391906119f8565b60405180910390f35b61018660048036038101906101819190611a3f565b610416565b6040516101939190611a7b565b60405180910390f35b6101a461042e565b005b6101ae61066a565b005b6101ca60048036038101906101c5919061198a565b61082d565b6040516101d79190611c77565b60405180910390f35b6101fa60048036038101906101f59190611c99565b6109e9565b005b610204610b82565b005b61020e610cfd565b60405161021b9190611a7b565b60405180910390f35b61022c610d03565b6040516102399190611a7b565b60405180910390f35b61025c6004803603810190610257919061198a565b610ebc565b005b610266611029565b6040516102739190611a7b565b60405180910390f35b6102846111e1565b6040516102919190611cf5565b60405180910390f35b6102a2611205565b6040516102af9190611a7b565b60405180910390f35b6102d260048036038101906102cd919061198a565b61124c565b005b6102dc6113d9565b6040516102e99190611a7b565b60405180910390f35b6102fa611592565b6040516103079190611a7b565b60405180910390f35b610318611598565b6040516103259190611d9e565b60405180910390f35b6103366116d5565b6040516103439190611a7b565b60405180910390f35b6103546116e1565b6040516103619190611a7b565b60405180910390f35b610384600480360381019061037f919061198a565b6116e7565b604051610398989796959493929190611e21565b60405180910390f35b6103bb60048036038101906103b69190611a3f565b6117de565b6040516103ce9796959493929190611ea6565b60405180910390f35b600381815481106103e757600080fd5b906000526020600020016000915054906101000a900473ffffffffffffffffffffffffffffffffffffffff1681565b60026020528060005260406000206000915090505481565b600160003373ffffffffffffffffffffffffffffffffffffffff1673ffffffffffffffffffffffffffffffffffffffff16815260200190815260200160002060060160009054906101000a900460ff16156104be576040517f08c379a00000000000000000000000000000000000000000000000000000000081526004016104b590611f61565b60405180910390fd5b6040518060e00160405280600181526020016001815260200160008152602001606481526020016000815260200142815260200160011515815250600160003373ffffffffffffffffffffffffffffffffffffffff1673ffffffffffffffffffffffffffffffffffffffff168152602001908152602001600020600082015181600001556020820151816001015560408201518160020155606082015181600301556080820151816004015560a0820151816005015560c08201518160060160006101000a81548160ff0219169083151502179055509050506000800160008154809291906105ac90611fb0565b91905055506003339080600181540180825580915050600190039060005260206000200160009091909190916101000a81548173ffffffffffffffffffffffffffffffffffffffff021916908373ffffffffffffffffffffffffffffffffffffffff1602179055503373ffffffffffffffffffffffffffffffffffffffff167fdbd350b0fedfda470deaaf32f91e1578f2e0a1eca99a0f2c8435b6595dcfd294600180606460405161066093929190612078565b60405180910390a2565b33600160008273ffffffffffffffffffffffffffffffffffffffff1673ffffffffffffffffffffffffffffffffffffffff16815260200190815260200160002060060160009054906101000a900460ff166106fa576040517f08c379a00000000000000000000000000000000000000000000000000000000081526004016106f1906120fb565b60405180910390fd5b600160003373ffffffffffffffffffffffffffffffffffffffff1673ffffffffffffffffffffffffffffffffffffffff168152602001908152602001600020600101600081548092919061074d90611fb0565b91905055506064600160003373ffffffffffffffffffffffffffffffffffffffff1673ffffffffffffffffffffffffffffffffffffffff168152602001908152602001600020600301819055503373ffffffffffffffffffffffffffffffffffffffff167f85223984c4720843b1b5aa66f09162e4d7494973839e9c8dbea375c91978d4f4600160003373ffffffffffffffffffffffffffffffffffffffff1673ffffffffffffffffffffffffffffffffffffffff168152602001908152602001600020600101546040516108229190611a7b565b60405180910390a250565b6108356118a2565b6004600083815260200190815260200160002060060160009054906101000a900460ff16610898576040517f08c379a000000000000000000000000000000000000000000000000000000000815260040161088f90612167565b60405180910390fd5b6004600083815260200190815260200160002060405180610100016040529081600082015481526020016001820180546108d1906121b6565b80601f01602080910402602001604051908101604052809291908181526020018280546108fd906121b6565b801561094a5780601f1061091f5761010080835404028352916020019161094a565b820191906000526020600020905b81548152906001019060200180831161092d57829003601f168201915b505050505081526020016002820160009054906101000a900460ff16600281111561097857610977611b35565b5b600281111561098a57610989611b35565b5b81526020016003820154815260200160048201548152602001600582015481526020016006820160009054906101000a900460ff161515151581526020016006820160019054906101000a900460ff1615151515815250509050919050565b6004600083815260200190815260200160002060060160009054906101000a900460ff16610a4c576040517f08c379a0000000000000000000000000000000000000000000000000000000008152600401610a4390612167565b60405180910390fd5b6004600083815260200190815260200160002060060160019054906101000a900460ff1615610ab0576040517f08c379a0000000000000000000000000000000000000000000000000000000008152600401610aa790612233565b60405180910390fd5b60046000838152602001908152602001600020600301548110610b1d576000600460008481526020019081526020016000206003018190555060016004600084815260200190815260200160002060060160016101000a81548160ff021916908315150217905550610b4b565b80600460008481526020019081526020016000206003016000828254610b439190612253565b925050819055505b6004600083815260200190815260200160002060060160019054906101000a900460ff1615610b7e57610b7d8261182d565b5b5050565b33600160008273ffffffffffffffffffffffffffffffffffffffff1673ffffffffffffffffffffffffffffffffffffffff16815260200190815260200160002060060160009054906101000a900460ff16610c12576040517f08c379a0000000000000000000000000000000000000000000000000000000008152600401610c09906120fb565b60405180910390fd5b600160003373ffffffffffffffffffffffffffffffffffffffff1673ffffffffffffffffffffffffffffffffffffffff1681526020019081526020016000206000016000815480929190610c6590611fb0565b91905055503373ffffffffffffffffffffffffffffffffffffffff167fb90e2e9522b348da704b6ce77abde64428da1f2907a1706fb8d82cf83447e316600160003373ffffffffffffffffffffffffffffffffffffffff1673ffffffffffffffffffffffffffffffffffffffff16815260200190815260200160002060000154604051610cf29190611a7b565b60405180910390a250565b60065481565b600060056000815480929190610d1890611fb0565b919050555060405180610100016040528060055481526020016040518060400160405280600d81526020017f466f7265737420476f626c696e00000000000000000000000000000000000000815250815260200160016002811115610d8057610d7f611b35565b5b8152602001601e8152602001600f8152602001600a815260200160011515815260200160001515815250600460006005548152602001908152602001600020600082015181600001556020820151816001019081610dde9190612458565b5060408201518160020160006101000a81548160ff02191690836002811115610e0a57610e09611b35565b5b0217905550606082015181600301556080820151816004015560a0820151816005015560c08201518160060160006101000a81548160ff02191690831515021790555060e08201518160060160016101000a81548160ff0219169083151502179055509050506005547fb581d10af1f82878347d9858345ccb4b89783663ba2cc79846e5ec87d7343de06001601e600f600a604051610eac9493929190612627565b60405180910390a2600554905090565b33600160008273ffffffffffffffffffffffffffffffffffffffff1673ffffffffffffffffffffffffffffffffffffffff16815260200190815260200160002060060160009054906101000a900460ff16610f4c576040517f08c379a0000000000000000000000000000000000000000000000000000000008152600401610f43906120fb565b60405180910390fd5b6064821115610f90576040517f08c379a0000000000000000000000000000000000000000000000000000000008152600401610f87906126cb565b60405180910390fd5b81600160003373ffffffffffffffffffffffffffffffffffffffff1673ffffffffffffffffffffffffffffffffffffffff168152602001908152602001600020600301819055503373ffffffffffffffffffffffffffffffffffffffff167f19a6c61462d6e1c7792cca1474187abbdfd347d8e3917fe14b8c3b9c3c020a998360405161101d9190611a7b565b60405180910390a25050565b60006005600081548092919061103e90611fb0565b919050555060405180610100016040528060055481526020016040518060400160405280601481526020017f436861696e76657273652044657374726f79657200000000000000000000000081525081526020016002808111156110a5576110a4611b35565b5b8152602001606481526020016019815260200160328152602001600115158152602001600015158152506004600060055481526020019081526020016000206000820151816000015560208201518160010190816111039190612458565b5060408201518160020160006101000a81548160ff0219169083600281111561112f5761112e611b35565b5b0217905550606082015181600301556080820151816004015560a0820151816005015560c08201518160060160006101000a81548160ff02191690831515021790555060e08201518160060160016101000a81548160ff0219169083151502179055509050506005547fb581d10af1f82878347d9858345ccb4b89783663ba2cc79846e5ec87d7343de060026064601960326040516111d194939291906127ad565b60405180910390a2600554905090565b6111e96118fd565b6000604051806020016040529081600082015481525050905090565b6000600260003373ffffffffffffffffffffffffffffffffffffffff1673ffffffffffffffffffffffffffffffffffffffff16815260200190815260200160002054905090565b33600160008273ffffffffffffffffffffffffffffffffffffffff1673ffffffffffffffffffffffffffffffffffffffff16815260200190815260200160002060060160009054906101000a900460ff166112dc576040517f08c379a00000000000000000000000000000000000000000000000000000000081526004016112d3906120fb565b60405180910390fd5b81600160003373ffffffffffffffffffffffffffffffffffffffff1673ffffffffffffffffffffffffffffffffffffffff168152602001908152602001600020600201600082825461132e9190612805565b925050819055506064600160003373ffffffffffffffffffffffffffffffffffffffff1673ffffffffffffffffffffffffffffffffffffffff168152602001908152602001600020600101546113849190612839565b600160003373ffffffffffffffffffffffffffffffffffffffff1673ffffffffffffffffffffffffffffffffffffffff16815260200190815260200160002060020154106113d5576113d461066a565b5b5050565b6000600560008154809291906113ee90611fb0565b919050555060405180610100016040528060055481526020016040518060400160405280600b81526020017f426173696320536c696d6500000000000000000000000000000000000000000081525081526020016000600281111561145657611455611b35565b5b8152602001600f8152602001600a815260200160058152602001600115158152602001600015158152506004600060055481526020019081526020016000206000820151816000015560208201518160010190816114b49190612458565b5060408201518160020160006101000a81548160ff021916908360028111156114e0576114df611b35565b5b0217905550606082015181600301556080820151816004015560a0820151816005015560c08201518160060160006101000a81548160ff02191690831515021790555060e08201518160060160016101000a81548160ff0219169083151502179055509050506005547fb581d10af1f82878347d9858345ccb4b89783663ba2cc79846e5ec87d7343de06000600f600a60056040516115829493929190612902565b60405180910390a2600554905090565b60075481565b6115a0611910565b600160003373ffffffffffffffffffffffffffffffffffffffff1673ffffffffffffffffffffffffffffffffffffffff16815260200190815260200160002060060160009054906101000a900460ff1661162f576040517f08c379a0000000000000000000000000000000000000000000000000000000008152600401611626906120fb565b60405180910390fd5b600160003373ffffffffffffffffffffffffffffffffffffffff1673ffffffffffffffffffffffffffffffffffffffff1681526020019081526020016000206040518060e00160405290816000820154815260200160018201548152602001600282015481526020016003820154815260200160048201548152602001600582015481526020016006820160009054906101000a900460ff161515151581525050905090565b60008060000154905081565b60055481565b6004602052806000526040600020600091509050806000015490806001018054611710906121b6565b80601f016020809104026020016040519081016040528092919081815260200182805461173c906121b6565b80156117895780601f1061175e57610100808354040283529160200191611789565b820191906000526020600020905b81548152906001019060200180831161176c57829003601f168201915b5050505050908060020160009054906101000a900460ff16908060030154908060040154908060050154908060060160009054906101000a900460ff16908060060160019054906101000a900460ff16905088565b60016020528060005260406000206000915090508060000154908060010154908060020154908060030154908060040154908060050154908060060160009054906101000a900460ff16905087565b60006004600083815260200190815260200160002060050154905080600260003373ffffffffffffffffffffffffffffffffffffffff1673ffffffffffffffffffffffffffffffffffffffff16815260200190815260200160002060008282546118979190612805565b925050819055505050565b6040518061010001604052806000815260200160608152602001600060028111156118d0576118cf611b35565b5b81526020016000815260200160008152602001600081526020016000151581526020016000151581525090565b6040518060200160405280600081525090565b6040518060e001604052806000815260200160008152602001600081526020016000815260200160008152602001600081526020016000151581525090565b600080fd5b6000819050919050565b61196781611954565b811461197257600080fd5b50565b6000813590506119848161195e565b92915050565b6000602082840312156119a05761199f61194f565b5b60006119ae84828501611975565b91505092915050565b600073ffffffffffffffffffffffffffffffffffffffff82169050919050565b60006119e2826119b7565b9050919050565b6119f2816119d7565b82525050565b6000602082019050611a0d60008301846119e9565b92915050565b611a1c816119d7565b8114611a2757600080fd5b50565b600081359050611a3981611a13565b92915050565b600060208284031215611a5557611a5461194f565b5b6000611a6384828501611a2a565b91505092915050565b611a7581611954565b82525050565b6000602082019050611a906000830184611a6c565b92915050565b611a9f81611954565b82525050565b600081519050919050565b600082825260208201905092915050565b60005b83811015611adf578082015181840152602081019050611ac4565b60008484015250505050565b6000601f19601f8301169050919050565b6000611b0782611aa5565b611b118185611ab0565b9350611b21818560208601611ac1565b611b2a81611aeb565b840191505092915050565b7f4e487b7100000000000000000000000000000000000000000000000000000000600052602160045260246000fd5b60038110611b7557611b74611b35565b5b50565b6000819050611b8682611b64565b919050565b6000611b9682611b78565b9050919050565b611ba681611b8b565b82525050565b60008115159050919050565b611bc181611bac565b82525050565b600061010083016000830151611be06000860182611a96565b5060208301518482036020860152611bf88282611afc565b9150506040830151611c0d6040860182611b9d565b506060830151611c206060860182611a96565b506080830151611c336080860182611a96565b5060a0830151611c4660a0860182611a96565b5060c0830151611c5960c0860182611bb8565b5060e0830151611c6c60e0860182611bb8565b508091505092915050565b60006020820190508181036000830152611c918184611bc7565b905092915050565b60008060408385031215611cb057611caf61194f565b5b6000611cbe85828601611975565b9250506020611ccf85828601611975565b9150509250929050565b602082016000820151611cef6000850182611a96565b50505050565b6000602082019050611d0a6000830184611cd9565b92915050565b60e082016000820151611d266000850182611a96565b506020820151611d396020850182611a96565b506040820151611d4c6040850182611a96565b506060820151611d5f6060850182611a96565b506080820151611d726080850182611a96565b5060a0820151611d8560a0850182611a96565b5060c0820151611d9860c0850182611bb8565b50505050565b600060e082019050611db36000830184611d10565b92915050565b600082825260208201905092915050565b6000611dd582611aa5565b611ddf8185611db9565b9350611def818560208601611ac1565b611df881611aeb565b840191505092915050565b611e0c81611b8b565b82525050565b611e1b81611bac565b82525050565b600061010082019050611e37600083018b611a6c565b8181036020830152611e49818a611dca565b9050611e586040830189611e03565b611e656060830188611a6c565b611e726080830187611a6c565b611e7f60a0830186611a6c565b611e8c60c0830185611e12565b611e9960e0830184611e12565b9998505050505050505050565b600060e082019050611ebb600083018a611a6c565b611ec86020830189611a6c565b611ed56040830188611a6c565b611ee26060830187611a6c565b611eef6080830186611a6c565b611efc60a0830185611a6c565b611f0960c0830184611e12565b98975050505050505050565b7f506c6179657220616c7265616479206578697374730000000000000000000000600082015250565b6000611f4b601583611db9565b9150611f5682611f15565b602082019050919050565b60006020820190508181036000830152611f7a81611f3e565b9050919050565b7f4e487b7100000000000000000000000000000000000000000000000000000000600052601160045260246000fd5b6000611fbb82611954565b91507fffffffffffffffffffffffffffffffffffffffffffffffffffffffffffffffff8203611fed57611fec611f81565b5b600182019050919050565b6000819050919050565b6000819050919050565b600061202761202261201d84611ff8565b612002565b611954565b9050919050565b6120378161200c565b82525050565b6000819050919050565b600061206261205d6120588461203d565b612002565b611954565b9050919050565b61207281612047565b82525050565b600060608201905061208d600083018661202e565b61209a602083018561202e565b6120a76040830184612069565b949350505050565b7f506c6179657220646f6573206e6f742065786973740000000000000000000000600082015250565b60006120e5601583611db9565b91506120f0826120af565b602082019050919050565b60006020820190508181036000830152612114816120d8565b9050919050565b7f4d6f6220646f6573206e6f742065786973740000000000000000000000000000600082015250565b6000612151601283611db9565b915061215c8261211b565b602082019050919050565b6000602082019050818103600083015261218081612144565b9050919050565b7f4e487b7100000000000000000000000000000000000000000000000000000000600052602260045260246000fd5b600060028204905060018216806121ce57607f821691505b6020821081036121e1576121e0612187565b5b50919050565b7f4d6f6220697320616c7265616479206465616400000000000000000000000000600082015250565b600061221d601383611db9565b9150612228826121e7565b602082019050919050565b6000602082019050818103600083015261224c81612210565b9050919050565b600061225e82611954565b915061226983611954565b925082820390508181111561228157612280611f81565b5b92915050565b7f4e487b7100000000000000000000000000000000000000000000000000000000600052604160045260246000fd5b60008190508160005260206000209050919050565b60006020601f8301049050919050565b600082821b905092915050565b6000600883026123187fffffffffffffffffffffffffffffffffffffffffffffffffffffffffffffffff826122db565b61232286836122db565b95508019841693508086168417925050509392505050565b600061235561235061234b84611954565b612002565b611954565b9050919050565b6000819050919050565b61236f8361233a565b61238361237b8261235c565b8484546122e8565b825550505050565b600090565b61239861238b565b6123a3818484612366565b505050565b5b818110156123c7576123bc600082612390565b6001810190506123a9565b5050565b601f82111561240c576123dd816122b6565b6123e6846122cb565b810160208510156123f5578190505b612409612401856122cb565b8301826123a8565b50505b505050565b600082821c905092915050565b600061242f60001984600802612411565b1980831691505092915050565b6000612448838361241e565b9150826002028217905092915050565b61246182611aa5565b67ffffffffffffffff81111561247a57612479612287565b5b61248482546121b6565b61248f8282856123cb565b600060209050601f8311600181146124c257600084156124b0578287015190505b6124ba858261243c565b865550612522565b601f1984166124d0866122b6565b60005b828110156124f8578489015182556001820191506020850194506020810190506124d3565b868310156125155784890151612511601f89168261241e565b8355505b6001600288020188555050505b505050505050565b7f466f7265737420476f626c696e00000000000000000000000000000000000000600082015250565b6000612560600d83611db9565b915061256b8261252a565b602082019050919050565b6000819050919050565b600061259b61259661259184612576565b612002565b611954565b9050919050565b6125ab81612580565b82525050565b6000819050919050565b60006125d66125d16125cc846125b1565b612002565b611954565b9050919050565b6125e6816125bb565b82525050565b6000819050919050565b600061261161260c612607846125ec565b612002565b611954565b9050919050565b612621816125f6565b82525050565b600060a082019050818103600083015261264081612553565b905061264f6020830187611e03565b61265c60408301866125a2565b61266960608301856125dd565b6126766080830184612618565b95945050505050565b7f4865616c74682063616e6e6f7420657863656564203130300000000000000000600082015250565b60006126b5601883611db9565b91506126c08261267f565b602082019050919050565b600060208201905081810360008301526126e4816126a8565b9050919050565b7f436861696e76657273652044657374726f796572000000000000000000000000600082015250565b6000612721601483611db9565b915061272c826126eb565b602082019050919050565b6000819050919050565b600061275c61275761275284612737565b612002565b611954565b9050919050565b61276c81612741565b82525050565b6000819050919050565b600061279761279261278d84612772565b612002565b611954565b9050919050565b6127a78161277c565b82525050565b600060a08201905081810360008301526127c681612714565b90506127d56020830187611e03565b6127e26040830186612069565b6127ef6060830185612763565b6127fc608083018461279e565b95945050505050565b600061281082611954565b915061281b83611954565b925082820190508082111561283357612832611f81565b5b92915050565b600061284482611954565b915061284f83611954565b925082820261285d81611954565b9150828204841483151761287457612873611f81565b5b5092915050565b7f426173696320536c696d65000000000000000000000000000000000000000000600082015250565b60006128b1600b83611db9565b91506128bc8261287b565b602082019050919050565b6000819050919050565b60006128ec6128e76128e2846128c7565b612002565b611954565b9050919050565b6128fc816128d1565b82525050565b600060a082019050818103600083015261291b816128a4565b905061292a6020830187611e03565b61293760408301866125dd565b6129446060830185612618565b61295160808301846128f3565b9594505050505056fea2646970667358221220a3f0cbb618c4968f9ff88727cb126e071ec9068aefa35718095376bb60895f3b64736f6c634300081c0033",
  "linkReferences": {},
  "deployedLinkReferences": {}
}